:101400008B31402BFF3FFF3F8A3120007F08A9002E
:10141000911E3C2A2200C508031D102A20001C1121
:1014200021009110003023001D1901302000AC0074
:101430002C0303191E2A23009D1C232A23001908AC
:101440002000AB002C2A210091102200C50A8B310C
:10145000A1238A312200B900220039080A3A03196F
:10146000342A20002C0B382A923100228A313C2A5F
:101470002200B501200062142700131D512A8B1190
:10148000111121000C152200B9012A30C1008B3145
:10149000A1238A312200B900B5012000621427007F
:1014A000131120009118E22AF02A23001D122100B6
:1014B000911223009D139D1722004408AC002000C8
:1014C000AA01632AAA0A5C08FF3EA700FF3003189E
:1014D0000030A800803A803C031D702A27082A02A9
:1014E00003188F2A2200AC0A20005C0822002C027C
:1014F0000318AC012C08203E86000130870001084B
:101500008F31CE278A312C08C40020008D1A622A20
:101510008B152700111520001C112100911001309E
:101520002200B20020009A019B00EE2A20005A08F7
:10153000203E86000130870001088F31CE278A3196
:1015400020005A082200C40020008D1AAF2A8B15F3
:101550002700111520001C1121009110EE2A2100F6
:101560008D1220008D1202302200B20020009C1447
:101570001C1422002E08223E20009B008B314223A7
:101580008A312200AD000C30F0002D088B3162232F
:101590008A31AE0020005C08F00022002D088B315B
:1015A00062238A312000DA00EE2A21008D168F3165
:1015B00001278A3120001C149C105F309B00220000
:1015C000B201EE2A22003208003A0319552A013AE4
:1015D0000319962A033A0319D52AEE2A20009110FE
:1015E000931C132B2200AA0A0319AB0A570B112BC9
:1015F000A60A0319A70A0030270211300319260290
:10160000031C112B0730A601A701C70A47020318C4
:101610000C2B01308E06112B0E100B3047020318D5
:10162000D701200093100B1D3C2B2200B40A200090
:10163000621C2D2B033022003502031C2D2B420887
:101640000319292B200061080319292BE10322002B
:10165000C201923100228A31322B2000621C322BCF
:101660002200B50A0A302200D30A5302031C3B2B86
:10167000D3017F30D2000B1120002908FF000900A0
:101680009231242A5B08F0000430F036890B452B98
:101690005B08F100F136F136F1365B08F200F23604
:1016A000F2367208710670065B06F3000130F3052E
:1016B0007308F0000730F035890B5B2B5B36700444
:1016C000DB000800F2000830F300F4017208F100BA
:1016D0000730F136890B692B74357104F400F2354B
:1016E00070087402031C762B7008F402F30B662B4F
:1016F000740808009431232C9431262C9431292C21
:1017000094312C2C9431322C9431382C94312F2C50
:101710009431352C00340334053407340134093452
:101720000B340D340F3411341334003423001908F2
:101730002200BD0065303D02031C06346430BD004C
:10174000063439088B3E8B310A008C311124080095
:101800008C318207022C032C042C052C062C072C6F
:10181000082C092C0A2C0B2C0C2C9D31742D943186
:10182000A32C8C318207132C8F31342F8C314F2C09
:101830008F31FA2F8F31232F8F31482F8B31962BF9
:101840008C31452C8C31A02C8E31CE2E8C31282C15
:1018500023001908FC007C0B3E2C22004308FF3AB1
:101860000319352C43089C268C312000D801220016
:1018700041082A3A03190A34BA014F2C22000630D3
:10188000BA0A3A0203180A34CE2E2300190822009D
:10189000BE003E0803194E2C1F30BE00A02C8F3115
:1018A000BB278C31EC3086002230870043310108A1
:1018B0009B3C2200D500043055020318622CF8012D
:1018C000F901692C5508F800FD30F901F807031CEF
:1018D000F9037808D5005508F7268C31FF30FA0156
:1018E0002200C0001F305502031C902CFB017B0816
:1018F0001D278C31B9268C313F3012278C31031DC6
:101900008B2C7B081D278C31B9268C314030122757
:101910008C310319FA0A0530FB0A7B02031C772C71
:101920002200C2017A082000610203189A2C610883
:10193000FA029B2CFA017A08F7268C310127013430
:10194000FF30C3002000A00122004608013ED40061
:10195000053054020318D4015408C6002230200078
:10196000A4003D30A30022005408F0002330F10110
:10197000F200F301B9268C3170082000A30771082A
:10198000A43D2200BB012000230886002408870014
:10199000413101085906031D192D2308860024082A
:1019A00087004231010B192D230886002408870087
:1019B000010822003E02031C192D20002308860086
:1019C00024088700010822003D02031C192D200075
:1019D000A1012308860024088700010821020318BA
:1019E0000F2D2108F600F7012307F8007708243DA2
:1019F000F900780886007908870044310108FA0068
:101A000058088C3EFB002330FC01FC3D7B0886001F
:101A10007C0887007A088100D80AA10AE92C2308EB
:101A200086002408870001082200BB005408C30078
:101A30001F2D20000530A00A2002031CA42C013019
:101A4000F6002000590A252DF635890B242D76083D
:101A5000220052050319B12D20005808083EF60057
:101A6000003003180130F700803AF8008030780227
:101A7000031D3D2D22003D0876020318B12D0130D3
:101A8000F6002000590A452DF635890B442D7608BD
:101A9000FF3A2200D205200058088C3EF600233081
:101AA000F701F73D7608860077088700013081004E
:101AB000D80A58088C3EF6002330F701F73D760827
:101AC00086007708870002308100D80A58088C3ECB
:101AD000F6002330F701F73D760886007708870087
:101AE00057088100D80A58088C3EF6002330F701C9
:101AF000F73D760886007708870056088100D80AE7
:101B000058088C3EF6002330F701F73D7608860032
:101B10007708870055088100D80A58088C3E86004F
:101B200023308701873D8101D80A58088C3EF60092
:101B30002330F701F73D76088600770887002200FA
:101B4000300881002000D80A58088C3EF600233067
:101B5000F701F73D7608860077088700013081009D
:101B6000D80A2000A20122085F02031C9B2E21300C
:101B7000A6006B30A5002208F0000730F101F2004A
:101B8000F301B9268C3170082000A5077108A63D25
:101B9000250886002608870046310108003A031907
:101BA000992E250886002608870001304531F60069
:101BB000590ADB2DF635890BDA2D76080105031954
:101BC000992E5808083EF600003003180130F7003F
:101BD000803A803C031DEF2D760822003D02031C55
:101BE0009B2E2000250886002608870001304531FD
:101BF000F600590AFC2DF635890BFB2D7608FF3AC5
:101C0000810558088C3EF6002330F701F73D760831
:101C100086007708870001308100D80A58088C3E7A
:101C2000F6002330F701F73D760886007708870035
:101C300002308100D80A250886002608870001089E
:101C4000FF39F60058088C3EF7002330F801F83DC4
:101C5000770886007808870076088100D80A25086A
:101C600086002608870041310108FF39F600580830
:101C70008C3EF7002330F801F83D7708860078089D
:101C8000870076088100D80A250886002608870084
:101C900042310108FF39F60058088C3EF700233026
:101CA000F801F83D770886007808870076088100FB
:101CB000D80A2508860026088700433101080F3915
:101CC000F60058088C3EF7002330F801F83D7708FD
:101CD00086007808870076088100D80A25088600E3
:101CE0002608870044310108FF39F60058088C3E69
:101CF000F7002330F801F83D770886007808870060
:101D000076088100D80A2508860026088700433116
:101D1000010D010D0139F60058088C3EF700233003
:101D2000F801F83D7708860078088700760881007A
:101D3000D80AA20AB32DCE2EF80005307802031877
:101D4000080078081D278C31B9268C313F300727D1
:101D50008C3178081D278C31B9268C31403007270B
:101D60008C3178081D278C31B9268C313D300727FE
:101D70000800F401F501701CC12E7208F407730805
:101D8000F53DF235F30DF136F00C71087004031DCA
:101D9000BB2E7508F1007408F00008008F31BB27D6
:101DA0008C3120005808F7268C3122003B08F7269A
:101DB0008C31F1012000580871020318F52E7108CA
:101DC0008C3E860023308701873D0108F7268C3141
:101DD0000A302200D6002200D6035608FF3A031923
:101DE000F32E0000EB2EF10ADA2E01270934F00061
:101DF0002000111EF82E700823009A009E1808007B
:101E0000FE2E23009E121D16210091160800F600DA
:101E10002230F7007008760786007108773D87004A
:101E200081010800F6002230F7007008760786006E
:101E30007108773D870001080800F0002330F101A8
:101E4000F200F3010800230019082200BF00BC08BB
:101E5000031D2B2F482F3F08031903342000E10AEC
:101E600001302200C200033438088C3EFA002330CF
:101E7000FB01FB3D7A0886007B08870023001908D8
:101E800081002200B80A38083C06031D0334482F9D
:101E9000BB278F3122003C080319792FEC30F0006A
:101EA0002230F10020005908F20088278F31EC30F1
:101EB000F0002230F10022004008F20088278F3124
:101EC000F90122003C087902EC30F0002230F100E8
:101ED0000318762F79088C3E860023308701873DD2
:101EE0000108F20088278F31F90A612FFF30F200D4
:101EF000882701308E31F7268F318F3101278F31BE
:101F0000220041082A3A031D0A340530BA010800AC
:101F1000C2278F310108F300F4017007F50074083F
:101F2000713DF6007508053EF7000030763DF8007B
:101F3000770886007808870072088100C2278F31F1
:101F4000C8278F3142317008840071088500013143
:101F50000008010270088600710887000318B62F78
:101F60004131810170088600710887004331C8271C
:101F700043310108080023001D12210091122300A3
:101F80009E1608007008860071088700413108001D
:101F9000810A70088600710887000800F10020009F
:101FA000D900711CD62F22000E17D82F22000E1335
:101FB0007108F000F036701CE02F22008E17E22F1F
:101FC00022008E137108F000F036F036701CEB2FF3
:101FD00022000E16080022000E12080064000130D4
:101FE00080010131FE020030FF3B7F087E040319AF
:101FF0000034EF2F230019082200BC000234FF3FF9
:1021D000FF3FBD002130BF006B30BE003D08F42141
:1021E0009631A82690312D08BE072E08BF3D5B21F1
:1021F000903101080F39BA0036083A02031C4F2902
:102200003E0886003F088700433101083606F03952
:10221000360681003708BA005B219031BA0E0108FA
:102220003A068F393A0681003E0886003F0887004B
:102230004431010838060039380681003E08053E61
:10224000BA0000303F3DBB003A0886003B088700DB
:102250007F3081006008053EBA000030031801306D
:10226000BB003E0886003F08870046313B08803AA5
:10227000803C031D3D293A08010203184F29200024
:102280006008053EBA003E08063EBB0000303F3DF8
:10229000BC003B0886003C0887003A08810020000B
:1022A0003908031959293E0886003F088700433141
:1022B00081173D0808003E0886003F08870043312B
:1022C0000800C600CF219031C700FF3A0319FF3440
:1022D0002130C9006B30C8004708F4219631A82688
:1022E00090312D08C8072E08C93D480886004908C6
:1022F00087000108460600394606FA21903141312F
:1023000001083D0600393D06FA21903142310108AD
:102310003E0600393E06FA219031433101083F065E
:10232000F0393F0681004008C3004808860049088C
:1023300087004331C30E010843068F394306FA2153
:10234000903144310108410600394106FA214331F8
:102350004208031D8117031981134808053EC30075
:102360000030493DC40043088600440887007F30A0
:1023700081006008053EC3004808063EC4000030E6
:10238000493DC50044088600450887004308810090
:10239000E00A47085F024708031CDF000800B50198
:1023A0003508F4219631A82690316B30B3002130E6
:1023B000B4002D08330786002E08343D87003630E0
:1023C0008400003085000730FF0016001A00FF0B64
:1023D000E5293C08031DEE29350808001E30B50A22
:1023E00035020318FF34D029AD000730AE01AF002D
:1023F000B0010800810048088600490887000800ED
:10240000200062102200C5011622923123001D1205
:1024100021009112F82220001C149C105F309B00B8
:1024200019309B002200B201B50108002000D8013C
:1024300022002B30BC01BD01BA01C1000530B9003A
:10244000FF30B801C00008006B30840021308500E7
:102450008530FE000230FF008F31EE27923155307B
:10246000FD01E2018400003085000D30FE000030E7
:10247000FF008F31EE27923120308400013085003B
:102480003730FE000030FF008F31EE2792312200FE
:102490000130D70020004C2A1830AD000030E12276
:1024A000923109302000D7001930AD000030E12210
:1024B000923108302000D6001A30AD000030E12201
:1024C000923107302000D5001C30AD000030E122F1
:1024D000923113082200AF00200057085506210052
:1024E000E700200056085507210067062000DB00A2
:1024F0001230210097001E2392312100E800703035
:10250000990031309800502392316D239231003080
:102510003D23923123001D122100911223009E12AF
:10252000EC302000AD002230AE0000239231EC30C0
:10253000AD002230AE000D30AF00762392310B306B
:102540002000AD0000302C2392313C239231210039
:1025500068080319B22A0030882392310030E8233A
:102560009231010064001B3021009700F822923163
:102570000B178B178B1720009C141C1437309B00F3
:102580002800950197141714171797161716971503
:102590004C3096001715210093142000950121005E
:1025A000951295111515951415148B1687239231D4
:1025B0002200D701D70AFF2392314F2392316400C2
:1025C000DB2AAE002D082300910020002E082300F6
:1025D000920015139517151400000000000000006C
:1025E000640023001518F12A6400230095130800E5
:1025F00020009A01FA309B001C152100911408005C
:102600002D0886002E08870081012D0886002E08DF
:102610008700413181012D08023EAF0000302E3D80
:10262000B0002F088600300887009A3081002D08FE
:1026300086002E088700433181010800B830200051
:10264000AD000030E122140813082000AF00333A37
:102650000030031901300800AE0085262D08220045
:10266000B30020002E082200B6002B30C100053038
:10267000B900FF30C000080008002000AD00462B64
:1026800022000E10080022000E1408002D08003A47
:102690000319402B013A0319432B4E2B0800C92F75
:1026A000FF308C008D0006308E0029309D009E1377
:1026B0001E179E161E129E101E1023008E11200043
:1026C0008E118E1223008D120C110E138E130E100C
:1026D00022000E138E130E12080023009D171E15E4
:1026E0009F1507309B009C011E120800DD0122008F
:1026F000CF01CB0120002E082200A90020002D08C8
:102700002200A80020002F082200C80008000800AE
:102710002000B100B830AD00AE019E239231200000
:102720003108B830AD003F30AE0003199B2B333079
:10273000AF000030C12B0030AF01C12B2D082300AA
:10274000910020002E0823009200151395171516EE
:102750001515B72392312300151164002300151AB3
:10276000AE2B6400230095139518B42B0800553048
:102770009600AA30960095140000000000000000AA
:102780000800B0002300951715151512151395169E
:1027900020002D0823009100200030082300920023
:1027A00020002F082300930020002E08230094000F
:1027B000B723923123009512B723923123001511CC
:1027C000640023009518E12B640023009513080092
:1027D0002000B100D030AD00AE019E239231200028
:1027E0003108D030AD003F30AE000319FB2B27304D
:1027F000AF000030C12B1130AF000030C12B64009E
:10280000222492316400083022003402031C0C2C74
:10281000A02792312200B401122492316400CA2709
:1028200064000800D708031D08000B303702031CA2
:1028300008000D303702031C202C0E10B7010800D1
:102840000E1408003D2C7D2492313D2C3D27923101
:102850003D2C742792313D2C4E2792313D2C8D24F6
:1028600092313D2C332792313D2C4D2492313D2C19
:10287000582792313D2C732492317E2792310038B3
:10288000031908005D0884000830040203183B2C7B
:102890008B3104357A3E82003D2C05302000DD006E
:1028A0002200280886002908870044318101480851
:1028B00003195F2C48088C31002492312200220039
:1028C000280886002908870044314B0801020318B4
:1028D000080029082000AE00220028082000AD00D2
:1028E0004D2692315F2C2000DD012200CF01CE0168
:1028F000CD01CC01CB01CA0108002200D1279231C1
:102900004D2692312200C90001302000DD00063042
:1029100022004902031C0800732C2200D1279231A7
:102920004D2692312200CE00D12792314D26923190
:102930002200CD00D12792314D262200CC00043058
:102940002000DD000800640022004E082000570629
:10295000031DCB2C22004D0820005606031DCB2C56
:1029600022004C0820005506031DCB2C2100E40159
:1029700022004B08210064020318080022002908E5
:102980002000AE00220028082000AD004D26923124
:102990002100E40AB82C703022004F020318322DB7
:1029A0004F0B332D29082000AE00220028082000FC
:1029B000AD004D2692312100E200220029082000BE
:1029C000AE00220028082000AD004D2692312100E3
:1029D000E300220049082100E50022004D08200004
:1029E000CA0022004C082000CB0022004A08013E09
:1029F0002000CC00210065082000CD0021006208E5
:102A00002000CE00210063082000CF0022004E08E5
:102A1000052792312100E600FF3A0319332D66089D
:102A20002000AD000730AE01AF00B001A826923102
:102A300070302100DF002130E00020002D0821004F
:102A40005F07860020002E082100603D87000130CE
:102A5000E100650A2C2DE135890B2B2D6108FF3A29
:102A60008105332D36252200B70A080029082000E9
:102A7000AE00220028082000AD004D269231230030
:102A8000BD00220029082000AE00220028082000F6
:102A9000AD004D2692312300BE00220029082000FF
:102AA000AE00220028082000AD004D269231230000
:102AB000BF0022004B08FD3E2300B60022004D0857
:102AC0002000C00022004C082000C10022004E0857
:102AD000BD26923123003F0820005506031DAD2D71
:102AE00023003E0820005606031DAD2D23003D089F
:102AF00020005706031DAD2D61080319A72DE10322
:102B0000A72D29082000AE00220028082000AD00D3
:102B10004D2692312300B700220029082000AE0084
:102B2000220028082000AD004D2692312200B1007D
:102B3000310803190800230037082200B0000800FC
:102B40003308031908008C310024220008002200F9
:102B50004F08703A0319812DA02D23003E08200054
:102B6000B30023003F082000B40023003D089F313C
:102B7000812792312300BB00FF3A0319482E3B08FE
:102B80009F31B927923134082300BA00200033085E
:102B90002300B90022004F08A83A031DFF2D23008F
:102BA0003908063E2100DD00003023003A3D2100B7
:102BB000DE005D0886005E088700FF30810022008D
:102BC00029082000AE00220028082000AD0095262C
:102BD00092310038031DFD2D22004908A00023007A
:102BE000390886003A0887004331010E0739220070
:102BF000A10002302000DC00FF2D85269231230049
:102C0000BC01B8013608380203181F2E220029081B
:102C10002000AE00220028082000AD004D26923191
:102C20002100DD0023003C08A03E86000130870023
:102C300021005D0881002300BC0AB80A022E220090
:102C40004E082100A00022004D082100A100220012
:102C50004C082100A20022004A08013E2100A300E6
:102C600023003D082100A40023003E082100A50008
:102C700023003F082100A600A030A7000130A800D3
:102C800023003C082100A90022004F089E31F426B1
:102C900020006108031DE10308002D0886002E08AE
:102CA00087000108AF00B0012D07B10030082E3DAC
:102CB000B200310886003208870045310108B300B0
:102CC0002D0886002E088700810A2D0886002E0810
:102CD000870042312D0884002E088500000801027B
:102CE0002D0886002E08870003187B2E81012D08F1
:102CF00086002E088700433181032D0886002E08A8
:102D000087004431810A330808002200A001013005
:102D1000A1000230A2000330A3000430A40005305B
:102D2000A50006302000DC0008002D0886002E08D3
:102D300087000108AF00B0012D07B10030082E3D1B
:102D4000B2003108860032088700453101080800CA
:102D5000B101B2012D1CB02E2F08B1073008B23DD1
:102D6000AF35B00DAE36AD0C2E082D04031DAA2EC6
:102D70003208AE003108AD0008002000C70040084E
:102D8000B3004108B40047089F3181279231C80041
:102D9000FF3A031908006008053EC200003003181E
:102DA0000130C30048089131F4219231A8269231B4
:102DB0007130C4002130C5002D08440786002E085C
:102DC000453D87004308803A803C031DE92E4208B8
:102DD00001020318080020006008053EC2004808F0
:102DE0009131F4219231A8267130C3002130C40002
:102DF0002D084307C5002E08443DC600450886003F
:102E0000460887004208810008002000D1004A08D7
:102E1000B3004B08B40051089F3181279231D00094
:102E2000FF3A031D222F4A08BD004B08BE004C0884
:102E3000BF004D08C0004E08C1004F08C200510835
:102E4000913161295108B3004A08B4004B08B5001C
:102E50004C08B6004D08B7004E08B8004F08B9003E
:102E600050089031E92807302000DD002200D127EA
:102E700092314D262200CA0008002200D12792314B
:102E80004D269231DE000230DD0005305E02031C6B
:102E900008005E08FF3A03190800732C2200D127AE
:102EA00092314D262200CB0006302000DD000800C4
:102EB00008302000DD00220029082000AE0022009A
:102EC00028082000AD0095269231B400FF3A031D7A
:102ED0006F2F2200D12792314D269231732C73240B
:102EE00002302000DD0008002200D12792314D265B
:102EF0002200CF0003302000DD0008002200280857
:102F0000860029088700433101082000AD005D08D4
:102F1000AE0006302E020318922F0030AD08031DBC
:102F2000013008002E08063A031D982F0330D92FD0
:102F30002E08073A031D013422004B082000D92F28
:102F40002000B80138085F02031C08002130B700D8
:102F50006B30B60038089131F4219231A8269231B5
:102F60002D08B6072E08B73D3608860037088700BB
:102F700046310108003A0319C72F36088600370882
:102F800087004631810BC72F3808DE279231B80AF7
:102F9000A22F08007D1C08002200AA01AB017D10B1
:102FA000080029082000AE00220028082000AD00FB
:102FB00008002D020030031801300800B5001E3053
:102FC0003502031808002130B4006B30B300350817
:102FD0009131F4219231A82692312D08B3072E08A1
:102FE000B43DE00333088600340887004631810190
:102FF0005F083506031D08003508031DDF030800C0
:1038E000C60005304602031808003E08093EBF0026
:1038F000003003180130C000803AFF0080307F02A2
:10390000031D842C1F303F020318080022302000C2
:10391000C9003D30C8004608AD002330AE01AF00FD
:10392000B0019631A8269C312D08C8072E08C93D44
:103930004908CB004808CA000430CA070318CB0A5C
:103940004808860049088700423181014808033E43
:10395000BF000030493DC0003F0886004008870096
:10396000013081004808013EBF000030493DC000E1
:103970003F0886004008870033088100CC014A08D0
:1039800086004B08870034088100CC0A3E08033EBD
:10399000BF004C08C000C1014A07C20041084B3DAE
:1039A000C30042088600430887003F088100CC0A14
:1039B0004C08BF00C0014A07C10040084B3DC2008F
:1039C000410886004208870035088100CC0A4C086F
:1039D000BF00C0014A07C10040084B3DC20041087A
:1039E00086004208870036088100CC0A4C08BF00D8
:1039F000C0014A07C10040084B3DC2004108860093
:103A00004208870037088100CC0A4C08BF00C0017B
:103A10004A07C10040084B3DC200410886004208E9
:103A2000870038088100CC0A4C08BF00C0014A0753
:103A3000C10040084B3DC200410886004208870093
:103A400039088100CC0A4C08BF00C0014A07C100F8
:103A500040084B3DC20041088600420887003A08F2
:103A60008100CC0A4C08BF00C0014A07C1004008D1
:103A70004B3DC20041088600420887003B08810098
:103A8000CC0AC7013E0847020318612D4708BF0052
:103A9000C0013C07860040083D3D87000108C10089
:103AA0004C08C200C3014A07C40043084B3DC5008F
:103AB000440886004508870041088100CC0AC70AEF
:103AC000422D48088600490887004C0881004808B4
:103AD000023EBF000030493DC0003F08860040085C
:103AE00087000130810008004F08A83A031DEE2D21
:103AF00029082000AE00220028082000AD009631E1
:103B00004D269D312100D400D408031D08008B11DF
:103B10002700111121000C15200095018B121C119A
:103B200021009110280095011711210093100B130B
:103B30008B1323009D139D179E121D1221009112BD
:103B4000123097002500930120008E158E16FF304D
:103B50002500910021009D012700131120009310E2
:103B6000911093110B138B1323009D138B132200C1
:103B70004E082000AD000030AE269D319518BE2DB8
:103B800022004D082000AD000130AE269D31951871
:103B9000C72D22004C082000AD000230AE269D311A
:103BA0009518D02D220049082000AD000330AE2624
:103BB0009D319518D92D8B130130933188239D3178
:103BC0009518E02D8B1301309331E8239D31951822
:103BD000E72D8B13640001006400EC2D4F08A03A20
:103BE000031D242E2100C401C40AC501C601C7015A
:103BF000C70AC801C901CA01CA0ACB01CC01200009
:103C000057082100CD00200056082100CE002000DA
:103C100055082100CF0022002F082100D000D1013B
:103C2000D10AD20122004E082100AA0022004D082C
:103C30002100AB0022004C082100AC00C430AD00D4
:103C40000F30AE00A130D82E4F08A23A031D080055
:103C50002100D301D501550820005F02031C992ED5
:103C6000210055082000AD000730AE01AF00B001C3
:103C70009631A8269D316B302100AF002130B00075
:103C800020002D0821002F07860020002E0821008B
:103C9000303D8700D6308400003085000730FF00BB
:103CA00016001A00FF0B502E5C080319972E5908B6
:103CB0000F39013A031D972E0130AF00590E073915
:103CC000890A632EAF35890B622E2F08D304033087
:103CD0002000AD002100590E0739CB269D31013E51
:103CE000B13E8600870121005608FF39810003306C
:103CF0002000AD002100590E0739CB269D31023E30
:103D0000B13E8600870121005708FF39810003304A
:103D10002000AD002100590E0739CB269D31033E0E
:103D2000B13E8600870121005808FF398100D50A7D
:103D30002B2E21005308B10022004E082100AA00BA
:103D400022004D082100AB0022004C082100AC00ED
:103D5000B130AD001330AE00A330D82EAE0023003A
:103D60009518AF2E20002E0823009100920120000C
:103D70002D08230093003F30950503108B1B03147F
:103D80008B13151555309600AA3096009514151111
:103D900003188B1708002000AF00AE012D082F1864
:103DA000AE07AD35AF36AF08031DCE2E2E08080086
:103DB0002000D40057082100A00020005608210050
:103DC000A100200055082100A200A3012A08A40098
:103DD0002B08A5002C08A6002D08A700A8012E0876
:103DE000A90020005408F42E2000CF00210025084F
:103DF0002000B300210026082000B4002100240880
:103E000081279D31D000FF3A0319FE345008B927AD
:103E10003408CE003308CD00D3012230D2003D302B
:103E2000D1005308AD002330AE01AF00B001963190
:103E3000A8269D312D08D1072E08D23D5208AE008C
:103E40005108AD004F08AF00210024082000B00049
:103E5000210025082000B100210026082000B20022
:103E6000D0279D310038031D452F51088600520888
:103E7000870042310108031D7B2F5108860052083C
:103E8000870043310108031D7B2F4D0886004E0833
:103E900087004331010E0739B3004F08B4002100F9
:103EA00020082000B500210021082000B6002100D4
:103EB00022082000B700210023082000B8002100BC
:103EC00024082000B900210025082000BA002100A4
:103ED00026082000BB00210028082000BD0021008A
:103EE00027082000BC00210029082000BE0053083C
:103EF0009C31702400340530D30A53020318FF3478
:103F00000D2F2000B700B80138085F02031CFF34F2
:103F100038089131F4219D319631A8269D316B30BE
:103F2000B5002130B6002D08350786002E08363D35
:103F3000870039308400003085000730FF0016000C
:103F40001A00FF0B9F2F3908FF393706031DB72FC3
:103F50003A08FF393306031DB72F3B08FF393406F3
:103F6000031DB72F3F080319B72F38080800B80AF8
:103F7000842F2000B6002130B8006B30B70036081F
:103F8000AD000730AE01AF00B0019631A8262D0874
:103F9000B7072E08B83D3808B4003708B30008004A
:103FA000A0302F02031800342D0886002E08870049
:103FB0004231010B00342D0886002E088700443161
:103FC00001082F06031D00342D0886002E088700E7
:103FD0004A3101083006031D00342D0886002E08E2
:103FE00087004B3101083106031D00342D0886007F
:103FF0002E0887004C3101083206031901340034C1
:020000040001F9
:02000E00CCCF55
:00000001FF
