:0E00E000023F013F003F043F023F003FFF3F51
:10020000000081316229FF3F813120007F08CA0050
:10021000911E2F29B508031D10291C1121009110D2
:10022000003023001D1901302000CB004B030319BF
:100230001C2923009D1C22292300190888313F20F6
:1002400081315F29210091102000B50A88313620C4
:1002500081312A080A3A03191E29A90164142700CA
:10026000131D3E298B1111112000AA01E4148831BD
:1002700036208131A9016414270013112000911C3C
:1002800044298631912681310B1D5F29641C562932
:1002900003302902031C5529300B512986316F2662
:1002A000813188313F2081315629A90A0A30B90AA3
:1002B0003902031C5E29B9017F30B8000B114A08CE
:1002C000FF00090020000308A000813167292130C8
:1002D000E4018400003085002930883130208131EC
:1002E00021002030ED01EE01EF0184000130850096
:1002F0003E30883130208131A030840001308500CB
:100300004B308831302020008231182AD030200034
:10031000CC000030DB21140813082000CE00113A75
:100320000030031D0130080020000030CE01CF0155
:10033000CC01DB218131F22181310318CF0A003059
:10034000CC01CC0ADB218131F22181310318CF0AA3
:100350000230CC000030DB218131F22181310318E1
:10036000CF0A0430CC000030DB218131F221813111
:100370000318CF0A0530CC000030DB218131F22197
:1003800081310318CF0A0630CC000030DB218131E7
:10039000F22181310318CF0A4F08023AA73003191E
:1003A0004E06031900344F08023A8A3003194E06EC
:1003B00003190134FF34CD004C08230091002000C4
:1003C0004D08230092001513951715140000000026
:1003D00000000000640023001518EB2964002300CE
:1003E0009513080014082000CE070318CF0A230035
:1003F00013082000CE070800FF3FFF3FFF3FFF3FED
:10040000002A82318207032A8531322D85315E2D03
:100410008831262885312A2D8531CD2D88312B280C
:100420008731522F87315C2F85317D2D8531492DC4
:100430007030210099003130980021001A18232AC9
:10044000640000001D2A883172208231D0302000E3
:10045000D600C930D500D50B2B2AD60B2B2A302A33
:100460000530342382312000D700223A03193D2A77
:1004700064008931B82964003B2A2030CC00003068
:100480008131DB21823113082100EE002130200070
:10049000CC0000308131DB21823113082100ED00D6
:1004A00022302000CC0000308131DB218231130862
:1004B0002000A6002330CC0000308131DB218231C6
:1004C00013082000A50026080319692A2608DB0066
:1004D0006B2ADB01DB0ADC015B08B600123021006D
:1004E00097008E23E3006400813186218231D80099
:1004F0006400813194218231DF00640020006308B0
:100500000319BB2A0030342382312000E00001307F
:10051000342382312000E100023034238231200074
:10052000E2000330342382312000D9006008FF3A12
:10053000031DA42A6108FF3A031DA42A6208FF3A9A
:10054000031DA42AE301B42AFF30CC0000304B2362
:100550008231FF302000CC0001304B238231FF304C
:100560002000CC0002304B2316302000B7000030B2
:100570008731E62782312000E308031DE52AD808E9
:10058000031DE52A8B1312302100970020005F0322
:100590000319D02A1630B700013068238231640075
:1005A0008B13D0302000DD000730DE0020005E0815
:1005B0005D040319E12A0130DD020030DE3B00005A
:1005C000D62A8931B8296400E32A5F080319F12A81
:1005D0001630B7000030682382319D238531132502
:1005E0008231640023009D171E159F1507309B0064
:1005F0009C011E12640089238231640023009E1234
:10060000640064001B30210097007C2382310B17AB
:100610008B17950121009512951115159514151438
:100620008B1622000E142000630803192B2B640084
:100630002000AA30DA01CC006008CD006108CE00AD
:100640006208CF005A30D000D101D10A5908883150
:100650009320823164002000641D312B8331A1235B
:100660008231640020002B2B2000CC00382B20008E
:10067000640023009518372B20004C0823009100BC
:1006800092013F309505151403101518031400301E
:10069000093D13080800CD00230095184C2B2000BD
:1006A0004D0823009100920120004C082300930084
:1006B0003F30950503108B1B03148B131515553014
:1006C0009600AA3096009514151103188B17080090
:1006D0002000D1008B13CC01CD018431E424823180
:1006E0006400883153208231640020005108893130
:1006F00022218B136400080020009A01FA309B002D
:100700001C152100911420009C141C1437309B00F0
:10071000080023001D12210091120800B8302000AB
:10072000CC0000308131DB21140813082000CE00FA
:10073000333A003003190130080016302000B700AA
:100740000134220020082100DD0020003A082100A9
:10075000E80022002108FD3E2100DE0022002208E0
:100760002100E900220023082100EA0022002408D9
:100770002100EB00220026082100DF0022002708CC
:100780002100E000220028082100E1005F086E0639
:10079000031DD32B60086D06031DD32B61082000B9
:1007A00026060319D82B2100EF0120006411080050
:1007B0002100E7015E0867020318EB2B6708B03ED3
:1007C000860087016708293E840001308500000803
:1007D0008100E70ADA2BEF012000641121005D0897
:1007E000A03A0319C52C063A0319312C0E3A031905
:1007F0007B2C033A0319FD2BE32CB830E4000930BD
:10080000E50016302000B7006400210065082000D4
:10081000CD00210064082000CC00E4248331203086
:100820002100E4070318E50A650200300319640299
:10083000031C012C2000A301A4012100300820008A
:10084000B300210031082000A2002100320820005E
:10085000A100AC300525D001D10121006808883104
:1008600093282000A30A0319A40A21003008E600F7
:100870003108E20009306602031C0800EC016C0834
:10088000A03E860087016C08023EB03E84008501D0
:10089000000881001030EC0A6C02031C3F2C620837
:1008A0002000CC00A030CD00210066088831D9207E
:1008B000833121006608DB006208DC002000C00AEA
:1008C0004008330603196C2C22082402031D6A2CED
:1008D00021082302031C772CA730C0010525DB303B
:1008E000D0000230D1002100680888319320013007
:1008F00022008E0608003008E300630B842C1630BB
:100900002000B7008731DA2FE308031D08008B139E
:1009100069082000CC00003083314B2383319518C7
:100920008F2C21006A082000CC00013083314B233A
:1009300083319518992C21006B082000CC000230DF
:1009400083314B2383319518A32C210068082000A4
:10095000CC00033083314B2383319518AD2C8B139E
:1009600083319D2383318731E62783319518B62C57
:100970008B1383319D238331132583319518BE2C2E
:100980008B13640001006400C32C0230CF000430DC
:10099000D001D00AD101D2000230D300D401D50158
:1009A000D601D701200025082100D800A130D901A7
:1009B000DA0120000525CF30D0000C30D100210015
:1009C00068088831932808003708163A031D080084
:1009D0004C082300910020004D08230092001513BD
:1009E00095171516151589317821833123001511B6
:1009F00064002300151AF92C640023009518FD2CBF
:100A0000951392012000B7010800CC00210069086D
:100A10002000CD0021006A082000CE0021006B08D4
:100A20002000CF000800D000D030CC00CD01E4245D
:100A300083315008D030CC003F30CD000319252D34
:100A40002730CE000030893150291130CE000030DF
:100A500089315029230019082000C800AD08031D62
:100A60000334CD2D4508A03E8600013087002300C9
:100A7000190881002000C50A2D08013EFC00003045
:100A800003180130FD0045087C067D04031D033476
:100A9000CD2D230019082000BF003F0B582D47081B
:100AA0000319542DBD01E411E4180A34AB015E2D85
:100AB000AB0A06302B0203180A347D2DC62585317A
:100AC0002100EF08031D6D2D0130EF00200064119F
:100AD0000130C901C90AB000702D2000C901B00160
:100AE0001F30F000490874268531BD25853120006E
:100AF0004908BD258531692601342000AC01C62591
:100B0000853120004608BD2585312000460803199F
:100B1000992D4630F000003080268531352685310C
:100B2000AC004730F0000030802685313526853115
:100B3000AC004708BD258531FA01200046087A023D
:100B40000318B52D7A08A03EF000013080268531CB
:100B500035268531AC007A08A03E8600013087003A
:100B60000108BD258531FA0A9D2D46080319BB2DC4
:100B70002C08BD25853169260934F000111EBE2DD3
:100B8000700823009A009E180800C32D23001D1230
:100B90002100911223009E160800C62585312000F1
:100BA0002D080319092E45089F3E86000130870055
:100BB0000108FA00C503AC014530F0000030802682
:100BC000853135268531AC004830F0000030802674
:100BD000853135268531AC00A030F0000130F100C0
:100BE0004508F200F3012C0835268531AC007A085F
:100BF0002C060319092E0030BD2585316926853163
:100C00002000C501AB0A06302B02031C01346F26FD
:100C10000A3448080319292E2D08BB003208BA00EF
:100C200001302100EF00FB0120002D087B0203189A
:100C3000272E7B08203E8600013087007B08A03EDF
:100C400084000130850000088100FB0A142E641521
:100C50002B2E6F2685310130BD25853169268531E2
:100C60002000E41C0A34AB010534F9007108F600D9
:100C70007008F5000130F2020030F33B720A0319EC
:100C8000730A0319672E7508860076088700010825
:100C9000F4000430F436890B4A2E790E0F397406AD
:100CA0008C2688310A0086318626853175088600B3
:100CB00076088700790E0F3901068C2688310A00E4
:100CC000863186268531F50A0319F60A3A2E790807
:100CD000080023009E121D16210091160800210015
:100CE000EF01200064110800F200F1017008721891
:100CF000F107F035F236F208031D762E7108080070
:100D0000F100F201F20AF3012C080800F400790E58
:100D1000F0397406F9000800F700F8010F39013EB8
:100D200008006400052F83318923863123009D1339
:100D30009D1720003208C100F9010630C10A4102A6
:100D40000318C10141082C27863120008D1AAC2ED2
:100D50008B154B278631B12E0530F90A7902031C19
:100D60009D2E01302000B4009A019B00112F4208F3
:100D70002C27863120008D1AC12E8B154B278631EA
:100D8000112F21008D1220008D120230B4009C140E
:100D90001C144408223E9B003608F5000430F5364A
:100DA000890BCF2E3608F600F636F636F6363608BC
:100DB000F700F736F7367708760675063606F80038
:100DC0000130F8057808F5000730F535890BE52E78
:100DD00036367504B600C3000C30F0004308142703
:100DE0008631C4000630F000430814278631C20063
:100DF000112F21008D1686316926863120001C14A2
:100E00009C105F309B00B401112F20003408003A81
:100E10000319932E013A0319B72E033A0319F92E39
:100E2000112F200091100800F2000830F300F401A7
:100E30007208F1000730F136890B1B2F74357104ED
:100E4000F400F23570087402031C282F7008F402B5
:100E5000F30B182F74080800F100B200711C332F37
:100E600022000E17352F22000E137108F000F03605
:100E7000701C3D2F22008E173F2F22008E13710809
:100E8000F000F036F036701C482F22000E160800D5
:100E900022000E1208002700111520001C1121004D
:100EA00091100800230019082000AF002F08031933
:100EB0005B2F1F30AF005C2FC7013C083206031DBB
:100EC0007F2F3D0B7F2FE41D7F2F3E082F02031C39
:100ED0007F2FF3013E08730203187D2F4608A03EC2
:100EE00086000130870073083F3E84000130850092
:100EF00000088100C60AF30A6A2F3E08C7000130C5
:100F0000F000320A842FF035890B832F70083805E2
:100F10000319CB2F4608083EF000003003180130BB
:100F2000F100803AF20080307202031D992F2E08E2
:100F300070020318CB2F0130F0002000320AA12FDD
:100F4000F035890BA02F7008FF3AB8054608A03E7F
:100F50008600013087008101810AC60A4608A03E4A
:100F600086000230D427873121006E08CD278731D3
:100F700021006D08CD2787312608D4278101C60AB4
:100F80004608A03E86008101C60A4608A03E8600AB
:100F900001308101C60A85317D2D81002000C60AFD
:100FA0004608A03E860008008100C60A4608A03E0A
:100FB000860008001230210097008B130130E627CD
:100FC0000130833168238931B82908002000D0001E
:100FD000B830CC00CD018431E42487315008B830DA
:100FE000CC003F30CD000319FA2F3330CE00003053
:100FF000893150290030CE0189315029FF3FFF3F10
:101000000034003407340E3409341C341B341234D9
:10101000153438343F3436343134243423342A34CC
:101020002D34033405340734013409340B340D34C2
:101030000F34113413340034FF3FFF3FFF3FFF3FB5
:10104000FF3FFF3FFF3FFF3FFF3FFF3F23001908E8
:101050002000AD000234230019082000AE00063441
:10106000640080010131890B312800342A08113EC7
:1010700088310A00823101222000AA0008002000E5
:10108000B5014B2083318923883183317C23B4011E
:10109000A90164100800C601E4100530AA00FF3061
:1010A000C501B00008008B1320001130CC016E2068
:1010B00089315021883120001230CC01CC0ACD007A
:1010C0000A30CE0000308931502102302000CC009F
:1010D0002930CD000030CE0189315029CD008A3031
:1010E000CE000034FF308C008D0006308E00293099
:1010F0009D009E131E179E161E129E101E1023008A
:101100008E1120008E118E122500930123008D1266
:101110000C110E138E130E1022000E138E130E12CE
:101120008E118E1208002000D30020003D0B9A285B
:1011300064009528E4110130BD005308BC0051083B
:10114000093EBE004C082200BF0020005108033EAB
:101150002200C00021006E082200C10021006D089D
:101160002200C200200026082200C300C401200083
:101170004D082200C50020004E082200C6002000B5
:101180004F082200C7002000D40151085402031860
:10119000D7285408483E860001308700540850077D
:1011A000D2008400850100088100D40AC528E41516
:1011B00008002000CF008B1364002300951715153D
:1011C00015121513951620004C08230091002000DD
:1011D0004F08230092002000D00150354D07CE006B
:1011E00086008701413F23009400200050354D07C1
:1011F000CE00860001082300930078218831230067
:10120000910A20000730D00A5002031CED28230069
:10121000951220004D08860087014E3F2300930061
:1012200020004D0886004F3F23009400782188312C
:10123000230015116400230095181B2995139201B2
:101240008B170800D0008B13003A03192B29013AA1
:1012500003193D294F290430CC00113088316E200C
:1012600088315021883182218831502188318A216A
:1012700088310430CE00003050290430CC001530C5
:1012800088316E2088315021883182218831502167
:1012900088318A218831BC30CE00003050290800C6
:1012A000CF0023009517151515121513951620005C
:1012B0004C082300910020004F08230092002000DA
:1012C0004E082300930020004D082300940078214D
:1012D000883123009512782188312300151164008C
:1012E00023009518702964002300951392010800CB
:1012F00055309600AA3096009514000000000000BA
:101300000000080005302000CC001230CD000A306B
:10131000CE00003406302000CC002930CD0008007B
:10132000E23FFF3FFF3FFF3FFF3FFF3FFF3FFF3FEA
:1015B0008A31DC2AFF3FFF3F8A31ED2AF5008B1389
:1015C000F001F101B1248A31640006238A316400FC
:1015D00075081D238B13640008003D308400223001
:1015E0008500B330FE000130FF008D319D258A312A
:1015F0002030CE018400003085002630FE0000300F
:10160000FF008D319D258A3120004B2B8B1311302B
:10161000F00150258A310A248A311230F001F00A93
:10162000F1000A30F20000300A248A310230F00062
:101630002930F1000030F2010A2CF4008B13003A3B
:101640000319262B013A0319372B4A2B0430F000DB
:10165000113050258A310A248A312F258A310A24F3
:101660008A310630F000293054258A310A2C0430A2
:10167000F000153050258A310A248A312F258A310D
:101680000A248A310630F0002930F100BC30F20023
:1016900000300A2C08003F248A31123021009700C4
:1016A0000B138B1364007030210099002C309800CC
:1016B0008B248A31A8248A311D1221009112230023
:1016C0009E1225258A319030F00009302A248A3173
:1016D00013082000C800D0248A312000C900480621
:1016E000031D01002030F00000302A248A31140844
:1016F0002000CC00230013082000CA002130F00095
:1017000000302A248A3114082000CD002300130859
:101710002000CB004C083F3A031D922B4D083F3A66
:101720000319C42B2030F000F101B1248A31640088
:101730002030F0003F30F10020004A08F200003075
:101740000A248A3164002130F0003F30F10020008B
:101750004C08F20000300A248A3164002230F00084
:101760003F30F10020004B08F20000300A248A319B
:1017700064002330F0003F30F10020004D08F200FB
:1017800000300A248A316400703044258A310A24EA
:101790008A3171303E258A31F20A0A248A31723048
:1017A0003E258A310A248A317330F0003F305425B7
:1017B0008A310A248A31743044258A310A248A31D4
:1017C00075303E258A310A2400308D3175258A31E5
:1017D00001308D315D258A310030DE228A312230A0
:1017E000F000053072248A3164003F248A31D03001
:1017F0002000C6000730C700200047084604031930
:10180000072C0130C6020030C73B0000FC2B010052
:101810008A31DC2AF30023009517151515121513CC
:101820009516700891007308920072089300710871
:10183000940068248A312300951268248A31230099
:101840001511640023009518222C640023009513C1
:1018500092010800F10070082300910071089200C5
:101860001513951715140000000000000000640017
:1018700023001518382C64002300951308008B11E1
:101880002700111121000C15200095018B121C114D
:1018900021009110280095011711210093100B13BE
:1018A0008B1323009D139D179E121D122100911270
:1018B00012309700252521009D01270013112000DB
:1018C0009310911093110B138B1323009D13080099
:1018D00055309600AA3096009514000000000000D4
:1018E00000000800F10023009518732C7108910086
:1018F0009201700893003F30950503108B1B031471
:101900008B13151555309600AA30960095141511B5
:1019100003188B170800FF308C008D0006308E00F6
:1019200029309D009E131E179E161E129E101E101B
:1019300023008E1120008E118E1223008D120C11A7
:101940000E138E130E1022000E138E130E120800AB
:1019500023009D171E159F1507309B009C011E122A
:10196000080020003308163A031D08007008230001
:101970009100710892001513951715161515682416
:101980008A312300151164002300151AC42C640049
:1019900023009518C82C951392012000B30108006C
:1019A0000130FA01FB01FC007B08F0007C082A24CE
:1019B0008A31933036258A31F1248A31FA00943005
:1019C00036258A31F1248A31FA00FB0A0319FC0A10
:1019D00009307C02903003197B02031CD42C7A0856
:1019E0000800F9007108F6007008F5000130F202F5
:1019F0000030F33B720A0319730A0319232D75088B
:101A00008600760887000108F4000430F436890B5C
:101A1000062D790E0F39740658258D310A008D3147
:101A20004A258A317508860076088700790E0F39B5
:101A3000010658258D310A008D314A258A31F50A73
:101A40000319F60AF62C79080800250093012800EE
:101A50001E1120008E118E12250091010800053004
:101A6000F0001230F1000A30F2000034F0000130D2
:101A7000F100F201F20AF3017A080800F0003F30A9
:101A8000F1000030F2010800F0003F30F1000230B8
:101A9000F2000034F400790EF0397406F900080001
:101AA000F1008A30F2000034F1000430F20000341A
:101AB000F700F8010F398D3E0800F400D030F00037
:101AC000F1018C31B1248D317408D030F0003F30F9
:101AD000F1000319702D2730F20000308C310A2CF0
:101AE0001130F20000308C310A2CF400B830F000D4
:101AF000F1018C31B1248D317408B830F0003F30E1
:101B0000F1000319882D3330F20000308C310A2C9B
:101B10000030F2018C310A2C0034003407340E34CA
:101B200009341C341B341234153438343F34363401
:101B30003134243423342A342D34640001308001BC
:101B40000131FE020030FF3B7F087E0403190034A0
:101B50009E2DFF3FFF3FFF3FFF3FFF3FFF3FFF3F08
:10300000153FFF3FFF3FFF3FFF3FFF3FFF3FFF3FBA
:020000040001F9
:04000E00CCCFFFFF55
:00000001FF
