:101370008A31F62AFF3FFF3F893120007F08A9000C
:10138000911EF4292200CB08031DC82920001C113E
:1013900021009110003023001D1901302000AC0005
:1013A0002C030319D62923009D1CDB2923001908CF
:1013B0002000AB00E429210091102200CB0A8A31E1
:1013C000F82289312200C000220040080A3A03199D
:1013D000EC2920002C0BF029903154208931F4297C
:1013E0002200BD01200062142700131D092A8B1161
:1013F000111121000C152200C0012A30C4008A31CD
:10140000F82289312200C000BD01200062142700AB
:10141000131120009118952AA32A23001D122100E0
:10142000911223009D139D1722004708A800200059
:10143000AA011B2AAA0A5B08FF3EA700FF30031877
:101440000030A800803A803C031D282A27082A0281
:101450000318472A2200A80A20005B08220028025D
:101460000318A8012808203E8600013087000108E3
:101470009B318C2389312808C70020008D1A1A2A35
:101480008B152700111520001C112100911001302F
:101490002200BA0020009A019B00A12A4A08203E9F
:1014A00086000130870001089B318C2389314A086E
:1014B000C70020008D1A642A8B1527001115200003
:1014C0001C1121009110A12A21008D1220008D12E3
:1014D00002302200BA0020009C141C1422002A08AA
:1014E000223E20009B0090310E208931A9000C3053
:1014F000F00029089B3174238931AA0020005B0881
:10150000F000220029089B3174238931CA00A12AE6
:1015100021008D169F318627893120001C149C10D4
:101520005F309B002200BA01A12A22003A08003A4B
:1015300003190D2A013A03194E2A033A0319882A7E
:10154000A12A20009110931CC72A2300C00A031966
:10155000C10A2200650BC52AA60A0319A70A003092
:101560002702113003192602031CC52A0730A601E1
:10157000A701CE0A4E020318C02A01308E06C52AE2
:101580000E100B304E020318E501200093101118C5
:1015900011100B1DF22A2200BC0A2000621CE32A53
:1015A000033022003D02031CE32A45080319DF2A09
:1015B000210068080319DF2AE8032200C5019031E1
:1015C00054208931E82A2000621CE82A2200BD0A42
:1015D0000A302200E00A6002031CF12AE0017F3099
:1015E000DF000B1120002908FF0009009131BB2901
:1015F0004008113E98310A008B3111230800FF3F4B
:101600008B318207022B032B042B052B062B072B78
:10161000082B092B0A2B0B2B0C2B8B31CC2B943149
:10162000012C8B318207132B9D31D72D9E31112E2A
:10163000903130289D31BD2D9E31AC2E9B31692BD0
:101640009B31AC2B9B31B62B9E31602E9D31F42DFE
:101650002200390803192F2B20005608080020000B
:10166000B701B801BA01BB013B085D02031C7F2B27
:101670002130BD00D930BC003B08B500B601B535FE
:10168000B60DB535B60DB535B60D3508BC073608FF
:10169000BD3D3C0886003D08870047310108003AFF
:1016A00003197D2B3C0886003D0887004331811FCC
:1016B0007D2B3C0886003D088700433101080F3927
:1016C000AD000C30AE01AF00B0018C238B312D0882
:1016D000B9003C0886003D08870044310108FF3905
:1016E000AD00AE013908AF00B001DA258B312D080D
:1016F000B7072E08B83D3908BA07BB0A342BBA0819
:10170000031900343A08AD00AE013808B0003708BC
:10171000AF001F262D080800B201AE1F962BAD09A1
:10172000AE09AD0A0319AE0AB201B20AB01F9F2B6F
:10173000AF09B009AF0A0319B00A0130B206B3010C
:10174000B4012E082D040319BF2BB101B10AAE1B41
:10175000AC2BAD35AE0DA62BB335B40D2E08300233
:10176000031DB42B2D082F02031CBB2B2D08AF0229
:101770002E08B03B3314AE36AD0CB10BAC2B320897
:101780000319C72BB309B409B30A0319B40A3408FF
:10179000AE003308AD0008005B08A83A031D462CD4
:1017A000530896318D268B312100CE00CE08031DC3
:1017B00008008B112700111121000C152000950144
:1017C0008B121C1121009110280095011711210086
:1017D00093100B138B1323009D139D179E121D1244
:1017E00021009112123097002500930120008E15E0
:1017F0008E16FF302500910021009D012700131156
:1018000020009310911093110B138B1323009D1341
:101810008B13220059082000AD00003021258B31A8
:101820009518102C220058082000AD000130212509
:101830008B319518192C220057082000AD0002307A
:1018400021258B319518222C220054082000AD0050
:10185000033021258B3195182B2C8B131630220049
:10186000D000013093315D238B319518352C8B13CB
:1018700016302200D00001309331C7238B319518E8
:101880003F2C8B13640001006400442C5B08A03AD9
:10189000031D8E2C2F082100C100220030082100DA
:1018A000C200220031082100C30022002C082100C0
:1018B000C40022002D082100C50022002E082100AE
:1018C000C6000430C7000230C800C90122002B083E
:1018D0002100CA00CB01CB0ACC012200370821002D
:1018E000A000220036082100A100220035082100B6
:1018F000A200A301220059082100A40022005808D8
:101900002100A500220057082100A600C130A70031
:101910000030A8000C30A900A1304B2D5B08A23A82
:10192000031D08002100CD01CF014F0820005D02FA
:10193000031CFD2C21004F08AA00D930AB01AA35A9
:10194000AB0DAA35AB0DAA35AB0DAC002130AD0007
:101950002A082C0786002B082D3D8700D0308400F4
:10196000003085000830FF0016001A00FF0BB42C71
:1019700057080319FB2C53080F39013A031DFB2CA0
:101980000130AA00530E0739890AC72CAA35890BE2
:10199000C62C2A08CD0403302000AD002100530ED0
:1019A00007393E258B31013EAE3E8600870121007E
:1019B0005008FF39810003302000AD002100530E94
:1019C00007393E258B31023EAE3E8600870121005D
:1019D0005108FF39810003302000AD002100530E73
:1019E00007393E258B31033EAE3E8600870121003C
:1019F0005208FF398100CF0A952C21004D08AE0016
:101A0000220037082100A000220036082100A10092
:101A1000220035082100A200A3012200590821005C
:101A2000A400220058082100A50022005708210028
:101A3000A600AE30A7000030A8001330A900A330E4
:101A40004B2DAE0023009518222D20002E082300D8
:101A50009100920120002D08230093003F3095054E
:101A600003108B1B03148B13151555309600AA30E9
:101A700096009514151103188B1708002000AF006D
:101A8000AE012D082F18AE07AD35AF36AF08031DD8
:101A9000412D2E0808002000CF002100250820003D
:101AA000AD00210026082000AE0021002408963158
:101AB000DE268B31D000FF3A0319FE3450089731EF
:101AC00066278B312E08CE002D08CD00D3012230A1
:101AD000D2007930D1005308AD002330AE01AF0001
:101AE000B001DA258B312D08D1072E08D23D5208DE
:101AF000AE005108AD004F08AF00210024082000BF
:101B0000B000210025082000B10021002608200097
:101B1000B200EF258B310038031D9E2D5108860041
:101B20005208870042310108031DD42D5108860058
:101B30005208870043310108031DD42D4D0886004B
:101B40004E0887004331010E0739B3004F08B40037
:101B5000210020082000B500210021082000B60047
:101B6000210022082000B700210023082000B8002F
:101B7000210024082000B900210025082000BA0017
:101B8000210026082000BB00210028082000BD00FD
:101B9000210027082000BC00210029082000BE00E9
:101BA00053088E31442600340530D30A53020318FB
:101BB000FF34672DB101B2012D1CE22D2F08B107B2
:101BC0003008B23DAF35B00DAE36AD0C2E082D0449
:101BD000031DDC2D3208AE003108AD000800A03036
:101BE0002F02031800342D0886002E08870042318A
:101BF000010B00342D0886002E08870044310108AF
:101C00002F06031D00342D0886002E0887004A3158
:101C100001083006031D00342D0886002E088700B9
:101C20004B3101083106031D00342D0886002E08B3
:101C300087004C3101083206031901340034B20127
:101C4000B3012E082D0403193F2EB101B10AAE1BBA
:101C50002C2EAD35AE0D262EB235B30D2E0830022A
:101C6000031D342E2D082F02031C3B2E2D08AF021E
:101C70002E08B03B3214AE36AD0CB10B2C2E33080F
:101C8000AE003208AD000800C60005304602031859
:101C900008003E08093EBF00003003180130C000B4
:101CA000803AFF0080307F02031D582E1F303F0214
:101CB0000318080022302000C9007930C800460807
:101CC000AD002330AE01AF00B0018D31DA258E3189
:101CD0002D08C8072E08C93D4908CB004808CA008E
:101CE0000430CA070318CB0A480886004908870051
:101CF000423181014808033EBF000030493DC00029
:101D00003F08860040088700013081004808013EF6
:101D1000BF000030493DC0003F08860040088700F2
:101D200033088100CC014A0886004B08870034083C
:101D30008100CC0A3E08033EBF004C08C000C10130
:101D40004A07C20041084B3DC300420886004308D1
:101D500087003F088100CC0A4C08BF00C0014A0739
:101D6000C10040084B3DC200410886004208870080
:101D700035088100CC0A4C08BF00C0014A07C100E9
:101D800040084B3DC20041088600420887003608E3
:101D90008100CC0A4C08BF00C0014A07C1004008BE
:101DA0004B3DC20041088600420887003708810089
:101DB000CC0A4C08BF00C0014A07C10040084B3D97
:101DC000C200410886004208870038088100CC0A1A
:101DD0004C08BF00C0014A07C10040084B3DC2008B
:101DE000410886004208870039088100CC0A4C0867
:101DF000BF00C0014A07C10040084B3DC200410876
:101E00008600420887003A088100CC0A4C08BF00CF
:101E1000C0014A07C10040084B3DC200410886008E
:101E2000420887003B088100CC0AC7013E084702F0
:101E30000318352F4708BF00C0013C078600400843
:101E40003D3D87000108C1004C08C200C3014A079C
:101E5000C40043084B3DC500440886004508870080
:101E600041088100CC0AC70A162F48088600490895
:101E700087004C0881004808023EBF000030493D01
:101E8000C0003F088600400887000130810008003C
:101E9000C400C5278F31C500FF3A0319FF34213034
:101EA000C700D930C6004508C100C201C135C20D06
:101EB000C135C20DC135C20D4108C6074208C73D34
:101EC0004608860047088700010844060039440692
:101ED000EE278F31413101083A0600393A06EE27E4
:101EE0008F31423101083B0600393B06EE278F3126
:101EF000433101083C06F0393C0681003D08C10031
:101F000046088600470887004331C10E0108410694
:101F10008F394106EE278F31443101083E060039E2
:101F20003E06EE278F3143313F08031D8117031909
:101F300081134608063EF4278F317F3081005E080A
:101F4000093EC1004608073EC2000030473DC300BD
:101F50004208860043088700410881004608053E84
:101F6000F4278F3140088100DE0A4008043A031D3F
:101F7000BE2F3C0BBE2F01302200DE0020004508A2
:101F80005D024508031CDD000800B1013108AD0009
:101F9000D930AE01AD35AE0DAD35AE0DAD35AE0DB2
:101FA000AF002130B0002D082F0786002E08303DED
:101FB000870032308400003085000830FF001600B2
:101FC0001A00FF0BDF2F3908031DE82F3108080026
:101FD0001430B10A31020318FF34C62F81004608BD
:101FE0008600470887000800C1000030473DC20056
:101FF00041088600420887000800FF3FFF3FFF3F7F
:10200000FF3FFF3F6400013080010131FE020030DC
:10201000FF3B7F087E0403190034032822004F0889
:10202000F0000430F036890B12284F08F100F13629
:10203000F136F1364F08F200F236F23672087106C8
:1020400070064F06F3000130F3057308F000073007
:10205000F035890B28284F367004CF004F08080050
:10206000230019082000D80023004508643C220002
:10207000E2000430620203184028F001F101472811
:102080006208F000FD30F101F007031CF103700855
:10209000E20065302000580203180A345808220074
:1020A0006202031C0A340234200062102200CB01B9
:1020B0006A2023001D12210091129231D8222000A3
:1020C0001C149C105F309B0019309B002200BA0149
:1020D000BD0108002000E001D801D9012B30220009
:1020E000C4000530C0002000DF01FF302200C30023
:1020F0000800B10014303102031808002130B0008C
:10210000D930AF003108AD00AE01AD35AE0DAD3503
:10211000AE0DAD35AE0D2D08AF072E08B03DDE0378
:102120002F08860030088700473181015D0831069D
:10213000031D08003108031DDD030800B80021302D
:10214000BA00D930B9003808B500B601B535B60DBA
:10215000B535B60DB535B60D3508B9073608BA3DF3
:1021600039081D2190310F39B50030083502031CA4
:10217000082939081D2190313006F03930068100D8
:102180003108B500390886003A0887004331B50E9A
:10219000010835068F3935068100390886003A086E
:1021A00087004431010832060039320681003908BF
:1021B000053E14219031340881003908063E14216F
:1021C00090317F3081005E08093EB5000030031871
:1021D0000130B600390886003A08870047313608D2
:1021E000803A803C031DF6283508010203180829AF
:1021F00020005E08093EB5003908073EB6000030F1
:102200003A3DB70036088600370887003508810058
:102210002000330803191229390886003A0887007C
:102220004331811738080800B50000303A3DB60048
:102230003508860036088700080086003A088700BF
:10224000433101080800B0002200B401B3012000AE
:10225000B008031D2E292200B2017F291A30300256
:10226000031836292200B201B20A7F293330300226
:1022700003183C29053047294D3030020318422904
:10228000153047296630300203184A29553022009C
:10229000B2007F29803030020318542955302200C3
:1022A000B200B301B30A7F299930300203185D29C7
:1022B00055302200B20005306D29B33030020318CA
:1022C000662955302200B20015306D29CC3030021D
:1022D00003186F2955302200B200B3007F29E63081
:1022E0003002553003187A292200B200B300B4013D
:1022F000B40A7F292200B200B3000530B4000630D2
:102300002000AD0022003208912191310730AD004C
:1023100022003308912191310830AD0022003408A9
:1023200091292000AF0024001614AF219131031D24
:102330009529C03024009100AF219131031D9C29C3
:102340002D0824009100AF219131031DA3292F08EE
:1023500024009100AF21913103190800AA2924001B
:10236000140C890C01392000AE00240016081F3916
:1023700020002E040800D930840021308500173059
:10238000FE000230FF009031022091315630E20110
:102390008400003085000C30FE00FF0190310220E7
:1023A000913121002030E801840001308500453062
:1023B000FE00FF019031022091312300C001C101D4
:1023C000C201C301C401C501C601C701C801220081
:1023D0000130E5002000EC2923302300C80028301C
:1023E000C7007030210099002C30980028239131CB
:1023F00020302000AD000030C122913113082200AE
:10240000B70021302000AD000030C1229131130807
:102410002200B60022302000AD000030C1229131F0
:1024200013082200B50023302000AD000030C12287
:10243000913113082200AB0035080319232A35080F
:102440002000D400262A2000D401D40AD501540843
:102450002200CF0070302000AD000030C122913149
:1024600013082200AF0071302000AD000030C122FF
:10247000913113082200B00072302000AD0000300E
:10248000C122913113082200B10073302000AD0049
:102490000030C122913113082200AC0074302000BA
:1024A000AD000030C122913113082200AD0075301B
:1024B0002000AD000030C122913113082200AE008F
:1024C000123021009700F42291312200CC004523E4
:1024D000913100301323913123001D1221009112FC
:1024E00023009E12C230E02291310D30AD00C23087
:1024F0004E2391310B302000AD000030022391318A
:102500001223913122004C080319922A1630D00070
:1025100000305D23913116302200D0000030C723F7
:102520009131010064001B3021009700D8229131C5
:102530000B178B178B1720009C141C1437309B0033
:102540002800950197141714171797161716971543
:102550004C3096001715210093142000950121009E
:10256000951295111515951415148B165C23913140
:102570002200E501E50ADE23913125239131640033
:10258000BB2AAE002D082300910020002E08230056
:1025900092001513951715140000000000000000AC
:1025A000640023001518D12A640023009513080045
:1025B00020009A01FA309B001C152100911408009C
:1025C0002000AD0086000130870081012D0A8600C1
:1025D00081012D08023E8600633081002D08033EF4
:1025E0008600013081010800B8302000AD000030C5
:1025F000C122140813082000AF00333A0030031939
:1026000001300800AE00CE262D082200BB002000BD
:102610002E082200BE002B30C4000530C000FF3061
:10262000C3000800DC2F2000AD001C2B22000E1080
:10263000080022000E1408002D08003A0319162B7A
:10264000013A0319192B242B0800F3279131F02F9D
:10265000FF308C008D0006308E0029309D009E13C7
:102660001E179E161E129E101E1023008E11200093
:102670008E118E1223008D120C110E138E130E105C
:1026800022000E138E130E12080023009D171E1534
:102690009F1507309B009C011E120800AE00DC0154
:1026A0002200DB01D60120002E082200D3002000EA
:1026B0002D082200D200080008002000B100B83028
:1026C000AD00AE017323913120003108B830AD0068
:1026D0003F30AE000319702B3330AF0000309F2B1A
:1026E0000030AF019F2B22005008163A031D08004E
:1026F00020002D082300910020002E0823009200C6
:1027000015139517151615159523913123001511DD
:1027100064002300151A892B6400230095188D2B63
:10272000951392012200D001080055309600AA307E
:102730009600951400000000000000000800B000A2
:1027400023009517151515121513951620002D0841
:1027500023009100200030082300920020002F0861
:102760002300930020002E0823009400952391312C
:102770002300951295239131230015116400230045
:102780009518BF2B640023009513920108002000C8
:10279000B100D030AD00AE0173239131200031087B
:1027A000D030AD003F30AE000319DA2B2730AF0038
:1027B00000309F2B1130AF0000309F2B640090251C
:1027C00091316400083022003C02031CEB2BAF2740
:1027D00091312200BC01F12391316400F72764009C
:1027E0000800E508031D08000B303F02031C080029
:1027F0000D303F02031CFF2B0E10BF0108000E140A
:1028000008006400220059083706031D1E2C5808D2
:102810003606031D1E2C57083506031D1E2C2100ED
:10282000E301220056082100630203180800220079
:1028300053088D2691312100E30A112C70305B0280
:1028400003188B2C5B0B8C2C1530550203180800D9
:102850005608023A031D080053088D2691312100C5
:10286000E100220053088D2691312100E70022006B
:1028700054082100E500E730DC00DD0186005D083A
:1028800087000108E4000130E4056736E200220019
:1028900058082000C800220057082000C900220064
:1028A0005508013E2000CA00210065082000CB0029
:1028B000210061082000CC00210064082000CD0028
:1028C000210062082000CE00220059087E279131A5
:1028D0002100E600FF3A03198C2C6608DC00DF308B
:1028E000DD01DC35DD0DDC35DD0DDC35DD0DDE003B
:1028F0002130DF005C085E0786005D085F3D8700D1
:102900000130E000650A852CE035890B842C6008D5
:10291000FF3A81058C2C8F242200BF0A080053083F
:102920008D2691312300BD00220053088D26913160
:102930002300BE00220053088D2691312300BF00E2
:1029400022005608FD3E2300B60022005808200051
:10295000BD00220057082000BE0022005908182799
:10296000913123003F0822003506031DEA2C230085
:102970003E0822003606031DEA2C23003D082200F3
:102980003706031DEA2C210068080319E42CE8032C
:10299000E42C53088D2691312300B7002200530800
:1029A0008D2691312200B90039080319080023004F
:1029B00037082000D600220008003B080319080051
:1029C0008B3100232200080022005B08703A0319B3
:1029D000C92CDD2C23003E082000AD0023003F0859
:1029E0002000AE0023003D08DE2691312300BB000D
:1029F000FF3A03198B2D3B08662791312E082300DF
:102A0000BA0020002D082300B90022005B08A83A74
:102A1000031D482D23003908073E2100D80000304F
:102A200023003A3D2100D900580886005908870044
:102A3000FF30810022005308860001308700010822
:102A40002100D800D90122005308053E8600403FEE
:102A50002100DA00413FDB0058085A078600590878
:102A60005B3D87000108031D462D22005408A0008D
:102A70002300390886003A0887004331010E0739E0
:102A80002200A10002302000DB00482DCE2691312B
:102A90002300BC01B801360838020318622D220059
:102AA00053088D2691312100D80023003C08A03E18
:102AB0008600013087002100580881002300BC0AED
:102AC000B80A4B2D220059082100A0002200580806
:102AD0002100A100220057082100A2002200550871
:102AE000013E2100A30023003D082100A400230093
:102AF0003E082100A50023003F082100A600A030C9
:102B0000A7000130A80023003C082100A9002200F2
:102B10005B088D314B2521006808031DE803080080
:102B2000592E220053088D2691312200D400013005
:102B30002000DC00063022005402031CA32DA12D2E
:102B4000A32DC4269131592E220053088D26913190
:102B50002200DA0002302000DC00053022005A0298
:102B6000031CBC2DB42DBC2D5A08FF3A0319BC2DF3
:102B7000BA2DBC2DC4269131592E220053088D2622
:102B800091312200DB0003302000DC00592E2200AE
:102B900053088D2691312200D60006302000DC003B
:102BA0001F3022005602031CD92DD72DD92DC42643
:102BB0009131592E220053088D2691312200D900DF
:102BC00053088D2691312200D80053088D2691316B
:102BD0002200D70004302000DC00592E07302000EE
:102BE000DC00220053088D2691312200D500592E99
:102BF00005302000DC0022005308043E860001302E
:102C0000870081015208031D062E0F2E52088B31BA
:102C10000023913122000F2E53088D26913122007E
:102C20005308043E86000130870056080102031C49
:102C30000C2E1B2E0C2E592E08302000DC002200FA
:102C4000530886000130870001082000B300B4015A
:102C500022005308053E8600403F2000B500413F5A
:102C6000B6003308350786003408363D8700010872
:102C7000B7003708FF3A031D462E3F2E462E22008E
:102C800053088D269131C42691314B2EC4269131A3
:102C900002302000DC00592EC4269131592E5C08E8
:102CA00084000830040203184C2E983104351C3E71
:102CB000820022005308860001308700433F200035
:102CC000AD005C08AE0006302E0203186E2E692E91
:102CD0006E2E0030AD08031D0130892E2E08063AF5
:102CE000031D7A2E742E7A2E03302D020030031825
:102CF0000130892E2E08073A031D882E802E882E3B
:102D00002200560820002D02003003180130892EC1
:102D100001300038031908004F2E2000B2008B1339
:102D20008600013087000108AD00AE013208053E83
:102D30008600403FAF00413FB0002D082F078600BE
:102D40002E08303D87000108B100320886000130AE
:102D50008700810A3208023E860032088400013072
:102D600085000008010232080318B82E8600810190
:102D7000033E86000130870081033208043E86004E
:102D8000810A8B17310808002000DC012200DB01DA
:102D9000D901D801D701D601D50108002200A00130
:102DA0000130A1000230A2000330A3000430A400CF
:102DB0000530A50006302000DB0008002000B3002D
:102DC000B40134085D02031CFF343408AF00D9306D
:102DD000B001AF35B00DAF35B00DAF35B00DB100AE
:102DE0002130B2002F08310786003008323D8700BD
:102DF00035308400003085000830FF0016001A00CE
:102E0000FF0BFE2E3508FF393306031D162F36083B
:102E1000FF392D06031D162F3708FF392E06031D17
:102E2000162F3C080319162F34080800B40AE12EA7
:102E30002000C6003D08AD003E08AE004608DE2674
:102E40009131C700FF3A031908005E08093EBF0030
:102E5000003003180130C0004708C100E030C20153
:102E6000C135C20DC135C20DC135C20DC3002130FF
:102E7000C4004108430786004208443D87004008DB
:102E8000803A803C031D462F3F08010203180800CA
:102E900020005E08093EBF004708C000E030C101C5
:102EA000C035C10DC035C10DC035C10DC2002130C6
:102EB000C30040084207C4004108433DC500440820
:102EC0008600450887003F08810008002000B00008
:102ED0002130B200D930B1003008AE00AF01AE35BC
:102EE000AF0DAE35AF0DAE35AF0D2E08B1072F08C3
:102EF000B23D3208AE003108AD0008002000D0001D
:102F00004808AD004908AE005008DE269131CF00D8
:102F1000FF3A031D9C2F4808BA004908BB004A0825
:102F2000BC004B08BD004C08BE004D08BF004E0859
:102F3000C00050088F31482F5008AD004808AE003F
:102F40004908AF004A08B0004B08B1004C08B20075
:102F50004D08B3004E08B4004F0890319E28200061
:102F6000B60136085D02031C08002130B500D930D7
:102F7000B4003608B200B301B235B30DB235B30DAB
:102F8000B235B30D3208B4073308B53D34088600B6
:102F90003508870047310108003A0319DA2F340851
:102FA0008600350887004731810BDA2F36089031CB
:102FB00079209131B60AB12F21000D160D1792110B
:102FC00032302400920095169515151195101510A4
:102FD000FF309300141794172000911192110800EC
:102FE0005608913123298B312823D6000800200070
:102FF000E21C08002300C001C1012000E21008000B
:103000000034003407340E3409341C341B341234B9
:10301000153438343F3436343134243423342A34AC
:103020002D34033405340734013409340B340D34A2
:103030000F341134133400349531912D9531A42D72
:103040009531BD2D9531C72D9531EE2D96311C2E24
:103050009531DA2D9531F82DFF3FFF3FFF3FFF3FC0
:1036D000FF3F230019082000D90065305902031C60
:1036E00006346430D9000634F2000830F300F401E7
:1036F0007208F1000730F136890B7B2B74357104A9
:10370000F400F23570087402031C882B7008F40270
:10371000F30B782B74080800F1002000DA00711C0C
:10372000942B22000E17962B22000E137108F00026
:10373000F036701C9E2B22008E17A02B22008E13B9
:103740007108F000F036F036701CA92B22000E161E
:10375000080022000E120800230019082200C200EF
:1037600042080319B52B1F30C200B62BFF30C6002C
:103770002000A00122004D08013EE1000530610259
:103780000318E1016108CD0022302000A400793047
:10379000A30022006108F0002330F101F200F301E0
:1037A0009F31A9279B3170082000A3077108A43D11
:1037B0002200E4012000230886002408870041310C
:1037C00001085A06031D2E2C2308860024088700B2
:1037D0004231010B2E2C23088600240887000108A3
:1037E00022004202031C2E2C2000230886002408FD
:1037F000870001085902031C2E2CA1012308860012
:1038000024088700010821020318242C2108F6004F
:10381000F7012307F8007708243DF90078088600AF
:103820007908870044310108FA0060088C3EFB00EB
:103830002330FC01FC3D7B0886007C0887007A0869
:103840008100E00AA10AFE2B2308860024088700D5
:1038500001082200E4006108C600342C2000053075
:10386000A00A2002031CBA2B0130F60020005A0ADD
:103870003A2CF635890B392C760822005F0503199E
:10388000C92C20006008083EF60000300318013003
:10389000F700803AF80080307802031D512C590857
:1038A00076020318C92C0130F60020005A0A592C60
:1038B000F635890B582C7608FF3A2200DF052000E8
:1038C00060088C3EF6002330F701F73D760886004D
:1038D0007708870001308100E00A60088C3EF6001E
:1038E0002330F701F73D760886007708870002301D
:1038F0008100E00A60088C3EF6002330F701F73DB6
:1039000076088600770887002200370881002000AB
:10391000E00A60088C3EF6002330F701F73D760898
:103920008600770887002200360881002000E00A20
:1039300060088C3EF6002330F701F73D76088600DC
:10394000770887002200350881002000E00A60081F
:103950008C3E860023308701873D8101E00A6008A4
:103960008C3EF6002330F701F73D76088600770895
:10397000870056088100E00A60088C3EF60023307C
:10398000F701F73D760886007708870056308100FA
:10399000E00A2000A20122085D02031CBB2D213099
:1039A000A600D930A5002208F600F701F635F70D7C
:1039B000F635F70DF635F70D7608A5077708A63D1D
:1039C000250886002608870047310108003A0319B8
:1039D000B92D250886002608870001304631F600FB
:1039E0005A0AF32CF635890BF22C760801050319D7
:1039F000B92D6008083EF600003003180130F700CA
:103A0000803A803C031D062D76085902031CBB2D0D
:103A10002000250886002608870001304631F60080
:103A20005A0A132DF635890B122D7608FF3A8105B7
:103A300060088C3EF6002330F701F73D76088600DB
:103A40007708870001308100E00A60088C3EF600AC
:103A50002330F701F73D76088600770887000230AB
:103A60008100E00A25088600260887000108FF3942
:103A7000F60060088C3EF7002330F801F83D770827
:103A800086007808870076088100E00A250886000D
:103A90002608870041310108FF39F60060088C3E96
:103AA000F7002330F801F83D770886007808870092
:103AB00076088100E00A2508860026088700423142
:103AC0000108FF39F60060088C3EF7002330F8014A
:103AD000F83D770886007808870076088100E00ABC
:103AE0002508860026088700433101080F39F600B3
:103AF00060088C3EF7002330F801F83D7708860017
:103B00007808870076088100E00A250886002608E4
:103B1000870044310108FF39F60060088C3EF70049
:103B20002330F801F83D770886007808870076088A
:103B30008100E00A25088600260887004531010833
:103B4000F600F63525088600260887004331010D6A
:103B5000010D01397607F70060088C3EF80023302C
:103B6000F901F93D78088600790887007708810017
:103B7000E00AA20ACB2C9E31602E230019082000F7
:103B8000E100D808031DC52DAC2E610803190334CC
:103B90001F30610203180A3461085802031C0A34FA
:103BA0002100E80A01302200C50020000334200073
:103BB0005F088C3EA2002330A301A33D22088600AB
:103BC000230887002300190881002000DF0A580815
:103BD000013EA200003003180130A3005F08220656
:103BE0002304031D0334AC2E23001908FD007D0BB4
:103BF0000A2E22004608FF3A0319012E46088C2798
:103C00009D312000E001220044082A3A03190A34B9
:103C1000C101112E2200C10A0630410203180A34E4
:103C2000602E23001D122100911223009E164508CC
:103C3000643C2200E300043063020318222EF801E2
:103C4000F901292E6308F800FD30F901F807031C7B
:103C5000F9037808E3006308A2269D31FF30FA01DA
:103C60002200C3001F306302031C502EFB017B089F
:103C7000DC279D31A9279D317B30D1279D31031D44
:103C80004B2E7B08DC279D31A9279D317C30D12725
:103C90009D310319FA0A0530FB0A7B02031C372EFB
:103CA0002200C5017A082100680203185A2E68080C
:103CB000FA025B2EFA017A08A2269D31862701348A
:103CC0002000D701C9279D316008A2269D31200020
:103CD000600803197B2E6030F0000030E2279D3130
:103CE00052279D31D7006430F0000130E2279D312A
:103CF00052279D31D70022006408A2269D31FC0185
:103D0000200060087C0203189A2E7C088C3EFA0082
:103D10002330FB01FB3D7A08F0007B08E2279D3150
:103D200052279D31D7007C08E8279D31A2269D317E
:103D3000FC0A802E60080319A02E5708A2269D3188
:103D400086270934F0002000111EA32E70082300DE
:103D50009A009E180800A92EC9279D3158080319FA
:103D6000142F5F08FA008B30FB01FC002330FD00AC
:103D70007A087C0786007B087D3D87000108A0004B
:103D8000DF03D7015F30F0000030E2279D3152277A
:103D90009D31D7006130F0000030E2279D3152277D
:103DA0009D31D7008C30F0002330F1005F08F20025
:103DB000F301570852279D31D700C9279D312008AC
:103DC00057060319F42E0030A2269D3186279D3117
:103DD0002000DF012200C10A06304102031C013429
:103DE00045082100E8020A345A08F000C2302027B2
:103DF0009D3122004308F000C23020279D31200071
:103E0000A1015808210203180F2F2108E8279D312E
:103E1000F000C23020279D312000A10A012FFF3081
:103E2000F000C23020279D310130A2269D31862727
:103E30009D31220044082A3A031D0A34C101053489
:103E4000F700770A8600013087000108F100F201CF
:103E50007708053E8600403FF300413FF4007108BB
:103E60007307F5007208743DF60075088600760841
:103E7000870070088100770AEF279D31023E860097
:103E8000770A8400013085000008010203184B2FD7
:103E9000770A860081017708033EEF27033E8600FC
:103EA00001080800F9007108F6007008F5000130FB
:103EB000F2020030F33B720A0319730A0319842FCC
:103EC00075088600760887000108F4000430F4368F
:103ED000890B672F790E0F397406FB2798310A007A
:103EE0009F31F5279D317508860076088700790E89
:103EF0000F390106FB2798310A009F31F5279D31C4
:103F0000F50A0319F60A572F7908080023009E12B4
:103F10001D16210091160800F800053078020318DC
:103F200008007808DC279D31A9279D317B30BE270A
:103F30009D317808DC279D31A9279D317C30BE2733
:103F40009D317808DC279D31A9279D317930BE2726
:103F50000800F401F501701CB12F7208F407730812
:103F6000F53DF235F30DF136F00C71087004031DC8
:103F7000AB2F7508F1007408F0000800F60022303D
:103F8000F7007008760786007108773D8700810189
:103F9000080023001D122100911223009E1620000C
:103FA0000800F6002230F7007008760786007108D6
:103FB000773D870001080800F0002330F101F2008E
:103FC000F3010800F100F201F20AF30157080800BA
:103FD0008C3E860023308701873D0108080086005B
:103FE00001308700810A77080800F400790EF03963
:103FF0007406F9000800F700F8010F39013E0800C7
:020000040001F9
:04000E00CCCFFFFF55
:00000001FF
