:101400008B313E2BFF3FFF3F8A3120007F08A90030
:10141000911E3C2A2200CA08031D102A20001C111C
:1014200021009110003023001D1901302000AC0074
:101430002C0303191E2A23009D1C232A23001908AC
:101440002000AB002C2A210091102200CA0A9D31F5
:1014500047258A312200BC0022003C080A3A0319C1
:10146000342A20002C0B382A92310F228A313C2A50
:101470002200B801200062142700131D512A8B118D
:10148000111121000C152200BC012A30C3009D312E
:1014900047258A312200BC00B801200062142700D1
:1014A000131120009118DE2AEC2A23001D122100BE
:1014B000911223009D139D1722004608AC002000C6
:1014C000AA01632AAA0A5D08FF3EA700FF3003189D
:1014D0000030A800803A803C031D702A27082A02A9
:1014E00003188F2A2200AC0A20005D0822002C027B
:1014F0000318AC012C08203E86000130870001084B
:10150000903102208A312C08C60020008D1A622AF0
:101510008B152700111520001C112100911001309E
:101520002200B50020009A019B00EA2A4908203ECB
:101530008600013087000108903102208A31490875
:10154000C60020008D1AAC2A8B152700111520002B
:101550001C1121009110EA2A21008D1220008D1209
:1015600002302200B50020009C141C1422002E081A
:10157000223E20009B009D3172258A312200AD0061
:101580000C30F0002D089D315A258A31AE00200024
:101590005D08F00022002D089D315A258A31C900CE
:1015A000EA2A21008D169F319A278A3120001C14C7
:1015B0009C105F309B002200B501EA2A220035080A
:1015C000003A0319552A013A0319962A033A0319D6
:1015D000D12AEA2A20009110931C0F2B2200AA0A7C
:1015E0000319AB0A5F0B0D2BA60A0319A70A0030DB
:1015F0002702113003192602031C0D2B0730A60108
:10160000A701CC0A4C020318082B01308E060D2BC3
:101610000E100B304C020318DF012000931011183C
:1016200011100B1D3A2B2200B70A2000621C2B2B35
:10163000033022003802031C2B2B44080319272BEC
:10164000200061080319272BE1032200C401923115
:101650000F228A31302B2000621C302B2200B80A66
:101660000A302200DA0A5A02031C392BDA017F30D1
:10167000D9000B1120002908FF0009009231332AFC
:10168000C60005304602031808003E08093EBF00A8
:10169000003003180130C000803AFF0080307F0224
:1016A000031D542B1F303F02031808002230200076
:1016B000C9003D30C8004608AD002330AE01AF0080
:1016C000B001963169268B312D08C8072E08C93D17
:1016D0004908CB004808CA000430CA070318CB0ADF
:1016E0004808860049088700423181014808033EC6
:1016F000EC238B31013081004808013EEC238B3113
:1017000033088100CC014A0886004B088700340862
:101710008100CC0A3E08033EBF004C08C000C10156
:101720004A07C20041084B3DC300420886004308F7
:1017300087003F08DD238B313508DD238B313608E8
:10174000DD238B313708DD238B313808DD238B31E6
:101750003908DD238B313A08DD238B313B088100CA
:10176000CC0AC7013E0847020318D12B4708BF0027
:10177000C0013C07860040083D3D87000108C100CC
:101780004C08C200C3014A07C40043084B3DC500D2
:10179000440886004508870041088100CC0AC70A32
:1017A000B22B48088600490887004C088100480889
:1017B000023EEC230130810008008100CC0A4C0875
:1017C000BF00C0014A07C10040084B3DC2004108AC
:1017D0008600420887000800BF000030493DC00075
:1017E0003F088600400887000800230019082200EF
:1017F000BF0065303F02031C06346430BF0006346E
:101800008C318207022C032C042C052C062C072C6F
:10181000082C092C0A2C0B2C0C2C8C31282C9431E4
:10182000AA2C8C318207132C91315C299D31B92D62
:10183000903122289131712991318A298B31F52BF0
:101840009D31AF2D9E310A2E9F31672F9D31922DF4
:101850005608A83A031D9D2C29087F26963121267B
:101860008C312100D100D108031D08008B11270005
:10187000111121000C15200095018B121C11210063
:101880009110280095011711210093100B138B1351
:1018900023009D139D179E121D12210091121230DC
:1018A00097002500930120008E158E16FF3025002D
:1018B000910021009D012700131120009310911029
:1018C00093110B138B1323009D138B1322005408C9
:1018D0002000AD0000302F258C3195186D2C220092
:1018E00053082000AD0001302F258C319518762C3F
:1018F000220052082000AD0002302F258C319518AF
:101900007F2C22004F082000AD0003302F258C31A2
:101910009518882C8B1301309331BB238C3195188B
:101920008F2C8B13013094311B248C319518962CFD
:101930008B136400010064009B2C5608A03A031D21
:10194000BD2C2100C401C40AC501C601C701C70AD4
:10195000C801C901CA01CA0ACB01CC0122002F0863
:101960002100CD00CE01CE0ACF0186268C31C430B5
:10197000AD000C30AE00A130592D5608A23A031D1F
:1019800008002100D001D201520820005F02031C90
:10199000242D2100520820009731B1278C31963137
:1019A00069268C316B302100AF002130B00020005F
:1019B0002D0821002F07860020002E082100303D31
:1019C0008700D3308400003085000730FF00160008
:1019D0001A00FF0BE72C59080319222D56080F395E
:1019E000013A031D222D0130AF00560E0739890A36
:1019F000FA2CAF35890BF92C2F08D00493268C31A3
:101A00004C258C31013EB13E8600870121005308F0
:101A1000FF39810093268C314C258C31023EB13E3A
:101A20008600870121005408FF39810093268C31FC
:101A30004C258C31033EB13E8600870121005508BC
:101A4000FF398100D20AC42C21005008B10086263B
:101A50008C31B130AD001330AE00A330592DAE0043
:101A600023009518302D20002E08230091009201AC
:101A700020002D08230093003F30950503108B1B99
:101A800003148B13151555309600AA309600951443
:101A9000151103188B1708002000AF00AE012D08A8
:101AA0002F18AE07AD35AF36AF08031D4F2D2E08EA
:101AB00008002000D40057082100A000200056088C
:101AC0002100A100200055082100A200A3012A083E
:101AD000A4002B08A5002C08A6002D08A700A8012B
:101AE0002E08A90020005408752D2000CF002100E9
:101AF00025082000B300210026082000B4002100A2
:101B0000240802268C31D000FF3A0319FE34500815
:101B10003A263408CE003308CD00D3012230D2005B
:101B20003D30D1005308AD002330AE01AF00B0010D
:101B3000963169268C312D08D1072E08D23D5208E6
:101B4000AE005108AD004F08AF002100240820006E
:101B5000B000210025082000B10021002608200047
:101B6000B2004F268C310038031DC62D5108860067
:101B70005208870042310108031DFC2D51088600E0
:101B80005208870043310108031DFC2D4D088600D3
:101B90004E0887004331010E0739B3004F08B400E7
:101BA000210020082000B500210021082000B600F7
:101BB000210022082000B700210023082000B800DF
:101BC000210024082000B900210025082000BA00C7
:101BD000210026082000BB00210028082000BD00AD
:101BE000210027082000BC00210029082000BE0099
:101BF00053088B31402300340530D30A53020318B5
:101C0000FF348E2D2000B700B80138085F02031C96
:101C1000FF3438089731B1278C31963169268C31E1
:101C20006B30B5002130B6002D08350786002E0830
:101C3000363D870039308400003085000730FF00D2
:101C400016001A00FF0B202E3908FF393706031D36
:101C5000382E3A08FF393306031D382E3B08FF396A
:101C60003406031D382E3F080319382E38080800A3
:101C7000B80A052E2000B6002130B8006B30B7003E
:101C800036089731B1278C31963169262D08B70770
:101C90002E08B83D3808B4003708B3000800A0305B
:101CA0002F02031800342D0886002E0887004231C9
:101CB000010B00342D0886002E08870044310108EE
:101CC0002F06031D00342D0886002E0887004A3198
:101CD00001083006031D00342D0886002E088700F9
:101CE0004B3101083106031D00342D0886002E08F3
:101CF00087004C31010832060319013400342000FA
:101D0000AE00220028082000AD0008002200540880
:101D10002100AA00220053082100AB002200520833
:101D20002100AC00080003302000AD002100560E59
:101D300007390800220034080319A12E2000580892
:101D400008002000B501B601B801B90139085F02E9
:101D5000031CEF2E2130BB006B30BA0039089731DD
:101D6000B1278E31963169268E312D08BA072E089B
:101D7000BB3D3A0886003B08870046310108003A1F
:101D80000319ED2E3A0886003B0887004331811F76
:101D9000ED2E3A0886003B088700433101080F39D1
:101DA000AD000C30AE01AF00B001FC262D08B7002D
:101DB0003A0886003B08870044310108FF39AD002E
:101DC000AE013708AF00B001963169268E312D087B
:101DD000B5072E08B63D3708B807B90AA62EB808C9
:101DE000031900343808AD00AE013608B0003508DC
:101DF000AF003C272D080800B201AE1F062FAD0929
:101E0000AE09AD0A0319AE0AB201B20AB01F0F2F14
:101E1000AF09B009AF0A0319B00A0130B206B30125
:101E2000B4012E082D0403192F2FB101B10AAE1BE6
:101E30001C2FAD35AE0D162FB335B40D2E08300264
:101E4000031D242F2D082F02031C2B2F2D08AF025A
:101E50002E08B03B3314AE36AD0CB10B1C2F32083C
:101E60000319372FB309B409B30A0319B40A3408A4
:101E7000AE003308AD000800B101B2012E082D04F8
:101E800003195C2FB301B30AAE1B492FAD35AE0D5C
:101E9000432FB135B20D2E083002031D512F2D08EE
:101EA0002F02031C582F2D08AF022E08B03B31140F
:101EB000AE36AD0CB30B492F3208AE003108AD0081
:101EC0000800C600D1278F31C700FF3A0319FF343D
:101ED0002130C9006B30C80047089731B1278F31D6
:101EE000963169268F312D08C8072E08C93D48084C
:101EF0008600490887000108460600394606F8278B
:101F00008F31413101083D0600393D06F8278F31F8
:101F1000423101083E0600393E06F8278F31433131
:101F200001083F06F0393F0681004008C300480819
:101F30008600490887004331C30E010843068F39E4
:101F40004306F8278F314431010841060039410624
:101F5000F82743314208031D8117031981134808EC
:101F6000053EC3000030493DC400430886004408D4
:101F700087007F3081006008053EC3004808063EA8
:101F8000C4000030493DC50044088600450887006C
:101F900043088100E00A47085F024708031CDF008E
:101FA0000800B50135089731B1278F319631692680
:101FB0008F316B30B3002130B4002D083307860019
:101FC0002E08343D8700363084000030850007300D
:101FD000FF0016001A00FF0BE92F3C08031DF22F2B
:101FE000350808001E30B50A35020318FF34D22F19
:101FF000810048088600490887000800FF3FFF3F2E
:10200000FF3FFF3FF1002000DB00711C0A28220087
:102010000E170C2822000E137108F000F036701C09
:10202000142822008E17162822008E137108F00043
:10203000F036F036701C1F2822000E160800220011
:102040000E120800230019082000DA00EC30860088
:1020500022308700433101089B3C2200DC00043021
:102060005C0203183628F001F1013D285C08F000FD
:10207000FD30F101F007031CF1037008DC0065304E
:1020800020005A0203180A345A0822005C02031C7A
:102090000A340234BD002130BF006B30BE003D0861
:1020A0009731B12790319631692690312D08BE07BE
:1020B0002E08BF3D3E08BE2090310F39BA003608C9
:1020C0003A02031CB2283E08BE2090313606F03991
:1020D000360681003708BA003E0886003F088700B0
:1020E0004331BA0E01083A068F393A0681003E089C
:1020F00086003F0887004431010838060039380659
:1021000081003E08053EBA0000303F3DBB003A0862
:1021100086003B0887007F3081006008053EBA00DA
:10212000003003180130BB003E0886003F088700DE
:1021300046313B08803A803C031DA0283A08010242
:102140000318B22820006008053EBA003E08063E8B
:10215000BB0000303F3DBC003B0886003C088700C8
:102160003A088100200039080319BC283E0886007F
:102170003F088700433181173D08080086003F086B
:102180008700433101080800B0002200B201B1010C
:102190002000B008031DCF282200B00120291A30EA
:1021A00030020318D7282200B001B00A20293330AA
:1021B00030020318DD280530E8284D3030020318BE
:1021C000E3281530E828663030020318EB28553034
:1021D0002200B0002029803030020318F528553045
:1021E0002200B000B101B10A202999303002031851
:1021F000FE2855302200B00005300E29B3303002E1
:102200000318072955302200B00015300E29CC30B4
:1022100030020318102955302200B000B1002029E7
:10222000E6303002553003181B292200B000B100FF
:10223000B201B20A20292200B000B1000530B2007C
:1022400006302000AD0022003008322190310730E6
:10225000AD0022003108322190310830AD0022005B
:10226000320832292000AF0024001614502190318A
:10227000031D3629C0302400910050219031031DE8
:102280003D292D082400910050219031031D44293F
:102290002F082400910050219031031908004B2988
:1022A0002400140C890C01392000AE00240016080B
:1022B0001F3920002E0408003B088C3EFA00233012
:1022C000FB01FB3D7A0886007B0887002300190884
:1022D00081002200BB0A3B0820005A06031D03347C
:1022E0008A29230019082200C1002000DA08031DF2
:1022F0007A298A2922004108031903341F30410238
:1023000003180A3420308C062000E10A0130220034
:10231000C4000334FC21913120005A080319BA2962
:10232000EC30F0002230F1005B08F200C92191315D
:10233000EC30F0002230F10022004208F200C92106
:102340009131F90120005A087902EC30F000223076
:10235000F1000318B72979088C3E860023308701E5
:10236000873D0108F200C9219131F90AA229FF3005
:10237000F200C92101309F31902791319F319A2776
:102380009131220043082A3A031D0A340530BD0169
:102390000800032291310108F300F4017007F500F1
:1023A0007408713DF6007508053EF7000030763D73
:1023B000F8007708860078088700720881000322F9
:1023C00091310922913142317008840071088500F1
:1023D00001310008010270088600710887000318A7
:1023E000F729413181017008860071088700433167
:1023F000092243310108080023001D122100911217
:1024000023009E160800700886007108870041317D
:102410000800810A70088600710887000800200003
:1024200062102200CA012522923123001D122100D0
:102430009112162320001C149C105F309B00193051
:102440009B002200B501B80108002000D901DA0183
:1024500022002B30BF01BD01C3000530BC00FF309E
:10246000BB01C20008006B3084002130850085303C
:10247000FE000230FF009D314E2592315530FD01A6
:10248000E2018400003085000D30FE00FF019D3127
:102490004E25923120308400013085003F30FE000F
:1024A000FF019D314E25923122000130DF002000D6
:1024B000592A2030AD000030FF229231130820004D
:1024C000D7002130AD000030FF22923113082000E8
:1024D000D6002230AD000030FF22923113082000D8
:1024E000D5002330AD000030FF22923113082200C6
:1024F000AF002000570855062100E40020005608D0
:102500005507210064062000DC00123021009700EE
:102510004C2392312100E500703099003130980051
:1025200080239231A123923100306B23923123001A
:102530001D122100911223009E12EC302000AD00EC
:102540002230AE002E239231EC30AD002230AE00AE
:102550000D30AF00AA2392310B302000AD000030C7
:102560005A2392316A239231210065080319BF2A48
:102570000030BB23923100301B24923101006400F3
:102580001B3021009700162392310B178B178B17E6
:1025900020009C141C1437309B00280095019714D0
:1025A000171417179716171697154C30960017150E
:1025B0002100931420009501210095129511151505
:1025C000951415148B16A12792312200DF01DF0A22
:1025D0006400322492316400083022003702031C68
:1025E000F52A722792312200B7011E23923164002E
:1025F0009A27923164007D2392316400E82AAE006C
:102600002D082300910020002E08230092001513AE
:10261000951715140000000000000000640023005E
:1026200015180F2B640023009513080020009A0151
:10263000FA309B001C15210091140800DF08031DCF
:1026400008000B303A02031C08000D303A02031C4C
:102650002C2B0E10BA0108000E1408002D0886005D
:102660002E08870081012D0886002E088700413141
:1026700081012D08023EAF0000302E3DB0002F0832
:102680008600300887009A3081002D0886002E08C9
:102690008700433181010800B8302000AD000030D0
:1026A000FF22140813082000AF00333A003003194A
:1026B00001300800AE0059262D082200B600200087
:1026C0002E082200B9002B30C3000530BC00FF30BB
:1026D000C2000800EC2F2000AD00742B22000E1069
:1026E000080022000E1408002D08003A03196E2B72
:1026F000013A0319712B7C2B0800A5279231A22FD8
:10270000FF308C008D0006308E0029309D009E1316
:102710001E179E161E129E101E1023008E112000E2
:102720008E118E1223008D120C110E138E130E10AB
:1027300022000E138E130E1221008C1222008C1216
:10274000080023009D171E159F1507309B009C0154
:102750001E120800DE012200D601D10120002E0841
:102760002200A90020002D082200A80020002F0828
:102770002200CE0008002000B100B830AD00AE014C
:10278000D123923120003108B830AD003F30AE0087
:102790000319CE2B3330AF000030F42B0030AF01E3
:1027A000F42B2D082300910020002E082300920016
:1027B0001513951715161515EA23923123001511D7
:1027C00064002300151AE12B64002300951395186B
:1027D000E72B080055309600AA30960095140000AB
:1027E0000000000000000800B00023009517151538
:1027F00015121513951620002D08230091002000B6
:1028000030082300920020002F08230093002000AE
:102810002E0823009400EA23923123009512EA2324
:10282000923123001511640023009518142C6400C4
:102830002300951308002000B100D030AD00AE0198
:10284000D123923120003108D030AD003F30AE00AE
:1028500003192E2C2730AF000030F42B1130AF00BD
:102860000030F42B4D2C842492314D2C0F279231C3
:102870004D2C492792314D2C232792314D2C9424F5
:1028800092314D2C052792314D2C5D2492314D2CE7
:10289000332792314D2C7A249231532792310038CC
:1028A000031908005E0884000830040203184B2C4A
:1028B00098310435003E82004D2C05302000DE00AA
:1028C000C0279231443181014E0803196C2C4E0807
:1028D0008C31002492312200C027923144315108BA
:1028E00001020318080029088E317F269231212623
:1028F00092316C2C2000DE012200D601D401D301DC
:10290000D201D101D00108002200A927923121264D
:1029100092312200CF0001302000DE00063022007C
:102920004F02031C08007A2C2200A927923121268D
:1029300092312200D400A92792312126923122001F
:10294000D300A927923121262200D2000430200092
:10295000DE00080064002200540820005706031D12
:10296000CD2C2200530820005606031DCD2C22003A
:10297000520820005506031DCD2C2100E101220044
:10298000510821006102031808002200A927923192
:10299000212692312100E10ABF2C7030220056021C
:1029A0000318292D560B2A2D29088E317F269231A6
:1029B000212692312100DF002200A9279231212611
:1029C00092312100E00022004F082100E2002200A5
:1029D00053082000CA00220052082000CB00220029
:1029E0005008013E2000CC00210062082000CD00EC
:1029F00021005F082000CE00210060082000CF00E9
:102A000022005408D72692312100E300FF3A03192F
:102A10002A2D63082000B127923169269231703047
:102A20002100DC002130DD0020002D0821005C07A2
:102A3000860020002E0821005D3D87000130DE0069
:102A4000620A232DDE35890B222D5E08FF3A8105AF
:102A50002A2D2D252200BA0A0800A9279231212605
:102A600092312300BD002200A92792312126923104
:102A70002300BE002200A927923121269231230093
:102A8000BF0022005108FD3E2300B600220053087B
:102A90002000C000220052082000C100220054087B
:102AA0009126923123003F0820005506031D8C2DEE
:102AB00023003E0820005606031D8C2D23003D08F0
:102AC00020005706031D8C2D61080319862DE10394
:102AD000862DA9279231212692312300B7002200AA
:102AE000A9279231212692312200B400340803191B
:102AF0000800230037082000D8002200080036080C
:102B0000031908008C310024220008002200560816
:102B1000703A0319692D7F2D23003E082000B30071
:102B200023003F082000B40023003D088E31022618
:102B300092312300BB00FF3A03191C2E3B088E3153
:102B40003A26923134082300BA00200033082300CB
:102B5000B90022005608A83A031DD82D23003908D1
:102B6000063E2100DA00003023003A3D2100DB0060
:102B70005A0886005B088700FF308100B727923132
:102B80007E2692310038031DD62D22004F08A0006A
:102B90002300390886003A0887004331010E0739BF
:102BA0002200A10002302000DD00D82D59269231EC
:102BB0002300BC01B801360838020318F32D2200A7
:102BC000A9279231212692312100DA0023003C0806
:102BD000A03E86000130870021005A0881002300B2
:102BE000BC0AB80ADB2D220054082100A0002200F4
:102BF00053082100A100220052082100A200220057
:102C00005008013E2100A30023003D082100A4003C
:102C100023003E082100A50023003F082100A60054
:102C2000A030A7000130A80023003C082100A90023
:102C3000220056088D31752520006108031DE1032F
:102C400008002D0886002E0887000108AF00B0019B
:102C50002D07B10030082E3DB20031088600320841
:102C6000870045310108B3002D0886002E08870033
:102C7000810A2D0886002E08870042312D08840025
:102C80002E088500000801022D0886002E08870006
:102C900003184F2E81012D0886002E08870043312E
:102CA00081032D0886002E0887004431810A3308ED
:102CB00008002200A0010130A1000230A200033070
:102CC000A3000430A4000530A50006302000DD007C
:102CD0000800B101B2012D1C712E2F08B107300878
:102CE000B23DAF35B00DAE36AD0C2E082D04031D30
:102CF0006B2E3208AE003108AD0008002D088600AA
:102D00002E0887000108AF00B0012D07B100300880
:102D10002E3DB20031088600320887004531010897
:102D200008002000C7004008B3004108B40047086D
:102D30008E3102269231C800FF3A0319080060085C
:102D4000053EC200003003180130C3004808B12717
:102D50009231692692317130C4002130C5002D08AE
:102D6000440786002E08453D87004308803A803C92
:102D7000031DBC2E42080102031808002000600851
:102D8000053EC2004808B127923169267130C30060
:102D90002130C4002D084307C5002E08443DC6005D
:102DA0004508860046088700420881000800200088
:102DB000D1004A08B3004B08B40051088E310226F6
:102DC0009231D000FF3A031DF42E4A08BD004B0893
:102DD000BE004C08BF004D08C0004E08C1004F089F
:102DE000C20051088F31612F5108B3004A08B40066
:102DF0004B08B5004C08B6004D08B7004E08B800A7
:102E00004F08B900500890314A2807302000DE00F2
:102E10002200A927923121262200D000080022009A
:102E2000A9279231212692312200D50002302000BC
:102E3000DE00053022005502031C08005508FF3A49
:102E4000031908007A2C2200A927923121269231F9
:102E50002200D10006302000DE001F302200510287
:102E6000031C08007A2C08302000DE00B7279231BE
:102E70007E269231B400FF3A031D442F2200A92779
:102E80009231212692317A2C7A2402302000DE0001
:102E900008002200A927923121262200D600033003
:102EA0002000DE000800C0279231433101082000D5
:102EB000AD005E08AE0006302E020318642F00300D
:102EC000AD08031D013008002E08063A031D6A2FC5
:102ED0000330C62F2E08073A031D01342200510883
:102EE0002000C62F2000B80138085F02031C08002C
:102EF0002130B7006B30B6003808B127923169260F
:102F000092312D08B6072E08B73D360886003708DF
:102F1000870046310108003A0319982F36088600C9
:102F2000370887004631810B982F3808CB2792311C
:102F3000B80A742F7D1C08002200AA01AB017D1085
:102F40000800080058089031C4288E319A26D8000D
:102F5000080029082000AE00220028082000AD004B
:102F60000800AD000730AE01AF00B001080022003C
:102F700029082000AE00220028082000AD0008002B
:102F80002200280886002908870008002D0200304A
:102F9000031801300800B5001E3035020318080080
:102FA0002130B4006B30B3003508B1279231692667
:102FB00092312D08B3072E08B43DE0033308860094
:102FC00034088700463181015F083506031D08007B
:102FD0003508031DDF03080021000D160D1792119F
:102FE0003230240092009516951515119510151084
:102FF000FF309300141794172000911192110800CC
:103000009431332C9431362C9431392C94313C2C1E
:103010009431422C9431482C94313F2C9431452CDE
:103020000034033405340734013409340B340D34CF
:103030000F34113413340034FF3FFF3FFF3FFF3F95
:103A8000FF3FFF3FFF3FFF3FFF3FFF3FFF3F3C0840
:103A9000113E98310A008C31112408006400013075
:103AA00080010131FE020030FF3B7F087E040319D4
:103AB00000344F2DF2000830F300F4017208F100D9
:103AC0000730F136890B612D74357104F400F2353D
:103AD00070087402031C6E2D7008F402F30B5E2D47
:103AE000740808005C08F0000430F036890B752D6E
:103AF0005C08F100F136F136F1365C08F200F2367E
:103B0000F2367208710670065C06F3000130F305A8
:103B10007308F0000730F035890B8B2D5C3670048C
:103B2000DC00080023001908FC007C0BA82D2200F3
:103B30004508FF3A03199F2D450835279D31200080
:103B4000D901220043082A3A03190A34BD01B92DCC
:103B500022000630BD0A3D0203180A34672F2300F5
:103B600019082200C00040080319B82D1F30C000FA
:103B70000A2E9131FC219D31EC30860022308700E5
:103B8000433101089B3C2200DD0004305D02031834
:103B9000CC2DF801F901D32D5D08F800FD30F901B5
:103BA000F807031CF9037808DD005D0890279D31B4
:103BB000FF30FA012200C2001F305D02031CFA2D03
:103BC000FB017B08D6279D3152279D313F30DC27F2
:103BD0009D31031DF52D7B08D6279D3152279D3140
:103BE0004030DC279D310319FA0A0530FB0A7B02BD
:103BF000031CE12D2200C4017A0820006102031891
:103C0000042E6108FA02052EFA017A0890279D31E8
:103C10009A270134FF30C5002000A00122004B0884
:103C2000013EDB0005305B020318DB015B08CB00C3
:103C300022302000A4003D30A30022005B08D627DC
:103C40009D3152279D3170082000A3077108A43DC3
:103C50002200BE012000230886002408870041318D
:103C600001085B06031D772E2308860024088700C1
:103C70004231010B772E2308FA279D314002031CA5
:103C8000772E20002308FA279D313F02031C772E50
:103C90002000A101230886002408870001082102D2
:103CA0000318702E2108F600F7012307F8007708A3
:103CB000243DF9007808860079088700443101081E
:103CC000FA0059088C3EFB002330FC01FC3D7B08C8
:103CD00086007C0887007A088100D90AA10A4A2E4A
:103CE0002308FA279D31BE005B08C5007D2E200009
:103CF0000530A00A2002031C0E2E0130F600200021
:103D00005B0A832EF635890B822E76082200590530
:103D10000319C32E20005908F2279D31F800803086
:103D20007802031D962E22003F0876020318C32E48
:103D30000130F60020005B0A9E2EF635890B9D2E81
:103D40007608FF3A2200D9052000B3279D310130C3
:103D50008100D90AB3279D3102308100D90AB327E7
:103D60009D3157088100D90AB3279D31560881003B
:103D7000D90AB3279D315508E7279D31B3279D31D7
:103D80005808E7279D312000A20122085F02031C8A
:103D9000342F2130A6006B30A5002208F000073038
:103DA000F101F200F30152279D3170082000A507B0
:103DB0007108A63D250886002608870046310108BF
:103DC000003A0319322F2508C9279D31010503192F
:103DD000322F5908F2279D31803C031DF22E7608C0
:103DE00022003F02031C342F20002508C9279D31E3
:103DF000FF3A8105B3279D3101308100D90AB327ED
:103E00009D3102308100D90A2508860026088700E6
:103E10000108FF39A0279D3141310108FF39A02752
:103E20009D3142310108FF39A0279D3143310108FE
:103E30000F39A0279D3144310108FF39A0279D315A
:103E40004331010D010D0139F60059088C3EF70090
:103E50002330F801F83D7708860078088700760857
:103E60008100D90AA20AC52E672FF8000530780212
:103E7000031808007808D6279D3152279D313F301E
:103E8000BE279D317808D6279D3152279D3140307D
:103E9000BE279D317808D6279D3152279D313D3070
:103EA000BE270800F401F501701C5A2F7208F407B0
:103EB0007308F53DF235F30DF136F00C710870041E
:103EC000031D542F7508F1007408F00008009131AB
:103ED000FC219D312000590890279D3122003E0889
:103EE00090279D31F10120005908710203188E2F8F
:103EF00071088C3E860023308701873D010890279A
:103F00009D310A302200DE002200DE035E08FF3A07
:103F100003198C2F0000842FF10A732F9A2709347C
:103F2000F0002000111E912F700823009A009E18A7
:103F30000800972F23009E121D16210091160800DD
:103F4000F60059088C3EF7002330F801F83D770859
:103F500086007808870076088100D90A250886003F
:103F600026088700080059088C3EF6002330F70128
:103F7000F73D76088600770887000800F6002230B3
:103F8000F7007008760786007108773D8700810189
:103F9000080086002608870001304531F6005B0ADC
:103FA000D22FF635890BD12F76080800F000233088
:103FB000F101F200F3010800F6002230F70070086A
:103FC000760786007108773D8700010808008100A8
:103FD000D90A59088C3E860023308701873D81012C
:103FE000D90A0800083EF600003003180130F70037
:103FF000803A080086002408870001082200080093
:020000040001F9
:02000E00CCCF55
:00000001FF
