:1015B0008C31152CFF3FFF3F8A3120007F08A900A6
:1015C000911E142B2200C908031DE82A20001C11BB
:1015D00021009110003023001D1901302000AC00C3
:1015E0002C030319F62A23009D1CFB2A230019084B
:1015F0002000AB00042B210091102200C90A993170
:10160000D6218A312200BE0022003E080A3A031980
:101610000C2B20002C0B102B9A315F228A31142BBB
:101620002200BB01200061142700131D292B8B1100
:10163000111121000C152200BE012A30C20099317F
:10164000D6218A312200BE00BB0120006114270090
:10165000131120009118B52BC32B23001D1221005C
:10166000911223009D139D1722004508A60020001B
:10167000AA013B2BAA0A5A08FF3EA700FF30031815
:101680000030A800803A803C031D482B27082A021E
:101690000318672B2200A60A20005A0822002602FF
:1016A0000318A6012608C03E860001308700010805
:1016B0009A311D228A312608C50020008D1A3A2B46
:1016C0008B152700111520001C11210091100130ED
:1016D0002200B80020009A019B00C12B4808C03EA0
:1016E00086000130870001089A311D228A3148089E
:1016F000C50020008D1A842B8B15270011152000A2
:101700001C1121009110C12B21008D1220008D127F
:1017100002302200B80020009C141C14220028086B
:10172000223E20009B009A313D228A31A7000C30D6
:10173000F00027089A3105228A31A80020005A08B3
:10174000F000220027089A3105228A31C800C12BF7
:1017500021008D169F3180278A3120001C149C1097
:101760005F309B002200B801C12B22003808003AEC
:1017700003192D2B013A03196E2B033A0319A82BD9
:10178000C12B20009110931CE62B2200A40A031900
:10179000A50A5F0BE42BA00A0319A10A003021025D
:1017A000113003192002031CE42B0730A001A10112
:1017B000CB0A4B020318DF2B01308E06E42B0E10F0
:1017C0000B304B020318DF01200093101118111089
:1017D0000B1D112C2200BA0A2000611C022C0330C0
:1017E00022003B02031C022C43080319FE2B21009C
:1017F0006F080319FE2BEF032200C3019A315F2209
:101800008A31072C2000611C072C2200BB0A0A30F9
:101810002200DA0A5A02031C102CDA017F30D900A8
:101820000B1120002908FF0009009231E02A1A2438
:10183000D5000800220037080319212C2000550884
:1018400008002000B701B801BA01BB013B085C02E7
:10185000031C712C2130BD004D30BC003B08B5008D
:10186000B601B535B60DB535B60DB535B60D35087D
:10187000BC073608BD3D3C0886003D08870047315F
:101880000108003A03196F2C3C0886003D088700C8
:101890004331811F6F2C3C0886003D08870043318F
:1018A00001080F39AD000C30AE01AF00B0017E244D
:1018B0002D08B9003C0886003D0887004431010826
:1018C000FF39AD00AE013908AF00B0018F313527C7
:1018D0008C312D08B7072E08B83D3908BA07BB0A66
:1018E000262CBA08031900343A08AD00AE013808B6
:1018F000B0003708AF00BE242D080800B201AE1FAB
:10190000882CAD09AE09AD0A0319AE0AB201B20ABC
:10191000B01F912CAF09B009AF0A0319B00A01300A
:10192000B206B301B4012E082D040319B12CB10184
:10193000B10AAE1B9E2CAD35AE0D982CB335B40D4F
:101940002E083002031DA62C2D082F02031CAD2CDF
:101950002D08AF022E08B03B3314AE36AD0CB10BE0
:101960009E2C32080319B92CB309B409B30A031920
:10197000B40A3408AE003308AD000800B201B30168
:101980002E082D040319DE2CB101B10AAE1BCB2C9D
:10199000AD35AE0DC52CB235B30D2E083002031D8A
:1019A000D32C2D082F02031CDA2C2D08AF022E0891
:1019B000B03B3214AE36AD0CB10BCB2C3308AE00BD
:1019C0003208AD0008000034003407340E34093406
:1019D0001C341B341234153438343F34363431342B
:1019E000243423342A342D340334053407340134A9
:1019F00009340B340D340F34113413340034FF3FE9
:101A00008D318207022D032D042D052D062D072D66
:101A1000082D092D0A2D0B2D0C2D8D31282D9531DA
:101A20006A2D8D318207132D9B31BE2B9D31FD2DEB
:101A30009A31D22A9B31A42B9E319D2E9931E629D1
:101A40009B319A2B9B31DB2B9E31512E9D31E02D0A
:101A50005508A83A031DA22D23082000AE0022003D
:101A600022082000AD00973120278D312100D300BE
:101A7000D308031D08008B112700111121000C153C
:101A8000200095018B121C11210091102800950156
:101A90001711210093100B138B1323009D139D1717
:101AA0009E121D1221009112123097002500930101
:101AB00020008E158E16FF302500910021009D011B
:101AC0002700131120009310911093110B138B1307
:101AD00023009D138B13220054082000AD0000301A
:101AE0005F268D319518722D220053082000AD001D
:101AF00001305F268D3195187B2D22005208200081
:101B0000AD0002305F268D319518842D22004F08DC
:101B10002000AD0003305F268D3195188D2D8B137D
:101B200001309431AB248D319518942D8B130130F5
:101B300095310B258D3195189B2D8B136400010079
:101B40006400A02D5508A03A031DDB2D2D082100AF
:101B5000C60022002E082100C70022002F08210005
:101B6000C80022002A082100C90022002B082100F9
:101B7000CA0022002C082100CB000430CC00CD018B
:101B8000CD0ACE01220029082100CF00D001D00AC1
:101B9000D101220054082100AA002200530821008C
:101BA000AB00220052082100AC00C630AD000C3062
:101BB000AE00A130892E5508A23A031D080021006D
:101BC000D201D401540820005C02031C4A2E2100DB
:101BD0005408AF004D30B001AF35B00DAF35B00D8A
:101BE000AF35B00DB1002130B2002F0831078600AB
:101BF0003008323D8700D530840000308500083041
:101C0000FF0016001A00FF0B012E5C080319482E76
:101C100058080F39013A031D482E0130AF00580E05
:101C20000739890A142EAF35890B132E2F08D204D9
:101C300003302000AD002100580E07397C268D317D
:101C4000013EB33E8600870121005508FF3981001F
:101C500003302000AD002100580E07397C268D315D
:101C6000023EB33E8600870121005608FF398100FD
:101C700003302000AD002100580E07397C268D313D
:101C8000033EB33E8600870121005708FF398100DB
:101C9000D40AE22D21005208B3002200540821008A
:101CA000AA00220053082100AB00220052082100A4
:101CB000AC00B330AD001330AE00A330892EAE00BF
:101CC00023009518602E20002E0823009100920119
:101CD00020002D08230093003F30950503108B1B37
:101CE00003148B13151555309600AA3096009514E1
:101CF000151103188B1708002000AF00AE012D0846
:101D00002F18AE07AD35AF36AF08031D7F2E2E0856
:101D100008002000D400220035082100A000220085
:101D200034082100A100220033082100A200A301F1
:101D30002A08A4002B08A5002C08A6002D08A7003F
:101D4000A8012E08A90020005408A62E2000CF00CC
:101D5000210025082000AD00210026082000AE004B
:101D60002100240897317D278D31D000FF3A0319D7
:101D7000FE3450089731B7278D312E08CE002D083C
:101D8000CD00D3012230D2003D30D1005308AD0048
:101D90002330AE01AF00B00135278D312D08D107BA
:101DA0002E08D23D5208AE005108AD004F08AF00DA
:101DB000210024082000B000210025082000B100E7
:101DC000210026082000B2004A278D310038031D6B
:101DD000F92E510886005208870042310108031D80
:101DE0002F2F510886005208870043310108031D38
:101DF0002F2F4D0886004E0887004331010E07390A
:101E0000B3004F08B400210020082000B5002100D5
:101E100021082000B600210022082000B700210080
:101E200023082000B800210024082000B900210068
:101E300025082000BA00210026082000BB00210050
:101E400028082000BD00210027082000BC00210038
:101E500029082000BE0053089131DC2100340530F0
:101E6000D30A53020318FF34C22EB101B2012D1C54
:101E70003D2F2F08B1073008B23DAF35B00DAE365B
:101E8000AD0C2E082D04031D372F3208AE0031088B
:101E9000AD000800A0302F02031800342D08860082
:101EA0002E0887004231010B00342D0886002E08D1
:101EB0008700443101082F06031D00342D088600D9
:101EC0002E0887004A3101083006031D00342D0812
:101ED00086002E0887004B3101083106031D0034AF
:101EE0002D0886002E0887004C31010832060319A0
:101EF00001340034B8002130BA004D30B900380840
:101F0000B500B601B535B60DB535B60DB535B60D5E
:101F10003508B9073608BA3DF9278F3101080F395E
:101F2000B50030083502031CE42F390886003A0852
:101F30008700433101083006F0393006810031084E
:101F4000B500F9278F31B50E010835068F393506F2
:101F50008100390886003A088700443101083206BA
:101F60000039320681003908053EF0278F313408E8
:101F700081003908063EF0278F317F3081005D08EF
:101F8000093EB500003003180130B600390886005C
:101F90003A08870047313608803A803C031DD22F2B
:101FA000350801020318E42F20005D08093EB50042
:101FB0003908073EB60000303A3DB70036088600C3
:101FC0003708870035088100200033080319EE2FF9
:101FD000390886003A08870043318117380808001D
:101FE000B50000303A3DB600350886003608870057
:101FF0000800390886003A08870043310800FF3F8F
:10200000FF3FFF3FFF3F6400013080010131FE02CE
:102010000030FF3B7F087E040319003404282200AF
:102020008520973120272200D50003302000DB00D7
:102030000800220085209731202790312200D1000E
:1020400006302000DB001F3022005102031C080074
:102050009531542D22008520973120279031220080
:10206000CF0001302000DB00063022004F02031CAD
:1020700008009531542D220085209731202790317A
:102080002100EE0002302000DB00053021006E024E
:10209000031C08006E08FF3A031908009531542DFF
:1020A00008302000DB00220023082000AE002200C0
:1020B00022082000AD0097316A279031B400FF3A22
:1020C000031D692822008520973120279031953102
:1020D000542D9531542502302000DB0008002200E9
:1020E00085209731202790312200D4008520973118
:1020F000202790312200D30085209731202722000D
:10210000D20004302000DB00080023082000AE00CD
:10211000220022082000AD00080055088F28B000DA
:102120002200B201B1012000B008031D9A2822004C
:10213000B001EB281A3030020318A2282200B001A7
:10214000B00AEB28333030020318A8280530B32832
:102150004D3030020318AE281530B32866303002F7
:102160000318B62855302200B000EB28803030022A
:102170000318C02855302200B000B101B10AEB2885
:10218000993030020318C92855302200B0000530BC
:10219000D928B33030020318D22855302200B000BD
:1021A0001530D928CC3030020318DB2855302200F6
:1021B000B000B100EB28E630300255300318E628B5
:1021C0002200B000B100B201B20AEB282200B00038
:1021D000B1000530B20006302000AD00220030080A
:1021E000FD2090310730AD0022003108FD209031F4
:1021F0000830AD0022003208FD282000AF00240086
:1022000016141B219031031D0129C03024009100B8
:102210001B219031031D08292D08240091001B214A
:102220009031031D0F292F08240091001B219031AC
:102230000319080016292400140C890C0139200008
:10224000AE00240016081F3920002E040800C40028
:10225000A4219131C500FF3A0319FF342130C70092
:102260004D30C6004508C100C201C135C20DC1359F
:10227000C20DC135C20D4108C6074208C73D460818
:102280008600470887000108440600394406CD212E
:102290009131413101083A0600393A06CD21913198
:1022A000423101083B0600393B06CD2191314331D3
:1022B00001083C06F0393C0681003D08C100460893
:1022C0008600470887004331C10E010841068F3957
:1022D0004106CD219131443101083E0600393E06C8
:1022E000CD21913143313F08031D8117031981131B
:1022F0004608063ED32191317F3081005D08093EBA
:10230000C1004608073EC2000030473DC3004208F6
:10231000860043088700410881004608053ED32116
:10232000913140088100DD0A4008043A031D9D29CF
:102330003C0B9D2901302200D800200045085C029A
:102340004508031CDC000800B1013108AD004D3028
:10235000AE01AD35AE0DAD35AE0DAD35AE0DAF0048
:102360002130B0002D082F0786002E08303D870051
:1023700032308400003085000830FF0016001A005B
:10238000FF0BBE293908031DC729310808001E307C
:10239000B10A31020318FF34A529810046088600DE
:1023A000470887000800C1000030473DC2004108CF
:1023B0008600420887000800C60005304602031860
:1023C00008003E08093EBF00003003180130C0007D
:1023D000803AFF0080307F02031DF0291F303F024A
:1023E0000318080022302000C9003D30C80046080C
:1023F000AD002330AE01AF00B0018F3135279131F0
:102400002D08C8072E08C93D4908CB004808CA0056
:102410000430CA070318CB0A480886004908870019
:10242000423181014808033EBF000030493DC000F1
:102430003F08860040088700013081004808013EBF
:10244000BF000030493DC0003F08860040088700BB
:1024500033088100CC014A0886004B088700340805
:102460008100CC0A3E08033EBF004C08C000C101F9
:102470004A07C20041084B3DC3004208860043089A
:1024800087003F088100CC0A4C08BF00C0014A0702
:10249000C10040084B3DC200410886004208870049
:1024A00035088100CC0A4C08BF00C0014A07C100B2
:1024B00040084B3DC20041088600420887003608AC
:1024C0008100CC0A4C08BF00C0014A07C100400887
:1024D0004B3DC20041088600420887003708810052
:1024E000CC0A4C08BF00C0014A07C10040084B3D60
:1024F000C200410886004208870038088100CC0AE3
:102500004C08BF00C0014A07C10040084B3DC20053
:10251000410886004208870039088100CC0A4C082F
:10252000BF00C0014A07C10040084B3DC20041083E
:102530008600420887003A088100CC0A4C08BF0098
:10254000C0014A07C10040084B3DC2004108860057
:10255000420887003B088100CC0AC7013E084702B9
:102560000318CD2A4708BF00C0013C078600400879
:102570003D3D87000108C1004C08C200C3014A0765
:10258000C40043084B3DC500440886004508870049
:1025900041088100CC0AC70AAE2A480886004908CB
:1025A00087004C0881004808023EBF000030493DCA
:1025B000C0003F0886004008870001308100080005
:1025C0004D30840021308500A330FE000230FF0032
:1025D0009031032092315530E101840000308500B4
:1025E0000C30FE00FF019031032092312100203099
:1025F000EE01EF018400013085003F30FE00FF0155
:102600009031032092312300C001C101C201C301F6
:10261000C401C50122000130DF0020000F2B203053
:10262000AD000030F123923113082200B5002130B3
:102630002000AD000030F123923113082200B400D5
:1026400022302000AD000030F12392311308220027
:10265000B30023302000AD000030F1239231130885
:102660002200A90033080319392B33082100EC009C
:102670003C2B2100EC01EC0AED016C082200CC009F
:1026800070302000AD000030F12392311308220099
:10269000AD0071302000AD000030F12392311308FD
:1026A0002200AE0072302000AD000030F1239231E4
:1026B00013082200AF0073302000AD000030F1237A
:1026C000923113082200AA0074302000AD000030BF
:1026D000F123923113082200AB0075302000AD00C9
:1026E0000030F123923113082200AC001230210097
:1026F00097003E2492312100EB00703099002C307D
:102700009800742492319124923100305E249231E9
:1027100023001D122100911223009E12EC30200094
:10272000AD002230AE0020249231EC30AD002230DA
:10273000AE000D30AF009A2492310B302000AD0076
:1027400000304C2492315C24923121006B08031933
:10275000B02B0030AB24923100300B2592310100B8
:1027600064001B3021009700082492310B178B174F
:102770008B1720009C141C1437309B0028009501F7
:102780009714171417179716171697154C309600AD
:102790001715210093142000950121009512951121
:1027A0001515951415148B16692592312200DF0139
:1027B000DF0A6400222592316400083022003A02C8
:1027C000031CE72B9B31492392312200BA011024CC
:1027D00064009931DD2192316400702492316400EB
:1027E000D92BAE002D082300910020002E082300D5
:1027F000920015139517151400000000000000004A
:10280000640023001518012C6400230095130800B0
:1028100020009A01FA309B001C1521009114080039
:10282000DF08031D08000B303D02031C08000D30BB
:102830003D02031C1E2C0E10BD0108000E140800E2
:102840002D0886002E08870081012D0886002E089D
:102850008700413181012D08023EAF0000302E3D3E
:10286000B0002F088600300887009A3081002D08BC
:1028700086002E088700433181010800B83020000F
:10288000AD000030F123140813082000AF00333AE4
:102890000030031901300800AE005A272D0822002D
:1028A000B90020002E082200BC002B30C2000530E9
:1028B000BE00FF30C10008009931F1292000AD00B1
:1028C000672C22000E10080022000E1408002D08AC
:1028D000003A0319612C013A0319642C6F2C08008B
:1028E0008C31172490318D28FF308C008D000630FC
:1028F0008E0029309D009E131E179E161E129E10DC
:102900001E1023008E1120008E118E1223008D12B6
:102910000C110E138E130E1022000E138E130E12B6
:10292000080023009D171E159F1507309B009C0172
:102930001E120800DB012200D501D10120002E0863
:102940002200A30020002D082200A20020002F0852
:102950002200CE0008002000B100B830AD00AE016A
:10296000C124923120003108B830AD003F30AE00B4
:102970000319BE2C3330AF000030E42C0030AF011F
:10298000E42C2D082300910020002E082300920043
:102990001513951715161515DA2492312300151104
:1029A00064002300151AD12C640023009513951898
:1029B000D72C080055309600AA30960095140000D8
:1029C0000000000000000800B00023009517151556
:1029D00015121513951620002D08230091002000D4
:1029E00030082300920020002F08230093002000CD
:1029F0002E0823009400DA24923123009512DA2461
:102A0000923123001511640023009518042D6400F1
:102A10002300951308002000B100D030AD00AE01B6
:102A2000C124923120003108D030AD003F30AE00DB
:102A300003191E2D2730AF000030E42C1130AF00F9
:102A40000030E42C432D90312A209231432D9031D7
:102A50003B209231432D90310F209231432D903104
:102A600019209231432D90316F209231432D5E25F4
:102A70009231432D9A3184229231432D903150204E
:102A80009231432D54259A31AB22923100380319EB
:102A900008005B088400083004020318422D9831B6
:102AA0000435003E8200432D2000DB012200D501C9
:102AB000D401D301D201D101D00108000730200098
:102AC000DB00220090318520923120272200D000A7
:102AD000080008006400220054083506031D8D2DEF
:102AE00053083406031D8D2D52083306031D8D2D0A
:102AF0002100E601220051082100660203180800A7
:102B0000220023082000AE00220022082000AD0091
:102B1000202792312100E60A7A2D703055020318E1
:102B2000062E550B072E1F305002031808005108BF
:102B3000023A031D080023082000AE0022002208EC
:102B40002000AD00202792312100E400220023085C
:102B50002000AE00220022082000AD002027923184
:102B60002100EA0022004F082100E800EA30DF00DF
:102B7000E0018600600887000108E7000130E705F2
:102B80006A36E500220053082000C80022005208DF
:102B90002000C90022005008013E2000CA00210088
:102BA00068082000CB00210064082000CC00210030
:102BB00067082000CD00210065082000CE0022001B
:102BC0005408CF2792312100E900FF3A0319072E5C
:102BD0006908DF005330E001DF35E00DDF35E00D3F
:102BE000DF35E00DE1002130E2005F08610786007B
:102BF0006008623D87000130E300680A002EE3357B
:102C0000890BFF2D6308FF3A8105072E0A26220053
:102C1000BD0A080023082000AE0022002208200080
:102C2000AD00202792312300BD00220023082000A0
:102C3000AE00220022082000AD00202792312300A0
:102C4000BE00220023082000AE002200220820003F
:102C5000AD0020272300BF0022005108FD3E2300C5
:102C6000B600220053082000BD00220052082000B8
:102C7000BE00220054089A31FA22923123003F0804
:102C800022003306031D832E23003E082200340653
:102C9000031D832E23003D0822003506031D832ECD
:102CA00021006F0803197D2EEF037D2E23082000DD
:102CB000AE00220022082000AD0020279231230020
:102CC000B700220023082000AE00220022082000C6
:102CD000AD00202792312200B70037080319080001
:102CE000230037082000D500220008003908031906
:102CF00008008D3100252200080022005508703A96
:102D00000319562E762E23003E082000AD00230026
:102D10003F082000AE0023003D087D2792312300AC
:102D2000BB00FF3A03191B2F3B08B72792312E082F
:102D30002300BA0020002D082300B9002200550806
:102D4000A83A031DD22E23003908073E2100DD00DA
:102D5000003023003A3D2100DE005D0886005E0859
:102D60008700FF308100220023082000AE002200EF
:102D700022082000AD006A2792310038031DD02EB2
:102D800022004F082300C000390886003A08870057
:102D90004331010E0739C10002302000DA00D22E83
:102DA0005A2792312300BC01B801360838020318B3
:102DB000F22E220023082000AE002200220820006C
:102DC000AD00202792312100DD0023003C08A03E09
:102DD00086000130870021005D0881002300BC0AC5
:102DE000B80AD52E220054082100A0002200530862
:102DF0002100A100220052082100A2002200500858
:102E0000013E2100A30023003D082100A40023006F
:102E10003E082100A50023003F082100A600A030A5
:102E2000A7000130A80023003C082100A9002200CF
:102E300055088E31A62621006F08031DEF030800F8
:102E40008B132D0886002E0887000108AF00B00103
:102E50002D07B10030082E3DB2003108860032083F
:102E6000870045310108B3002D0886002E08870031
:102E7000810A2D0886002E08870042312D08840023
:102E80002E088500000801022D0886002E08870004
:102E900003184F2F81012D0886002E08870043312B
:102EA00081032D0886002E0887004431810A8B1784
:102EB000330808002300C0010130C1000230C20005
:102EC0000330C3000430C4000530C50006302000C4
:102ED000DA0008002D0886002E0887000108AF00E0
:102EE000B0012D07B10030082E3DB2003108860038
:102EF000320887004531010808002000B300B40102
:102F000034085C02031CFF343408AF004D30B001BC
:102F1000AF35B00DAF35B00DAF35B00DB1002130CC
:102F2000B2002F08310786003008323D8700353067
:102F30008400003085000830FF0016001A00FF0BE7
:102F40009D2F3508FF393306031DB52F3608FF398D
:102F50002D06031DB52F3708FF392E06031DB52F8B
:102F60003C080319B52F34080800B40A802F20004C
:102F7000B0002130B2004D30B1003008AE00AF01DA
:102F8000AE35AF0DAE35AF0DAE35AF0D2E08B10776
:102F90002F08B23D3208AE003108AD000800200015
:102FA000D0004808AD004908AE0050087D27923196
:102FB000CF00FF3A031DED2F4808BA004908BB00B7
:102FC0004A08BC004B08BD004C08BE004D08BF00BD
:102FD0004E08C0005008913127295008AD0048081C
:102FE000AE004908AF004A08B0004B08B1004C08D9
:102FF000B2004D08B3004E08B4004F088F317A2F4D
:103000009531232D9531272D95312B2D95312F2D50
:103010009531372D95313E2D9531332D95313A2D02
:1033A000FF3FFF3FFF3FFF3FFF3FFF3F3E08F43E31
:1033B0008C310A008D31112508002000E11C080025
:1033C0002200A401A5012000E11008002300190833
:1033D0002000D80065305802031C06346430D80041
:1033E000063421000D160D17921132302400920080
:1033F00095169515151195101510FF30930014179B
:1034000094172000911192110800F2000830F30087
:10341000F4017208F1000730F136890B0C2A74357B
:103420007104F400F23570087402031C192A700844
:10343000F402F30B092A74080800F1002000D900F7
:10344000711C252A22000E17272A22000E1371084C
:10345000F000F036701C2F2A22008E17312A22002D
:103460008E137108F000F036F036701C3A2A2200F4
:103470000E16080022000E12080022004C08F00070
:103480000430F036890B412A4C08F100F136F13650
:10349000F1364C08F200F236F23672087106700608
:1034A0004C06F3000130F3057308F0000730F035E7
:1034B000890B572A4C367004CC004C0808002000B9
:1034C00061102200C901752223001D1221009112F2
:1034D0009431082420001C149C105F309B0019308C
:1034E0009B002200B801BB0108002000DF01D701CA
:1034F000D8012B302200C2000530BE002000DE01C2
:10350000FF302200C100080005302000DB0022004F
:103510002208860023088700443181014E080319E0
:10352000962A4E088D3100259A3122002200220869
:10353000860023088700443151080102031808005F
:1035400023082000AE00220022082000AD009731A1
:1035500020279A31962A2200220886002308870015
:10356000433101082000AD005B08AE0006302E029A
:103570000318BF2A0030AD08031D013008002E08D3
:10358000063A031DC52A0330CD2A2E08073A031D2B
:103590000134220051082000CD2A2D0200300318EA
:1035A00001300800230019082000D700EC30860005
:1035B00022308700433101089B3C2200DC000430AC
:1035C0005C020318E62AF001F101ED2A5C08F00024
:1035D000FD30F101F007031CF1037008DC006530D9
:1035E0002000570203180A34570822005C02031C0B
:1035F0000A3402342000C6003D08AD003E08AE008B
:10360000460897317D279A31C700FF3A0319080011
:103610005D08093EBF00003003180130C0004708B4
:10362000C1005430C201C135C20DC135C20DC13512
:10363000C20DC3002130C400410843078600420880
:10364000443D87004008803A803C031D292B3F08F9
:1036500001020318080020005D08093EBF0047086A
:10366000C0005430C101C035C10DC035C10DC035D9
:10367000C10DC2002130C30040084207C400410808
:10368000433DC50044088600450887003F08810087
:1036900008002000B60136085C02031C0800213037
:1036A000B5004D30B4003608B200B301B235B30DE9
:1036B000B235B30DB235B30D3208B4073308B53D9A
:1036C000340886003508870047310108003A03199D
:1036D000732B34088600350887004731810B732B24
:1036E000360875239B31B60A4B2BB1001E303102D0
:1036F000031808002130B0004D30AF003108AD0094
:10370000AE01AD35AE0DAD35AE0DAD35AE0D2D08FE
:10371000AF072E08B03DDD032F0886003008870074
:10372000473181015C083106031D08003108031D83
:10373000DC030800230019082200C0004008031918
:10374000A32B1F30C000DB2B230019082000E00052
:10375000D708031DAC2B9D2E6008031903341F30BE
:10376000600203180A3460085702031C0A3421005F
:10377000EF0A01302200C3002000033420005E085D
:103780008C3EA2002330A301A33D2208860023081B
:1037900087002300190881002000DE0A5708013E37
:1037A000A200003003180130A3005E0822062304A3
:1037B000031D03349D2EFF30C4002000A001220011
:1037C0004A08013EDB0005305B020318DB015B08A1
:1037D000CA0022302000A4003D30A30022005B0874
:1037E000F0002330F101F200F301A3279B317008B0
:1037F0002000A3077108A43D2200DE012000230859
:10380000860024088700413101085906031D522C07
:1038100023088600240887004231010B522C23081C
:10382000860024088700010822004002031C522C55
:103830002000230886002408870001085802031C82
:10384000522CA101230886002408870001082102C8
:103850000318482C2108F600F7012307F800770821
:10386000243DF90078088600790887004431010872
:10387000FA005F088C3EFB002330FC01FC3D7B0816
:1038800086007C0887007A088100DF0AA10A222CC2
:10389000230886002408870001082200DE005B0858
:1038A000C400582C20000530A00A2002031CDF2B86
:1038B0000130F6002000590A5E2CF635890B5D2C8C
:1038C0007608220059050319ED2C20005F08083EF8
:1038D000F600003003180130F700803AF80080301D
:1038E0007802031D752C580876020318ED2C013060
:1038F000F6002000590A7D2CF635890B7C2C7608C1
:10390000FF3A2200D90520005F088C3EF6002330E4
:10391000F701F73D760886007708870001308100BF
:10392000DF0A5F088C3EF6002330F701F73D76088A
:1039300086007708870002308100DF0A5F088C3E2E
:10394000F6002330F701F73D7608860077088700F8
:103950002200350881002000DF0A5F088C3EF60057
:103960002330F701F73D76088600770887002200AC
:10397000340881002000DF0A5F088C3EF600233007
:10398000F701F73D760886007708870022003308A4
:1039900081002000DF0A5F088C3E8600233087010B
:1039A000873D8101DF0A5F088C3EF6002330F70176
:1039B000F73D760886007708870055088100DF0A02
:1039C0005F088C3EF6002330F701F73D760886004D
:1039D0007708870056308100DF0A2000A201220804
:1039E0005C02031CDF2D2130A6004D30A50022080B
:1039F000F600F701F635F70DF635F70DF635F70D4C
:103A00007608A5077708A63D2508860026088700C2
:103A100047310108003A0319DD2D250886002608E4
:103A2000870001304631F600590A172DF635890B0B
:103A3000162D760801050319DD2D5F08083EF600F6
:103A4000003003180130F700803A803C031D2A2D16
:103A500076085802031CDF2D200025088600260862
:103A6000870001304631F600590A372DF635890BAB
:103A7000362D7608FF3A81055F088C3EF60023302C
:103A8000F701F73D7608860077088700013081004E
:103A9000DF0A5F088C3EF6002330F701F73D760819
:103AA00086007708870002308100DF0A250886003B
:103AB000260887000108FF39F6005F088C3EF700F2
:103AC0002330F801F83D77088600780887007608EB
:103AD0008100DF0A25088600260887004131010899
:103AE000FF39F6005F088C3EF7002330F801F83DFF
:103AF000770886007808870076088100DF0A2508A5
:103B000086002608870042310108FF39F6005F0869
:103B10008C3EF7002330F801F83D770886007808DE
:103B2000870076088100DF0A2508860026088700BE
:103B3000433101080F39F6005F088C3EF70023304F
:103B4000F801F83D7708860078088700760881003C
:103B5000DF0A250886002608870044310108FF395E
:103B6000F6005F088C3EF7002330F801F83D770837
:103B700086007808870076088100DF0A250886001D
:103B80002608870045310108F600F635250886002D
:103B9000260887004331010D010D01397607F70032
:103BA0005F088C3EF8002330F901F93D7808860063
:103BB0007908870077088100DF0AA20AEF2C512ECE
:103BC00023001908FD007D0BF62D22004408FF3A62
:103BD0000319ED2D440886279B312000DF012200C8
:103BE00042082A3A03190A34BF01FD2D2200BF0AF8
:103BF00006303F0203180A34512E23001D12210003
:103C0000911223009E16EC3086002230870043314B
:103C100001089B3C2200DD0004305D020318132ED6
:103C2000F801F9011A2E5D08F800FD30F901F807D6
:103C3000031CF9037808DD005D0893269B31FF30F3
:103C4000FA012200C1001F305D02031C412EFB015E
:103C50007B08DC279B31A3279B313F30CB279B314F
:103C6000031D3C2E7B08DC279B31A3279B31403072
:103C7000CB279B310319FA0A0530FB0A7B02031C90
:103C8000282E2200C3017A0821006F0203184B2E50
:103C90006F08FA024C2EFA017A0893269B3180278E
:103CA00001342000D601C3279B315F0893269B3146
:103CB00020005F0803196C2E5F30F0000030D6271B
:103CC0009B314C279B31D6005E30F0000130D62767
:103CD0009B314C279B31D60022005E0893269B31F6
:103CE000FC0120005F087C0203188B2E7C088C3EB0
:103CF000FA002330FB01FB3D7A08F0007B08D62751
:103D00009B314C279B31D6007C08E2279B319326C0
:103D10009B31FC0A712E5F080319912E56089326D9
:103D20009B3180270934F0002000111E942E70086A
:103D300023009A009E1808009A2EC3279B3157082B
:103D400003190D2F5E08FA008B30FB01FC002330B5
:103D5000FD007A087C0786007B087D3D870001080E
:103D6000A000DE03D6015E30F0000030D6279B3184
:103D70004C279B31D6006030F0000030D6279B31B5
:103D80004C279B31D6008C30F0002330F1005E08C8
:103D9000F200F30156084C279B31D600C3279B3114
:103DA000200856060319E52E003093269B31802704
:103DB0009B312000DE012200BF0A06303F02031CB7
:103DC000013443082100EF020A34EC30F0002230C5
:103DD000F1005908F20019279B31EC30F000223035
:103DE000F10022004108F20019279B312000A101B7
:103DF00057082102EC30F0002230F1000318092F9F
:103E00002108E2279B31F20019279B312000A10AEB
:103E1000F82EFF30F20019279B31013093269B3199
:103E200080279B31220042082A3A031D0A34BF0131
:103E30000534E9279B310108F300F4017007F50010
:103E40007408713DF6007508053EF7000030763DB8
:103E5000F800770886007808870072088100E92753
:103E60009B31EF279B314231700884007108850037
:103E700001310008010270088600710887000318EC
:103E8000472F413181017008860071088700433156
:103E9000EF27433101080800F9007108F6007008A7
:103EA000F5000130F2020030F33B720A0319730A85
:103EB00003197E2F75088600760887000108F40034
:103EC0000430F436890B612F790E0F397406FB2705
:103ED0008C310A009F31F5279B31750886007608E2
:103EE0008700790E0F390106FB278C310A009F31BC
:103EF000F5279B31F50A0319F60A512F79080800B6
:103F000023009E121D16210091160800F8000530AE
:103F10007802031808007808DC279B31A3279B311F
:103F20003F30B8279B317808DC279B31A3279B3192
:103F30004030B8279B317808DC279B31A3279B3181
:103F40003D30B8270800F401F501701CAB2F720852
:103F5000F4077308F53DF235F30DF136F00C7108F6
:103F60007004031DA52F7508F1007408F000080007
:103F7000F6002230F7007008760786007108773D5A
:103F800087008101080023001D12210091122300E7
:103F90009E1620000800F6002230F7007008760711
:103FA00086007108773D870001080800F100F201E2
:103FB000F20AF30156080800F0002330F101F20084
:103FC000F30108008C3E860023308701873D0108FD
:103FD0000800700886007108870041310800810AD6
:103FE00070088600710887000800F400790EF03927
:103FF0007406F9000800F700F8010F39E43E0800E4
:020000040001F9
:02000E00CCCF55
:00000001FF
