:101400008B313E2BFF3FFF3F8A3120007F08A90030
:10141000911E3C2A2200C708031D102A20001C111F
:1014200021009110003023001D1901302000AC0074
:101430002C0303191E2A23009D1C232A23001908AC
:101440002000AB002C2A210091102200C70A903105
:1014500000208A312200B900220039080A3A031913
:10146000342A20002C0B382A9C31E1248A313C2A72
:101470002200B501200062142700131D512A8B1190
:10148000111121000C152200B9012A30C000903141
:1014900000208A312200B900B50120006214270023
:1014A000131120009118DE2AEC2A23001D122100BE
:1014B000911223009D139D1722004308AC002000C9
:1014C000AA01632AAA0A5D08FF3EA700FF3003189D
:1014D0000030A800803A803C031D702A27082A02A9
:1014E00003188F2A2200AC0A20005D0822002C027B
:1014F0000318AC012C08203E86000130870001084B
:101500008F31DF278A312C08C30020008D1A622A10
:101510008B152700111520001C112100911001309E
:101520002200B20020009A019B00EA2A4608203ED1
:1015300086000130870001088F31DF278A31460895
:10154000C30020008D1AAC2A8B152700111520002E
:101550001C1121009110EA2A21008D1220008D1209
:1015600002302200B20020009C141C1422002E081D
:10157000223E20009B009C31C1248A312200AD0014
:101580000C30F0002D089C31A9248A31AE002000D7
:101590005D08F00022002D089C31A9248A31C60084
:1015A000EA2A21008D169F31C4278A3120001C149D
:1015B0009C105F309B002200B201EA2A2200320810
:1015C000003A0319552A013A0319962A033A0319D6
:1015D000D12AEA2A20009110931C0F2B2200AA0A7C
:1015E0000319AB0A5C0B0D2BA60A0319A70A0030DE
:1015F0002702113003192602031C0D2B0730A60108
:10160000A701C90A49020318082B01308E060D2BC9
:101610000E100B3049020318DC0120009310111842
:1016200011100B1D3A2B2200B40A2000621C2B2B38
:10163000033022003502031C2B2B41080319272BF2
:10164000200061080319272BE1032200C1019C310E
:10165000E1248A31302B2000621C302B2200B50A95
:101660000A302200D70A5702031C392BD7017F30DA
:10167000D6000B1120002908FF0009009231102A22
:10168000B8002130BA004D30B9003808B500B601B5
:10169000B535B60DB535B60DB535B60D3508B90746
:1016A0003608BA3D3908BF238B310F39B5003008F1
:1016B0003502031CAA2B3908BF238B313006F039C1
:1016C000300681003108B500390886003A088700E5
:1016D0004331B50E010835068F39350681003908CA
:1016E00086003A0887004431010832060039320684
:1016F00081003908053EB6238B3134088100390852
:10170000063EB6238B317F3081006008053EB50070
:10171000003003180130B600390886003A08870007
:1017200047313608803A803C031D982B350801026A
:101730000318AA2B20006008053EB5003908073EB3
:10174000B60000303A3DB7003608860037088700FB
:1017500035088100200033080319B42B39088600AE
:101760003A0887004331811738080800B500003077
:101770003A3DB60035088600360887000800860026
:101780003A088700433101080800B101B2012E0870
:101790002D040319E52BB301B30AAE1BD22BAD35D3
:1017A000AE0DCC2BB135B20D2E083002031DDA2B55
:1017B0002D082F02031CE12B2D08AF022E08B03B91
:1017C0003114AE36AD0CB30BD22B3208AE0031085B
:1017D000AD00080094310E2C9431112C9431142C4E
:1017E0009431172C94311D2C9431232C94311A2CC4
:1017F0009431202CFF3FFF3FFF3FFF3FFF3FFF3F64
:101800008C318207022C032C042C052C062C072C6F
:10181000082C092C0A2C0B2C0C2C8C31CB2C943141
:101820008E2C8C318207132C9E315A2E9F31142F0F
:101830008F31B72F9E316F2E9E318A2E9C31922C84
:1018400090310728903111289F31962F9E31F72E25
:10185000580803192E2C220031080800B701B801DE
:10186000BA01BB013B085F02031C7D2C2130BD0087
:101870004D30BC003B08B500B601B535B60DB535E9
:10188000B60DB535B60D3508BC073608BD3D3C086C
:1018900086003D08870047310108003A03197B2C78
:1018A0003C0886003D0887004331811F7B2C3C08A3
:1018B00086003D088700433101080F39AD000C3028
:1018C000AE01AF00B0018B248C312D08B9003C086B
:1018D00086003D08870044310108FF39AD00AE01A4
:1018E0003908AF00B001C8268C312D08B7072E0883
:1018F000B83D3908BA07BB0A322CBA0803190034BC
:101900003A08AD00AE013808B0003708AF008B319F
:10191000C5232D080800B201AE1F952CAD09AE09F4
:10192000AD0A0319AE0AB201B20AB01F9E2CAF096C
:10193000B009AF0A0319B00A0130B206B301B4010D
:101940002E082D040319BE2CB101B10AAE1BAB2C1D
:10195000AD35AE0DA52CB335B40D2E083002031DE8
:10196000B32C2D082F02031CBA2C2D08AF022E0811
:10197000B03B3314AE36AD0CB10BAB2C32080319AF
:10198000C62CB309B409B30A0319B40A3408AE006B
:101990003308AD0008005308A83A031D452D290857
:1019A0002000AE00220028082000AD00963141261C
:1019B0008C312100D300D308031D08008B112700B0
:1019C000111121000C15200095018B121C11210012
:1019D0009110280095011711210093100B138B1300
:1019E00023009D139D179E121D122100911212308B
:1019F00097002500930120008E158E16FF302500DC
:101A0000910021009D0127001311200093109110D7
:101A100093110B138B1323009D138B13220051087A
:101A20002000AD000030F3258C319518152D2200D3
:101A300050082000AD000130F3258C3195181E2D83
:101A400022004F082000AD000230F3258C3195189C
:101A5000272D22004C082000AD000330F3258C31E7
:101A60009518302D8B130130933172238C319518DA
:101A7000372D8B1301309331D2238C3195183E2DA5
:101A80008B13640001006400432D5308A03A031D2A
:101A90006F2D2100C601C60AC701C801C901C90AC4
:101AA000CA01CB01CC01CC0ACD01CE0122002F0806
:101AB0002100CF00D001D00AD1012200510821001D
:101AC000AA00220050082100AB0022004F0821008C
:101AD000AC00C630AD000C30AE00A1301D2E530856
:101AE000A23A031D08002100D201D40154082000AD
:101AF0005F02031CDE2D21005408AF004D30B00101
:101B0000AF35B00DAF35B00DAF35B00DB1002130F0
:101B1000B2002F08310786003008323D8700D530EB
:101B20008400003085000830FF0016001A00FF0B0B
:101B3000952D5C080319DC2D58080F39013A031D57
:101B4000DC2D0130AF00580E0739890AA82DAF35BA
:101B5000890BA72D2F08D20403302000AD002100EF
:101B6000580E073910268C31013EB33E860087019E
:101B700021005508FF39810003302000AD0021000D
:101B8000580E073910268C31023EB33E860087017D
:101B900021005608FF39810003302000AD002100EC
:101BA000580E073910268C31033EB33E860087015C
:101BB00021005708FF398100D40A762D21005208F0
:101BC000B300220051082100AA0022005008210081
:101BD000AB0022004F082100AC00B330AD00133041
:101BE000AE00A3301D2EAE0023009518F42D20006A
:101BF0002E0823009100920120002D08230093005D
:101C00003F30950503108B1B03148B1315155530AE
:101C10009600AA3096009514151103188B1708002A
:101C20002000AF00AE012D082F18AE07AD35AF363E
:101C3000AF08031D132E2E0808002000D4005708FB
:101C40002100A000200056082100A1002000550816
:101C50002100A200A3012A08A4002B08A5002C083B
:101C6000A6002D08A700A8012E08A90020005408EE
:101C7000392E2000CF00210025082000AD002100D2
:101C800026082000AE002100240896319C268C31C5
:101C9000D000FF3A0319FE345008973124278C31C5
:101CA0002E08CE002D08CD00D3012230D2003D30C9
:101CB000D1005308AD002330AE01AF00B001C826FB
:101CC0008C312D08D1072E08D23D5208AE005108A4
:101CD000AD004F08AF00210024082000B000210013
:101CE00025082000B100210026082000B200DD26D2
:101CF0008C310038031D8C2E510886005208870055
:101D000042310108031DC22E510886005208870087
:101D100043310108031DC22E4D0886004E0887007E
:101D20004331010E0739B3004F08B40021002008E9
:101D30002000B500210021082000B6002100220863
:101D40002000B700210023082000B800210024084B
:101D50002000B900210025082000BA002100260833
:101D60002000BB00210028082000BD00210027081A
:101D70002000BC00210029082000BE0053089D312E
:101D8000562500340530D30A53020318FF34552E6C
:101D9000B101B2012D1CD02E2F08B1073008B23D81
:101DA000AF35B00DAE36AD0C2E082D04031DCA2E76
:101DB0003208AE003108AD000800A0302F02031831
:101DC00000342D0886002E0887004231010B0034B4
:101DD0002D0886002E088700443101082F06031DB8
:101DE00000342D0886002E0887004A31010830068D
:101DF000031D00342D0886002E0887004B31010892
:101E00003106031D00342D0886002E0887004C3152
:101E100001083206031901340034C4007F278F31D2
:101E2000C500FF3A0319FF342130C7004D30C6000A
:101E30004508C100C201C135C20DC135C20DC13551
:101E4000C20D4108C6074208C73D4608860047083C
:101E500087000108440600394406A8278F31413124
:101E600001083A0600393A06A8278F3142310108A5
:101E70003B0600393B06A8278F31433101083C0659
:101E8000F0393C0681003D08C1004608860047083D
:101E900087004331C10E010841068F394106A8274A
:101EA0008F31443101083E0600393E06A8278F31A4
:101EB00043313F08031D8117031981134608063E6D
:101EC000AE278F317F3081006008053EC100460893
:101ED000073EC2000030473DC30042088600430869
:101EE0008700410881004608053EAE274008810072
:101EF000E00A45085F024508031CDF000800B10145
:101F00003108AD004D30AE01AD35AE0DAD35AE0D85
:101F1000AD35AE0DAF002130B0002D082F07860083
:101F20002E08303D870032308400003085000830B4
:101F3000FF0016001A00FF0B992F3908031DA22F6E
:101F4000310808001E30B10A31020318FF34802F17
:101F5000810046088600470887000800C10000305D
:101F6000473DC20041088600420887000800230060
:101F700019082000DA00EC30860022308700433157
:101F800001089B3C2200D900043059020318CB2FD2
:101F9000F001F101D22F5908F000FD30F101F007F6
:101FA000031CF1037008D900653020005A020318A1
:101FB0000A345A0822005902031C0A340234F10080
:101FC0002000DB00711CE72F22000E17E92F2200F2
:101FD0000E137108F000F036701CF12F22008E17DE
:101FE000F32F22008E137108F000F036F036701CCB
:101FF000FC2F22000E16080022000E120800FF3FE0
:102000003908013E98310A008C3111240800230060
:1020100019082200BD003D08031910281F30BD001B
:102020001128FF30C2002000A00122004808013E14
:10203000D800053058020318D8015808C8002230CB
:102040002000A4003D30A30022005808F0002330F7
:10205000F101F200F3019F318127903170082000D7
:10206000A3077108A43D2200BB01200023088600BD
:1020700024088700413101085B06031D8B282308D3
:102080008600240887004231010B8B282308860034
:1020900024088700010822003D02031C8B28200031
:1020A0002308860024088700010822003C02031C44
:1020B0008B282000A101230886002408870001083E
:1020C0002102031881282108F600F7012307F800F0
:1020D0007708243DF90078088600790887004431A4
:1020E0000108FA0059088C3EFB002330FC01FC3D3E
:1020F0007B0886007C0887007A088100D90AA10A3B
:102100005B28230886002408870001082200BB0002
:102110005808C200912820000530A00A2002031CA4
:1021200015280130F60020005B0A9728F635890B48
:1021300096287608220056050319232920005908FD
:10214000083EF600003003180130F700803AF8002E
:1021500080307802031DAF2822003C087602031865
:1021600023290130F60020005B0AB728F635890BD9
:10217000B6287608FF3A2200D605200059088C3E82
:10218000F6002330F701F73D7608860077088700D0
:1021900001308100D90A59088C3EF6002330F7013E
:1021A000F73D760886007708870002308100D90A5B
:1021B00059088C3EF6002330F701F73D760886007B
:1021C0007708870057088100D90A59088C3EF60025
:1021D0002330F701F73D7608860077088700560818
:1021E0008100D90A59088C3EF6002330F701F73DEB
:1021F000760886007708870055088100D90A5908B3
:102200008C3E860023308701873D8101D90A590819
:102210008C3EF6002330F701F73D760886007708FC
:1022200087002200310881002000D90A59088C3E1D
:10223000F6002330F701F73D76088600770887001F
:1022400004308100D90A2000A20122085F02031C89
:102250000E2A2130A6004D30A5002208F600F70115
:10226000F635F70DF635F70DF635F70D7608A507B7
:102270007708A63D25088600260887004731010813
:10228000003A03190C2A2508860026088700013029
:102290004631F6005B0A4D29F635890B4C29760844
:1022A000010503190C2A5908083EF60000300318EE
:1022B0000130F700803A803C031D61297608220036
:1022C0003C02031C0E2A20002508860026088700F1
:1022D00001304631F6005B0A6E29F635890B6D290F
:1022E0007608FF3A810559088C3EF6002330F70145
:1022F000F73D760886007708870001308100D90A0B
:1023000059088C3EF6002330F701F73D7608860029
:102310007708870002308100D90A25088600260840
:1023200087000108FF39F60059088C3EF70023307A
:10233000F801F83D77088600780887007608810064
:10234000D90A250886002608870041310108FF398F
:10235000F60059088C3EF7002330F801F83D770865
:1023600086007808870076088100D90A250886004B
:102370002608870042310108FF39F60059088C3ED3
:10238000F7002330F801F83D7708860078088700C9
:1023900076088100D90A250886002608870043317F
:1023A00001080F39F60059088C3EF7002330F80178
:1023B000F83D770886007808870076088100D90AFA
:1023C000250886002608870044310108FF39F600F9
:1023D00059088C3EF7002330F801F83D7708860055
:1023E0007808870076088100D90A25088600260823
:1023F00087004331010D010D0139043EF6005908F3
:102400008C3EF7002330F801F83D77088600780805
:10241000870076088100D90AA20A25299F31962FC4
:102420004D30840021308500A330FE000230FF00D3
:102430009C319D2492315530FD01E2018400003031
:1024400085000D30FE00FF019C319D24923120302B
:102450008400013085003C30FE00FF019C319D244A
:10246000923122000130DC002000362A2030AD00FD
:102470000030CB22923113082000D7002130AD006C
:102480000030CB22923113082000D6002230AD005C
:102490000030CB22923113082000D5002330AD004C
:1024A0000030CB22923113082200AF0020005708E1
:1024B00055062100EB0020005608550721006B0649
:1024C0002000DC0012302100970008239231210007
:1024D000EC0070309900313098003A239231572344
:1024E000923100302723923123001D1221009112D6
:1024F00023009E12EC302000AD002230AE00EA2214
:102500009231EC30AD002230AE000D30AF006023D0
:1025100092310B302000AD0000301623923126237B
:10252000923121006C0803199C2A003072239231E9
:102530000030D2239231010064001B30210097004B
:10254000E22292310B178B178B1720009C141C145E
:1025500037309B002800950197141714171797160A
:10256000171697154C30960017152100931420006C
:1025700095012100951295111515951415148B16BA
:10258000712392312200DC01DC0AE92392313923E4
:1025900092316400C52AAE002D082300910020006E
:1025A0002E08230092001513951715140000000043
:1025B00000000000640023001518DB2A64002300DB
:1025C0009513080020009A01FA309B001C15210089
:1025D000911408002D0886002E08870081012D081F
:1025E00086002E088700413181012D08023EAF0090
:1025F00000302E3DB0002F088600300887009A304A
:1026000081002D0886002E088700433181010800D3
:10261000B8302000AD000030CB2214081308200091
:10262000AF00333A0030031901300800AE007926BC
:102630002D082200B30020002E082200B6002B3007
:10264000C0000530B900FF30BF00080008002000BE
:10265000AD00302B22000E10080022000E140800DE
:102660002D08003A03192A2B013A03192D2B382B78
:102670000800C12FFF308C008D0006308E002930FD
:102680009D009E131E179E161E129E101E102300E4
:102690008E1120008E118E1223008D120C110E133C
:1026A0008E130E1022000E138E130E12080023003C
:1026B0009D171E159F1507309B009C011E120800D8
:1026C000DE012200D301CE0120002E082200A90045
:1026D00020002D082200A80020002F082200CB0097
:1026E000080008002000B100B830AD00AE0188231A
:1026F000923120003108B830AD003F30AE000319F0
:10270000852B3330AF000030AB2B0030AF01AB2B4B
:102710002D082300910020002E082300920015139D
:10272000951715161515A123923123001511640074
:102730002300151A982B64002300951395189E2BDF
:10274000080055309600AA3096009514000000004D
:10275000000000000800B0002300951715151512A1
:102760001513951620002D08230091002000300835
:102770002300920020002F082300930020002E0841
:1027800023009400A123923123009512A1239231BA
:1027900023001511640023009518CB2B640023003F
:1027A000951308002000B100D030AD00AE018823A1
:1027B000923120003108D030AD003F30AE00031917
:1027C000E52B2730AF000030AB2B1130AF000030CD
:1027D000AB2B64000D2492316400083022003402D7
:1027E000031CF72B9D31052592312200B401FD23F6
:1027F00092316400CA2764000800DC08031D080049
:102800000B303702031C08000D303702031C0B2C61
:102810000E10B70108000E140800282C682492310D
:10282000282C77279231282CB7279231282C8B27F8
:102830009231282C78249231282C6D279231282C23
:1028400038249231282C9B279231282C5E249231F7
:10285000D92792310038031908005E088400083037
:1028600004020318262C8B310435EA3E8200282C02
:1028700005302000DE002200280886002908870095
:10288000443181014B0803194A2C4B088C31002438
:10289000923122002200280886002908870044314E
:1028A0004E0801020318080029082000AE0022008B
:1028B00028082000AD00412692314A2C2000DE017C
:1028C0002200D301D101D001CF01CE01CD010800FA
:1028D0002200D1279231412692312200CC000130D2
:1028E0002000DE00063022004C02031C08005E2C93
:1028F0002200D1279231412692312200D100D127E6
:102900009231412692312200D000D12792314126C6
:102910002200CF0004302000DE0008006400220006
:10292000510820005706031DB62C22005008200035
:102930005606031DB62C22004F0820005506031D25
:10294000B62C2100E60122004E0821006602031881
:102950000800220029082000AE00220028082000DC
:10296000AD00412692312100E60AA32C70302200EE
:1029700053020318282D530B292D29082000AE00DF
:10298000220028082000AD00412692312100E400F9
:10299000220029082000AE00220028082000AD00F7
:1029A000412692312100EA0022004C082100E80073
:1029B000EA30DF00E0018600600887000108E700D8
:1029C0000130E7056A36E500220050082000C80003
:1029D00022004F082000C90022004D08013E2000BF
:1029E000CA00210068082000CB00210064082000F4
:1029F000CC00210067082000CD00210065082000E0
:102A0000CE00220051083C2792312100E900FF3A14
:102A10000319292D6908DF005330E001DF35E00D8F
:102A2000DF35E00DDF35E00DE1002130E2005F0829
:102A3000610786006008623D87000130E300680A94
:102A4000222DE335890B212D6308FF3A8105292DBD
:102A50002C252200B70A080029082000AE00220019
:102A600028082000AD00412692312300BD0022003D
:102A700029082000AE00220028082000AD004126D1
:102A800092312300BE00220029082000AE0022005F
:102A900028082000AD00412692312300BF0022000B
:102AA0004E08FD3E2300B600220050082000BD0065
:102AB00022004F082000BE0022005108D626923185
:102AC00023003F0820005506031DA32D23003E08C8
:102AD00020005606031DA32D23003D0820005706A5
:102AE000031DA32D610803199D2DE1039D2D2908C8
:102AF0002000AE00220028082000AD0041269231BF
:102B00002300B700220029082000AE002200280878
:102B10002000AD0041269231D80058080319080062
:102B2000230037082200B1002000080033080319F1
:102B300008008C3100242000080022005308703A5D
:102B40000319772D962D23003E082000AD002300A9
:102B50003F082000AE0023003D089C269231230050
:102B6000BB00FF3A03193C2E3B08242792312E0864
:102B70002300BA0020002D082300B90022005308CA
:102B8000A83A031DF32D23003908073E2100DD007C
:102B9000003023003A3D2100DE005D0886005E081B
:102BA0008700FF308100220029082000AE002200AB
:102BB00028082000AD00892692310038031DF12D30
:102BC00022004C08A0002300390886003A0887003C
:102BD0004331010E07392200A10002302000DD0040
:102BE000F32D792692312300BC01B8013608380252
:102BF0000318132E220029082000AE002200280806
:102C00002000AD00412692312100DD0023003C0868
:102C1000A03E86000130870021005D08810023006E
:102C2000BC0AB80AF62D220051082100A00022009B
:102C300050082100A10022004F082100A20022001C
:102C40004D08013E2100A30023003D082100A400FF
:102C500023003E082100A50023003F082100A60014
:102C6000A030A7000130A80023003C082100A900E3
:102C7000220053088E31392620006108031DE1032C
:102C800008002D0886002E0887000108AF00B0015B
:102C90002D07B10030082E3DB20031088600320801
:102CA000870045310108B3002D0886002E088700F3
:102CB000810A2D0886002E08870042312D088400E5
:102CC0002E088500000801022D0886002E088700C6
:102CD00003186F2E81012D0886002E0887004331CE
:102CE00081032D0886002E0887004431810A3308AD
:102CF00008002200A0010130A1000230A200033030
:102D0000A3000430A4000530A50006302000DD003B
:102D100008002D0886002E0887000108AF00B001CA
:102D20002D07B10030082E3DB20031088600320870
:102D300087004531010808002000B300B4013408C1
:102D40005F02031CFF343408AF004D30B001AF35D3
:102D5000B00DAF35B00DAF35B00DB1002130B200C0
:102D60002F08310786003008323D87003530840057
:102D7000003085000830FF0016001A00FF0BBC2E43
:102D80003508FF393306031DD42E3608FF392D06CA
:102D9000031DD42E3708FF392E06031DD42E3C0800
:102DA0000319D42E34080800B40A9F2E2000C60050
:102DB0003D08AD003E08AE0046089C269231C70093
:102DC000FF3A031908006008053EBF0000300318F1
:102DD0000130C0004708C1005430C201C135C20DE6
:102DE000C135C20DC135C20DC3002130C400410838
:102DF000430786004208443D87004008803A803CF3
:102E0000031D042F3F08010203180800200060087A
:102E1000053EBF004708C0005430C101C035C10D98
:102E2000C035C10DC035C10DC2002130C3004008FE
:102E30004207C4004108433DC500440886004508D8
:102E400087003F08810008002000B0002130B20058
:102E50004D30B1003008AE00AF01AE35AF0DAE352C
:102E6000AF0DAE35AF0D2E08B1072F08B23D3208B9
:102E7000AE003108AD0008002000D0004808AD00C9
:102E80004908AE0050089C269231CF00FF3A031D3E
:102E90005A2F4808BA004908BB004A08BC004B0832
:102EA000BD004C08BE004D08BF004E08C0005008D1
:102EB0008F310D2F5008AD004808AE004908AF0013
:102EC0004A08B0004B08B1004C08B2004D08B300EE
:102ED0004E08B4004F088B31402B07302000DE0035
:102EE0002200D127923141262200CD000800220085
:102EF000D1279231412692312200D20002302000A7
:102F0000DE00053022005202031C08005208FF3A7E
:102F1000031908005E2C2200D127923141269231FC
:102F20002200CE0006302000DE001F3022004E02BC
:102F3000031C08005E2C08302000DE002200290857
:102F40002000AE00220028082000AD008926923122
:102F5000B400FF3A031DB22F2200D127923141263F
:102F600092315E2C5E2402302000DE000800220038
:102F7000D127923141262200D30003302000DE0009
:102F800008002000D808031D08008C3128242200E6
:102F9000B10008007D1C08002200AA01AB017D10D1
:102FA000080029082000AE00220028082000AD00FB
:102FB00008002200280886002908870043310108FC
:102FC0002000AD005E08AE0006302E020318ED2F83
:102FD0000030AD08031D013008002E08063A031D1D
:102FE000F32F0330FB2F2E08073A031D0134220074
:102FF0004E082000FB2F2D0200300318013008007E
:103000000034033405340734013409340B340D34EF
:103010000F34113413340034FF3FFF3FFF3FFF3FB5
:10392000FF3FFF3F230019082200BC0065303C0226
:10393000031C06346430BC0006346400013080018E
:103940000131FE020030FF3B7F087E040319003482
:103950009E2CF2000830F300F4017208F1000730E9
:10396000F136890BB02C74357104F400F23570080F
:103970007402031CBD2C7008F402F30BAD2C740808
:1039800008005C08F0000430F036890BC42C5C0899
:10399000F100F136F136F1365C08F200F236F2361B
:1039A0007208710670065C06F3000130F3057308B7
:1039B000F0000730F035890BDA2C5C367004DC003F
:1039C0000800200062102200C701F72423001D1206
:1039D000210091129231E22220001C149C105F30D1
:1039E0009B0019309B002200B201B50108002000A5
:1039F000D901DA0122002B30BC01BA01C000053028
:103A0000B900FF30B801BF0008002000B601360839
:103A10005F02031C08002130B5004D30B4003608A9
:103A2000B200B301B235B30DB235B30DB235B30D3B
:103A30003208B4073308B53D3408860035088700DE
:103A400047310108003A03192F2D34088600350844
:103A500087004731810B2F2D360831259D31B60A5D
:103A6000072DB1001E303102031808002130B000CC
:103A70004D30AF003108AD00AE01AD35AE0DAD3506
:103A8000AE0DAD35AE0D2D08AF072E08B03DE003ED
:103A90002F08860030088700473181015F08310612
:103AA000031D08003108031DDF030800C6000530B0
:103AB0004602031808003E08093EBF000030031804
:103AC0000130C000803AFF0080307F02031D6A2D64
:103AD0001F303F020318080022302000C9003D308B
:103AE000C8004608AD002330AE01AF00B0018E31F2
:103AF000C8269D312D08C8072E08C93D4908CB00AE
:103B00004808CA000430CA070318CB0A48088600D0
:103B100049088700423181014808033EBF00003058
:103B2000493DC0003F088600400887000130810001
:103B30004808013EBF000030493DC0003F088600F4
:103B40004008870033088100CC014A0886004B08F2
:103B5000870034088100CC0A3E08033EBF004C08B1
:103B6000C000C1014A07C20041084B3DC3004208E2
:103B70008600430887003F088100CC0A4C08BF003C
:103B8000C0014A07C10040084B3DC2004108860001
:103B90004208870035088100CC0A4C08BF00C001EC
:103BA0004A07C10040084B3DC20041088600420858
:103BB000870036088100CC0A4C08BF00C0014A07C4
:103BC000C10040084B3DC200410886004208870002
:103BD00037088100CC0A4C08BF00C0014A07C10069
:103BE00040084B3DC2004108860042088700380863
:103BF0008100CC0A4C08BF00C0014A07C100400840
:103C00004B3DC20041088600420887003908810008
:103C1000CC0A4C08BF00C0014A07C10040084B3D18
:103C2000C20041088600420887003A088100CC0A99
:103C30004C08BF00C0014A07C10040084B3DC2000C
:103C400041088600420887003B088100CC0AC70172
:103C50003E0847020318472E4708BF00C0013C0733
:103C6000860040083D3D87000108C1004C08C200A5
:103C7000C3014A07C40043084B3DC5004408860001
:103C80004508870041088100CC0AC70A282E480849
:103C90008600490887004C0881004808023EBF00A2
:103CA0000030493DC0003F088600400887000130D1
:103CB0008100080038088C3EFA002330FB01FB3DF0
:103CC0007A0886007B0887002300190881002200FB
:103CD000B80A380820005A06031D03348A2E230030
:103CE00019082200BE002000DA08031D782E8A2E53
:103CF00022003E08031903341F303E0203180A3421
:103D00003E0820005A02031C0A34E10A0130220056
:103D1000C1000334E6279E3120005A080319B72E4C
:103D2000EC30F0002230F1005B08F200C4269E3136
:103D3000EC30F0002230F10022003F08F200C426EF
:103D40009E31F90120005A087902EC30F00022304F
:103D5000F1000318B32E7908ED279E31F200C42636
:103D60009E31F90AA22EFF30F200C4269E310130A6
:103D7000BA279E31C4279E31220040082A3A031DEB
:103D80000A340530BA010800F4279E310108F30017
:103D9000F4017007F5007408713DF6007508053EE2
:103DA000F7000030763DF800770886007808870035
:103DB00072088100F4279E31FA279E314231700843
:103DC0008400710885000131000801027008860036
:103DD000710887000318F22E4131810170088600B6
:103DE000710887004331FA27433101080800230096
:103DF0001908FC007C0B0D2F22004208FF3A031922
:103E0000042F420864279E312000D9012200400877
:103E10002A3A03190A34BA01142F22000630BA0ACA
:103E20003A0203180A34962FE6279E31EC308600BA
:103E300022308700433101089B3C2200DA00043025
:103E40005A020318262FF801F9012D2F5A08F800FD
:103E5000FD30F901F807031CF9037808DA005A0865
:103E6000BA279E31FF30FA012200BF001F305A02EC
:103E7000031C542FFB017B08E0279E3181279E31D4
:103E80003F30D5279E31031D4F2F7B08E0279E3101
:103E900081279E314030D5279E310319FA0A05301B
:103EA000FB0A7B02031C3B2F2200C1017A08200081
:103EB000610203185E2F6108FA025F2FFA017A0887
:103EC000BA279E31C4270134F80005307802031860
:103ED00008007808E0279E3181279E313F30CA27AD
:103EE0009E317808E0279E3181279E314030CA27D5
:103EF0009E317808E0279E3181279E313D30CA27C8
:103F00000800F401F501701C892F7208F40773088A
:103F1000F53DF235F30DF136F00C71087004031D18
:103F2000832F7508F1007408F0000800E6279E3121
:103F300020005908BA279E3122003B08BA279E313B
:103F4000F1012000590871020318B82F7108ED27FC
:103F50009E31BA279E310A302200DB002200DB03AB
:103F60005B08FF3A0319B62F0000AE2FF10AA12F0C
:103F7000C4270934F0002000111EBB2F7008230055
:103F80009A009E180800C12F23009E121D162100C2
:103F900091160800F6002230F700700876078600B8
:103FA0007108773D870081010800F6002230F70094
:103FB0007008760786007108773D870001080800C1
:103FC000F0002330F101F200F301080023001D127C
:103FD0002100911223009E1608008C3E860023309B
:103FE0008701873D01080800700886007108870076
:103FF00041310800810A70088600710887000800B6
:020000040001F9
:02000E00CCCF55
:00000001FF
