:101400008B313E2BFF3FFF3F8A3120007F08A90030
:10141000911E3C2A2200C808031D102A20001C111E
:1014200021009110003023001D1901302000AC0074
:101430002C0303191E2A23009D1C232A23001908AC
:101440002000AB002C2A210091102200C80A913103
:1014500017218A312200BA0022003A080A3A0319F9
:10146000342A20002C0B382A92312F228A313C2A30
:101470002200B601200062142700131D512A8B118F
:10148000111121000C152200BA012A30C10091313E
:1014900017218A312200BA00B60120006214270009
:1014A000131120009118DE2AEC2A23001D122100BE
:1014B000911223009D139D1722004408AC002000C8
:1014C000AA01632AAA0A5C08FF3EA700FF3003189E
:1014D0000030A800803A803C031D702A27082A02A9
:1014E00003188F2A2200AC0A20005C0822002C027C
:1014F0000318AC012C08203E86000130870001084B
:1015000091316D218A312C08C40020008D1A622A85
:101510008B152700111520001C112100911001309E
:101520002200B30020009A019B00EA2A4708203ECF
:10153000860001308700010891316D218A3147080A
:10154000C40020008D1AAC2A8B152700111520002D
:101550001C1121009110EA2A21008D1220008D1209
:1015600002302200B30020009C141C1422002E081C
:10157000223E20009B0091314D218A312200AD0096
:101580000C30F0002D08913135218A31AE00200059
:101590005C08F00022002D08913135218A31C70006
:1015A000EA2A21008D169F319B278A3120001C14C6
:1015B0009C105F309B002200B301EA2A220033080E
:1015C000003A0319552A013A0319962A033A0319D6
:1015D000D12AEA2A20009110931C0F2B2200AA0A7C
:1015E0000319AB0A5C0B0D2BA60A0319A70A0030DE
:1015F0002702113003192602031C0D2B0730A60108
:10160000A701CA0A4A020318082B01308E060D2BC7
:101610000E100B304A020318DC0120009310111841
:1016200011100B1D3A2B2200B50A2000621C2B2B37
:10163000033022003602031C2B2B42080319272BF0
:10164000200061080319272BE1032200C201923117
:101650002F228A31302B2000621C302B2200B60A48
:101660000A302200D70A5702031C392BD7017F30DA
:10167000D6000B1120002908FF0009009231532ADF
:1016800039088C3EFA002330FB01FB3D7A088600C6
:101690007B0887002300190881002200B90A390855
:1016A00020005906031D03346E2B23001908220065
:1016B000BF002000D908031D5E2B6E2B22003F08BF
:1016C000031903341F303F0203180A3420308C06FC
:1016D0002000E10A01302200C2000334E0238B31F4
:1016E0002000590803199E2BEC30F0002230F10045
:1016F0005A08F200AD238B31EC30F0002230F100BB
:1017000022004008F200AD238B31F9012000590876
:101710007902EC30F0002230F10003189B2B79089D
:101720008C3E860023308701873D0108F200AD23FF
:101730008B31F90A862BFF30F200AD2301309F3147
:1017400091278B319F319B278B31220041082A3A08
:10175000031D0A340530BB010800E7238B31010863
:10176000F300F4017007F5007408713DF600750888
:10177000053EF7000030763DF800770886007808CF
:10178000870072088100E7238B31ED238B314231D2
:10179000700884007108850001310008010270089A
:1017A0008600710887000318DB2B41318101700826
:1017B0008600710887004331ED234331010808009A
:1017C00023001D122100911223009E1608007008AC
:1017D00086007108870041310800810A7008860080
:1017E00071088700080000340334053407340134DD
:1017F00009340B340D340F34113413340034FF3FEB
:101800008C318207022C032C042C052C062C072C6F
:10181000082C092C0A2C0B2C0C2C8C31282C9431E4
:10182000C82C8C318207132C8B31402B9D31BB2D62
:1018300091318D298B31552B8B316E2B91311E2996
:101840009D31942D9E310C2E9F31682F9D319E2D00
:101850005308A83A031D9D2C29087F2696313E2661
:101860008C312100D100D108031D08008B11270005
:10187000111121000C15200095018B121C11210063
:101880009110280095011711210093100B138B1351
:1018900023009D139D179E121D12210091121230DC
:1018A00097002500930120008E158E16FF3025002D
:1018B000910021009D012700131120009310911029
:1018C00093110B138B1323009D138B1322005208CB
:1018D0002000AD0000302F258C3195186D2C220092
:1018E00051082000AD0001302F258C319518762C41
:1018F000220050082000AD0002302F258C319518B1
:101900007F2C22004D082000AD0003302F258C31A4
:101910009518882C8B1301309331D9238C3195186D
:101920008F2C8B130130943139248C319518962CDF
:101930008B136400010064009B2C5308A03A031D24
:10194000BD2C2100C401C40AC501C601C701C70AD4
:10195000C801C901CA01CA0ACB01CC0122002F0863
:101960002100CD00CE01CE0ACF0186268C31C430B5
:10197000AD000C30AE00A130592D5308A23A031D22
:1019800008002100D001D201520820005F02031C90
:10199000242D2100520820009731C5278C31963123
:1019A00099268C316B302100AF002130B00020002F
:1019B0002D0821002F07860020002E082100303D31
:1019C0008700D3308400003085000730FF00160008
:1019D0001A00FF0BE72C59080319222D56080F395E
:1019E000013A031D222D0130AF00560E0739890A36
:1019F000FA2CAF35890BF92C2F08D00493268C31A3
:101A00004C258C31013EB13E8600870121005308F0
:101A1000FF39810093268C314C258C31023EB13E3A
:101A20008600870121005408FF39810093268C31FC
:101A30004C258C31033EB13E8600870121005508BC
:101A4000FF398100D20AC42C21005008B10086263B
:101A50008C31B130AD001330AE00A330592DAE0043
:101A600023009518302D20002E08230091009201AC
:101A700020002D08230093003F30950503108B1B99
:101A800003148B13151555309600AA309600951443
:101A9000151103188B1708002000AF00AE012D08A8
:101AA0002F18AE07AD35AF36AF08031D4F2D2E08EA
:101AB00008002000D40057082100A000200056088C
:101AC0002100A100200055082100A200A3012A083E
:101AD000A4002B08A5002C08A6002D08A700A8012B
:101AE0002E08A90020005408752D2000CF002100E9
:101AF00025082000B300210026082000B4002100A2
:101B0000240802268C31D000FF3A0319FE34500815
:101B10003A263408CE003308CD00D3012230D2005B
:101B20003D30D1005308AD002330AE01AF00B0010D
:101B3000963199268C312D08D1072E08D23D5208B6
:101B4000AE005108AD004F08AF002100240820006E
:101B5000B000210025082000B10021002608200047
:101B6000B2004F268C310038031DC62D5108860067
:101B70005208870042310108031DFC2D51088600E0
:101B80005208870043310108031DFC2D4D088600D3
:101B90004E0887004331010E0739B3004F08B400E7
:101BA000210020082000B500210021082000B600F7
:101BB000210022082000B700210023082000B800DF
:101BC000210024082000B900210025082000BA00C7
:101BD000210026082000BB00210028082000BD00AD
:101BE000210027082000BC00210029082000BE0099
:101BF00053088E319A2600340530D30A5302031855
:101C0000FF348E2D2000B700B80138085F02031C96
:101C1000FF3438089731C5278C31963199268C319D
:101C20006B30B5002130B6002D08350786002E0830
:101C3000363D870039308400003085000730FF00D2
:101C400016001A00FF0B202E3908FF393706031D36
:101C5000382E3A08FF393306031D382E3B08FF396A
:101C60003406031D382E3F080319382E38080800A3
:101C7000B80A052E2000B6002130B8006B30B7003E
:101C800036089731C5278C31963199262D08B7072C
:101C90002E08B83D3808B4003708B3000800A0305B
:101CA0002F02031800342D0886002E0887004231C9
:101CB000010B00342D0886002E08870044310108EE
:101CC0002F06031D00342D0886002E0887004A3198
:101CD00001083006031D00342D0886002E088700F9
:101CE0004B3101083106031D00342D0886002E08F3
:101CF00087004C31010832060319013400342000FA
:101D0000AE00220028082000AD0008002200520882
:101D10002100AA00220051082100AB002200500837
:101D20002100AC00080003302000AD002100560E59
:101D300007390800C60005304602031808003E08AF
:101D4000093EBF00003003180130C000803AFF0098
:101D500080307F02031DAE2E1F303F0203180800A3
:101D600022302000C9003D30C8004608AD002330B5
:101D7000AE01AF00B001963199268E312D08C8070B
:101D80002E08C93D4908CB004808CA000430CA07DC
:101D90000318CB0A480886004908870042318101B0
:101DA0004808033E46278E31013081004808013E35
:101DB00046278E3133088100CC014A0886004B0843
:101DC000870034088100CC0A3E08033EBF004C085F
:101DD000C000C1014A07C20041084B3DC300420890
:101DE0008600430887003F0837278E31350837279C
:101DF0008E31360837278E31370837278E3138082D
:101E000037278E31390837278E313A0837278E31F8
:101E10003B088100CC0AC7013E08470203182B2F5C
:101E20004708BF00C0013C07860040083D3D8700D1
:101E30000108C1004C08C200C3014A07C40043089E
:101E40004B3DC500440886004508870041088100D5
:101E5000CC0AC70A0C2F48088600490887004C089E
:101E600081004808023E46270130810008008100B9
:101E7000CC0A4C08BF00C0014A07C10040084B3DD6
:101E8000C20041088600420887000800BF000030F9
:101E9000493DC0003F088600400887000800C60092
:101EA000BF278F31C700FF3A0319FF342130C90023
:101EB0006B30C80047089731C5278F319631992676
:101EC0008F312D08C8072E08C93D480886004908EB
:101ED00087000108460600394606E6278F31413162
:101EE00001083D0600393D06E6278F3142310108E1
:101EF0003E0600393E06E6278F31433101083F0692
:101F0000F0393F0681004008C300480886004908B0
:101F100087004331C30E010843068F394306E62785
:101F20008F3144310108410600394106E62743312B
:101F30004208031D8117031981134808053EC30099
:101F40000030493DC40043088600440887007F30C4
:101F500081006008053EC3004808063EC40000300A
:101F6000493DC500440886004508870043088100B4
:101F7000E00A47085F024708031CDF000800B501BC
:101F800035089731C5278F31963199268F316B30BF
:101F9000B3002130B4002D08330786002E08343DED
:101FA000870036308400003085000730FF001600BF
:101FB0001A00FF0BD72F3C08031DE02F350808003F
:101FC0001E30B50A35020318FF34C02F81004808BF
:101FD00086004908870008009431512C9431542C14
:101FE0009431572C94315A2C9431602C9431662CB6
:101FF00094315D2C9431632CFF3FFF3FFF3FFF3F47
:10222000FF3FFF3FFF3FFF3FFF3FFF3FFF3F3A08BA
:10223000F43E8B310A008C31112408002300190868
:102240002200BD0065303D02031C06346430BD0031
:1022500006346400013080010131FE020030FF3B92
:102260007F087E04031900342A29F2000830F300A5
:10227000F4017208F1000730F136890B3C297435FE
:102280007104F400F23570087402031C49297008C7
:10229000F402F30B3929740808005B08F0000430DD
:1022A000F036890B50295B08F100F136F136F13632
:1022B0005B08F200F236F2367208710670065B06B1
:1022C000F3000130F3057308F0000730F035890B97
:1022D00066295B367004DB000800F1002000DA009C
:1022E000711C752922000E17772922000E13710820
:1022F000F000F036701C7F2922008E178129220001
:102300008E137108F000F036F036701C8A29220016
:102310000E16080022000E120800230019082000E3
:10232000D900EC30860022308700433101089B3C05
:102330002200D900043059020318A129F001F1014B
:10234000A8295908F000FD30F101F007031CF10342
:102350007008D90065302000590203180A34590862
:1023600022005902031C0A340234BD002130BF0090
:102370006B30BE003D089731C527913196319926C3
:1023800091312D08BE072E08BF3D29229131010849
:102390000F39BA0036083A02031C1D2A3E0886008F
:1023A0003F088700433101083606F03936068100C0
:1023B0003708BA0029229131BA0E01083A068F393E
:1023C0003A0681003E0886003F0887004431010834
:1023D00038060039380681003E08053EBA00003054
:1023E0003F3DBB003A0886003B0887007F308100F4
:1023F0006008053EBA00003003180130BB003E08FB
:1024000086003F08870046313B08803A803C031D28
:102410000B2A3A08010203181D2A20006008053E15
:10242000BA003E08063EBB0000303F3DBC003B0802
:1024300086003C0887003A0881002000390803190B
:10244000272A3E0886003F088700433181173D0850
:1024500008003E0886003F0887004331080020003E
:1024600062102200C8014522923123001D12210072
:102470009112362320001C149C105F309B001930F1
:102480009B002200B301B60108002000D801D90149
:1024900022002B30BD01BB01C1000530BA00FF3066
:1024A000B901C00008006B30840021308500853000
:1024B000FE000230FF009131292192315530FD019B
:1024C000E2018400003085000D30FE00FF019131F3
:1024D0002921923120308400013085003C30FE00FB
:1024E000FF0191312921923122000130DC002000CE
:1024F000792A2030AD0000301F23923113082000CC
:10250000D7002130AD0000301F2392311308200086
:10251000D6002230AD0000301F2392311308200076
:10252000D5002330AD0000301F2392311308220064
:10253000AF002000570855062100E400200056088F
:102540005507210064062000DB00123021009700AF
:102550006C2392312100E5007030990031309800F1
:102560009E239231BF23923100308B23923123007E
:102570001D122100911223009E12EC302000AD00AC
:102580002230AE004E239231EC30AD002230AE004E
:102590000D30AF00C82392310B302000AD00003069
:1025A0007A2392318A239231210065080319DF2AA8
:1025B0000030D92392310030392492310100640077
:1025C0001B3021009700362392310B178B178B1786
:1025D00020009C141C1437309B0028009501971490
:1025E000171417179716171697154C3096001715CE
:1025F00021009314200095012100951295111515C5
:10260000951415148B16BB2792312200DC01DC0ACD
:102610006400502492316400083022003502031C0B
:10262000152B8C2792312200B5013E239231640094
:10263000B427923164009D2392316400082BAE00D0
:102640002D082300910020002E082300920015136E
:10265000951715140000000000000000640023001E
:1026600015182F2B640023009513080020009A01F1
:10267000FA309B001C15210091140800DC08031D92
:1026800008000B303802031C08000D303802031C10
:102690004C2B0E10B80108000E1408002D088600FF
:1026A0002E08870081012D0886002E088700413101
:1026B00081012D08023EAF0000302E3DB0002F08F2
:1026C0008600300887009A3081002D0886002E0889
:1026D0008700433181010800B8302000AD00003090
:1026E0001F23140813082000AF00333A00300319E9
:1026F00001300800AE0076262D082200B40020002C
:102700002E082200B7002B30C1000530BA00FF3080
:10271000C000080008002000AD00942B22000E101D
:10272000080022000E1408002D08003A03198E2B11
:10273000013A0319912B9C2B0800BC2FFF308C0011
:102740008D0006308E0029309D009E131E179E16A8
:102750001E129E101E1023008E1120008E118E124C
:1027600023008D120C110E138E130E1022000E1367
:102770008E130E1221008C1222008C1208002300EE
:102780009D171E159F1507309B009C011E12080007
:10279000DD012200D301CF0120002E082200A90074
:1027A00020002D082200A80020002F082200CC00C5
:1027B00008002000B100B830AD00AE01EF23923127
:1027C00020003108B830AD003F30AE000319EC2BCB
:1027D0003330AF000030122C0030AF01122C2D0826
:1027E0002300910020002E08230092001513951756
:1027F00015161515082492312300151164002300C5
:10280000151AFF2B6400230095139518052C08005A
:1028100055309600AA309600951400000000000084
:1028200000000800B00023009517151515121513A8
:10283000951620002D082300910020003008230069
:10284000920020002F082300930020002E08230070
:102850009400082492312300951208249231230019
:102860001511640023009518322C64002300951381
:1028700008002000B100D030AD00AE01EF2392314E
:1028800020003108D030AD003F30AE0003194C2C91
:102890002730AF000030122C1130AF000030122C66
:1028A0006B2CA22492316B2C2C2792316B2C63273A
:1028B00092316B2C3D2792316B2CB22492316B2CD0
:1028C000222792316B2C7B2492316B2C4D27923135
:1028D0006B2C982492316D2792310038031908002F
:1028E0005D088400083004020318692C8F31043518
:1028F000EC3E82006B2C05302000DD00D4279231A5
:10290000443181014C0803198A2C4C088C31002475
:1029100092312200D427923144314F08010203182A
:10292000080029088E317F2692313E2692318A2C6A
:102930002000DD012200D301D201D101D001CF015D
:10294000CE0108002200BD2792313E26923122009E
:10295000CD0001302000DD00063022004D02031CB6
:102960000800982C2200BD2792313E269231220089
:10297000D200BD2792313E2692312200D100BD27E0
:1029800092313E262200D00004302000DD000800F5
:1029900064002200520820005706031DEB2C220081
:1029A000510820005606031DEB2C22005008200081
:1029B0005506031DEB2C2100E10122004F082100E8
:1029C0006102031808002200BD2792313E26923191
:1029D0002100E10ADD2C7030220053020318472D3C
:1029E000530B482D29088E317F2692313E26923195
:1029F0002100DF002200BD2792313E2692312100C6
:102A0000E00022004D082100E200220051082000D1
:102A1000CA00220050082000CB0022004E08013ED0
:102A20002000CC00210062082000CD0021005F08BA
:102A30002000CE00210060082000CF0022005208B4
:102A4000F42692312100E300FF3A0319482D630870
:102A50002000C52792319926923170302100DC0088
:102A60002130DD0020002D0821005C0786002000B9
:102A70002E0821005D3D87000130DE00620A412DF5
:102A8000DE35890B402D5E08FF3A8105482D4B2528
:102A90002200B80A0800BD2792313E269231230059
:102AA000BD002200BD2792313E2692312300BE0098
:102AB0002200BD2792313E2692312300BF00220022
:102AC0004F08FD3E2300B600220051082000C00040
:102AD000220050082000C10022005208AE26923188
:102AE00023003F0820005506031DA92D23003E08A2
:102AF00020005606031DA92D23003D08200057067F
:102B0000031DA92D61080319A32DE103A32DBD27E2
:102B100092313E2692312300B7002200BD27923128
:102B20003E2692312200B200320803190800230029
:102B300037082200B10008003408031908008C315E
:102B400000242200080022005308703A0319872D40
:102B50009C2D23003E082000B30023003F082000E6
:102B6000B40023003D088E31022692312300BB00C1
:102B7000FF3A0319392E3B088E313A269231340838
:102B80002300BA00200033082300B90022005308B4
:102B9000A83A031DF52D23003908063E2100DA006E
:102BA000003023003A3D2100DB005A0886005B0814
:102BB0008700FF308100CB27923186269231003882
:102BC000031DF32D22004D08A000230039088600C4
:102BD0003A0887004331010E07392200A100023074
:102BE0002000DC00F52D762692312300BC01B801CF
:102BF000360838020318102E2200BD2792313E26D7
:102C000092312100DA0023003C08A03E860001300A
:102C1000870021005A0881002300BC0AB80AF82D59
:102C2000220052082100A000220051082100A1002A
:102C3000220050082100A20022004E08013E21007F
:102C4000A30023003D082100A40023003E0821002A
:102C5000A50023003F082100A600A030A7000130F6
:102C6000A80023003C082100A900220053088D3150
:102C7000752520006108031DE10308002D0886006A
:102C80002E0887000108AF00B0012D07B100300801
:102C90002E3DB20031088600320887004531010818
:102CA000B3002D0886002E088700810A2D088600B3
:102CB0002E08870042312D0884002E088500000868
:102CC00001022D0886002E08870003186C2E810152
:102CD0002D0886002E088700433181032D088600C9
:102CE0002E0887004431810A330808002200A00121
:102CF0000130A1000230A2000330A3000430A40080
:102D00000530A50006302000DC0008002D088600F4
:102D10002E0887000108AF00B0012D07B100300870
:102D20002E3DB20031088600320887004531010887
:102D30000800B101B2012D1CA12E2F08B1073008E7
:102D4000B23DAF35B00DAE36AD0C2E082D04031DCF
:102D50009B2E3208AE003108AD0008002000C700ED
:102D60004008B3004108B40047088E310226923172
:102D7000C800FF3A031908006008053EC200003091
:102D800003180130C3004808C527923199269231B3
:102D90007130C4002130C5002D08440786002E087C
:102DA000453D87004308803A803C031DD92E4208E8
:102DB00001020318080020006008053EC200480810
:102DC000C527923199267130C3002130C4002D08E7
:102DD0004307C5002E08443DC60045088600460846
:102DE00087004208810008002000D1004A08B30093
:102DF0004B08B40051088E3102269231D000FF3AC0
:102E0000031D112F4A08BD004B08BE004C08BF002F
:102E10004D08C0004E08C1004F08C20051088F3154
:102E20004F2F5108B3004A08B4004B08B5004C08B6
:102E3000B6004D08B7004E08B8004F08B90050085A
:102E40009131B52907302000DD002200BD279231E5
:102E50003E262200CE0008002200BD2792313E26E9
:102E60009231DE000230DD0005305E02031C0800F6
:102E70005E08FF3A03190800982C2200BD27923102
:102E80003E2692312200CF0006302000DD001F30A8
:102E900022004F02031C0800982C08302000DD009F
:102EA000CB27923186269231B400FF3A031D5E2F64
:102EB0002200BD2792313E269231982C9824023070
:102EC0002000DD0008002200BD2792313E262200AE
:102ED000D30003302000DD000800D42792314331B5
:102EE00001082000AD005D08AE0006302E02031878
:102EF0007E2F0030AD08031D013008002E08063A71
:102F0000031D842F0330DA2F2E08073A031D0134E6
:102F100022004F082000DA2F2000B80138085F0295
:102F2000031C08002130B7006B30B6003808C527F5
:102F30009231992692312D08B6072E08B73D3608F2
:102F400086003708870046310108003A0319B22F7E
:102F500036088600370887004631810BB22F3808C3
:102F6000DF279231B80A8E2F7D1C08002200AA01AB
:102F7000AB017D1008000800080029082000AE0001
:102F8000220028082000AD000800AD000730AE0187
:102F9000AF00B0010800220029082000AE00220086
:102FA00028082000AD000800220028088600290813
:102FB000870008002D020030031801300800B5001A
:102FC0001E303502031808002130B4006B30B30006
:102FD0003508C5279231992692312D08B3072E085E
:102FE000B43DE00333088600340887004631810190
:102FF0005F083506031D08003508031DDF030800C0
:103B2000FF3FFF3FFF3FFF3F230019082200BE0079
:103B30003E0803199D2D1F30BE000C2E23001908CE
:103B4000FC007C0BB42D22004308FF3A0319AB2D77
:103B5000430836279D312000D801220041082A3A27
:103B600003190A34BB01BB2D22000630BB0A3B02FD
:103B700003180A34682F8B31E0239D31EC30860026
:103B800022308700433101089B3C2200DA000430D8
:103B90005A020318CE2DF801F901D52D5A08F80064
:103BA000FD30F901F807031CF9037808DA005A0818
:103BB00091279D31FF30FA012200C0001F305A02C8
:103BC000031CFC2DFB017B08E1279D3153279D3110
:103BD0003F30E7279D31031DF72D7B08E1279D31FD
:103BE00053279D314030E7279D310319FA0A0530EC
:103BF000FB0A7B02031CE32D2200C2017A0820008D
:103C000061020318062E6108FA02072EFA017A08EB
:103C100091279D319B270134FF30C3002000A00174
:103C200022004908013ED800053058020318D80187
:103C30005808C90022302000A4003D30A300220013
:103C40005808E1279D3153279D3170082000A307B4
:103C50007108A43D2200BC0120002308860024082E
:103C60008700413101085A06031D792E230886007A
:103C7000240887004231010B792E2308860024088E
:103C80008700010822003E02031C792E2000FA273B
:103C90009D3122003D02031C792E2000A101FA274C
:103CA0009D3121020318722E2108F600F701230727
:103CB000F8007708243DF900780886007908870025
:103CC00044310108FA0058088C3EFB002330FC0107
:103CD000FC3D7B0886007C0887007A088100D80AB2
:103CE000A10A4F2EFA279D312200BC005808C300BC
:103CF0007F2E20000530A00A2002031C102E013068
:103D0000F60020005A0A852EF635890B842E760897
:103D1000220056050319C92E20005808F2279D31AC
:103D2000F80080307802031D982E22003D087602AC
:103D30000318C92E0130F60020005A0AA02EF635CD
:103D4000890B9F2E7608FF3A2200D6052000A12776
:103D50009D3101308100D80AA1279D3102308100B8
:103D6000D80AA1279D3157088100D80AA1279D3183
:103D700056088100D80AA1279D3155088100CA271D
:103D80009D31A1279D312200310881002000CA27E2
:103D90009D312000A20122085F02031C352F213033
:103DA000A6006B30A5002208F0000730F101F200F8
:103DB000F30153279D3170082000A5077108A63D27
:103DC000250886002608870046310108003A0319B5
:103DD000332F2508D4279D3101050319332F5808A7
:103DE000F2279D31803C031DF82E760822003D020B
:103DF000031C352F20002508D4279D31FF3A81056B
:103E0000A1279D3101308100D80AA1279D310230C0
:103E10008100D80A25088600260887000108FF3996
:103E2000AC279D3141310108FF39AC279D3142312A
:103E30000108FF39AC279D31433101080F39AC2708
:103E40009D3144310108FF39F60058088C3EF700D7
:103E50002330F801F83D7708860078088700760857
:103E60008100CA279D31A20ACB2E682FF8000530A9
:103E70007802031808007808E1279D3153279D3107
:103E80003F30BF279D317808E1279D3153279D3171
:103E90004030BF279D317808E1279D3153279D3160
:103EA0003D30BF270800F401F501701C5B2F72083C
:103EB000F4077308F53DF235F30DF136F00C710897
:103EC0007004031D552F7508F1007408F0000800F8
:103ED0008B31E0239D312000580891279D3122002D
:103EE0003C0891279D31F101200058087102031808
:103EF0008F2F71088C3E860023308701873D010893
:103F000091279D310A302200DB002200DB035B0891
:103F1000FF3A03198D2F0000852FF10A742F9B277C
:103F20000934F0002000111E922F700823009A001F
:103F30009E180800982F23009E121D16210091162E
:103F4000080058088C3EF6002330F701F73D76084C
:103F50008600770887000800F60058088C3EF700B6
:103F60002330F801F83D7708860078088700760846
:103F70008100D80A25088600260887000800F60078
:103F80002230F7007008760786007108773D8700B9
:103F900081010800D80A58088C3E8600233087012A
:103FA000873D8101D80A0800860026088700013075
:103FB0004531F6005A0ADD2FF635890BDC2F7608DD
:103FC0000800F0002330F101F200F3010800F600D0
:103FD0002230F7007008760786007108773D870069
:103FE00001080800083EF600003003180130F70011
:103FF000803A08002308860024088700010808008A
:020000040001F9
:02000E00CCCF55
:00000001FF
