:101400008B31442BFF3FFF3F8A3120007F08A9002A
:10141000911E3C2A2200CB08031D102A20001C111B
:1014200021009110003023001D1901302000AC0074
:101430002C0303191E2A23009D1C232A23001908AC
:101440002000AB002C2A210091102200CB0A9931F8
:10145000DB218A312200BD0022003D080A3A03192F
:10146000342A20002C0B382A9A3168228A313C2AEF
:101470002200B901200061142700131D512A8B118D
:10148000111121000C152200BD012A30C400993130
:10149000DB218A312200BD00B90120006114270040
:1014A000131120009118E12AEF2A23001D122100B8
:1014B000911223009D139D1722004708A8002000C9
:1014C000AA01632AAA0A5C08FF3EA700FF3003189E
:1014D0000030A800803A803C031D702A27082A02A9
:1014E00003188F2A2200A80A20005C082200280284
:1014F0000318A8012808C03E8600013087000108B3
:101500009A3105228A312808C70020008D1A622AE4
:101510008B152700111520001C112100911001309E
:101520002200B60020009A019B00ED2A20005B08F3
:10153000C03E86000130870001089A3105228A31B9
:1015400020005B082200C70020008D1AAF2A8B15EF
:101550002700111520001C1121009110ED2A2100F7
:101560008D1220008D1202302200B60020009C1443
:101570001C1422002A08223E20009B009A31462299
:101580008A31A9000C30F00029089931ED218A3107
:10159000AA0020005C08F000220029089931ED2102
:1015A0008A312000DB00ED2A21008D168D317D254A
:1015B0008A3120001C149C105F309B002200B60171
:1015C000ED2A22003608003A0319552A013A031978
:1015D000962A033A0319D42AED2A20009110931C6D
:1015E000152B2300C80A0319C90A2200600B132B0C
:1015F0002300C60A0319C70A003047021130031935
:101600004602031C132BC601C70122000730CD0A76
:101610004D0203180E2B01308E06132B0E100B30CB
:101620004D020318E00120009310111811100B1D3A
:10163000402B2200B80A2000611C312B033022000D
:101640003902031C312B450803192D2B21006F088B
:1016500003192D2BEF032200C5019A3168228A312C
:10166000362B2000611C362B2200B90A08302200DC
:10167000DC0A5C02031C3F2BDC017F30DB000B111A
:1016800020002908FF00090092310D2A003400349F
:1016900000343B340034603400347B340034903404
:1016A0000034A2340034B1340034BE340034CA34BF
:1016B0000034D4340034DE340034E6340034EE3404
:1016C0000034F6340034FD340034033401344A3439
:1016D00001344A3402344A3403344A3404344A3438
:1016E00005344A3406344A3407344A3408344A3418
:1016F00009344A340A344A340B344A340C344A34F8
:101700000D344A340E344A340F344A34103403341E
:1017100005340734013409340B340D340F341134DB
:1017200013340034230019082000D900EC3086005F
:1017300022308700433101089B3C2200DE00043048
:101740005E020318A62BF001F101AD2B5E08F0003C
:10175000FD30F101F007031CF1037008DE00653075
:101760002000590203180A34590822005E02031CA3
:101770000A340234220026088600270887004331F5
:1017800001082000AD005D08AE0006302E020318EF
:10179000CE2B0030AD08031D013008002E08063A9C
:1017A000031DD42B0330DC2B2E08073A031D013414
:1017B000220053082000DC2B2D02003003180130DA
:1017C000080022009731EF278B31963174268B3138
:1017D0002200D6009731EF278B31963174268B315A
:1017E0002200D5009731EF278B31963174262200E5
:1017F000D40004302000DD000800FF3FFF3FFF3F22
:101800008C318207022C032C042C052C062C072C6F
:10181000082C092C0A2C0B2C0C2C9C317F2C94317D
:10182000C62C8C318207132C8C31442C8C31812CAA
:101830008B31922B8C31282C8C31D52C9931E2298B
:101840009031032890310D288D31832D8C31642CFB
:10185000230019082200C2002000D908031D312CE2
:10186000D52C22004208031903341F30420203180A
:101870000A34420820005902031C0A342100EF0AEE
:1018800001302200C50003343C088C3E2000A20039
:101890002330A301A33D22088600230887002300EC
:1018A000190881002200BC0A20005908013EA2004C
:1018B000003003180130A30022003C08200022065B
:1018C0002304031D0334D52C23001908FD007D0BD0
:1018D0007A2C22004608FF3A0319712C4608042688
:1018E0008C312000D801220044082A3A03190A3416
:1018F000BE01812C2200BE0A06303E0203180A34C3
:10190000832D23001D122100911223009E16EC301E
:10191000860022308700433101089B3C2200DF0013
:1019200004305F020318972CF801F9019E2C5F0820
:10193000F800FD30F901F807031CF9037808DF000F
:101940005F08C4258C31FF30FA012200C3001F302C
:101950005F02031CC52CFB017B0854268C31212619
:101960008C313F3049268C31031DC02C7B08542616
:101970008C3121268C31403049268C310319FA0AEA
:101980000530FB0A7B02031CAC2C2200C5017A083F
:1019900021006F020318CF2C6F08FA02D02CFA0135
:1019A0007A08C4258C317D25013441268C315908B3
:1019B00003193E2D22003C08FA008B30FB01FC008D
:1019C0002330FD007A087C0786007B087D3D870078
:1019D00001082000A0002200BC03D0258C3120008B
:1019E000D7008C30F0002330F10022003C08F200D8
:1019F00020005708D1258C31D700CE258C31D70057
:101A000041268C31200857060319162D0030C425B5
:101A10008C317D258C312200BC01BE0A06303E028D
:101A2000031C013445082100EF020A34EC30F000B9
:101A30002230F1005A08F2004A258C31EC30F000D7
:101A40002230F10022004308F2004A258C312000A8
:101A5000A10159082102EC30F0002230F1000318F6
:101A60003A2D21085A268C31F2004A258C3120006B
:101A7000A10A292DFF30F2004A258C310130C425FE
:101A80008C317D258C31220044082A3A031D0A340A
:101A9000BE01053461268C310108F300F4017007A2
:101AA000F5007408713DF6007508053EF70000303A
:101AB000763DF80077088600780887007208810074
:101AC00061268C3167268C314231700884007108A0
:101AD0008500013100080102700886007108870046
:101AE0000318782D41318101700886007108870044
:101AF0004331672643310108080023009E121D165A
:101B0000210091160800D0258C312000D7004126F5
:101B10008C315808C4258C3122003F08C4258C31F3
:101B2000FC01200058087C020318B82D7C088C3E6C
:101B3000FA002330FB01FB3D7A08F0007B08F1003E
:101B4000F201F20A5708D1258C31D7007C085A26B9
:101B50008C31C4258C310A30F000AF2D0000F00329
:101B60007008FF3A031DAE2DB62DAE2DFC0A912D47
:101B700058080319C22D5708CE258C31D7005708B5
:101B8000C4258C317D250934F0002000111EC52D9F
:101B9000700823009A009E180800CB2DF000080062
:101BA0000034F6007108F4007008F300F2037208C4
:101BB000FF3A0319022E7308860074088700010893
:101BC000F500F30A0319F40A8030F800F9017608E9
:101BD000F7008030F705750878050319F52D7708AB
:101BE000003A003003190130F700F6357708031981
:101BF000FB2D0730F606F936F80C7908780403193E
:101C0000D62DE72D76080800F80005307802031875
:101C10000800780854268C3121268C313F30362636
:101C20008C31780854268C3121268C314030362670
:101C30008C31780854268C3121268C313D30362663
:101C40000800F401F501701C292E7208F4077308CE
:101C5000F53DF235F30DF136F00C71087004031DFB
:101C6000232E7508F1007408F0000800F6002230F9
:101C7000F7007008760786007108773D87008101BC
:101C8000080023001D122100911223009E1620003F
:101C90000800F6002230F700700876078600710809
:101CA000773D870001080800F0002330F101F200C1
:101CB000F30108008C3E860023308701873D010830
:101CC0000800700886007108870041310800810A09
:101CD00070088600710887000800C400E6268E316F
:101CE000C500FF3A0319FF342130C7004D30C6004C
:101CF0004508C100C201C135C20DC135C20DC13593
:101D0000C20D4108C6074208C73D4608860047087D
:101D1000870001084406003944060F278E314131FF
:101D200001083A0600393A060F278E314231010880
:101D30003B0600393B060F278E31433101083C0634
:101D4000F0393C0681003D08C1004608860047087E
:101D500087004331C10E010841068F3941060F2724
:101D60008E31443101083E0600393E060F278E3180
:101D7000433181134608063E15278E317F3081009E
:101D80006008053EC1004608073EC2000030473DDE
:101D9000C3004208860043088700410881004608C6
:101DA000053E15278E3140088100E00A4008043ABC
:101DB000031DDF2E3C0BDF2E01302200DA00200055
:101DC00045085F024508031CDF000800B101310827
:101DD000AD004D30AE01AD35AE0DAD35AE0DAD350E
:101DE000AE0DAF002130B0002D082F0786002E0861
:101DF000303D870032308400003085000830FF001D
:101E000016001A00FF0B002F3908031D092F310897
:101E100008001E30B10A31020318FF34E72E81009A
:101E200046088600470887000800C1000030473D8B
:101E3000C20041088600420887000800B80021302F
:101E4000BA004D30B9003808B500B601B535B60D49
:101E5000B535B60DB535B60D3508B9073608BA3DF6
:101E60009D278F3101080F39B50030083502031C5A
:101E7000882F390886003A08870043310108300668
:101E8000F039300681003108B5009D278F31B50E3D
:101E9000010835068F3935068100390886003A0871
:101EA00087004431010832060039320681003908C2
:101EB000053E94278F31340881003908063E942767
:101EC0008F317F3081006008053EB5000030031877
:101ED0000130B600390886003A08870047313608D5
:101EE000803A803C031D762F350801020318882FA5
:101EF00020006008053EB5003908073EB6000030F6
:101F00003A3DB7003608860037088700350881005B
:101F1000200033080319922F390886003A088700F9
:101F20004331811738080800B50000303A3DB6004B
:101F300035088600360887000800390886003A0808
:101F40008700433108002000B60136085F02031CF9
:101F500008002130B5004D30B4003608B200B3019E
:101F6000B235B30DB235B30DB235B30D3208B40787
:101F70003308B53D3408860035088700473101082D
:101F8000003A0319CD2F3408860035088700473101
:101F9000810BCD2F3608CF278F31B60AA52FB10080
:101FA0001E303102031808002130B0004D30AF0060
:101FB0003108AD00AE01AD35AE0DAD35AE0DAD3570
:101FC000AE0D2D08AF072E08B03DE0032F088600A8
:101FD00030088700473181015F083106031D080082
:101FE0003108031DDF030800640001308001013166
:101FF000FE020030FF3B7F087E0403190034F52FFA
:10200000FF3FFF3FFF3F230019082200C1004108A6
:1020100003190C281F30C1000D28FF30C600200016
:10202000A00122004C08013EDD0005305D020318CE
:10203000DD015D08CC0022302000A4003D30A3006B
:1020400022005D08F0002330F101F200F3018E312F
:102050002126903170082000A3077108A43D2200BA
:10206000BF012000230886002408870041310108B1
:102070005A06031D8728230886002408870042315A
:10208000010B872823088600240887000108220006
:102090004102031C872820002308860024088700AB
:1020A000010822004002031C87282000A101230808
:1020B0008600240887000108210203187D282108D2
:1020C000F600F7012307F8007708243DF9007808A7
:1020D00086007908870044310108FA0058088C3ED0
:1020E000FB002330FC01FC3D7B0886007C08870058
:1020F0007A088100D80AA10A5728230886002408F4
:10210000870001082200BF005D08C6008D2820005E
:102110000530A00A2002031C11280130F60020001F
:102120005A0A9328F635890B9228760822005B0517
:102130000319232920005808083EF6000030031830
:102140000130F700803AF80080307802031DAB2898
:10215000220040087602031823290130F6002000EF
:102160005A0AB328F635890BB2287608FF3A2200BE
:10217000DB05200058088C3EF6002330F701F73DC0
:10218000760886007708870001308100D80A580851
:102190008C3EF6002330F701F73D7608860077087D
:1021A000870002308100D80A58088C3EF6002330A0
:1021B000F701F73D7608860077088700220034088B
:1021C00081002000D80A58088C3EF6002330F70121
:1021D000F73D7608860077088700220033088100E3
:1021E0002000D80A58088C3EF6002330F701F73D4E
:1021F00076088600770887002200320881002000D8
:10220000D80A58088C3E860023308701873D81011B
:10221000D80A58088C3EF6002330F701F73D7608BF
:1022200086007708870056088100D80A58088C3E37
:10223000F6002330F701F73D76088600770887001F
:1022400031308100D80A2000A20122085F02031C5D
:102250000B2A2130A6004D30A5002208F600F70118
:10226000F635F70DF635F70DF635F70D7608A507B7
:102270007708A63D25088600260887004731010813
:10228000003A0319092A250886002608870001302C
:102290004631F6005A0A4D29F635890B4C29760845
:1022A00001050319092A5808083EF60000300318F2
:1022B0000130F700803A803C031D61297608220036
:1022C0004002031C0B2A20002508860026088700F0
:1022D00001304631F6005A0A6E29F635890B6D2910
:1022E0007608FF3A810558088C3EF6002330F70146
:1022F000F73D760886007708870001308100D80A0C
:1023000058088C3EF6002330F701F73D760886002A
:102310007708870002308100D80A25088600260841
:1023200087000108FF39F60058088C3EF70023307B
:10233000F801F83D77088600780887007608810064
:10234000D80A250886002608870041310108FF3990
:10235000F60058088C3EF7002330F801F83D770866
:1023600086007808870076088100D80A250886004C
:102370002608870042310108FF39F60058088C3ED4
:10238000F7002330F801F83D7708860078088700C9
:1023900076088100D80A2508860026088700433180
:1023A00001080F39F60058088C3EF7002330F80179
:1023B000F83D770886007808870076088100D80AFB
:1023C000250886002608870044310108FF39F600F9
:1023D00058088C3EF7002330F801F83D7708860056
:1023E0007808870076088100D80A25088600260824
:1023F000870045310135F60058088C3EF700233040
:10240000F801F83D77088600780887007608810093
:10241000D80AA20A25298D31832D4D308400213020
:102420008500A330FE000230FF008F31F427923187
:102430005530E1018400003085000C30FE00FF01C2
:102440008F31F427923121002030EE01EF0184001A
:10245000013085004030FE00FF018F31F4279231BA
:10246000C0308400013085000A30FE00FF018F314A
:10247000F427923122000130E0002300F430CA003A
:102480000130CB00A030CC000F30CD002000482A16
:102490002030AD0000301823923113082200B40020
:1024A00021302000AD0000301823923113082200A3
:1024B000B30022302000AD00003018239231130801
:1024C0002200B20023302000AD00003018239231EA
:1024D00013082200AB0032080319722A32082100C7
:1024E000EC00752A2100EC01EC0AED016C082200D9
:1024F000CE0070302000AD00003018239231130858
:102500002200AF0071302000AD000030182392315E
:1025100013082200B00072302000AD0000301823F4
:10252000923113082200B10073302000AD0000305A
:102530001823923113082200AC0074302000AD0043
:1025400000301823923113082200AD0075302000AE
:10255000AD0000301823923113082200AE00123073
:1025600021009700552392312100EB007030990033
:102570002C309800A0239231BD23923100308C235F
:10258000923123001D122100911223009E12EC3083
:102590002000AD002230AE0037239231EC30AD0088
:1025A0002230AE000D30AF00C62392310B30200038
:1025B000AD000030632392317323923121006B0808
:1025C0000319E92A0030D82392310030382492319F
:1025D000010064001B30210097002F2392310B175C
:1025E0008B178B1720009C141C1437309B0028007D
:1025F00095019714171417179716171697154C303F
:1026000096001715210093142000950121009512C2
:1026100095111515951415148B16D7239231220098
:10262000E001E00A4F2492319E2392316400122B84
:10263000AE002D082300910020002E0823009200F8
:102640001513951715140000000000000000640029
:1026500023001518282B6400230095130800200080
:102660009A01FA309B001C152100911408002D08D6
:1026700086002E08870081012D0886002E0887001D
:10268000413181012D08023EAF0000302E3DB000E7
:102690002F088600300887009A3081002D088600B8
:1026A0002E088700433181010800B8302000AD00BA
:1026B00000301823140813082000AF00333A00300C
:1026C000031901300800AE00AC262D082200B70027
:1026D00020002E082200BA002B30C4000530BD00B7
:1026E000FF30C300080078239B316C239B31F92B0A
:1026F00021000D160D17921132302400920095160C
:102700009515151195101510FF3093001417941797
:1027100020009111921108002000AD00952B22009D
:102720000E10080022000E1408002D08003A0319AC
:102730008F2B013A0319922B9D2B08009A318B2A7B
:10274000FF308C008D0006308E0029309D009E13D6
:102750001E179E161E129E101E1023008E112000A2
:102760008E118E1223008D120C110E138E130E106B
:1027700022000E138E130E12080023009D171E1543
:102780009F1507309B009C011E120800DD012200EE
:10279000D701D30120002E082200A70020002D0819
:1027A0002200A60020002F082200D0000800080008
:1027B0002000B100B830AD00AE01EE239231200010
:1027C0003108B830AD003F30AE000319EB2B333089
:1027D000AF000030112C0030AF01112C2D08230068
:1027E000910020002E08230092001513951715164E
:1027F0001515072492312300151164002300151AC2
:10280000FE2B6400230095139518042C0800553006
:102810009600AA3096009514000000000000000009
:102820000800B000230095171515151215139516FD
:1028300020002D0823009100200030082300920082
:1028400020002F082300930020002E08230094006E
:102850000724923123009512072492312300151189
:10286000640023009518312C6400230095130800A0
:102870002000B100D030AD00AE01EE239231200037
:102880003108D030AD003F30AE0003194B2C27305B
:10289000AF000030112C1130AF000030112C64005B
:1028A000732492316400083022003802031C5D2C2E
:1028B0008F31A32792312200B80163249231640042
:1028C000F72764000800E008031D08000B303B02F6
:1028D000031C08000D303B02031C712C0E10BB01C1
:1028E00008000E1408008F2CAA2792318F2CC427C1
:1028F00092318F2CE52792318F2CD52792318F2C56
:102900008B31E12392318F2CBA2792318F2CA02466
:1029100092318F2C9A31252292318F2CA0278B3126
:10292000BA2392310038031908005D08840008308A
:10293000040203188E2C98310435003E82008F2C3F
:1029400005302000DD0022002608860027088700C9
:102950004431810150080319B22C50088C310024F5
:102960009231220022002608860027088700443181
:10297000530801020318080027082000AE002200B7
:1029800026082000AD0074269231B22C640022008B
:1029900056083406031DE92C55083306031DE92C9F
:1029A00054083206031DE92C2100E60122005308D9
:1029B0002100660203180800220027082000AE004C
:1029C000220026082000AD00742692312100E60A7C
:1029D000D62C7030570203185A2D570B5B2D270841
:1029E0002000AE00220026082000AD00742692319F
:1029F0002100E400220027082000AE002200260863
:102A00002000AD00742692312100EA002200510816
:102A10002100E800EA30DF00E0018600600887005E
:102A20000108E7000130E7056A36E5002200550895
:102A30002000C800220054082000C90022005208CB
:102A4000013E2000CA00210068082000CB002100C0
:102A500064082000CC00210067082000CD00210080
:102A600065082000CE00220056086F279231210011
:102A7000E900FF3A03195B2D6908DF005330E001DC
:102A8000DF35E00DDF35E00DDF35E00DE100213011
:102A9000E2005F08610786006008623D8700013040
:102AA000E300680A542DE335890B532D6308FF3A80
:102AB00081055B2D5E252200BB0A08002708200047
:102AC000AE00220026082000AD00742692312300BB
:102AD000BD00220027082000AE00220026082000AA
:102AE000AD00742692312300BE002200270820008A
:102AF000AE00220026082000AD007426923123008B
:102B0000BF0022005308FD3E2300B60022005508F6
:102B10002000BD00220054082000BE0022005608FC
:102B20000927923123003F0822003206031DD72DCA
:102B300023003E0822003306031DD72D23003D0845
:102B400022003406031DD72D21006F080319D12D53
:102B5000EF03D12D27082000AE0022002608200018
:102B6000AD00742692312300B70022002708200010
:102B7000AE00220026082000AD007426923121000C
:102B8000EE006E0803190800230037082000D60065
:102B9000210008003708031908008C3100242100A7
:102BA000080022005708703A0319AA2DCA2D2300E5
:102BB0003E082000AD0023003F082000AE002300A7
:102BC0003D08CF2692312300BB00FF3A03196F2E38
:102BD0003B08572792312E082300BA0020002D0809
:102BE0002300B90022005708A83A031D262E23000F
:102BF0003908073E2100DD00003023003A3D210066
:102C0000DE005D0886005E088700FF30810022003C
:102C100027082000AE00220026082000AD00BC26B8
:102C200092310038031D242E220051082300C000D9
:102C3000390886003A0887004331010E0739C10080
:102C400002302000DC00262EAC2692312300BC018D
:102C5000B801360838020318462E22002708200043
:102C6000AE00220026082000AD007426923121001B
:102C7000DD0023003C08A03E8600013087002100D3
:102C80005D0881002300BC0AB80A292E22005608DC
:102C90002100A000220055082100A10022005408B4
:102CA0002100A20022005208013E2100A3002300BF
:102CB0003D082100A40023003E082100A5002300B8
:102CC0003F082100A600A030A7000130A800230083
:102CD0003C082100A900220057089D31FD25210054
:102CE0006F08031DEF0308002D0886002E088700DB
:102CF0000108AF00B0012D07B10030082E3DB20031
:102D0000310886003208870045310108B3002D08DC
:102D100086002E088700810A2D0886002E0887006D
:102D200042312D0884002E088500000801022D087C
:102D300086002E0887000318A22E81012D08860028
:102D40002E088700433181032D0886002E08870056
:102D50004431810A330808002300C0010130C1005A
:102D60000230C2000330C3000430C4000530C50087
:102D700006302000DC0008002D0886002E088700A1
:102D80000108AF00B0012D07B10030082E3DB200A0
:102D9000310886003208870045310108080020000C
:102DA000B300B40134085F02031CFF343408AF00E1
:102DB0004D30B001AF35B00DAF35B00DAF35B00D02
:102DC000B1002130B2002F08310786003008323DB3
:102DD000870035308400003085000830FF00160081
:102DE0001A00FF0BEF2E3508FF393306031D072F9E
:102DF0003608FF392D06031D072F3708FF392E0629
:102E0000031D072F3C080319072F34080800B40AD4
:102E1000D22E2000C6003D08AD003E08AE00460898
:102E2000CF269231C700FF3A031908006008053E1B
:102E3000BF00003003180130C0004708C100543003
:102E4000C201C135C20DC135C20DC135C20DC300AD
:102E50002130C4004108430786004208443D8700F2
:102E60004008803A803C031D372F3F0801020318B9
:102E7000080020006008053EBF004708C00054302D
:102E8000C101C035C10DC035C10DC035C10DC20075
:102E90002130C30040084207C4004108433DC5003B
:102EA00044088600450887003F088100080020008C
:102EB000B0002130B2004D30B1003008AE00AF019B
:102EC000AE35AF0DAE35AF0DAE35AF0D2E08B10737
:102ED0002F08B23D3208AE003108AD0008002000D6
:102EE000D0004808AD004908AE005008CF26923106
:102EF000CF00FF3A031D8D2F4808BA004908BB00D8
:102F00004A08BC004B08BD004C08BE004D08BF007D
:102F10004E08C00050088E316D2E5008AD00480894
:102F2000AE004908AF004A08B0004B08B1004C0899
:102F3000B2004D08B3004E08B4004F088F311E2F69
:102F40002000DD012200D701D601D501D401D30133
:102F5000D20108002200EF2792317426923122001C
:102F6000D10001302000DD00063022005102031C98
:102F70000800A02F07302000DD002200EF2792314B
:102F800074262200D20008002200EF279231742616
:102F90009231DE000230DD0005305E02031C0800C5
:102FA0005E08FF3A03190800A02F2200EF27923194
:102FB000742692312200D30006302000DD001F303D
:102FC00022005302031C0800A02F2200EF27923199
:102FD00074262200D70003302000DD0008002708F7
:102FE0002000AE00220026082000AD0008002000CE
:102FF000E11C08002300C801C9012000E1100800FD
:103000009431742C9431772C94317A2C94317D2C1A
:103010009431842C94318A2C9431802C9431872CD7
:1033B000FF3FFF3FFF3F3D08873E8B310A008C31C6
:1033C00011240800230019082200C00065304002C3
:1033D000031C06346430C0000634F2000830F300E9
:1033E000F4017208F1000730F136890BF4297435C5
:1033F0007104F400F23570087402031C012A70088D
:10340000F402F30BF12974080800F1002000DA003F
:10341000711C0D2A22000E170F2A22000E137108AC
:10342000F000F036701C172A22008E17192A22008D
:103430008E137108F000F036F036701C222A22003C
:103440000E16080022000E12080008302000DD00D1
:10345000220027082000AE00220026082000AD0030
:103460009631BC269A31B400FF3A031D402A22004F
:103470009731EF279A31963174269A319731A02FE0
:103480009731A02702302000DD00080022004E08FE
:10349000F0000430F036890B4A2A4E08F100F1366C
:1034A000F136F1364E08F200F236F2367208710645
:1034B00070064E06F3000130F3057308F000073084
:1034C000F035890B602A4E367004CE004E08080095
:1034D000200061102200CB017E2223001D1221005A
:1034E000911293312F2320001C149C105F309B00FD
:1034F00019309B002200B601B90108002000D80154
:10350000D90122002B30C001C4000530BD00FF30BE
:10351000BC01C30008002100EE08031D0800922230
:10352000D60008002200CA0A02304A02031CB62A4A
:10353000CA01C9229A31E2229A31240A0319250AC2
:103540000319B22A2000D508031DB92A2200210838
:1035500023004D02031DB02A2200200823004C0244
:103560000318B92A35239A31B62AF92320005608C0
:1035700008002000550BC82A23004B082200210216
:10358000031DC62A23004A0822002002031CB52A74
:10359000002C2730FB229A311A239A31B1002630B1
:1035A000FB229A311A23B2003108AF00B0012F0874
:1035B0002200A500A401200032082200A40703185D
:1035C000A50A08002530FB229A311A239A31B1004E
:1035D0002430FB229A311A23B2003108AF00B00127
:1035E0002F082200A100A001200032082200A0071D
:1035F0000318A10A08002000AE00240016142400BD
:10360000EB279A310319062B6400FF2AB4302400FB
:1036100091002400EB279A310319102B6400092B29
:103620002E08240091002400EB279A31031908008A
:103630006400132B3C239A31B530910043239A3117
:10364000961524001418262B6400212B1108200045
:10365000AD002400961616162400161E312B6400A9
:103660002C2B4B2320002D0808002000B001B101B5
:1036700051230130D5000800240016142400161C24
:10368000080064003E2B2400141D482B6400432BCB
:10369000161F08004B2B16152400161D0800640089
:1036A0004C2B00303102063003193002031C5B2B17
:1036B0000530B000B10131082200A300200030081D
:1036C0002200A20022082000AD001730D5239A3135
:1036D000AB30AD001830D52B1830AD01AD0AD52375
:1036E0009A311730AD000730D5239A310F30AD0035
:1036F000D5239A311030AD01D5239A315030AD0029
:103700000830D5239A315030AD000930D5239A3195
:103710005030AD000A30D5239A310330AD00173058
:10372000D5239A31AB30AD001830D5239A311730FC
:10373000AD01AD0AD5239A31A130AD001830D523A3
:103740009A311730AD01D5239A31AE30AD00183023
:10375000D5239A313030AD001730D5239A31BD30A2
:10376000AD001830D5239A310330AD001730D52382
:103770009A31BE30AD001830D5239A311730AD01E3
:10378000D5239A31BF30AD001830D5239A3121307E
:10379000AD001730D5239A31A130AD001830D523B4
:1037A0009A310F30AD001830D52BAF00240016141D
:1037B000DF279A310319DE2B6400D82BB4302400A4
:1037C0009100DF279A310319E72B6400E12B2F08C2
:1037D00024009100DF279A310319F02B6400EA2BB3
:1037E0002D0824009100DF279A3103190800640096
:1037F000F32B03302000B000B1015123D5010800A4
:10380000220025082000BD00220024082000BC0062
:1038100055080319132C5630BC07FF30BD3DBC358D
:10382000BD0DBC35BD0DBA01BB01B801B901673092
:1038300084008B30D3279A31031C202CBA01292C09
:10384000853084008B30D3279A3103182B2CFF301E
:10385000BA00BB017D2CB7013735693E84008B303F
:10386000D3279A31031C712C3735673E84008B3087
:10387000D3279A310318712C3D08B9003C08B800D1
:103880003735673E84008B308500003FB300013F31
:10389000B4003308B8023408B93BF6279A313735FB
:1038A000493E84008B308500003FB500013FB600E3
:1038B00033083502AD003408363BAE003908B0009D
:1038C0003808AF008B269A312E08BB002D08BA00AD
:1038D0003B08BA00BB01F6279A313308BA0734080F
:1038E000BB3D0F30B70A3702031C2C2C01303B02C2
:1038F000003003193A020318272C3A080800570829
:10390000A83A031DF92C27082000AE002200260843
:103910002000AD00963174269A312100D300D308DF
:10392000031D08008B112700111121000C15200028
:1039300095018B121C11210091102800950117117F
:10394000210093100B138B1323009D139D179E12C0
:103950001D122100911212309700250093012000C2
:103960008E158E16FF302500910021009D01270045
:10397000131120009310911093110B138B1323003C
:103980009D138B13220056082000AD000030B62591
:103990009A319518C92C220055082000AD0001303D
:1039A000B6259A319518D22C220054082000AD007B
:1039B0000230B6259A319518DB2C220051082000E0
:1039C000AD000330B6259A319518E42C8B130130E5
:1039D0009331D8239A319518EB2C8B130130943105
:1039E00038249A319518F22C8B136400010064007E
:1039F000F72C5708A03A031D322D2F082100C600CE
:103A0000220030082100C700220031082100C80030
:103A100022002C082100C90022002D082100CA0024
:103A200022002E082100CB000430CC00CD01CE01B5
:103A3000CE0A22002B082100CF00D001D00AD101EC
:103A4000220056082100AA00220055082100AB00E0
:103A5000220054082100AC00C630AD000C30AE008E
:103A6000A130E02D5708A23A031D08002100D20121
:103A7000D401540820005F02031CA12D210054082A
:103A8000AF004D30B001AF35B00DAF35B00DAF3533
:103A9000B00DB1002130B2002F0831078600300888
:103AA000323D8700D5308400003085000830FF00AB
:103AB00016001A00FF0B582D5C0803199F2D58089B
:103AC0000F39013A031D9F2D0130AF00580E073901
:103AD000890A6B2DAF35890B6A2D2F08D20403306C
:103AE0002000AD002100580E0739D3259A31013E40
:103AF000B33E8600870121005508FF39810003305D
:103B00002000AD002100580E0739D3259A31023E1E
:103B1000B33E8600870121005608FF39810003303B
:103B20002000AD002100580E0739D3259A31033EFD
:103B3000B33E8600870121005708FF398100D40A6F
:103B4000392D21005208B300220056082100AA0096
:103B5000220055082100AB00220054082100AC00CF
:103B6000B330AD001330AE00A330E02DAE00230023
:103B70009518B72D20002E082300910092012000F7
:103B80002D08230093003F30950503108B1B031471
:103B90008B13151555309600AA3096009514151103
:103BA00003188B1708002000AF00AE012D082F1856
:103BB000AE07AD35AF36AF08031DD62D2E08080071
:103BC0002000D400220034082100A0002200330885
:103BD0002100A100220032082100A200A3012A082E
:103BE000A4002B08A5002C08A6002D08A700A801FA
:103BF0002E08A90020005408FD2D2000CF00210030
:103C000025082000AD00210026082000AE0021007C
:103C100024089631CF269A31D000FF3A0319FE349A
:103C20005008973157279A312E08CE002D08CD0025
:103C3000D3012230D2003D30D1005308AD002330F3
:103C4000AE01AF00B0018B269A312D08D1072E08A6
:103C5000D23D5208AE005108AD004F08AF00210020
:103C600024082000B000210025082000B100210018
:103C700026082000B200A0269A310038031D502EDD
:103C8000510886005208870042310108031D852E25
:103C9000510886005208870043310108031D852E14
:103CA0004D0886004E0887004331010E0739B300E6
:103CB0004F08B400210020082000B5002100210891
:103CC0002000B600210022082000B70021002308B0
:103CD0002000B800210024082000B9002100250898
:103CE0002000BA00210026082000BB00210028087F
:103CF0002000BD00210027082000BC002100290869
:103D00002000BE005308D02600340530D30A5302E9
:103D10000318FF34192EB101B2012D1C932E2F0868
:103D2000B1073008B23DAF35B00DAE36AD0C2E0840
:103D30002D04031D8D2E3208AE003108AD000800A1
:103D4000A0302F02031800342D0886002E088700AB
:103D50004231010B00342D0886002E0887004431C3
:103D600001082F06031D00342D0886002E08870049
:103D70004A3101083006031D00342D0886002E0844
:103D800087004B3101083106031D00342D088600E1
:103D90002E0887004C310108320603190134003423
:103DA000C60005304602031808003E08093EBF0061
:103DB000003003180130C000803AFF0080307F02DD
:103DC000031DE42E1F303F0203180800223020009C
:103DD000C9003D30C8004608AD002330AE01AF0039
:103DE000B0018B269A312D08C8072E08C93D490815
:103DF000CB004808CA000430CA070318CB0A480899
:103E0000860049088700423181014808033EBF000F
:103E10000030493DC0003F0886004008870001305F
:103E200081004808013EBF000030493DC0003F0806
:103E300086004008870033088100CC014A088600CC
:103E40004B08870034088100CC0A3E08033EBF00BF
:103E50004C08C000C1014A07C20041084B3DC300E5
:103E600042088600430887003F088100CC0A4C08BE
:103E7000BF00C0014A07C10040084B3DC2004108D5
:103E800086004208870035088100CC0A4C08BF0034
:103E9000C0014A07C10040084B3DC20041088600EE
:103EA0004208870036088100CC0A4C08BF00C001D8
:103EB0004A07C10040084B3DC20041088600420845
:103EC000870037088100CC0A4C08BF00C0014A07B0
:103ED000C10040084B3DC2004108860042088700EF
:103EE00038088100CC0A4C08BF00C0014A07C10055
:103EF00040084B3DC200410886004208870039084F
:103F00008100CC0A4C08BF00C0014A07C10040082C
:103F10004B3DC20041088600420887003A088100F4
:103F2000CC0A4C08BF00C0014A07C10040084B3D05
:103F3000C20041088600420887003B088100CC0A85
:103F4000C7013E0847020318C02F4708BF00C00141
:103F50003C07860040083D3D87000108C1004C0831
:103F6000C200C3014A07C40043084B3DC5004408D2
:103F700086004508870041088100CC0AC70AA12FA6
:103F800048088600490887004C0881004808023E1E
:103F9000BF000030493DC0003F0886004008870050
:103FA0000130810008008500003FB300013FB400EC
:103FB0003D083402031D08003C08330208002400B9
:103FC000140C890C01392000AE00240016081F399A
:103FD00020002E040800140C890C01392000AD00CB
:103FE000240016081F3920002D0408003735473EED
:103FF00084008B308500003FB300013FB40008000F
:020000040001F9
:02000E00CCCF55
:00000001FF
