:101400008B31432BFF3FFF3F8A3120007F08A9002B
:10141000911E3A2A2200C908031D102A20001C111F
:1014200021009110003023001D1901302000AC0074
:101430002C0303191E2A23009D1C232A23001908AC
:101440002000AB002C2A210091102200C90A8B3108
:10145000F6238A312000D70057080A3A0319322AA6
:101460002C0B362A9031B9208A313A2A2200B90150
:10147000200062142700131D502A8B111111210026
:101480000C152000D7012A30DA008B31F6238A317F
:101490002000D7002200B901200062142700131198
:1014A00020009118E02AEE2A23001D12210091123B
:1014B00023009D139D1722004508A8002000AA01C3
:1014C000622AAA0A5D08FF3EA700FF300318003019
:1014D000A800803A803C031D6F2A27082A020318BF
:1014E0008E2A2200A80A20005D0822002802031884
:1014F000A8012808C03E860001308700010890310D
:1015000078208A312808C50020008D1A612A8B15A1
:101510002700111520001C1121009110013022001C
:10152000B60020009A019B00EC2A20005C08C03E17
:101530008600013087000108903178208A31200030
:101540005C082200C50020008D1AAE2A8B152700EA
:10155000111520001C1121009110EC2A21008D1280
:1015600020008D1202302200B60020009C141C14B2
:1015700022002A08223E20009B008F31DC278A317E
:10158000A9000C30F00029089A317C228A31AA0087
:1015900020005D08F000220029089A317C228A315F
:1015A0002000DC00EC2A21008D168F31A0278A3123
:1015B00020001C149C105F309B002200B601EC2A16
:1015C00022003608003A0319542A013A0319952AD1
:1015D000033A0319D32AEC2A20009110931C142BF0
:1015E0002300C80A0319C90A2200600B122B23002A
:1015F000C60A0319C70A0030470211300319460210
:10160000031C122BC601C70122000730CB0A4B0274
:1016100003180D2B01308E06122B0E100B304B02CF
:101620000318E00120009310111811100B1D3F2B1F
:101630002200B80A2000621C302B0330220039023D
:10164000031C302B430803192C2B21006F080319AE
:101650002C2BEF032200C3019031B9208A31352BA6
:101660002000621C352B2200B90A08302200DA0A59
:101670005A02031C3E2BDA017F30D9000B112000E7
:101680002908FF0009009231042AC400BE238B31CF
:10169000C500FF3A0319FF342130C7004D30C600A2
:1016A0004508C100C201C135C20DC135C20DC135E9
:1016B000C20D4108C6074208C73D460886004708D4
:1016C00087000108440600394406E7238B31413185
:1016D00001083A0600393A06E7238B314231010806
:1016E0003B0600393B06E7238B31433101083C06BA
:1016F000F0393C0681003D08C100460886004708D5
:1017000087004331C10E010841068F394106E723A6
:101710008B31443101083E0600393E06E7238B3108
:10172000433181134608063EED238B317F30810023
:101730006108053EC1004608073EC2000030473D33
:10174000C30042088600430887004108810046081C
:10175000053EED238B3140088100E10A4008043A40
:10176000031DB72B3C0BB72B01302200D800200003
:10177000450860024508031CE0000800B10131087B
:10178000AD004D30AE01AD35AE0DAD35AE0DAD3564
:10179000AE0DAF002130B0002D082F0786002E08B7
:1017A000303D870032308400003085000830FF0073
:1017B00016001A00FF0BD82B3908031DE12B310846
:1017C00008001E30B10A31020318FF34BF2B81001C
:1017D00046088600470887000800C1000030473DE2
:1017E000C200410886004208870008002000570810
:1017F000413E90310A008C3111240800FF3FFF3F29
:101800008C318207022C032C042C052C062C072C6F
:10181000082C092C0A2C0B2C0C2C9C317F2C94317D
:10182000C02C8C318207132C8E31332E8E31F02E4A
:10183000913106298E31492E8E31652E9A31652AD5
:101840008C31282C8C31322C8F31722F8E31D32E4B
:10185000230019082200C00040080319312C1F3052
:10186000C000322CFF302200C4002000A001220062
:101870004A08013EDB0005305B020318DB015B0810
:10188000CA0022302000A4003D30A30022005B08E3
:10189000F0002330F101F200F3018F315D278C312C
:1018A00070082000A3077108A43D2200BE0120009B
:1018B0002308860024088700413101085B06031DC8
:1018C000AD2C23088600240887004231010BAD2C83
:1018D0002308860024088700010822004002031C18
:1018E000AD2C200023088600240887000108220070
:1018F0003F02031CAD2C2000A10123088600240810
:101900008700010821020318A32C2108F600F70123
:101910002307F8007708243DF90078088600790845
:10192000870044310108FA0058088C3EFB00233040
:10193000FC01FC3D7B0886007C0887007A0881005A
:10194000D80AA10A7D2C23088600240887000108F4
:101950002200BE005B08C400B32C20000530A00AA2
:101960002002031C372C0130F60020005B0AB92C42
:10197000F635890BB82C7608220059050319492D34
:1019800020005808083EF600003003180130F70028
:10199000803AF80080307802031DD12C22003F08E5
:1019A00076020318492D0130F60020005B0AD92C7D
:1019B000F635890BD82C7608FF3A2200D90520008D
:1019C00058088C3EF6002330F701F73D7608860074
:1019D0007708870001308100D80A58088C3EF6004D
:1019E0002330F701F73D760886007708870002303C
:1019F0008100D80A58088C3EF6002330F701F73DE5
:101A000076088600770887002200340881002000CD
:101A1000D80A58088C3EF6002330F701F73D7608C7
:101A20008600770887002200330881002000D80A4A
:101A300058088C3EF6002330F701F73D7608860003
:101A4000770887002200320881002000D80A580851
:101A50008C3E860023308701873D8101D80A5808D3
:101A60008C3EF6002330F701F73D760886007708B4
:101A7000870056088100D80A58088C3EF6002330AB
:101A8000F701F73D7608860077088700313081003E
:101A9000D80A2000A20122086002031C312E213046
:101AA000A6004D30A5002208F600F701F635F70D27
:101AB000F635F70DF635F70D7608A5077708A63D3C
:101AC000250886002608870047310108003A0319D7
:101AD0002F2E250886002608870001304631F600A3
:101AE0005B0A732DF635890B722D760801050319F3
:101AF0002F2E5808083EF600003003180130F7007A
:101B0000803A803C031D872D760822003F02031C8B
:101B1000312E200025088600260887000130463136
:101B2000F6005B0A942DF635890B932D7608FF3A63
:101B3000810558088C3EF6002330F701F73D760802
:101B400086007708870001308100D80A58088C3E4B
:101B5000F6002330F701F73D760886007708870006
:101B600002308100D80A250886002608870001086F
:101B7000FF39F60058088C3EF7002330F801F83D95
:101B8000770886007808870076088100D80A25083B
:101B900086002608870041310108FF39F600580801
:101BA0008C3EF7002330F801F83D7708860078086E
:101BB000870076088100D80A250886002608870055
:101BC00042310108FF39F60058088C3EF7002330F7
:101BD000F801F83D770886007808870076088100CC
:101BE000D80A2508860026088700433101080F39E6
:101BF000F60058088C3EF7002330F801F83D7708CE
:101C000086007808870076088100D80A25088600B3
:101C10002608870044310108FF39F60058088C3E39
:101C2000F7002330F801F83D770886007808870030
:101C300076088100D80A25088600260887004531E5
:101C40000135F60058088C3EF7002330F801F83DC6
:101C5000770886007808870076088100D80AA20AEB
:101C60004B2D8F31722F22003C088C3EFA0023301E
:101C7000FB01FB3D7A0886007B08870023001908DA
:101C800081002200BC0A3C0820005906031D0334D1
:101C9000652E230019082200C1002000D908031D69
:101CA000522E652E22004108031903341F304102D1
:101CB00003180A34410820005902031C0A34210089
:101CC000EF0A01302200C3000334C2278E31200006
:101CD00059080319922EEC30F0002230F1005B0815
:101CE000F200A0268E31EC30F0002230F10022000C
:101CF0004208F200A0268E31F9012000590879022D
:101D0000EC30F0002230F10003188E2E7908C9273C
:101D10008E31F200A0268E31F90A7D2EFF30F200BE
:101D2000A0268E31013096278E31A0278E312000DB
:101D30005A082A3A031D0A3422000530BD01080062
:101D4000D0278E310108F300F4017007F500740804
:101D5000713DF6007508053EF7000030763DF8004D
:101D6000770886007808870072088100D0278E31B6
:101D7000D6278E3142317008840071088500013108
:101D80000008010270088600710887000318CE2E33
:101D90004131810170088600710887004331D627E0
:101DA00043310108080023001908FC007C0BE92ED0
:101DB00022004408FF3A0319E02E440840278E31E0
:101DC0002000D8015A082A3A03190A342200BD011A
:101DD000F02E22000630BD0A3D0203180A34722F8D
:101DE000C2278E31EC308600223087004331010853
:101DF0009B3C2200DD0004305D020318022FF80135
:101E0000F901092F5D08F800FD30F901F807031CFE
:101E1000F9037808DD005D0896278E31FF30FA015E
:101E20002200C2001F305D02031C302FFB017B0823
:101E3000BC278E315D278E313F30B1278E31031D97
:101E40002B2F7B08BC278E315D278E314030B12788
:101E50008E310319FA0A0530FB0A7B02031C172F87
:101E60002200C3017A0821006F0203183A2F6F087D
:101E7000FA023B2FFA017A0896278E31A027013407
:101E8000F80005307802031808007808BC278E3166
:101E90005D278E313F30A6278E317808BC278E31E2
:101EA0005D278E314030A6278E317808BC278E31D1
:101EB0005D278E313D30A6270800F401F501701C26
:101EC000652F7208F4077308F53DF235F30DF1360E
:101ED000F00C71087004031D5F2F7508F100740881
:101EE000F0000800C2278E312000580896278E3156
:101EF00022003E0896278E31F10120005808710219
:101F00000318942F7108C9278E3196278E316430BB
:101F1000F0008B2F0000F0037008FF3A031D8A2F9A
:101F2000922F8A2FF10A7D2FA0270934F00020007C
:101F3000111E972F700823009A009E1808009D2FED
:101F400023009E121D16210091160800F600223073
:101F5000F7007008760786007108773D87008101D9
:101F60000800F6002230F700700876078600710836
:101F7000773D870001080800F0002330F101F200EE
:101F8000F301080023001D122100911223009E1668
:101F900008008C3E860023308701873D0108080039
:101FA000700886007108870041310800810A7008B6
:101FB000860071088700080022004C08F0000430F9
:101FC000F036890BE02F4C08F100F136F136F1368E
:101FD0004C08F200F236F2367208710670064C06B2
:101FE000F3000130F3057308F0000730F035890B7A
:101FF000F62F4C367004CC004C080800FF3FFF3F22
:102000000034003400343B340034603400347B341A
:10201000003490340034A2340034B1340034BE347F
:102020000034CA340034D4340034DE340034E634AE
:102030000034EE340034F6340034FD34003403341C
:1020400001344A3401344A3402344A3403344A34C1
:1020500004344A3405344A3406344A3407344A34A2
:1020600008344A3409344A340A344A340B344A3482
:102070000C344A340D344A340E344A340F344A3462
:102080001034033405340734013409340B340D346F
:102090000F3411341334003494316E2C9431712C7C
:1020A0009431742C9431772C94317E2C9431842C7F
:1020B00094317A2C9431812C22009731E72790318A
:1020C00096316E2690312200D4009731E727903167
:1020D00096316E2690312200D3009731E727903158
:1020E00096316E262200D20004302000DE00080067
:1020F000F1002000DB00711C802822000E178228CE
:1021000022000E137108F000F036701C8A2822009D
:102110008E178C2822008E137108F000F036F036EE
:10212000701C952822000E16080022000E120800CE
:1021300008302000DE00220027082000AE00220028
:1021400026082000AD009631B6269031B400FF3A43
:10215000031DB32822009731E727903196316E2670
:10216000903197319A2F97319A2702302000DE0064
:102170000800200062102200C901CF2023001D1298
:10218000210091129331272320001C149C105F30F2
:102190009B0019309B002200B601B9010800200005
:1021A000D801D90122002B30BF01BD012000DA0087
:1021B0000530D7002200FF30BC01C2000800220019
:1021C0002608860027088700433101082000AD005B
:1021D0005E08AE0006302E020318F3280030AD086A
:1021E000031D013008002E08063A031DF9280330AC
:1021F00001292E08073A031D01342200510820004E
:1022000001292D02003003180130080023001908AD
:102210002000D900EC3086002230870043310108CD
:102220009B3C2200DC0004305C0203181A29F001F8
:10223000F10121295C08F000FD30F101F007031CD9
:10224000F1037008DC0065302000590203180A34DD
:10225000590822005C02031C0A3402342000B60133
:1022600036086002031C08002130B5004D30B40070
:102270003608B200B301B235B30DB235B30DB23585
:10228000B30D3208B4073308B53D3408860035086D
:10229000870047310108003A03195829340886009D
:1022A000350887004731810B582936085A2191316A
:1022B000B60A3029B1001E3031020318080021305F
:1022C000B0004D30AF003108AD00AE01AD35AE0D00
:1022D000AD35AE0DAD35AE0D2D08AF072E08B03DB6
:1022E000E1032F088600300887004731810160082C
:1022F0003106031D08003108031DE0030800B80083
:102300002130BA004D30B9003808B500B601B535F6
:10231000B60DB535B60DB535B60D3508B907360865
:10232000BA3D3908FE2191310F39B5003008350228
:10233000031CE9293908FE2191313006F0393006B5
:1023400081003108B500390886003A08870043311A
:10235000B50E010835068F3935068100390886002B
:102360003A088700443101083206003932068100FC
:102370003908053EF5219131340881003908063EBF
:10238000F52191317F3081006108053EB5000030B4
:1023900003180130B600390886003A088700473133
:1023A0003608803A803C031DD729350801020318FE
:1023B000E92920006108053EB5003908073EB6004E
:1023C00000303A3DB70036088600370887003508E8
:1023D0008100200033080319F329390886003A08E0
:1023E00087004331811738080800B50000303A3DB6
:1023F000B6003508860036088700080086003A08CF
:1024000087004331010808004D30840021308500E9
:10241000A330FE000230FF009A3170229231553015
:10242000FD01E2018400003085000D30FE00FF0157
:102430009A317022923121002030EE01EF018400A8
:10244000013085003E30FE00FF019A31702292314A
:10245000C0308400013085000A30FE00FF019A314F
:10246000702292312200A030DE000F30DF000130F8
:10247000E0002300F430CA000130CB002000402AE5
:102480002030AD0000301023923113082200B40038
:1024900021302000AD0000301023923113082200BB
:1024A000B30022302000AD00003010239231130819
:1024B0002200B20023302000AD0000301023923102
:1024C00013082200AB00320803196A2A32082100DF
:1024D000EC006D2A2100EC01EC0AED016C082200F1
:1024E000CC0070302000AD00003010239231130872
:1024F0002200AF0071302000AD0000301023923177
:1025000013082200B00072302000AD00003010230C
:10251000923113082200B10073302000AD0000306A
:102520001023923113082200AC0074302000AD005B
:1025300000301023923113082200AD0075302000C6
:10254000AD0000301023923113082200AE0012308B
:10255000210097004D2392312100EB00703099004B
:102560002C3098009A239231B72392310030862381
:10257000923123001D122100911223009E12EC3093
:102580002000AD002230AE002F239231EC30AD00A0
:102590002230AE000D30AF00C02392310B3020004E
:1025A000AD0000305B2392316D23923121006B0826
:1025B0000319E12A0030D2239231003032249231C3
:1025C000010064001B3021009700272392310B1774
:1025D0008B178B1720009C141C1437309B0028008D
:1025E00095019714171417179716171697154C304F
:1025F00096001715210093142000950121009512D3
:1026000095111515951415148B16D12392312200AE
:10261000E001E00A492492319823923164000A2BA8
:10262000AE002D082300910020002E082300920008
:102630001513951715140000000000000000640039
:1026400023001518202B6400230095130800200098
:102650009A01FA309B001C152100911408002D08E6
:1026600086002E08870081012D0886002E0887002D
:10267000413181012D08023EAF0000302E3DB000F7
:102680002F088600300887009A3081002D088600C8
:102690002E088700433181010800B8302000AD00CA
:1026A00000301023140813082000AF00333A003024
:1026B000031901300800AE00A6262D082200B7003D
:1026C00020002E082200BA002B302000DA0005304E
:1026D000D700FF302200C200080072239B31732311
:1026E0009231DF2F21000D160D1792113230240088
:1026F000920095169515151195101510FF30930041
:102700001417941720009111921108002000AD00B9
:102710008F2B22000E10080022000E1408002D0836
:10272000003A0319892B013A03198C2B972B0800C7
:102730009A31942AFF308C008D0006308E002930AB
:102740009D009E131E179E161E129E101E10230023
:102750008E1120008E118E1223008D120C110E137B
:102760008E130E1022000E138E130E12080023007B
:102770009D171E159F1507309B009C011E12080017
:10278000DE012200D501D10120002E082200A70081
:1027900020002D082200A60020002F082200CE00D5
:1027A000080008002000B100B830AD00AE01E823F9
:1027B000923120003108B830AD003F30AE0003192F
:1027C000E52B3330AF0000300B2C0030AF010B2C69
:1027D0002D082300910020002E08230092001513DD
:1027E0009517151615150124923123001511640053
:1027F0002300151AF82B6400230095139518FE2B5F
:10280000080055309600AA3096009514000000008C
:10281000000000000800B0002300951715151512E0
:102820001513951620002D08230091002000300874
:102830002300920020002F082300930020002E0880
:102840002300940001249231230095120124923137
:10285000230015116400230095182B2C640023001D
:10286000951308002000B100D030AD00AE01E82380
:10287000923120003108D030AD003F30AE00031956
:10288000452C2730AF0000300B2C1130AF0000304A
:102890000B2C64006D249231640008302200380251
:1028A000031C572C91312E2192312200B8015D2456
:1028B00092316400F92764000800E008031D080055
:1028C0000B303B02031C08000D303B02031C6B2C39
:1028D0000E10BB0108000E140800892CA4279231A9
:1028E000892CBE279231892CEF279231892CCF2752
:1028F0009231892C90315C209231892CB42792310D
:10290000892C9A249231892C903198209231892CEB
:102910009A279031DF2092310038031908005E08B1
:102920008400083004020318882C903104354C3E92
:102930008200892C05302000DE0022002608860057
:1029400027088700443181014E080319AC2C4E083A
:102950008C310024923122002200260886002708AC
:10296000870044315108010203180800270820009D
:10297000AE00220026082000AD006E269231AC2C5D
:102980006400220054083406031DE32C5308330668
:10299000031DE32C52083206031DE32C2100E6013F
:1029A00022005108210066020318080022002708AF
:1029B0002000AE00220026082000AD006E269231D5
:1029C0002100E60AD02C703055020318542D550B07
:1029D000552D27082000AE00220026082000AD005B
:1029E0006E2692312100E400220027082000AE006C
:1029F000220026082000AD006E2692312100EA0058
:102A000022004F082100E800EA30DF00E0018600E4
:102A1000600887000108E7000130E7056A36E50035
:102A2000220053082000C800220052082000C900DC
:102A300022005008013E2000CA0021006808200042
:102A4000CB00210064082000CC0021006708200092
:102A5000CD00210065082000CE002200540869271F
:102A600092312100E900FF3A0319552D6908DF0072
:102A70005330E001DF35E00DDF35E00DDF35E00DEF
:102A8000E1002130E2005F08610786006008623DD6
:102A900087000130E300680A4E2DE335890B4D2D88
:102AA0006308FF3A8105552D58252200BB0A08000E
:102AB00027082000AE00220026082000AD006E2668
:102AC00092312300BD00220027082000AE00220022
:102AD00026082000AD006E2692312300BE002200A1
:102AE00027082000AE00220026082000AD006E2638
:102AF00092312300BF0022005108FD3E2300B600A2
:102B0000220053082000BD00220052082000BE0011
:102B1000220054080327923123003F082200320686
:102B2000031DD12D23003E0822003306031DD12DA5
:102B300023003D0822003406031DD12D21006F081B
:102B40000319CB2DEF03CB2D27082000AE00220068
:102B500026082000AD006E2692312300B700220027
:102B600027082000AE00220026082000AD006E26B7
:102B700092312100EE006E08031908002300370887
:102B80002000D600210008003708031908008C3106
:102B900000242100080022005508703A0319A42DD2
:102BA000C42D23003E082000AD0023003F08200074
:102BB000AE0023003D08C92692312300BB00FF3A36
:102BC0000319692E3B08512792312E082300BA00C1
:102BD00020002D082300B90022005508A83A031D43
:102BE000202E23003908073E2100DD00003023009D
:102BF0003A3D2100DE005D0886005E088700FF3058
:102C00008100220027082000AE00220026082000B4
:102C1000AD00B62692310038031D1E2E22004F084B
:102C20002300C000390886003A0887004331010EAE
:102C30000739C10002302000DD00202EA626923187
:102C40002300BC01B801360838020318402E2200C8
:102C500027082000AE00220026082000AD006E26C6
:102C600092312100DD0023003C08A03E86000130A7
:102C7000870021005D0881002300BC0AB80A232ECA
:102C8000220054082100A000220053082100A100C6
:102C9000220052082100A20022005008013E21001B
:102CA000A30023003D082100A40023003E082100CA
:102CB000A50023003F082100A600A030A700013096
:102CC000A80023003C082100A900220055089D31DE
:102CD000FD2521006F08031DEF0308002D08860065
:102CE0002E0887000108AF00B0012D07B1003008A1
:102CF0002E3DB200310886003208870045310108B8
:102D0000B3002D0886002E088700810A2D08860052
:102D10002E08870042312D0884002E088500000807
:102D200001022D0886002E08870003189C2E8101C1
:102D30002D0886002E088700433181032D08860068
:102D40002E0887004431810A330808002300C0019F
:102D50000130C1000230C2000330C3000430C4009F
:102D60000530C50006302000DD0008002D08860073
:102D70002E0887000108AF00B0012D07B100300810
:102D80002E3DB20031088600320887004531010827
:102D900008002000B300B40134086002031CFF34B3
:102DA0003408AF004D30B001AF35B00DAF35B00DC8
:102DB000AF35B00DB1002130B2002F0831078600C9
:102DC0003008323D870035308400003085000830FF
:102DD000FF0016001A00FF0BE92E3508FF393306F5
:102DE000031D012F3608FF392D06031D012F37085B
:102DF000FF392E06031D012F3C080319012F34084B
:102E00000800B40ACC2E2000C6003D08AD003E08E4
:102E1000AE004608C9269231C700FF3A03190800E0
:102E20006108053EBF00003003180130C0004708AC
:102E3000C1005430C201C135C20DC135C20DC1350A
:102E4000C20DC3002130C400410843078600420878
:102E5000443D87004008803A803C031D312F3F08E5
:102E600001020318080020006108053EBF00470862
:102E7000C0005430C101C035C10DC035C10DC035D1
:102E8000C10DC2002130C30040084207C400410800
:102E9000433DC50044088600450887003F0881007F
:102EA00008002000B0002130B2004D30B1003008E1
:102EB000AE00AF01AE35AF0DAE35AF0DAE35AF0DD7
:102EC0002E08B1072F08B23D3208AE003108AD0020
:102ED00008002000D0004808AD004908AE005008A6
:102EE000C9269231CF00FF3A031D872F4808BA0048
:102EF0004908BB004A08BC004B08BD004C08BE0096
:102F00004D08BF004E08C00050088B31452B5008BB
:102F1000AD004808AE004908AF004A08B0004B08B1
:102F2000B1004C08B2004D08B3004E08B4004F0881
:102F300091317F292000DE012200D501D401D30187
:102F4000D201D101D00108002200E72792316E267C
:102F500092312200CF0001302000DE000630220036
:102F60004F02031C08009A2F07302000DE002200C9
:102F7000E72792316E262200D00008002200E727C2
:102F800092316E269231DF000230DE0005305F02A2
:102F9000031C08005F08FF3A031908009A2F22005B
:102FA000E72792316E2692312200D10006302000B0
:102FB000DE001F3022005102031C08009A2F03304C
:102FC0002000B000B1019B315823D501080027082B
:102FD0002000AE00220026082000AD0008002200DC
:102FE000E72792316E262200D50003302000DE0054
:102FF00008007D1C08002300C801C9017D100800DD
:1034C000FF3FFF3FFF3FFF3FFF3F23001908220060
:1034D000BF0065303F02031C06346430BF00063471
:1034E0006400013080010131FE020030FF3B7F08A3
:1034F0007E0403190034712AF2000830F300F4014D
:103500007208F1000730F136890B832A7435710493
:10351000F400F23570087402031C902A7008F4025B
:10352000F30B802A740808002100EE08031D080030
:103530009B22D60008002200C80A02304802031C61
:10354000BD2AC801D0229A31E9229A31240A0319EE
:10355000250A0319B82A2000D508031DC02A220015
:1035600021085F02031DB62A20085E020318C02A44
:103570003C239A31BD2A9731DF27200056080800E6
:103580002000550BCF2A23004B0822002102031DE7
:10359000CD2A23004A0822002002031CBB2A002C4B
:1035A000273002239A3121239A31B1002630022399
:1035B0009A312123B2003108AF00B0012F08220058
:1035C000A500A401200032082200A4070318A50AC0
:1035D0000800253002239A3121239A31B10024308A
:1035E00002239A312123B2003108AF00B0012F0825
:1035F0002200A100A001200032082200A007031829
:10360000A10A08002000AE00240016142400EB27B5
:103610009A3103190D2B6400062BB430240091005D
:103620002400EB279A310319172B6400102B2E0866
:10363000240091002400EB279A310319080064004C
:103640001A2B43239A31B53091004A239A319615AB
:10365000240014182D2B6400282B11082000AD0025
:103660002400961616162400161E382B6400332BE1
:10367000522320002D0808002000B001B10158237A
:103680000130D5000800240016142400161C080080
:103690006400452B2400141D4F2B64004A2B161F79
:1036A0000800522B16152400161D08006400532B29
:1036B00000303102063003193002031C622B053042
:1036C000B000B10131082200A30020003008220020
:1036D000A20022082000AD001730DC239A31AB3065
:1036E000AD001830DC2B1830AD01AD0ADC239A3167
:1036F0001730AD000730DC239A310F30AD00DC23EA
:103700009A311030AD01DC239A315030AD000830D1
:10371000DC239A315030AD000930DC239A3150302F
:10372000AD000A30DC239A310330AD001730DC23C2
:103730009A31AB30AD001830DC239A311730AD012F
:10374000AD0ADC239A31A130AD001830DC239A3168
:103750001730AD01DC239A31AE30AD001830DC23D8
:103760009A313030AD001730DC239A31BD30AD00D6
:103770001830DC239A310330AD001730DC239A3146
:10378000BE30AD001830DC239A311730AD01DC2398
:103790009A31BF30AD001830DC239A312130AD00B2
:1037A0001730DC239A31A130AD001830DC239A3178
:1037B0000F30AD001830DC2BAF0024001614D327D7
:1037C0009A310319E52B6400DF2BB43024009100FB
:1037D000D3279A310319EE2B6400E82B2F0824001D
:1037E0009100D3279A310319F72B6400F12B2D0890
:1037F00024009100D3279A31031908006400FA2BA2
:10380000220025082000BD00220024082000BC0062
:1038100055080319132C5630BC07FF30BD3DBC358D
:10382000BD0DBC35BD0DBA01BB01B801B9012130D8
:1038300084009030DF279A31031C202CBA01292CF8
:103840003F3084009030DF279A3103182B2CFF3053
:10385000BA00BB017D2CB7013735233E8400903080
:10386000DF279A31031C712C3735213E84009030BC
:10387000DF279A310318712C3D08B9003C08B800C5
:103880003735213E840090308500003FB300013F72
:10389000B4003308B8023408B93BF6279A313735FB
:1038A000033E840090308500003FB500013FB60024
:1038B00033083502AD003408363BAE003908B0009D
:1038C0003808AF008B269A312E08BB002D08BA00AD
:1038D0003B08BA00BB01F6279A313308BA0734080F
:1038E000BB3D0F30B70A3702031C2C2C01303B02C2
:1038F000003003193A020318272C3A08080055082B
:10390000A83A031DF92C27082000AE002200260843
:103910002000AD0096316E269A312100D300D308E5
:10392000031D08008B112700111121000C15200028
:1039300095018B121C11210091102800950117117F
:10394000210093100B138B1323009D139D179E12C0
:103950001D122100911212309700250093012000C2
:103960008E158E16FF302500910021009D01270045
:10397000131120009310911093110B138B1323003C
:103980009D138B13220054082000AD000030B62593
:103990009A319518C92C220053082000AD0001303F
:1039A000B6259A319518D22C220052082000AD007D
:1039B0000230B6259A319518DB2C22004F082000E2
:1039C000AD000330B6259A319518E42C8B130130E5
:1039D0009331D2239A319518EB2C8B13013094310B
:1039E00032249A319518F22C8B1364000100640084
:1039F000F72C5508A03A031D322D2F082100C600D0
:103A0000220030082100C700220031082100C80030
:103A100022002C082100C90022002D082100CA0024
:103A200022002E082100CB000430CC00CD01CE01B5
:103A3000CE0A22002B082100CF00D001D00AD101EC
:103A4000220054082100AA00220053082100AB00E4
:103A5000220052082100AC00C630AD000C30AE0090
:103A6000A130E02D5508A23A031D08002100D20123
:103A7000D401540820006002031CA12D2100540829
:103A8000AF004D30B001AF35B00DAF35B00DAF3533
:103A9000B00DB1002130B2002F0831078600300888
:103AA000323D8700D5308400003085000830FF00AB
:103AB00016001A00FF0B582D5C0803199F2D58089B
:103AC0000F39013A031D9F2D0130AF00580E073901
:103AD000890A6B2DAF35890B6A2D2F08D20403306C
:103AE0002000AD002100580E0739D3259A31013E40
:103AF000B33E8600870121005508FF39810003305D
:103B00002000AD002100580E0739D3259A31023E1E
:103B1000B33E8600870121005608FF39810003303B
:103B20002000AD002100580E0739D3259A31033EFD
:103B3000B33E8600870121005708FF398100D40A6F
:103B4000392D21005208B300220054082100AA0098
:103B5000220053082100AB00220052082100AC00D3
:103B6000B330AD001330AE00A330E02DAE00230023
:103B70009518B72D20002E082300910092012000F7
:103B80002D08230093003F30950503108B1B031471
:103B90008B13151555309600AA3096009514151103
:103BA00003188B1708002000AF00AE012D082F1856
:103BB000AE07AD35AF36AF08031DD62D2E08080071
:103BC0002000D400220034082100A0002200330885
:103BD0002100A100220032082100A200A3012A082E
:103BE000A4002B08A5002C08A6002D08A700A801FA
:103BF0002E08A90020005408FD2D2000CF00210030
:103C000025082000AD00210026082000AE0021007C
:103C100024089631C9269A31D000FF3A0319FE34A0
:103C20005008973151279A312E08CE002D08CD002B
:103C3000D3012230D2003D30D1005308AD002330F3
:103C4000AE01AF00B0018B269A312D08D1072E08A6
:103C5000D23D5208AE005108AD004F08AF00210020
:103C600024082000B000210025082000B100210018
:103C700026082000B200A0269A310038031D502EDD
:103C8000510886005208870042310108031D852E25
:103C9000510886005208870043310108031D852E14
:103CA0004D0886004E0887004331010E0739B300E6
:103CB0004F08B400210020082000B5002100210891
:103CC0002000B600210022082000B70021002308B0
:103CD0002000B800210024082000B9002100250898
:103CE0002000BA00210026082000BB00210028087F
:103CF0002000BD00210027082000BC002100290869
:103D00002000BE005308D02600340530D30A5302E9
:103D10000318FF34192EB101B2012D1C932E2F0868
:103D2000B1073008B23DAF35B00DAE36AD0C2E0840
:103D30002D04031D8D2E3208AE003108AD000800A1
:103D4000A0302F02031800342D0886002E088700AB
:103D50004231010B00342D0886002E0887004431C3
:103D600001082F06031D00342D0886002E08870049
:103D70004A3101083006031D00342D0886002E0844
:103D800087004B3101083106031D00342D088600E1
:103D90002E0887004C310108320603190134003423
:103DA000C60005304602031808003E08093EBF0061
:103DB000003003180130C000803AFF0080307F02DD
:103DC000031DE42E1F303F0203180800223020009C
:103DD000C9003D30C8004608AD002330AE01AF0039
:103DE000B0018B269A312D08C8072E08C93D490815
:103DF000CB004808CA000430CA070318CB0A480899
:103E0000860049088700423181014808033EBF000F
:103E10000030493DC0003F0886004008870001305F
:103E200081004808013EBF000030493DC0003F0806
:103E300086004008870033088100CC014A088600CC
:103E40004B08870034088100CC0A3E08033EBF00BF
:103E50004C08C000C1014A07C20041084B3DC300E5
:103E600042088600430887003F088100CC0A4C08BE
:103E7000BF00C0014A07C10040084B3DC2004108D5
:103E800086004208870035088100CC0A4C08BF0034
:103E9000C0014A07C10040084B3DC20041088600EE
:103EA0004208870036088100CC0A4C08BF00C001D8
:103EB0004A07C10040084B3DC20041088600420845
:103EC000870037088100CC0A4C08BF00C0014A07B0
:103ED000C10040084B3DC2004108860042088700EF
:103EE00038088100CC0A4C08BF00C0014A07C10055
:103EF00040084B3DC200410886004208870039084F
:103F00008100CC0A4C08BF00C0014A07C10040082C
:103F10004B3DC20041088600420887003A088100F4
:103F2000CC0A4C08BF00C0014A07C10040084B3D05
:103F3000C20041088600420887003B088100CC0A85
:103F4000C7013E0847020318C02F4708BF00C00141
:103F50003C07860040083D3D87000108C1004C0831
:103F6000C200C3014A07C40043084B3DC5004408D2
:103F700086004508870041088100CC0AC70AA12FA6
:103F800048088600490887004C0881004808023E1E
:103F9000BF000030493DC0003F0886004008870050
:103FA0000130810008002400140C890C0139200024
:103FB000AE00240016081F3920002E0408008500DA
:103FC000003FB300013FB4003D083402031D080068
:103FD0003C0833020800140C890C01392000AD00A4
:103FE000240016081F3920002D0408003735013E33
:103FF000840090308500003FB300013FB40008000A
:020000040001F9
:02000E00CCCF55
:00000001FF
