:1015B0008C311A2CFF3FFF3F8A3120007F08A900A1
:1015C000911E142B2200CA08031DE82A20001C11BA
:1015D00021009110003023001D1901302000AC00C3
:1015E0002C030319F62A23009D1CFB2A230019084B
:1015F0002000AB00042B210091102200CA0A9B316D
:101600004D238A312200C000220040080A3A031903
:101610000C2B20002C0B102B903125208A31142B01
:101620002200BD01200061142700131D292B8B11FE
:10163000111121000C152200C0012A30C4009B3179
:101640004D238A312200C000BD0120006114270013
:10165000131120009118B92BC72B23001D12210054
:10166000911223009D139D1722004708AA00200015
:10167000AA013B2BAA0A5908FF3EA700FF30031816
:101680000030A800803A803C031D482B27082A021E
:101690000318672B2200AA0A2000590822002A02F8
:1016A0000318AA012A08203E86000130870001089D
:1016B0009B3183238A312A08C70020008D1A3A2BD8
:1016C0008B152700111520001C11210091100130ED
:1016D0002200BA0020009A019B00C52B21006E0851
:1016E000203E86000130870001089B3183238A3128
:1016F00021006E082200C70020008D1A872B8B1551
:101700002700111520001C1121009110C52B21006C
:101710008D1220008D1202302200BA0020009C148D
:101720001C1422002C08223E20009B009031032034
:101730008A31AB000C30F0002B089B316B238A31CF
:10174000AC0020005908F00022002B089B316B23CD
:101750008A312100EE00C52B21008D169F31802794
:101760008A3120001C149C105F309B002200BA01BB
:10177000C52B22003A08003A03192D2B013A031910
:101780006E2B033A0319AC2BC52B20009110931C30
:10179000EB2B2300C00A0319C10A2200600BE92BBE
:1017A000A60A0319A70A00302702113003192602DE
:1017B000031CE92B0730A601A701CC0A4C02031831
:1017C000E42B01308E06E92B0E100B304C0203186F
:1017D000E00120009310111811100B1D162C22008F
:1017E000BC0A2000611C072C033022003D02031CB0
:1017F000072C45080319032C21006F080319032C3B
:10180000EF032200C501903125208A310C2C2000E5
:10181000611C0C2C2200BD0A08302200DB0A5B028E
:10182000031C152CDB017F30DA000B112000290886
:10183000FF0009009231DB2A2000B60136085C0265
:10184000031C08002130B5004D30B4003608B2004A
:10185000B301B235B30DB235B30DB235B30D3208A5
:10186000B4073308B53D3408860035088700473192
:101870000108003A0319462C340886003508870011
:101880004731810B462C360848248C31B60A1E2C71
:10189000B1001E303102031808002130B0004D3075
:1018A000AF003108AD00AE01AD35AE0DAD35AE0DBA
:1018B000AD35AE0D2D08AF072E08B03DDD032F0866
:1018C000860030088700473181015C083106031D1E
:1018D00008003108031DDC0308002000C6003D0895
:1018E000AD003E08AE00460897316C278C31C7002A
:1018F000FF3A031908005D08053EBF0000300318D9
:101900000130C0004708C1005430C201C135C20DCA
:10191000C135C20DC135C20DC3002130C40041081C
:10192000430786004208443D87004008803A803CD7
:10193000031D9C2C3F0801020318080020005D08CD
:10194000053EBF004708C0005430C101C035C10D7D
:10195000C035C10DC035C10DC2002130C3004008E3
:101960004207C4004108433DC500440886004508BD
:1019700087003F0881000800230019082000D600D6
:10198000EC30860022308700433101089B3C220066
:10199000DD0004305D020318D02CF001F101D72CDA
:1019A0005D08F000FD30F101F007031CF103700841
:1019B000DD0065302000560203180A345608220064
:1019C0005D02031C0A3402340034003407340E3440
:1019D00009341C341B341234153438343F34363453
:1019E0003134243423342A342D3403340534073479
:1019F000013409340B340D340F34113413340034F2
:101A00008D318207022D032D042D052D062D072D66
:101A1000082D092D0A2D0B2D0C2D8D31282D9531DA
:101A2000582D8D318207132D9B31C72B9D31FD2DF4
:101A30008C31BC2C9B31AD2B9E319D2E9B31542B78
:101A40009B31A32B9B31E42B9E31512E9D31E02DF8
:101A50005608A83A031DA22D29082000AE00220036
:101A600028082000AD0097310F278D312100D300C9
:101A7000D308031D08008B112700111121000C153C
:101A8000200095018B121C11210091102800950156
:101A90001711210093100B138B1323009D139D1717
:101AA0009E121D1221009112123097002500930101
:101AB00020008E158E16FF302500910021009D011B
:101AC0002700131120009310911093110B138B1307
:101AD00023009D138B13220055082000AD00003019
:101AE0005F268D319518722D220054082000AD001C
:101AF00001305F268D3195187B2D22005308200080
:101B0000AD0002305F268D319518842D22005008DB
:101B10002000AD0003305F268D3195188D2D8B137D
:101B2000013094319B248D319518942D8B13013005
:101B30009431FB248D3195189B2D8B13640001008B
:101B40006400A02D5608A03A031DDB2D31082100AA
:101B5000C600220032082100C700220033082100FD
:101B6000C80022002E082100C90022002F082100F1
:101B7000CA00220030082100CB000430CC00CD0187
:101B8000CD0ACE0122002D082100CF00D001D00ABD
:101B9000D101220055082100AA002200540821008A
:101BA000AB00220053082100AC00C630AD000C3061
:101BB000AE00A130892E5608A23A031D080021006C
:101BC000D201D401540820005C02031C4A2E2100DB
:101BD0005408AF004D30B001AF35B00DAF35B00D8A
:101BE000AF35B00DB1002130B2002F0831078600AB
:101BF0003008323D8700D530840000308500083041
:101C0000FF0016001A00FF0B012E5C080319482E76
:101C100058080F39013A031D482E0130AF00580E05
:101C20000739890A142EAF35890B132E2F08D204D9
:101C300003302000AD002100580E07397C268D317D
:101C4000013EB33E8600870121005508FF3981001F
:101C500003302000AD002100580E07397C268D315D
:101C6000023EB33E8600870121005608FF398100FD
:101C700003302000AD002100580E07397C268D313D
:101C8000033EB33E8600870121005708FF398100DB
:101C9000D40AE22D21005208B30022005508210089
:101CA000AA00220054082100AB00220053082100A2
:101CB000AC00B330AD001330AE00A330892EAE00BF
:101CC00023009518602E20002E0823009100920119
:101CD00020002D08230093003F30950503108B1B37
:101CE00003148B13151555309600AA3096009514E1
:101CF000151103188B1708002000AF00AE012D0846
:101D00002F18AE07AD35AF36AF08031D7F2E2E0856
:101D100008002000D400220036082100A000220084
:101D200035082100A100220034082100A200A301EF
:101D30002A08A4002B08A5002C08A6002D08A7003F
:101D4000A8012E08A90020005408A62E2000CF00CC
:101D5000210025082000AD00210026082000AE004B
:101D60002100240897316C278D31D000FF3A0319E8
:101D7000FE3450089731A6278D312E08CE002D084D
:101D8000CD00D3012230D2003D30D1005308AD0048
:101D90002330AE01AF00B00135278D312D08D107BA
:101DA0002E08D23D5208AE005108AD004F08AF00DA
:101DB000210024082000B000210025082000B100E7
:101DC000210026082000B2004A278D310038031D6B
:101DD000F92E510886005208870042310108031D80
:101DE0002F2F510886005208870043310108031D38
:101DF0002F2F4D0886004E0887004331010E07390A
:101E0000B3004F08B400210020082000B5002100D5
:101E100021082000B600210022082000B700210080
:101E200023082000B800210024082000B900210068
:101E300025082000BA00210026082000BB00210050
:101E400028082000BD00210027082000BC00210038
:101E500029082000BE00530890317120003405305D
:101E6000D30A53020318FF34C22EB101B2012D1C54
:101E70003D2F2F08B1073008B23DAF35B00DAE365B
:101E8000AD0C2E082D04031D372F3208AE0031088B
:101E9000AD000800A0302F02031800342D08860082
:101EA0002E0887004231010B00342D0886002E08D1
:101EB0008700443101082F06031D00342D088600D9
:101EC0002E0887004A3101083006031D00342D0812
:101ED00086002E0887004B3101083106031D0034AF
:101EE0002D0886002E0887004C31010832060319A0
:101EF000013400342200E32797310F278F3122006D
:101F0000D20006302000DA001F3022005202031CEB
:101F100008009531422D2200E32797310F278F319A
:101F20002200D00001302000DA00063022005002EA
:101F3000031C08009531422D2200E32797310F271B
:101F40008F31DB000230DA0005305B02031C080031
:101F50005B08FF3A031908009531422D0830200034
:101F6000DA00220029082000AE0022002808200004
:101F7000AD00973159278F31B400FF3A031DC72FA9
:101F80002200E32797310F278F319531422D95316C
:101F9000422502302000DA0008002200E3279731B2
:101FA0000F278F312200D500E32797310F278F317C
:101FB0002200D400E32797310F272200D3000430FA
:101FC0002000DA00080029082000AE0022002808BE
:101FD0002000AD0008002200B908031D0800F32707
:101FE0002200B800080021001C082000AD002D09C7
:101FF000AE0021009D1420002E080800FF3FFF3F87
:10200000FF3FFF3FFF3F22004D08F0000430F03655
:10201000890B07284D08F100F136F136F1364D08ED
:10202000F200F236F2367208710670064D06F300C1
:102030000130F3057308F0000730F035890B1D28D7
:102040004D367004CD004D080800200061102200BC
:10205000CA013B2023001D12210091129331FE235F
:1020600020001C149C105F309B0019309B00220044
:10207000BA01BD0108002000DF01D601D7012B30D5
:102080002200C4000530C0002000DE01FF30220025
:10209000C300080022002808860029088700433171
:1020A00001082000AD005A08AE0006302E020318C9
:1020B0005E280030AD08031D013008002E08063AE6
:1020C000031D642803306C282E08073A031D0134D1
:1020D0002200520820006C282D0200300318013025
:1020E0000800C60005304602031808003E08093EF5
:1020F000BF00003003180130C000803AFF0080307C
:102100007F02031D85281F303F020318080022307C
:102110002000C9003D30C8004608AD002330AE01A4
:10212000AF00B0018F31352790312D08C8072E0838
:10213000C93D4908CB004808CA000430CA07031843
:10214000CB0A4808860049088700423181014808C7
:10215000033EBF000030493DC0003F0886004008F4
:102160008700013081004808013EBF000030493D32
:10217000C0003F0886004008870033088100CC017A
:102180004A0886004B08870034088100CC0A3E08C4
:10219000033EBF004C08C000C1014A07C20041080D
:1021A0004B3DC30042088600430887003F0881007A
:1021B000CC0A4C08BF00C0014A07C10040084B3D93
:1021C000C200410886004208870035088100CC0A19
:1021D0004C08BF00C0014A07C10040084B3DC20087
:1021E000410886004208870036088100CC0A4C0866
:1021F000BF00C0014A07C10040084B3DC200410872
:1022000086004208870037088100CC0A4C08BF00CE
:10221000C0014A07C10040084B3DC200410886008A
:102220004208870038088100CC0A4C08BF00C00172
:102230004A07C10040084B3DC200410886004208E1
:10224000870039088100CC0A4C08BF00C0014A074A
:10225000C10040084B3DC20041088600420887008B
:102260003A088100CC0A4C08BF00C0014A07C100EF
:1022700040084B3DC20041088600420887003B08E9
:102280008100CC0AC7013E084702031862294708AB
:10229000BF00C0013C07860040083D3D87000108A3
:1022A000C1004C08C200C3014A07C40043084B3DAB
:1022B000C500440886004508870041088100CC0A13
:1022C000C70A432948088600490887004C0881004E
:1022D0004808023EBF000030493DC0003F0886006C
:1022E000400887000130810008002000D000480825
:1022F000AD004908AE00500897316C279131CF00EE
:10230000FF3A031D93294808BA004908BB004A0850
:10231000BC004B08BD004C08BE004D08BF004E0875
:10232000C0005008A5295008AD004808AE00490873
:10233000AF004A08B0004B08B1004C08B2004D088D
:10234000B3004E08B4004F08472AC4001E22913142
:10235000C500FF3A0319FF342130C7004D30C600D5
:102360004508C100C201C135C20DC135C20DC1351C
:10237000C20D4108C6074208C73D46088600470807
:1023800087000108440600394406BD2291314131DD
:1023900001083A0600393A06BD229131423101085E
:1023A0003B0600393B06BD229131433101083C0612
:1023B000F0393C0681003D08C10046088600470808
:1023C00087004331C10E010841068F394106BD2205
:1023D0009131443101083E0600393E06BD2291315B
:1023E000433181134608063ECC2291317F30810073
:1023F0005D08053EC1004608073EC2000030473D6B
:10240000C30042088600430887004108810046084F
:10241000053ECC22913140088100DD0A4008043A93
:10242000031D172A3C0B172A01302200D900200077
:1024300045085C024508031CDC000800B1013108B6
:10244000AD004D30AE01AD35AE0DAD35AE0DAD3597
:10245000AE0DAF002130B0002D082F0786002E08EA
:10246000303D870032308400003085000830FF00A6
:1024700016001A00FF0B382A3908031D412A3108BB
:1024800008001E30B10A31020318FF341F2AB800B9
:102490002130BA004D30B9003808B500B601B53565
:1024A000B60DB535B60DB535B60D3508B9073608D4
:1024B000BA3D3908D52291310F39B50030083502BF
:1024C000031CB12A3908D52291313006F039300683
:1024D00081003108B500390886003A088700433189
:1024E000B50E010835068F3935068100390886009A
:1024F0003A0887004431010832060039320681006B
:102500003908053EC3229131340881003908063E5E
:10251000C32291317F3081005D08053EB500003057
:1025200003180130B600390886003A0887004731A1
:102530003608803A803C031D9F2A350801020318A3
:10254000B12A20005D08053EB5003908073EB600F7
:1025500000303A3DB7003608860037088700350856
:102560008100200033080319BB2A390886003A0885
:10257000870043318117380808008100460886002B
:10258000470887000800B50000303A3DB60035081E
:102590008600360887000800C1000030473DC200B1
:1025A0004108860042088700080086003A08870034
:1025B0004331010808004D30840021308500A330EC
:1025C000FE000230FF009B315F2392315530E10164
:1025D0008400003085000C30FE00FF019B315F233A
:1025E000923121002030EE01EF018400013085009E
:1025F0004030FE00FF019B315F2392312300C00178
:10260000C10122000130E0002000062B2030AD0087
:102610000030E723923113082200B6002130200059
:10262000AD000030E723923113082200B5002230BC
:102630002000AD000030E723923113082200B400DF
:1026400023302000AD000030E72392311308220030
:10265000AD0034080319302B34082100EC00332B73
:102660002100EC01EC0AED016C082200CD00703075
:102670002000AD000030E723923113082200B100A2
:1026800071302000AD000030E723923113082200A2
:10269000B20072302000AD000030E7239231130801
:1026A0002200B30073302000AD000030E7239231E8
:1026B00013082200AE0074302000AD000030E72384
:1026C000923113082200AF0075302000AD000030B9
:1026D000E723923113082200B00012302100970046
:1026E000342492312100EB00703099002C30980096
:1026F0006A24923181249231003056249231230091
:102700001D122100911223009E12EC302000AD001A
:102710002230AE0016249231EC30AD002230AE00F3
:102720000D30AF008A2492310B302000AD00003014
:1027300042249231522492316B080319A62B0030A7
:102740009B2492310030FB249231010064001B3045
:1027500021009700FE2392310B178B178B17200057
:102760009C141C1437309B002800950197141714F3
:1027700017179716171697154C3096001715210046
:1027800093142000950121009512951115159514AB
:1027900015148B16572592312200E001E00A6400DF
:1027A000122592316400083022003C02031CDD2B0C
:1027B0008C311C2492312200BC0106249231640029
:1027C000E42792316400682492316400CF2BAE007C
:1027D0002D082300910020002E08230092001513DD
:1027E000951715140000000000000000640023008D
:1027F0001518F72B640023009513080020009A0198
:10280000FA309B001C15210091140800E008031DFC
:1028100008000B303F02031C08000D303F02031C70
:10282000142C0E10BF0108000E1408002D0886009D
:102830002E08870081012D0886002E08870041316F
:1028400081012D08023EAF0000302E3DB0002F0860
:102850008600300887009A3081002D0886002E08F7
:102860008700433181010800B8302000AD000030FE
:10287000E723140813082000AF00333A003003198F
:1028800001300800AE0049272D082200BB002000BF
:102890002E082200BE002B30C4000530C000FF30DF
:1028A000C300080019302100ED2708002000AD000A
:1028B0005F2C22000E10080022000E1408002D08C4
:1028C000003A0319592C013A03195C2C672C0800B3
:1028D0008F31EB2FFF308C008D0006308E002930B9
:1028E000ED2723008E1120008E118E1223008D12F1
:1028F0000C110E138E130E1022000E138E130E12D7
:10290000080023009D171E159F1507309B009C0192
:102910001E120800DA012200D601D20120002E0882
:102920002200A90020002D082200A80020002F0866
:102930002200CF0008002000B100B830AD00AE0189
:10294000B124923120003108B830AD003F30AE00E4
:102950000319AE2C3330AF000030D42C0030AF015F
:10296000D42C2D082300910020002E082300920073
:102970001513951715161515CA2492312300151134
:1029800064002300151AC12C6400230095139518C8
:10299000C72C080055309600AA3096009514000008
:1029A0000000000000000800B00023009517151576
:1029B00015121513951620002D08230091002000F4
:1029C00030082300920020002F08230093002000ED
:1029D0002E0823009400CA24923123009512CA24A1
:1029E000923123001511640023009518F42C640023
:1029F0002300951308002000B100D030AD00AE01D7
:102A0000B124923120003108D030AD003F30AE000B
:102A100003190E2D2730AF000030D42C1130AF0039
:102A20000030D42C312D8F318B279231312D8F31C5
:102A30009C279231312DF5279231312D8F317A2714
:102A40009231312D8F31CD279231312D4C2592315C
:102A5000312DBE279231312D8F31AE279231312D5C
:102A6000422590314A2092310038031908005A0853
:102A70008400083004020318302D98310435003EDC
:102A80008200312D2000DA012200D601D501D401C7
:102A9000D301D201D101080007302000DA00220062
:102AA0008F31E32792310F272200D1000800080060
:102AB0006400220055083606031D7B2D5408350698
:102AC000031D7B2D53083406031D7B2D2100E601D9
:102AD000220052082100660203180800220029087B
:102AE0002000AE00220028082000AD000F27923100
:102AF0002100E60A682D703056020318F52D560B9A
:102B0000F62D1F305102031808005208023A031D27
:102B1000080029082000AE00220028082000AD008F
:102B20000F2792312100E400220029082000AE0086
:102B3000220028082000AD000F2792312100EA0072
:102B4000220050082100E800EA30DF00E0018600A2
:102B5000600887000108E7000130E7056A36E500F4
:102B6000220054082000C800220053082000C90099
:102B700022005108013E2000CA0021006808200000
:102B8000CB00210064082000CC0021006708200051
:102B9000CD00210065082000CE00220055089131AB
:102BA000752192312100E900FF3A0319F62D6908D9
:102BB000DF005330E001DF35E00DDF35E00DDF35BC
:102BC000E00DE1002130E2005F0861078600600847
:102BD000623D87000130E300680AEF2DE335890B81
:102BE000EE2D6308FF3A8105F62DF9252200BF0A74
:102BF000080029082000AE00220028082000AD00AF
:102C00000F2792312300BD00220029082000AE00CA
:102C1000220028082000AD000F2792312300BE00BB
:102C2000220029082000AE00220028082000AD0064
:102C30000F272300BF0022005208FD3E2300B600EC
:102C4000220054082000BD00220053082000BE00CE
:102C5000220055088C316D24923123003F08220058
:102C60003406031D712E23003E0822003506031D85
:102C7000712E23003D0822003606031D712E21000F
:102C80006F0803196B2EEF036B2E29082000AE008E
:102C9000220028082000AD000F2792312300B70042
:102CA000220029082000AE00220028082000AD00E4
:102CB0000F2792312200B9003908031908002300B8
:102CC00037082200B80008003B08031908008D31BE
:102CD00000252200080022005608703A0319452EEC
:102CE000642E23003E082000AD0023003F08200092
:102CF000AE0023003D086C2792312300BB00FF3A51
:102D000003190A2F3B08A62792312E082300BA0088
:102D100020002D082300B90022005608A83A031D00
:102D2000C12E23003908073E2100DD0000302300BA
:102D30003A3D2100DE005D0886005E088700FF3016
:102D40008100220029082000AE002200280820006F
:102D5000AD00592792310038031DBF2E22005008C4
:102D6000A0002300390886003A0887004331010E8D
:102D700007392200A10002302000D900C12E4927C6
:102D800092312300BC01B801360838020318E12E45
:102D9000220029082000AE00220028082000AD00F3
:102DA0000F2792312100DD0023003C08A03E860061
:102DB0000130870021005D0881002300BC0AB80AA9
:102DC000C42E220055082100A00022005408210032
:102DD000A100220053082100A20022005108013E58
:102DE0002100A30023003D082100A40023003E0889
:102DF0002100A50023003F082100A600A030A70065
:102E00000130A80023003C082100A9002200560838
:102E10008E31A62621006F08031DEF0308008B13D7
:102E20002D0886002E0887000108AF00B0012D078D
:102E3000B10030082E3DB20031088600320887000C
:102E400045310108B3002D0886002E088700810A4D
:102E50002D0886002E08870042312D0884002E0898
:102E60008500000801022D0886002E08870003183F
:102E70003E2F81012D0886002E08870043318103F3
:102E80002D0886002E0887004431810A8B173308ED
:102E900008002200A0010130A1000230A20003308E
:102EA000A3000430A4000530A50006302000D9009E
:102EB00008002D0886002E0887000108AF00B00129
:102EC0002D07B10030082E3DB200310886003208CF
:102ED00087004531010808002000B300B401340820
:102EE0005C02031CFF343408AF004D30B001AF3535
:102EF000B00DAF35B00DAF35B00DB1002130B2001F
:102F00002F08310786003008323D870035308400B5
:102F1000003085000830FF0016001A00FF0B8C2FD0
:102F20003508FF393306031DA42F3608FF392D0657
:102F3000031DA42F3708FF392E06031DA42F3C08BC
:102F40000319A42F34080800B40A6F2F2000B00022
:102F50002130B2004D30B1003008AE00AF01AE35C7
:102F6000AF0DAE35AF0DAE35AF0D2E08B1072F0842
:102F7000B23D3208AE003108AD0008000530200037
:102F8000DA002200280886002908870044318101E0
:102F90004F080319D02F4F088D31002592312200A0
:102FA00022002808860029088700443152080102BF
:102FB0000318080029082000AE002200280820007D
:102FC000AD000F279231D02F2000E11C0800230014
:102FD000C001C1012000E11008009D009E131E17D2
:102FE0009E161E129E101E10080022008F31E3272D
:102FF00092310F272200D60003302000DA000800AB
:103000009531132D9531172D95311B2D95311E2D91
:103010009531262D95312C2D9531222D9531292D47
:10369000FF3FFF3FFF3FFF3FFF3F4008F53E8C31BC
:1036A0000A008D3111250800230019082000D700D9
:1036B00065305702031C06346430D70006346400BA
:1036C000013080010131FE020030FF3B7F087E04A3
:1036D00003190034602BF2000830F300F401720883
:1036E000F1000730F136890B722B74357104F40048
:1036F000F23570087402031C7F2B7008F402F30B80
:103700006F2B74080800F1002000D800711C8B2B6F
:1037100022000E178D2B22000E137108F000F036D8
:10372000701C952B22008E17972B22008E13710888
:10373000F000F036F036701CA02B22000E160800A8
:1037400022000E120800230019082200C2004208BD
:103750000319AC2B1F30C200E42B230019082000F2
:10376000E000D608031DB52B9D2E60080319033415
:103770001F30600203180A3460085602031C0A3422
:103780002100EF0A01302200C50020000334200090
:103790005E088C3EA2002330A301A33D22088600D0
:1037A000230887002300190881002000DE0A56083C
:1037B000013EA200003003180130A3005E0822067B
:1037C0002304031D03349D2EFF30C6002000A001FA
:1037D00022004B08013EDC0005305C020318DC01CE
:1037E0005C08CB0022302000A4003D30A300220062
:1037F0005C08F0002330F101F200F301A3279B31B4
:1038000070082000A3077108A43D2200DF012000FA
:103810002308860024088700413101085806031D4B
:103820005B2C23088600240887004231010B5B2CA7
:103830002308860024088700010822004202031C96
:103840005B2C20002308860024088700010857020B
:10385000031C5B2CA10123088600240887000108B3
:1038600021020318512C2108F600F7012307F80064
:103870007708243DF90078088600790887004431EC
:103880000108FA005F088C3EFB002330FC01FC3D80
:103890007B0886007C0887007A088100DF0AA10A7D
:1038A0002B2C230886002408870001082200DF0053
:1038B0005C08C600612C20000530A00A2002031C11
:1038C000E82B0130F6002000580A672CF635890BEA
:1038D000662C760822005A050319F82C20005F0890
:1038E000083EF600003003180130F700803AF80077
:1038F00080307802031D7E2C570876020318F82CBE
:103900000130F6002000580A862CF635890B852CEC
:103910007608FF3A2200DA0520005F088C3EF600A8
:103920002330F701F73D76088600770887000130DD
:103930008100DF0A5F088C3EF6002330F701F73D77
:10394000760886007708870002308100DF0A5F086A
:103950008C3EF6002330F701F73D760886007708A5
:1039600087002200360881002000DF0A5F088C3EB5
:10397000F6002330F701F73D7608860077088700C8
:103980002200350881002000DF0A5F088C3EF60027
:103990002330F701F73D760886007708870022007C
:1039A000340881002000DF0A5F088C3E8600233047
:1039B0008701873D8101DF0A5F088C3EF6002330D6
:1039C000F701F73D7608860077088700220038085F
:1039D00081002000DF0A5F088C3EF6002330F701EB
:1039E000F73D76088600770887002D308100DF0AD2
:1039F0002000A20122085C02031CDF2D2130A6005A
:103A00004D30A5002208F600F701F635F70DF63522
:103A1000F70DF635F70D7608A5077708A63D2508BA
:103A200086002608870047310108003A0319DD2D7A
:103A3000250886002608870001304631F600580A1E
:103A4000222DF635890B212D760801050319DD2D70
:103A50005F08083EF600003003180130F700803A96
:103A6000803C031D352D76085702031CDF2D2000F6
:103A7000250886002608870001304631F600580ADE
:103A8000422DF635890B412D7608FF3A81055F08F6
:103A90008C3EF6002330F701F73D76088600770864
:103AA000870001308100DF0A5F088C3EF60023307A
:103AB000F701F73D7608860077088700023081001D
:103AC000DF0A25088600260887000108FF39F6006E
:103AD0005F088C3EF7002330F801F83D7708860038
:103AE0007808870076088100DF0A25088600260806
:103AF000870041310108FF39F6005F088C3EF7006E
:103B00002330F801F83D77088600780887007608AA
:103B10008100DF0A25088600260887004231010857
:103B2000FF39F6005F088C3EF7002330F801F83DBE
:103B3000770886007808870076088100DF0A250864
:103B4000860026088700433101080F39F6005F0818
:103B50008C3EF7002330F801F83D7708860078089E
:103B6000870076088100DF0A25088600260887007E
:103B700044310108FF39F6005F088C3EF70023301E
:103B8000F801F83D770886007808870076088100FC
:103B9000DF0A250886002608870045310135F60032
:103BA0005F088C3EF7002330F801F83D7708860067
:103BB0007808870076088100DF0AA20AFA2C512EC5
:103BC00023001908FD007D0BF62D22004608FF3A60
:103BD0000319ED2D460886279B312000DF012200C6
:103BE00044082A3A03190A34C101FD2D2200C10AF2
:103BF0000630410203180A34512E23001D12210001
:103C0000911223009E16EC3086002230870043314B
:103C100001089B3C2200DE0004305E020318132ED4
:103C2000F801F9011A2E5E08F800FD30F901F807D5
:103C3000031CF9037808DE005E0893269B31FF30F1
:103C4000FA012200C3001F305E02031C412EFB015B
:103C50007B08D6279B31A3279B313F30CB279B3155
:103C6000031D3C2E7B08D6279B31A3279B31403078
:103C7000CB279B310319FA0A0530FB0A7B02031C90
:103C8000282E2200C5017A0821006F0203184B2E4E
:103C90006F08FA024C2EFA017A0893269B3180278E
:103CA00001342000D501C3279B315F0893269B3147
:103CB00020005F0803196C2E5F30F0000030DC2715
:103CC0009B314C279B31D5005F30F0000130DC2761
:103CD0009B314C279B31D50022005F0893269B31F6
:103CE000FC0120005F087C0203188B2E7C088C3EB0
:103CF000FA002330FB01FB3D7A08F0007B08DC274B
:103D00009B314C279B31D5007C08E2279B319326C1
:103D10009B31FC0A712E5F080319912E55089326DA
:103D20009B3180270934F0002000111E942E70086A
:103D300023009A009E1808009A2EC3279B3156082C
:103D400003190D2F5E08FA008B30FB01FC002330B5
:103D5000FD007A087C0786007B087D3D870001080E
:103D6000A000DE03D5015E30F0000030DC279B317F
:103D70004C279B31D5006030F0000030DC279B31B0
:103D80004C279B31D5008C30F0002330F1005E08C9
:103D9000F200F30155084C279B31D500C3279B3116
:103DA000200855060319E52E003093269B31802705
:103DB0009B312000DE012200C10A06304102031CB3
:103DC000013445082100EF020A34EC30F0002230C3
:103DD000F1005808F20019279B31EC30F000223036
:103DE000F10022004308F20019279B312000A101B5
:103DF00056082102EC30F0002230F1000318092FA0
:103E00002108E2279B31F20019279B312000A10AEB
:103E1000F82EFF30F20019279B31013093269B3199
:103E200080279B31220044082A3A031D0A34C1012D
:103E30000534F5279B310108F300F4017007F50004
:103E40007408713DF6007508053EF7000030763DB8
:103E5000F800770886007808870072088100F52747
:103E60009B31E9279B31423170088400710885003D
:103E700001310008010270088600710887000318EC
:103E8000472F413181017008860071088700433156
:103E9000E927433101080800F9007108F6007008AD
:103EA000F5000130F2020030F33B720A0319730A85
:103EB00003197E2F75088600760887000108F40034
:103EC0000430F436890B612F790E0F397406FB2705
:103ED0008C310A009F31EF279B31750886007608E8
:103EE0008700790E0F390106FB278C310A009F31BC
:103EF000EF279B31F50A0319F60A512F79080800BC
:103F000023009E121D16210091160800F8000530AE
:103F10007802031808007808D6279B31A3279B3125
:103F20003F30B8279B317808D6279B31A3279B3198
:103F30004030B8279B317808D6279B31A3279B3187
:103F40003D30B8270800F401F501701CAB2F720852
:103F5000F4077308F53DF235F30DF136F00C7108F6
:103F60007004031DA52F7508F1007408F000080007
:103F7000F6002230F7007008760786007108773D5A
:103F800087008101080023001D12210091122300E7
:103F90009E1620000800F6002230F7007008760711
:103FA00086007108773D870001080800F000233083
:103FB000F101F200F3010800F100F201F20AF3014D
:103FC000550808008C3E860023308701873D010894
:103FD0000800810A70088600710887000800F40054
:103FE000790EF0397406F90008007008860071082F
:103FF000870041310800F700F8010F39E53E08005D
:020000040001F9
:02000E00CCCF55
:00000001FF
