:101400008B31672BFF3FFF3F8A3120007F08A90007
:10141000911E3C2A2200CB08031D102A20001C111B
:1014200021009110003023001D1901302000AC0074
:101430002C0303191E2A23009D1C232A23001908AC
:101440002000AB002C2A210091102200CB0A9A31F7
:10145000B4228A312200BE0022003E080A3A031953
:10146000342A20002C0B382A9B315E238A313C2AF7
:101470002200BA01200061142700131D512A8B118C
:10148000111121000C152200BE012A30C5009A312D
:10149000B4228A312200BE00BA0120006114270064
:1014A000131120009118E12AEF2A23001D122100B8
:1014B000911223009D139D1722004808AA002000C6
:1014C000AA01632AAA0A5C08FF3EA700FF3003189E
:1014D0000030A800803A803C031D702A27082A02A9
:1014E00003188F2A2200AA0A20005C0822002A0280
:1014F0000318AA012A08203E86000130870001084F
:101500009A31FB228A312A08C80020008D1A622AEB
:101510008B152700111520001C112100911001309E
:101520002200B70020009A019B00ED2A20005B08F2
:10153000203E86000130870001089A31FB228A3163
:1015400020005B082200C80020008D1AAF2A8B15EE
:101550002700111520001C1121009110ED2A2100F7
:101560008D1220008D1202302200B70020009C1442
:101570001C1422002C08223E20009B009B313C239F
:101580008A31AB000C30F0002B089A31C7228A3127
:10159000AC0020005C08F00022002B089A31C72222
:1015A0008A312000DB00ED2A21008D169F311027A3
:1015B0008A3120001C149C105F309B002200B70170
:1015C000ED2A22003708003A0319552A013A031977
:1015D000962A033A0319D42AED2A20009110931C6D
:1015E000132B2300C00A0319C10A2200600B112B20
:1015F000A60A0319A70A0030270211300319260290
:10160000031C112B0730A601A701CD0A4D020318B8
:101610000C2B01308E06112B0E100B304D020318CF
:10162000E00120009310111C3A2B11102500110825
:10163000C83A031D1D2B64301E2BC83091002200B8
:101640004A08200097002200490820009600D50A89
:1016500055087F3A031D322B3030250098002000BA
:10166000D5013A2B550822004F06031D3A2BDF30D7
:10167000250098000B1D632B2200B90A2000611C75
:10168000542B033022003A02031C542B4608031942
:10169000502B21006F080319502BEF032200C601C5
:1016A0009B315E238A31592B2000611C592B22006B
:1016B000BA0A0A302200DC0A5C02031C622BDC013D
:1016C0007F30DB000B1120002908FF000900923158
:1016D0000B2AB8002130BA004D30B9003808B500E7
:1016E000B601B535B60DB535B60DB535B60D3508FF
:1016F000B9073608BA3D3908E8238B310F39B500F0
:1017000030083502031CD32B3908E8238B3130060F
:10171000F039300681003108B500390886003A08F2
:1017200087004331B50E010835068F393506810033
:10173000390886003A08870044310108320600392A
:10174000320681003908053EDF238B3134088100E1
:101750003908063EDF238B317F3081006008053E6B
:10176000B500003003180130B600390886003A0889
:10177000870047313608803A803C031DC12B35086D
:1017800001020318D32B20006008053EB50039087C
:10179000073EB60000303A3DB700360886003708ED
:1017A000870035088100200033080319DD2B390834
:1017B00086003A0887004331811738080800B500D1
:1017C00000303A3DB600350886003608870008002C
:1017D00086003A0887004331010808009431702CD4
:1017E0009431732C9431762C9431792C9431802C53
:1017F0009431862C94317C2C9431832CFF3FFF3F15
:101800008C318207022C032C042C052C062C072C6F
:10181000082C092C0A2C0B2C0C2C8C31D02C94313C
:10182000C22C8C318207132C9D31D72D9E31142E62
:101830008F31D32F9D31BB2D9E31682E90310028E2
:101840009B31A62B9B31B02B9F31162F9D31F72D4D
:101850002B24D600080021006E080319322C20002A
:10186000560808002000B701B801BA01BB013B08C7
:101870005F02031C822C2130BD004D30BC003B08B0
:10188000B500B601B535B60DB535B60DB535B60DE5
:101890003508BC073608BD3D3C0886003D0887007A
:1018A00047310108003A0319802C3C0886003D08A6
:1018B00087004331811F802C3C0886003D0887004B
:1018C000433101080F39AD000C30AE01AF00B0015B
:1018D00090248C312D08B9003C0886003D08870013
:1018E00044310108FF39AD00AE013908AF00B00145
:1018F000DD268C312D08B7072E08B83D3908BA0708
:10190000BB0A372CBA08031900343A08AD00AE01FF
:101910003808B0003708AF009B3181232D0808003C
:10192000B201AE1F9A2CAD09AE09AD0A0319AE0A79
:10193000B201B20AB01FA32CAF09B009AF0A031954
:10194000B00A0130B206B301B4012E082D04031908
:10195000C32CB101B10AAE1BB02CAD35AE0DAA2C13
:10196000B335B40D2E083002031DB82C2D082F02FC
:10197000031CBF2C2D08AF022E08B03B3314AE362B
:10198000AD0CB10BB02C32080319CB2CB309B40940
:10199000B30A0319B40A3408AE003308AD000800D6
:1019A0005708A83A031D4A2D29082000AE0022003E
:1019B00028082000AD00963171268C312100D3001B
:1019C000D308031D08008B112700111121000C15ED
:1019D000200095018B121C11210091102800950107
:1019E0001711210093100B138B1323009D139D17C8
:1019F0009E121D12210091121230970025009301B2
:101A000020008E158E16FF302500910021009D01CB
:101A10002700131120009310911093110B138B13B7
:101A200023009D138B13220056082000AD000030C8
:101A300007268C3195181A2D220055082000AD007C
:101A4000013007268C319518232D220054082000E0
:101A5000AD00023007268C3195182C2D220051083C
:101A60002000AD00033007268C319518352D8B13DF
:101A700001309331D4238C3195183C2D8B130130D8
:101A8000943134248C319518432D8B13640001005C
:101A90006400482D5708A03A031D832D310821000A
:101AA000C600220032082100C700220033082100AE
:101AB000C80022002E082100C90022002F082100A2
:101AC000CA00220030082100CB000430CC00CD0138
:101AD000CE01CE0A22002D082100CF00D001D00A6D
:101AE000D101220056082100AA0022005508210039
:101AF000AB00220054082100AC00C630AD000C3011
:101B0000AE00A130312E5708A23A031D0800210073
:101B1000D201D401540820005F02031CF22D2100E1
:101B20005408AF004D30B001AF35B00DAF35B00D3A
:101B3000AF35B00DB1002130B2002F08310786005B
:101B40003008323D8700D5308400003085000830F1
:101B5000FF0016001A00FF0BA92D5C080319F02DD9
:101B600058080F39013A031DF02D0130AF00580E0F
:101B70000739890ABC2DAF35890BBB2D2F08D2043C
:101B800003302000AD002100580E073924268C3187
:101B9000013EB33E8600870121005508FF398100D0
:101BA00003302000AD002100580E073924268C3167
:101BB000023EB33E8600870121005608FF398100AE
:101BC00003302000AD002100580E073924268C3147
:101BD000033EB33E8600870121005708FF3981008C
:101BE000D40A8A2D21005208B30022005608210091
:101BF000AA00220055082100AB0022005408210051
:101C0000AC00B330AD001330AE00A330312EAE00C7
:101C100023009518082E20002E0823009100920121
:101C200020002D08230093003F30950503108B1BE7
:101C300003148B13151555309600AA309600951491
:101C4000151103188B1708002000AF00AE012D08F6
:101C50002F18AE07AD35AF36AF08031D272E2E085F
:101C600008002000D400220036082100A000220035
:101C700035082100A100220034082100A200A301A0
:101C80002A08A4002B08A5002C08A6002D08A700F0
:101C9000A8012E08A900200054084E2E2000CF00D5
:101CA000210025082000AD00210026082000AE00FC
:101CB000210024089631CC268C31D000FF3A03193C
:101CC000FE345008973154278C312E08CE002D0851
:101CD000CD00D3012230D2003D30D1005308AD00F9
:101CE0002330AE01AF00B001DD268C312D08D107C5
:101CF0002E08D23D5208AE005108AD004F08AF008B
:101D0000210024082000B000210025082000B10097
:101D1000210026082000B200F2268C310038031D75
:101D2000A12E510886005208870042310108031D88
:101D3000D72E510886005208870043310108031D41
:101D4000D72E4D0886004E0887004331010E073913
:101D5000B3004F08B400210020082000B500210086
:101D600021082000B600210022082000B700210031
:101D700023082000B800210024082000B900210019
:101D800025082000BA00210026082000BB00210001
:101D900028082000BD00210027082000BC002100E9
:101DA00029082000BE005308913107210034053076
:101DB000D30A53020318FF346A2EB101B2012D1C5D
:101DC000E52E2F08B1073008B23DAF35B00DAE3665
:101DD000AD0C2E082D04031DDF2E3208AE00310895
:101DE000AD000800A0302F02031800342D08860033
:101DF0002E0887004231010B00342D0886002E0882
:101E00008700443101082F06031D00342D08860089
:101E10002E0887004A3101083006031D00342D08C2
:101E200086002E0887004B3101083106031D00345F
:101E30002D0886002E0887004C3101083206031950
:101E400001340034C4009B278F31C500FF3A0319C9
:101E5000FF342130C7004D30C6004508C100C20123
:101E6000C135C20DC135C20DC135C20D4108C6070D
:101E70004208C73D46088600470887000108440617
:101E800000394406C4278F31413101083A06003930
:101E90003A06C4278F31423101083B0600393B0620
:101EA000C4278F31433101083C06F0393C068100DC
:101EB0003D08C10046088600470887004331C10E2F
:101EC000010841068F394106C4278F31443101088A
:101ED0003E0600393E06C4278F3143318113460840
:101EE000063ECA278F317F3081006008053EC10061
:101EF0004608073EC2000030473DC3004208860046
:101F000043088700410881004608053ECA278F31F3
:101F100040088100E00A4008043A031D942F3C0B5E
:101F2000942F01302200DA00200045085F024508A6
:101F3000031CDF000800B1013108AD004D30AE01D7
:101F4000AD35AE0DAD35AE0DAD35AE0DAF002130BA
:101F5000B0002D082F0786002E08303D8700323054
:101F60008400003085000830FF0016001A00FF0BC7
:101F7000B52F3908031DBE2F310808001E30B10AE5
:101F800031020318FF349C2F810046088600470861
:101F900087000800C1000030473DC20041088600AC
:101FA000420887000800230019082000D900EC30FF
:101FB000860022308700433101089B3C2200DE006E
:101FC00004305E020318E72FF001F101EE2F5E08E6
:101FD000F000FD30F101F007031CF1037008DE0092
:101FE00065302000590203180A34590822005E02A5
:101FF000031C0A340234FF3FFF3FFF3FFF3FFF3F18
:10200000230019082200C10065304102031C063478
:102010006430C100063422002808860029088700A1
:10202000433101082000AD005D08AE0006302E02ED
:1020300003181F280030AD08031D013008002E08CA
:10204000063A031D252803302D282E08073A031DC4
:1020500001342200530820002D282D0200300318DF
:10206000013008002000B60136085F02031C08009A
:102070002130B5004D30B4003608B200B301B2359E
:10208000B30DB235B30DB235B30D3208B407330812
:10209000B53D340886003508870047310108003A0D
:1020A00003195C2834088600350887004731810B06
:1020B0005C2836085E209031B60A3428B1001E3004
:1020C0003102031808002130B0004D30AF00310854
:1020D000AD00AE01AD35AE0DAD35AE0DAD35AE0DCD
:1020E0002D08AF072E08B03DE0032F08860030080A
:1020F0008700473181015F083106031D0800310860
:10210000031DDF030800BE0008303E0203188C28C0
:102110007F302200CF00080064302200CF00200072
:102120003E08F83EBB00FF3003180030BC003C0DF9
:10213000BC0CBB0C3C0DBC0CBB0C3C0DBC0CBB0C60
:102140003B08143EBD00A428BA003C303A02031CF0
:10215000AB283B30BA000C30AD003A08D7209031A4
:10216000B4000C30AD003A08EF209031B5003535A1
:10217000013E840098308500003FB600013FB70063
:10218000340AC428B736B60C890BC2283708B30006
:102190003608B200B209B3093208B8003308B900F2
:1021A0002200CA00200038082200C9000800AE0042
:1021B000B0012D080319ED28AF01AF0AAD1BE228CD
:1021C000AD35DD28B0352D082E02031CEA282D0878
:1021D000AE023014AD36AF0BE22830080800AF0075
:1021E0000830B000B1012F08AE000730AE36890BC1
:1021F000F62831352E04B100AF352D083102031C0D
:1022000003292D08B102B00BF32831080800C600DD
:1022100005304602031808003E08093EBF000030A2
:1022200003180130C000803AFF0080307F02031D98
:102230001B291F303F020318080022302000C9006C
:102240003D30C8004608AD002330AE01AF00B001FC
:102250008E31DD2691312D08C8072E08C93D490869
:10226000CB004808CA000430CA070318CB0A480844
:10227000860049088700423181014808033EBF00BB
:102280000030493DC0003F0886004008870001300B
:1022900081004808013EBF000030493DC0003F08B2
:1022A00086004008870033088100CC014A08860078
:1022B0004B08870034088100CC0A3E08033EBF006B
:1022C0004C08C000C1014A07C20041084B3DC30091
:1022D00042088600430887003F088100CC0A4C086A
:1022E000BF00C0014A07C10040084B3DC200410881
:1022F00086004208870035088100CC0A4C08BF00E0
:10230000C0014A07C10040084B3DC2004108860099
:102310004208870036088100CC0A4C08BF00C00183
:102320004A07C10040084B3DC200410886004208F0
:10233000870037088100CC0A4C08BF00C0014A075B
:10234000C10040084B3DC20041088600420887009A
:1023500038088100CC0A4C08BF00C0014A07C10000
:1023600040084B3DC20041088600420887003908FA
:102370008100CC0A4C08BF00C0014A07C1004008D8
:102380004B3DC20041088600420887003A088100A0
:10239000CC0A4C08BF00C0014A07C10040084B3DB1
:1023A000C20041088600420887003B088100CC0A31
:1023B000C7013E0847020318F8294708BF00C001BB
:1023C0003C07860040083D3D87000108C1004C08DD
:1023D000C200C3014A07C40043084B3DC50044087E
:1023E00086004508870041088100CC0AC70AD92920
:1023F00048088600490887004C0881004808023ECA
:10240000BF000030493DC0003F08860040088700FB
:102410000130810008004D30840021308500A33058
:10242000FE000230FF009A31BB2292315530E101AB
:102430008400003085000C30FE00FF019A31BB2281
:10244000923121002030EE01EF018400013085003F
:102450004030FE00FF019A31BB2292312300C001BF
:10246000C10122000130E0002000362A2030AD00FA
:1024700000300623923113082200B60021302000DC
:10248000AD0000300623923113082200B50022303F
:102490002000AD0000300623923113082200B40062
:1024A00023302000AD0000300623923113082200B3
:1024B000AD0034080319602A34082100EC00632AB7
:1024C0002100EC01EC0AED016C082200CE00703016
:1024D0002000AD0000300623923113082200B10025
:1024E00071302000AD000030062392311308220025
:1024F000B20072302000AD00003006239231130884
:102500002200B30073302000AD000030062392316A
:1025100013082200AE0074302000AD000030062306
:10252000923113082200AF0075302000AD0000305A
:102530000623923113082200B000123021009700C8
:10254000432392312100EB00703099002C30980029
:102550009C239231B923923100308623923123009B
:102560001D122100911223009E12EC302000AD00BC
:102570002230AE0025239231EC30AD002230AE0087
:102580000D30AF00C22392310B302000AD0000307F
:10259000512392316123923121006B080319D72A0C
:1025A0000030D42392310030342492310100640091
:1025B0001B30210097001D2392310B178B178B17AF
:1025C00020009C141C1437309B00280095019714A0
:1025D000171417179716171697154C3096001715DE
:1025E00021009314200095012100951295111515D5
:1025F000951415148B16D32392312200E001E00AC2
:102600004B249231982392316400002BAE002D08A8
:102610002300910020002E08230092001513951727
:1026200015140000000000000000640023001518CD
:10263000162B640023009513080020009A01FA303D
:102640009B001C152100911408002D0886002E08FF
:10265000870081012D0886002E0887004131810105
:102660002D08023EAF0000302E3DB0002F0886003E
:10267000300887009A3081002D0886002E088700D8
:10268000433181010800B8302000AD00003006233E
:10269000140813082000AF00333A0030031901304A
:1026A0000800AE00A9262D082200B80020002E0840
:1026B0002200BB002B30C5000530BE00FF30C40037
:1026C00008001E1021008E168E15FF3028009D0078
:1026D0002500931513159A151A1591019E141E10B5
:1026E0009E151E1128009E101E101E1521008E1210
:1026F0008E11200098131813970196019812181242
:102700001814210011142500980108002000AD00C4
:102710008F2B22000E10080022000E1408002D0836
:10272000003A0319892B013A03198C2B972B0800C7
:102730008C3128249231EC2FFF308C008D00063034
:102740008E0029309D009E131E179E161E129E108D
:102750001E1023008E1120008E118E1223008D1268
:102760000C110E138E130E1022000E138E130E1268
:10277000080023009D171E159F1507309B009C0124
:102780001E120800DD012200D701D30120002E080F
:102790002200A90020002D082200A80020002F08F8
:1027A0002200D000080008002000B100B830AD00C1
:1027B000AE01EA23923120003108B830AD003F303D
:1027C000AE000319E72B3330AF0000300D2C003082
:1027D000AF010D2C2D082300910020002E082300AE
:1027E0009200151395171516151503249231230021
:1027F000151164002300151AFA2B640023009513A9
:102800009518002C080055309600AA3096009514B3
:1028100000000000000000000800B0002300951731
:10282000151515121513951620002D08230091007B
:10283000200030082300920020002F08230093007E
:1028400020002E08230094000324923123009512C7
:1028500003249231230015116400230095182D2CB8
:1028600064002300951308002000B100D030AD00B3
:10287000AE01EA23923120003108D030AD003F3064
:10288000AE000319472C2730AF0000300D2C11305B
:10289000AF0000300D2C64006F24923164000830CA
:1028A00022003902031C592C90313220923122002F
:1028B000B9015F2492316400F72764000800E00842
:1028C000031D08000B303C02031C08000D303C02C5
:1028D000031C6D2C0E10BC0108000E1408008B2C7C
:1028E000A72792318B2CC12792318B2CE227923172
:1028F0008B2CD22792318B2C9A31DF2292318B2C68
:10290000B72792318B2C9C2492318B2C9B311B232B
:1029100092318B2C9D2790310B2092310038031976
:1029200008005D0884000830040203188A2C8B31EB
:102930000435EE3E82008B2C05302000DD002200A5
:1029400028088600290887004431810150080319AE
:10295000AE2C50088C31002492312200220028082D
:102960008600290887004431530801020318080033
:1029700029082000AE00220028082000AD007126A2
:102980009231AE2C6400220056083606031DE52C59
:1029900055083506031DE52C54083406031DE52CA7
:1029A0002100E601220053082100660203180800F6
:1029B000220029082000AE00220028082000AD00D7
:1029C000712692312100E60AD22C7030570203188A
:1029D000562D570B572D29082000AE00220028083D
:1029E0002000AD00712692312100E4002200290868
:1029F0002000AE00220028082000AD007126923190
:102A00002100EA00220051082100E800EA30DF003E
:102A1000E0018600600887000108E7000130E70553
:102A20006A36E500220055082000C800220054083C
:102A30002000C90022005208013E2000CA002100E7
:102A400068082000CB00210064082000CC00210091
:102A500067082000CD00210065082000CE0022007C
:102A600056086C2792312100E900FF3A0319572DCF
:102A70006908DF005330E001DF35E00DDF35E00DA0
:102A8000DF35E00DE1002130E2005F0861078600DC
:102A90006008623D87000130E300680A502DE3358D
:102AA000890B4F2D6308FF3A8105572D5A252200C7
:102AB000BC0A080029082000AE00220028082000D7
:102AC000AD00712692312300BD00220029082000AC
:102AD000AE00220028082000AD00712692312300AC
:102AE000BE00220029082000AE0022002808200095
:102AF000AD00712692312300BF0022005308FD3E35
:102B00002300B600220055082000BD002200540812
:102B10002000BE00220056080627923123003F08FD
:102B200022003406031DD32D23003E082200350663
:102B3000031DD32D23003D0822003606031DD32D8F
:102B400021006F080319CD2DEF03CD2D290820009A
:102B5000AE00220028082000AD007126923123002B
:102B6000B700220029082000AE002200280820001B
:102B7000AD00712692312100EE006E0803190800A5
:102B8000230037082000D600210008003808031968
:102B900008008C3100242100080022005708703AF8
:102BA0000319A62DC62D23003E082000AD002300EA
:102BB0003F082000AE0023003D08CC2692312300C0
:102BC000BB00FF3A03196C2E3B08542792312E08A4
:102BD0002300BA0020002D082300B9002200570866
:102BE000A83A031D232E23003908073E2100DD00EB
:102BF000003023003A3D2100DE005D0886005E08BB
:102C00008700FF308100220029082000AE0022004A
:102C100028082000AD00B92692310038031D212E6E
:102C200022005108A0002300390886003A088700D6
:102C30004331010E07392200A10002302000DC00E0
:102C4000232EA92692312300BC01B8013608380290
:102C50000318432E220029082000AE002200280875
:102C60002000AD00712692312100DD0023003C08D8
:102C7000A03E86000130870021005D08810023000E
:102C8000BC0AB80A262E220056082100A000220005
:102C900055082100A100220054082100A2002200B2
:102CA0005208013E2100A30023003D082100A4009A
:102CB00023003E082100A50023003F082100A600B4
:102CC000A030A7000130A80023003C082100A90083
:102CD000220057088E314E2621006F08031DEF0396
:102CE00008002D0886002E0887000108AF00B001FB
:102CF0002D07B10030082E3DB200310886003208A1
:102D0000870045310108B3002D0886002E08870092
:102D1000810A2D0886002E08870042312D08840084
:102D20002E088500000801022D0886002E08870065
:102D300003189F2E81012D0886002E08870043313D
:102D400081032D0886002E0887004431810A33084C
:102D500008002200A0010130A1000230A2000330CF
:102D6000A3000430A4000530A50006302000DC00DC
:102D700008002D0886002E0887000108AF00B0016A
:102D80002D07B10030082E3DB20031088600320810
:102D900087004531010808002000B300B401340861
:102DA0005F02031CFF343408AF004D30B001AF3573
:102DB000B00DAF35B00DAF35B00DB1002130B20060
:102DC0002F08310786003008323D870035308400F7
:102DD000003085000830FF0016001A00FF0BEC2EB3
:102DE0003508FF393306031D042F3608FF392D0639
:102DF000031D042F3708FF392E06031D042F3C083E
:102E00000319042F34080800B40ACF2E2000C6008E
:102E10003D08AD003E08AE004608CC269231C70002
:102E2000FF3A031908006008053EBF000030031890
:102E30000130C0004708C1005430C201C135C20D85
:102E4000C135C20DC135C20DC3002130C4004108D7
:102E5000430786004208443D87004008803A803C92
:102E6000031D342F3F0801020318080020006008EA
:102E7000053EBF004708C0005430C101C035C10D38
:102E8000C035C10DC035C10DC2002130C30040089E
:102E90004207C4004108433DC50044088600450878
:102EA00087003F08810008002000B0002130B200F8
:102EB0004D30B1003008AE00AF01AE35AF0DAE35CC
:102EC000AF0DAE35AF0D2E08B1072F08B23D320859
:102ED000AE003108AD0008002000D0004808AD0069
:102EE0004908AE005008CC269231CF00FF3A031DAE
:102EF0008A2F4808BA004908BB004A08BC004B08A2
:102F0000BD004C08BE004D08BF004E08C000500870
:102F10008F31222F5008AD004808AE004908AF009D
:102F20004A08B0004B08B1004C08B2004D08B3008D
:102F30004E08B4004F088B31692B2000DD012200C0
:102F4000D701D601D501D401D301D2010800220056
:102F5000EF279231712692312200D10001302000FA
:102F6000DD00063022005102031C08009D2F0730AF
:102F70002000DD002200EF27923171262200D200CE
:102F800008002200EF27923171269231DE000230D4
:102F9000DD0005305E02031C08005E08FF3A0319DD
:102FA00008009D2F2200EF279231712692312200D6
:102FB000D30006302000DD001F3022005302031C26
:102FC00008009D2F2200EF27923171262200D700A2
:102FD00003302000DD0008005608903183282908BE
:102FE0002000AE00220028082000AD0008002000CC
:102FF000E11C08002300C001C1012000E11008000D
:103000000034E434EE347B34E134D434D434E23468
:10301000C8349C34BD34F734B234EC34A834703442
:103020009F347D3496340C348E34133486348D348E
:103030007E34033405340734013409340B340D3441
:103040000F34113413340034FF3FFF3FFF3FFF3F85
:10356000FF3FFF3FFF3FFF3F3E08193E98310A00F3
:103570008C31112408006400013080010131FE0209
:103580000030FF3B7F087E0403190034BC2AF200A0
:103590000830F300F4017208F1000730F136890BAE
:1035A000CE2A74357104F400F23570087402031CDD
:1035B000DB2A7008F402F30BCB2A740808002200FF
:1035C0009731EF279A31963171269A312200D60031
:1035D0009731EF279A31963171269A312200D50022
:1035E0009731EF279A31963171262200D4000430AA
:1035F0002000DD000800F1002000DA00711C032B20
:1036000022000E17052B22000E137108F000F03671
:10361000701C0D2B22008E170F2B22008E137108A9
:10362000F000F036F036701C182B22000E16080041
:1036300022000E12080008302000DD0022002908B8
:103640002000AE00220028082000AD009631B926E7
:103650009B31B400FF3A031D362B22009731EF2730
:103660009B31963171269B3197319D2F97319D2744
:1036700002302000DD00080022004E08F000043077
:10368000F036890B402B4E08F100F136F136F13659
:103690004E08F200F236F2367208710670064E06D7
:1036A000F3000130F3057308F0000730F035890BA3
:1036B000562B4E367004CE004E08080020006110D4
:1036C0002200CB01742323001D122100911293319B
:1036D0001D2320001C149C105F309B0019309B00A0
:1036E0002200B701BA0108002000D801D901220048
:1036F0002B30C101C5000530BE00FF30BD01C40044
:103700000800B201B3012E082D040319A12BB10149
:10371000B10AAE1B8E2BAD35AE0D882BB235B30D75
:103720002E083002031D962B2D082F02031C9D2B03
:103730002D08AF022E08B03B3214AE36AD0CB10BE3
:103740008E2B3308AE003208AD00080023001908A4
:103750002200C20042080319AF2B1F30C200B02B59
:10376000FF30C7002000A00122004C08013EDD0010
:1037700005305D020318DD015D08CC002230200019
:10378000A4003D30A30022005D08F0002330F101C9
:10379000F200F3019F31B4279B3170082000A3078A
:1037A0007108A43D2200C0012000230886002408DF
:1037B0008700413101085A06031D2A2C2308860080
:1037C000240887004231010B2A2C23088600240894
:1037D0008700010822004202031C2A2C2000230833
:1037E000860024088700010822004102031C2A2CBD
:1037F0002000A10123088600240887000108210277
:103800000318202C2108F600F7012307F800770899
:10381000243DF900780886007908870044310108C2
:10382000FA0058088C3EFB002330FC01FC3D7B086D
:1038300086007C0887007A088100D80AA10AFA2B42
:10384000230886002408870001082200C0005D08C4
:10385000C700302C20000530A00A2002031CB42B26
:103860000130F60020005A0A362CF635890B352C2B
:10387000760822005B050319C62C20005808083E74
:10388000F600003003180130F700803AF80080306D
:103890007802031D4E2C2200410876020318C62C24
:1038A0000130F60020005A0A562CF635890B552CAB
:1038B0007608FF3A2200DB05200058088C3EF6000F
:1038C0002330F701F73D760886007708870001303E
:1038D0008100D80A58088C3EF6002330F701F73DE6
:1038E000760886007708870002308100D80A5808D9
:1038F0008C3EF6002330F701F73D76088600770806
:1039000087002200360881002000D80A58088C3E23
:10391000F6002330F701F73D760886007708870028
:103920002200350881002000D80A58088C3EF60095
:103930002330F701F73D76088600770887002200DC
:10394000340881002000D80A58088C3E86002330B5
:103950008701873D8101D80A58088C3EF600233044
:10396000F701F73D76088600770887005608810042
:10397000D80A58088C3EF6002330F701F73D760848
:103980008600770887005E308100D80A2000A201F7
:1039900022085F02031CB92D2130A6004D30A5007E
:1039A0002208F600F701F635F70DF635F70DF63576
:1039B000F70D7608A5077708A63D25088600260896
:1039C000870047310108003A0319B72D2508860002
:1039D0002608870001304631F6005A0AF02CF635E9
:1039E000890BEF2C760801050319B72D5808083EFE
:1039F000F600003003180130F700803A803C031DC8
:103A0000042D760822004102031CB92D2000250850
:103A100086002608870001304631F6005A0A112D2B
:103A2000F635890B102D7608FF3A810558088C3E33
:103A3000F6002330F701F73D760886007708870007
:103A400001308100D80A58088C3EF6002330F70177
:103A5000F73D760886007708870002308100D80A93
:103A600025088600260887000108FF39F600580857
:103A70008C3EF7002330F801F83D7708860078087F
:103A8000870076088100D80A250886002608870066
:103A900041310108FF39F60058088C3EF700233009
:103AA000F801F83D770886007808870076088100DD
:103AB000D80A250886002608870042310108FF3908
:103AC000F60058088C3EF7002330F801F83D7708DF
:103AD00086007808870076088100D80A25088600C5
:103AE00026088700433101080F39F60058088C3E3C
:103AF000F7002330F801F83D770886007808870042
:103B000076088100D80A25088600260887004431F7
:103B10000108FF39F60058088C3EF7002330F80101
:103B2000F83D770886007808870076088100D80A73
:103B3000250886002608870045310108F600F6357D
:103B400025088600260887004331010D010D013943
:103B50007607F70058088C3EF8002330F901F93D4C
:103B6000780886007908870077088100D80AA20AB9
:103B7000C82C9F31162F230019082200C3002000F3
:103B8000D908031DC42D682E2200430803190334ED
:103B90001F30430203180A34430820005902031C53
:103BA0000A342100EF0A01302200C60003343D0828
:103BB0008C3E2000A2002330A301A33D22088600F2
:103BC000230887002300190881002200BD0A200075
:103BD0005908013EA200003003180130A300220062
:103BE0003D08200022062304031D0334682E230011
:103BF0001908FD007D0B0D2E22004708FF3A03191E
:103C0000042E470897279D312000D801220045083F
:103C10002A3A03190A34BF01142E2200BF0A0630C3
:103C20003F0203180A34162F23001D12210091129F
:103C300023009E16EC3086002230870043310108B5
:103C40009B3C2200DF0004305F0203182A2EF8019B
:103C5000F901312E5F08F800FD30F901F807031C67
:103C6000F9037808DF005F0857279D31FF30FA011C
:103C70002200C4001F305F02031C582EFB017B088A
:103C8000E7279D31B4279D313F30DC279D31031D4F
:103C9000532E7B08E7279D31B4279D314030DC2728
:103CA0009D310319FA0A0530FB0A7B02031C3F2EE3
:103CB0002200C6017A0821006F020318622E6F08E5
:103CC000FA02632EFA017A0857279D311027013432
:103CD000D4279D3159080319D12E22003D08FA003E
:103CE0008B30FB01FC002330FD007A087C07860046
:103CF0007B087D3D870001082000A0002200BD0355
:103D000063279D312000D7008C30F0002330F10074
:103D100022003D08F2002000570864279D31D7009B
:103D200061279D31D700D4279D31200857060319FC
:103D3000A92E003057279D3110279D312200BD014B
:103D4000BF0A06303F02031C013446082100EF027F
:103D50000A34EC30F0002230F1005A08F200DD267F
:103D60009D31EC30F0002230F10022004408F200D6
:103D7000DD269D312000A10159082102EC30F00020
:103D80002230F1000318CD2E2108ED279D31F200DD
:103D9000DD269D312000A10ABC2EFF30F200DD2679
:103DA0009D31013057279D3110279D312200450854
:103DB0002A3A031D0A34BF010534F4279D31010856
:103DC000F300F4017007F5007408713DF600750802
:103DD000053EF7000030763DF80077088600780849
:103DE000870072088100F4279D31FA279D31423106
:103DF0007008840071088500013100080102700814
:103E000086007108870003180B2F4131810170086B
:103E10008600710887004331FA2743310108080002
:103E200023009E121D1621009116080063279D3164
:103E30002000D700D4279D31580857279D312200F4
:103E4000400857279D31FC01200058087C020318C8
:103E50004B2F7C088C3EFA002330FB01FB3D7A0897
:103E6000F0007B08F100F201F20A570864279D3147
:103E7000D7007C08ED279D3157279D310A30F0008F
:103E8000422F0000F0037008FF3A031D412F492F15
:103E9000412FFC0A242F58080319552F5708612772
:103EA0009D31D700570857279D3110270934F0005E
:103EB0002000111E582F700823009A009E18080039
:103EC0005E2FF00008000034F6007108F40070085E
:103ED000F300F2037208FF3A0319952F7308860066
:103EE000740887000108F500F30A0319F40A80300A
:103EF000F800F9017608F7008030F70575087805B5
:103F00000319882F7708003A003003190130F700B1
:103F1000F635770803198E2F0730F606F936F80CB8
:103F2000790878040319692F7A2F76080800F800B9
:103F300005307802031808007808E7279D31B42778
:103F40009D313F30C9279D317808E7279D31B4273F
:103F50009D314030C9279D317808E7279D31B4272E
:103F60009D313D30C9270800F401F501701CBC2FBC
:103F70007208F4077308F53DF235F30DF136F00CD5
:103F800071087004031DB62F7508F1007408F00065
:103F90000800F6002230F7007008760786007108E6
:103FA000773D87008101080023001D122100911236
:103FB00023009E1620000800F6002230F70070084B
:103FC000760786007108773D870001080800F00039
:103FD0002330F101F200F30108008C3E860023300B
:103FE0008701873D01080800700886007108870076
:103FF00041310800810A70088600710887000800B6
:020000040001F9
:02000E00CCCF55
:00000001FF
