:1015B0008C31152CFF3FFF3F8A3120007F08A900A6
:1015C000911E142B2200C808031DE82A20001C11BC
:1015D00021009110003023001D1901302000AC00C3
:1015E0002C030319F62A23009D1CFB2A230019084B
:1015F0002000AB00042B210091102200C80A9B316F
:1016000093238A312200BD0022003D080A3A0319C3
:101610000C2B20002C0B102B8C313F248A31142BE7
:101620002200BA01200061142700131D292B8B1101
:10163000111121000C152200BD012A30C1009B317F
:1016400093238A312200BD00BA01200061142700D3
:10165000131120009118B42BC22B23001D1221005E
:10166000911223009D139D1722004408A80020001A
:10167000AA013B2BAA0A22004D08FF3E2000A7002A
:10168000FF3003180030A800803A803C031D4A2B2D
:1016900027082A020318672B2200A80A4D082802EF
:1016A0000318A8012808203E8600013087000108A1
:1016B0008C31A9248A312808C40020008D1A3A2BC5
:1016C0008B152700111520001C11210091100130ED
:1016D0002200B70020009A019B00C02B4708203E43
:1016E00086000130870001088C31A9248A3147081F
:1016F000C40020008D1A842B8B15270011152000A3
:101700001C1121009110C02B21008D1220008D1280
:1017100002302200B70020009C141C1422002A086A
:10172000223E20009B008C3188248A312200A900AF
:101730000C30F00029088C31E5248A31AA004D08CC
:10174000F00029088C31E5248A31C700C02B210024
:101750008D169F3186278A3120001C149C105F3023
:101760009B002200B701C02B22003708003A031962
:101770002D2B013A03196E2B033A0319A72BC02B0B
:1017800020009110931CE62B2300C00A0319C10A04
:101790002200630BE42BA60A0319A70A00302702D4
:1017A000113003192602031CE42B0730A601A70100
:1017B000CB0A4B020318DF2B01308E06E42B0E10F0
:1017C0000B304B020318E301200093101118111085
:1017D0000B1D112C2200B90A2000611C022C0330C1
:1017E00022003A02031C022C42080319FE2B20009F
:1017F0005D080319FE2BDD032200C2018C313F245A
:101800008A31072C2000611C072C2200BA0A0830FC
:101810002200DE0A5E02031C102CDE017F30DD0098
:101820000B1120002908FF0009009231E02A220054
:101830005008860001308700433F2000AD002200A1
:1018400057082000AE0006302E0203182C2C003062
:10185000AD08031D013008002E08063A031D322C86
:1018600003303A2C2E08073A031D01342200530896
:1018700020003A2C2D02003003180130080020000F
:1018800061102200C801552423001D12210091126D
:1018900094310A2420001C149C105F309B001930E6
:1018A0009B002200B701BA0108002000DF01D70128
:1018B000D8012B302200C1000530BD002000DE0120
:1018C000FF302200C0000800230019082000D700C4
:1018D00023004508643C2200E00004306002031845
:1018E000742CF001F1017B2C6008F000FD30F10157
:1018F000F007031CF1037008E00065302000570278
:1019000003180A34570822006002031C0A34023408
:101910005A08F0000430F036890B8B2C5A08F1007D
:10192000F136F136F1365A08F200F236F236720824
:10193000710670065A06F3000130F3057308F000D3
:101940000730F035890BA12C5A367004DA005A089A
:101950000800F1002000D900711CB12C22000E17E4
:10196000B32C22000E137108F000F036701CBB2C53
:1019700022008E17BD2C22008E137108F000F03665
:10198000F036701CC62C22000E16080022000E1223
:1019900008000034003407340E3409341C341B347E
:1019A0001234153438343F3436343134243423344B
:1019B0002A342D34033405340734013409340B340C
:1019C0000D340F34113413340034F2000830F300B6
:1019D000F4017208F1000730F136890BEC2C7435F4
:1019E0007104F400F23570087402031CF92C7008BD
:1019F000F402F30BE92C74080800FF3FFF3FFF3FA0
:101A00008D318207022D032D042D052D062D072D66
:101A1000082D092D0A2D0B2D0C2D8D315C2D9531A6
:101A2000602D8D318207132D9B31DD2B9E31112EC0
:101A30008C31642C9B31C42B9E31AC2E9B31A32B5B
:101A40009B31BA2B9B31FA2B9E31602E9D31F42DA8
:101A50002200B608031D080030252200B50008004A
:101A600021001C082000AD000B30AE01AF00B0011A
:101A700069278D312E08B5002D08B4000A30B4074F
:101A8000FB30B53D3508803AFF0081307F02031DF1
:101A90004B2D00303402031C502DFF302000562DFA
:101AA0002000B51F552DB301572D3408B300210078
:101AB0009D142000330808005908A83A031DD62DAC
:101AC00050089631DC268D312100D300D308031D48
:101AD00008008B112700111121000C152000950121
:101AE0008B121C1121009110280095011711210063
:101AF00093100B138B1323009D139D179E121D1221
:101B000021009112123097002500930120008E15BC
:101B10008E16FF302500910021009D012700131132
:101B200020009310911093110B138B1323009D131E
:101B30008B13220056082000AD00003093268D3113
:101B40009518A02D220055082000AD0001309326E5
:101B50008D319518A92D220054082000AD000230C7
:101B600093268D319518B22D220051082000AD002A
:101B7000033093268D319518BB2D8B131630220020
:101B8000CC00013094319B248D319518C52D8B13D9
:101B900016302200CC000130953105258D31951885
:101BA000CF2D8B13640001006400D42D5908A03A96
:101BB000031D0F2E2F082100C6002200300821002F
:101BC000C700220031082100C80022002C08210093
:101BD000C90022002D082100CA0022002E08210081
:101BE000CB000430CC00CD01CD0ACE0022002B0862
:101BF0002100CF00D001D00AD101220056082100D7
:101C0000AA00220055082100AB0022005408210040
:101C1000AC00C630AD000C30AE00A130BD2E59086E
:101C2000A23A031D08002100D201D401540820006B
:101C30005B02031C7E2E21005408AF00D930B00196
:101C4000AF35B00DAF35B00DAF35B00DB1002130AF
:101C5000B2002F08310786003008323D8700D530AA
:101C60008400003085000830FF0016001A00FF0BCA
:101C7000352E5C0803197C2E58080F39013A031DD4
:101C80007C2E0130AF00580E0739890A482EAF3537
:101C9000890B472E2F08D20403302000AD0021000D
:101CA000580E0739B0268D31013EB33E86008701BC
:101CB00021005508FF39810003302000AD002100CC
:101CC000580E0739B0268D31023EB33E860087019B
:101CD00021005608FF39810003302000AD002100AB
:101CE000580E0739B0268D31033EB33E860087017A
:101CF00021005708FF398100D40A162E210052080E
:101D0000B300220056082100AA0022005508210035
:101D1000AB00220054082100AC00B330AD001330FA
:101D2000AE00A330BD2EAE0023009518942E2000E7
:101D30002E0823009100920120002D08230093001B
:101D40003F30950503108B1B03148B13151555306D
:101D50009600AA3096009514151103188B170800E9
:101D60002000AF00AE012D082F18AE07AD35AF36FD
:101D7000AF08031DB32E2E0808002000D400220057
:101D800033082100A000220032082100A100200019
:101D900055082100A200A3012A08A4002B08A500D1
:101DA0002C08A6002D08A700A8012E08A9002000D5
:101DB0005408DA2E2000CF00210025082000AD00B5
:101DC000210026082000AE00210024089731392781
:101DD0008D31D000FF3A0319FE3450089731C127E6
:101DE0008D312E08CE002D08CD00D3012230D20037
:101DF0007930D1005308AD002330AE01AF00B001FF
:101E000069278D312D08D1072E08D23D5208AE002A
:101E10005108AD004F08AF00210024082000B00099
:101E2000210025082000B100210026082000B20072
:101E30007E278D310038031D2D2F51088600520852
:101E4000870042310108031D632F510886005208A4
:101E5000870043310108031D632F4D0886004E089B
:101E600087004331010E0739B3004F08B400210049
:101E700020082000B500210021082000B600210024
:101E800022082000B700210023082000B80021000C
:101E900024082000B900210025082000BA002100F4
:101EA00026082000BB00210028082000BD002100DA
:101EB00027082000BC00210029082000BE0053088C
:101EC0009031722000340530D30A53020318FF34D6
:101ED000F62EB101B2012D1C712F2F08B107300869
:101EE000B23DAF35B00DAE36AD0C2E082D04031D3E
:101EF0006B2F3208AE003108AD000800A0302F0271
:101F0000031800342D0886002E0887004231010B8B
:101F100000342D0886002E088700443101082F0662
:101F2000031D00342D0886002E0887004A31010861
:101F30003006031D00342D0886002E0887004B3123
:101F400001083106031D00342D0886002E08870085
:101F50004C31010832060319013400342000B60167
:101F600036085B02031C08002130B500D930B400EC
:101F70003608B200B301B235B30DB235B30DB23588
:101F8000B30D3208B4073308B53D34088600350870
:101F9000870047310108003A0319D82F340886001A
:101FA000350887004731810BD82F3608DA278F3163
:101FB000B60AB02FB10014303102031808002130E6
:101FC000B000D930AF003108AD00AE01AD35AE0D77
:101FD000AD35AE0DAD35AE0D2D08AF072E08B03DB9
:101FE000DC032F08860030088700473181015B0839
:101FF0003106031D08003108031DDB030800FF3F05
:1020000095311D2D9531212D9531252D9531292D78
:102010009531312D9531372D95312D2D9531342D2B
:10202000FF3FFF3FFF3FFF3FFF3F22005008963139
:10203000DC2690312200D1000130D7000630510259
:10204000031C080095314E2D220050089631DC26E5
:1020500090312200D3000630D7001F305302031CFA
:10206000080095314E2D220050089631DC26903123
:102070002200D8000230D70005305802031C0800A7
:102080005808FF3A0319080095314E2D22005008D8
:102090009631DC2690312200D60050089631DC269D
:1020A00090312200D50050089631DC262200D40061
:1020B0000430D700080008302200D70050089731BC
:1020C00022279031B300FF3A031D6D2822005008EB
:1020D0009631DC26903195314E2D95314E250230CA
:1020E000D7000800C60005304602031808003E0865
:1020F000093EBF00003003180130C000803AFF00E5
:1021000080307F02031D86281F303F02031808001D
:1021100022302000C9007930C8004608AD002330C5
:10212000AE01AF00B0018F31692790312D08C8078B
:102130002E08C93D4908CB004808CA000430CA0728
:102140000318CB0A480886004908870042318101FC
:102150004808033EBF000030493DC0003F088600EC
:1021600040088700013081004808013EBF00003070
:10217000493DC0003F0886004008870033088100C1
:10218000CC014A0886004B08870034088100CC0A3D
:102190003E08033EBF004C08C000C1014A07C20010
:1021A00041084B3DC30042088600430887003F08B2
:1021B0008100CC0A4C08BF00C0014A07C10040089A
:1021C0004B3DC20041088600420887003508810067
:1021D000CC0A4C08BF00C0014A07C10040084B3D73
:1021E000C200410886004208870036088100CC0AF8
:1021F0004C08BF00C0014A07C10040084B3DC20067
:10220000410886004208870037088100CC0A4C0844
:10221000BF00C0014A07C10040084B3DC200410851
:1022200086004208870038088100CC0A4C08BF00AD
:10223000C0014A07C10040084B3DC200410886006A
:102240004208870039088100CC0A4C08BF00C00151
:102250004A07C10040084B3DC200410886004208C1
:1022600087003A088100CC0A4C08BF00C0014A0729
:10227000C10040084B3DC20041088600420887006B
:102280003B088100CC0AC7013E08470203186329B6
:102290004708BF00C0013C07860040083D3D87005D
:1022A0000108C1004C08C200C3014A07C40043082A
:1022B0004B3DC50044088600450887004108810061
:1022C000CC0AC70A442948088600490887004C08F8
:1022D00081004808023EBF000030493DC0003F0871
:1022E0008600400887000130810008002000D000EF
:1022F0004808AD004908AE005008973139279131A0
:10230000CF00FF3A031D94294808BA004908BB00D2
:102310004A08BC004B08BD004C08BE004D08BF0079
:102320004E08C0005008A6295008AD004808AE006D
:102330004908AF004A08B0004B08B1004C08B20091
:102340004D08B3004E08B4004F084C2AC4002322A5
:102350009131C500FF3A0319FF342130C700D9304D
:10236000C6004508C100C201C135C20DC135C20D4C
:10237000C135C20D4108C6074208C73D4608860060
:10238000470887000108440600394406C2229131FB
:10239000413101083A0600393A06C22291314231F0
:1023A00001083B0600393B06C22291314331010846
:1023B0003C06F0393C0681003D08C1004608860015
:1023C000470887004331C10E010841068F39410695
:1023D000C2229131443101083E0600393E06C22234
:1023E000913143313F08031D8117031981134608BA
:1023F000063EC82291317F3081005C08093EC10051
:102400004608073EC2000030473DC3004208860030
:1024100043088700410881004608053EC8229131E3
:1024200040088100DC0A4008043A031D1C2A3C0BCA
:102430001C2A01302200DC00200045085B02450810
:10244000031CDB000800B1013108AD00D930AE013A
:10245000AD35AE0DAD35AE0DAD35AE0DAF002130A5
:10246000B0002D082F0786002E08303D870032303F
:102470008400003085000830FF0016001A00FF0BB2
:102480003D2A3908031D462A310808001430B10AD4
:1024900031020318FF34242AB8002130BA00D930A1
:1024A000B9003808B500B601B535B60DB535B60D6D
:1024B000B535B60D3508B9073608BA3D3908DA2200
:1024C00091310F39B50030083502031CB62A39089E
:1024D000DA2291313006F039300681003108B5003A
:1024E000390886003A0887004331B50E01083506E1
:1024F0008F3935068100390886003A088700443153
:10250000010832060039320681003908053ED12221
:102510009131340881003908063ED12291317F3053
:1025200081005C08093EB500003003180130B60098
:10253000390886003A08870047313608803A803CDF
:10254000031DA42A350801020318B62A20005C08DE
:10255000093EB5003908073EB60000303A3DB700E5
:1025600036088600370887003508810020003308C8
:102570000319C02A390886003A08870043318117B9
:1025800038080800810046088600470887000800D0
:10259000C1000030473DC200410886004208870064
:1025A0000800B50000303A3DB60035088600360810
:1025B0008700080086003A088700433101080800B8
:1025C000D9308400213085001730FE000230FF0032
:1025D0009B31AE2392315530E101840000308500FB
:1025E0000C30FE00FF019B31AE239231203084007D
:1025F000013085004330FE00FF019B31AE23923154
:102600002300C001C101C201C301C401C501C6014B
:10261000C701C80122000130E30020000F2B233046
:102620002300C8002830C7007030210099002C30EA
:1026300098006D24923120302000AD000030F3234B
:10264000923113082200B30021302000AD00003089
:10265000F323923113082200B20022302000AD0093
:102660000030F323923113082000D5002330AD0051
:102670000030F323923113082200AB0020005508EC
:102680000319462B55082100EB00492B2100EB01D3
:10269000EB0AEC016B082000DA007030AD0000306E
:1026A000F323923113082200AF0071302000AD00F7
:1026B0000030F323923113082200B0007230200062
:1026C000AD000030F323923113082200B1007330C3
:1026D0002000AD000030F323923113082200AC003B
:1026E00074302000AD000030F32392311308220033
:1026F000AD0075302000AD000030F3239231130897
:102700002200AE00123021009700362492312200C0
:10271000C9008424923100305924923123001D12C3
:102720002100911223009E12C230222492310D30DA
:10273000AD00C2308D2492310B302000AD0000304E
:102740004424923155249231220049080319B42BB4
:102750001630CC0000309B24923116302200CC0081
:10276000003005259231010064001B3021009700E4
:102770000A2492310B178B178B1720009C141C1402
:1027800037309B00280095019714171417179716D8
:10279000171697154C30960017152100931420003A
:1027A00095012100951295111515951415148B1688
:1027B0005F2592312200E301E30A64001C25923177
:1027C0006400083022003902031CEB2B8F31AE2746
:1027D00092312200B90112249231640064006B240A
:1027E00092316400DD2BAE002D0823009100200003
:1027F0002E082300920015139517151400000000F1
:1028000000000000640023001518032C640023005E
:102810009513080020009A01FA309B001C15210036
:1028200091140800E308031D08000B303C02031C50
:1028300008000D303C02031C202C0E10BC010800C7
:102840000E1408002000AD008600013087008101D1
:102850002D0A860081012D08023E8600633081002A
:102860002D08033E8600013081010800B8302000A9
:10287000AD000030F323140813082000AF00333AF2
:102880000030031901300800AE00132720002D0886
:102890002200B80020002E082200BB002B30C1000F
:1028A0000530BD00FF30C000080019302100F827B6
:1028B00008002000AD00622C22000E10080022004B
:1028C0000E1408002D08003A03195C2C013A031974
:1028D0005F2C6A2C08008D31282DFF308C008D0074
:1028E00006308E002930F82723008E1120008E112B
:1028F0008E1223008D120C110E138E130E10220057
:102900000E138E130E12080023009D171E159F151F
:1029100007309B009C011E120800AE002200D70168
:10292000D901D30120002E082200D00020002D085C
:102930002200CF0008002000B100B830AD00AE0189
:10294000B124923120003108B830AD003F30AE00E4
:102950000319AE2C3330AF000030DD2C0030AF0156
:10296000DD2C22004C08163A031D080020002D081B
:102970002300910020002E082300920015139517C4
:1029800015161515D3249231230015116400230068
:10299000151AC72C640023009518CB2C95139201AF
:1029A0002200CC01080055309600AA3096009514FC
:1029B00000000000000000000800B0002300951790
:1029C000151515121513951620002D0823009100DA
:1029D000200030082300920020002F0823009300DD
:1029E00020002E0823009400D32492312300951256
:1029F000D324923123001511640023009518FD2C77
:102A0000640023009513920108002000B100D0302B
:102A1000AD00AE01B124923120003108D030AD00BC
:102A20003F30AE000319182D2730AF000030DD2CE9
:102A30001130AF000030DD2C3C2D9031152092314B
:102A40003C2D9031332092313C2D9B319A23923191
:102A50003C2D9031242092313C2D903146209231F2
:102A60003C2D572592313C2DD92792313C2D903168
:102A70005B2092313C2D4E258C3117249231003849
:102A800003190800220057088400083004020318C4
:102A90003B2D90310435003E82003C2D2200D701B1
:102AA000D901D601D501D401D301D20108000730E4
:102AB0002200D7005008DC262200D20008000800BF
:102AC0006400220056083306031D7E2D5508320689
:102AD000031D7E2D540820005506031D7E2D210068
:102AE000E6012200530821006602031808002200B4
:102AF0005008DC2692312100E60A712D7030220048
:102B000059020318ED2D590BEE2D15305202031802
:102B100008005308023A031D08005008DC269231D1
:102B20002100E40022005008DC2692312100EA0056
:102B3000220051082100E800EA30DF00E0018600B1
:102B4000600887000108E7000130E7056A36E50004
:102B5000220055082000C800220054082000C900A7
:102B600022005208013E2000CA002100680820000F
:102B7000CB00210064082000CC0021006708200061
:102B8000CD00210065082000CE00220056089131BA
:102B9000762192312100E900FF3A0319EE2D6908F0
:102BA000DF00DF30E001DF35E00DDF35E00DDF3540
:102BB000E00DE1002130E2005F0861078600600857
:102BC000623D87000130E300680AE72DE335890B99
:102BD000E62D6308FF3A8105EE2DF1252200BC0A9F
:102BE00008005008DC2692312300BD002200500866
:102BF000DC2692312300BE0022005008DC269231F0
:102C00002300BF0022005308FD3E2300B60022002F
:102C100055082000BD00220054082000BE002200FC
:102C200056087327923123003F0820005506031DE4
:102C30004B2E23003E0822003206031D4B2E23009C
:102C40003D0822003306031D4B2E20005D080319AA
:102C5000452EDD03452E5008DC2692312300B700B7
:102C600022005008DC2692312200B60036080319F3
:102C70000800230037082200B500080038080319AF
:102C800008008D3100252200080022005908703A02
:102C900003192B2E3E2E23003E082000AD002300FA
:102CA0003F082000AE0023003D0839279231230061
:102CB000BB00FF3A0319D72E3B08C12792312E08DB
:102CC0002300BA0020002D082300B9002200590873
:102CD000A83A031D942E23003908073E2100DD0089
:102CE000003023003A3D2100DE005D0886005E08CA
:102CF0008700FF30810022005008222792310038DF
:102D0000031D922E22005108A000230039088600DE
:102D10003A0887004331010E07392200A100023032
:102D2000CD00942E132792312300BC01B801360840
:102D300038020318AE2E22005008DC269231210002
:102D4000DD0023003C08A03E860001308700210002
:102D50005D0881002300BC0AB80A972E220056089D
:102D60002100A000220055082100A10022005408E3
:102D70002100A20022005208013E2100A3002300EE
:102D80003D082100A40023003E082100A5002300E7
:102D90003F082100A600A030A7000130A8002300B2
:102DA0003C082100A900220059088E31DA262000B3
:102DB0005D08031DDD0308002000B2008B138600B0
:102DC000013087000108AD00AE013208053E8600E3
:102DD000403FAF00413FB0002D082F0786002E086E
:102DE000303D87000108B1003208860001308700BD
:102DF000810A3208023E86003208840001308500D4
:102E00000008010232080318072F86008101033EE3
:102E100086000130870081033208043E8600810A63
:102E20008B17310808002200A0010130A1000230F8
:102E3000A2000330A3000430A4000530A500063032
:102E4000CD0008002000B100860001308700010895
:102E5000AD00AE013108053E8600403FAF00413F66
:102E6000B0002D082F0786002E08303D870001088E
:102E700008002000B300B40134085B02031CFF34D7
:102E80003408AF00D930B001AF35B00DAF35B00D5B
:102E9000AF35B00DB1002130B2002F0831078600E8
:102EA0003008323D8700353084000030850008301E
:102EB000FF0016001A00FF0B592F3508FF393306A3
:102EC000031D712F3608FF392D06031D712F37089A
:102ED000FF392E06031D712F3C080319712F34088A
:102EE0000800B40A3C2F2000C6003D08AD003E0893
:102EF000AE00460839279231C700FF3A031908008F
:102F00005C08093EBF00003003180130C0004708CC
:102F1000C100E030C201C135C20DC135C20DC1359D
:102F2000C20DC3002130C400410843078600420897
:102F3000443D87004008803A803C031DA12F3F0894
:102F400001020318080020005C08093EBF00470882
:102F5000C000E030C101C035C10DC035C10DC03564
:102F6000C10DC2002130C30040084207C40041081F
:102F7000433DC50044088600450887003F0881009E
:102F800008002000B0002130B200D930B100300874
:102F9000AE00AF01AE35AF0DAE35AF0DAE35AF0DF6
:102FA0002E08B1072F08B23D3208AE003108AD003F
:102FB000080005302200D7005008043E860001308A
:102FC000870081014F080319EA2F4F088D31002532
:102FD0009231220022005008043E86000130870012
:102FE00053080102031808005008DC269231EA2F2A
:102FF0009D009E131E179E161E129E101E10080086
:10372000FF3FFF3FFF3F3D08DA3E8C310A008D31FD
:1037300011250800220050089631DC262200D9000D
:103740000330D7000800230019082000D800653096
:103750005802031C06346430D8000634640001307B
:1037600080010131FE020030FF3B7F087E04031917
:103770000034AF2B230019082200BF003F080319B3
:10378000C32B1F30BF00FA2B230019082000E000D4
:10379000D708031DCC2BAC2E6008031903341F304F
:1037A000600203180A3460085702031C0A34DD0A59
:1037B00001302200C2002000033420005E088C3E4D
:1037C000A2002330A301A33D22088600230887001E
:1037D0002300190881002000DE0A5708013EA200DC
:1037E000003003180130A3005E0822062304031DE5
:1037F0000334AC2EFF30C3002000A00122004A0891
:10380000013EDF0005305F020318DF015F08CA00D8
:1038100022302000A4007930A30022005F08F000CD
:103820002330F101F200F301A9279B317008200039
:10383000A3077108A43D2200E201200023088600AE
:1038400024088700413101085906031D712C230803
:103850008600240887004231010B712C2308860062
:1038600024088700010822003F02031C712C20005D
:10387000230886002408870001085802031C712CC5
:10388000A1012308860024088700010821020318EB
:10389000672C2108F600F7012307F8007708243D7C
:1038A000F900780886007908870044310108FA0099
:1038B0005F088C3EFB002330FC01FC3D7B0886004A
:1038C0007C0887007A088100DF0AA10A412C2308BE
:1038D00086002408870001082200E2005F08C30078
:1038E000772C20000530A00A2002031CFE2B01309B
:1038F000F6002000590A7D2CF635890B7C2C7608C1
:1039000022005D0503190C2D20005F08083EF6001B
:10391000003003180130F700803AF8008030780258
:10392000031D942C5808760203180C2D0130F60064
:103930002000590A9C2CF635890B9B2C7608FF3AFF
:103940002200DD0520005F088C3EF6002330F701E1
:10395000F73D760886007708870001308100DF0A8E
:103960005F088C3EF6002330F701F73D76088600AD
:103970007708870002308100DF0A5F088C3EF6007E
:103980002330F701F73D760886007708870022008C
:10399000330881002000DF0A5F088C3EF6002330E8
:1039A000F701F73D76088600770887002200320885
:1039B00081002000DF0A5F088C3EF6002330F7010B
:1039C000F73D760886007708870055088100DF0AF2
:1039D0005F088C3E860023308701873D8101DF0A26
:1039E0005F088C3EF6002330F701F73D760886002D
:1039F000770887002200350881002000DF0A5F0871
:103A00008C3EF6002330F701F73D760886007708F4
:103A1000870033308100DF0A2000A20122085B0208
:103A2000031CF32D2130A600D930A5002208F60092
:103A3000F701F635F70DF635F70DF635F70D760883
:103A4000A5077708A63D2508860026088700473188
:103A50000108003A0319F12D250886002608870081
:103A600001304631F600590A362DF635890B352DD1
:103A7000760801050319F12D5F08083EF6000030B5
:103A800003180130F700803A803C031D492D760869
:103A90005802031CF32D2000250886002608870005
:103AA00001304631F600590A562DF635890B552D51
:103AB0007608FF3A81055F088C3EF6002330F70157
:103AC000F73D760886007708870001308100DF0A1D
:103AD0005F088C3EF6002330F701F73D760886003C
:103AE0007708870002308100DF0A25088600260853
:103AF00087000108FF39F6005F088C3EF70023308D
:103B0000F801F83D7708860078088700760881007C
:103B1000DF0A250886002608870041310108FF39A1
:103B2000F6005F088C3EF7002330F801F83D770877
:103B300086007808870076088100DF0A250886005D
:103B40002608870042310108FF39F6005F088C3EE5
:103B5000F7002330F801F83D7708860078088700E1
:103B600076088100DF0A2508860026088700433191
:103B700001080F39F6005F088C3EF7002330F8018A
:103B8000F83D770886007808870076088100DF0A0C
:103B9000250886002608870044310108FF39F60011
:103BA0005F088C3EF7002330F801F83D7708860067
:103BB0007808870076088100DF0A25088600260835
:103BC000870045310135F6005F088C3EF700233051
:103BD000F801F83D770886007808870076088100AC
:103BE000DF0AA20A0E2D602E23001908FD007D0BAE
:103BF0000A2E22004308FF3A0319012E43088C279E
:103C00009B312000DF01220041082A3A03190A34BF
:103C1000BE01112E2200BE0A06303E0203180A34ED
:103C2000602E23001D122100911223009E164508CC
:103C3000643C2200E100043061020318222EF801E6
:103C4000F901292E6108F800FD30F901F807031C7D
:103C5000F9037808E1006108A2269B31FF30FA01E0
:103C60002200C0001F306102031C502EFB017B08A4
:103C7000E2279B31A9279B317B30D1279B31031D44
:103C80004B2E7B08E2279B31A9279B317C30D12723
:103C90009B310319FA0A0530FB0A7B02031C372EFD
:103CA0002200C2017A0820005D0203185A2E5D0826
:103CB000FA025B2EFA017A08A2269B31862701348C
:103CC0002000D601C9279B315F08A2269B31200026
:103CD0005F0803197B2E5F30F0000030DC279B313A
:103CE00052279B31D6006230F0000130DC279B3137
:103CF00052279B31D60022006208A2269B31FC018C
:103D000020005F087C0203189A2E7C088C3EFA0083
:103D10002330FB01FB3D7A08F0007B08DC279B3158
:103D200052279B31D6007C08E8279B31A2269B3185
:103D3000FC0A802E5F080319A02E5608A2269B318C
:103D400086270934F0002000111EA32E70082300DE
:103D50009A009E180800A92EC9279B3157080319FD
:103D6000142F5E08FA008B30FB01FC002330FD00AD
:103D70007A087C0786007B087D3D87000108A0004B
:103D8000DE03D6015E30F0000030DC279B31522785
:103D90009B31D6006030F0000030DC279B31522789
:103DA0009B31D6008C30F0002330F1005E08F20029
:103DB000F301560852279B31D600C9279B312008B2
:103DC00056060319F42E0030A2269B3186279B311C
:103DD0002000DE012200BE0A06303E02031C013430
:103DE00042082000DD020A345908F000C2302027C2
:103DF0009B3122004008F000C23020279B31200078
:103E0000A1015708210203180F2F2108E8279B3131
:103E1000F000C23020279B312000A10A012FFF3083
:103E2000F000C23020279B310130A2269B3186272B
:103E30009B31220041082A3A031D0A34BE01053491
:103E4000F700770A8600013087000108F100F201CF
:103E50007708053E8600403FF300413FF4007108BB
:103E60007307F5007208743DF60075088600760841
:103E7000870070088100770AEF279B31023E860099
:103E8000770A8400013085000008010203184B2FD7
:103E9000770A860081017708033EEF27033E8600FC
:103EA00001080800F9007108F6007008F5000130FB
:103EB000F2020030F33B720A0319730A0319842FCC
:103EC00075088600760887000108F4000430F4368F
:103ED000890B672F790E0F397406FB278C310A0086
:103EE0009F31F5279B317508860076088700790E8B
:103EF0000F390106FB278C310A009F31F5279B31D2
:103F0000F50A0319F60A572F7908080023009E12B4
:103F10001D16210091160800F800053078020318DC
:103F200008007808E2279B31A9279B317B30BE2708
:103F30009B317808E2279B31A9279B317C30BE2733
:103F40009B317808E2279B31A9279B317930BE2726
:103F50000800F401F501701CB12F7208F407730812
:103F6000F53DF235F30DF136F00C71087004031DC8
:103F7000AB2F7508F1007408F0000800F60022303D
:103F8000F7007008760786007108773D8700810189
:103F9000080023001D122100911223009E1620000C
:103FA0000800F6002230F7007008760786007108D6
:103FB000773D870001080800F100F201F20AF301E1
:103FC00056080800F0002330F101F200F301080068
:103FD0008C3E860023308701873D0108080086005B
:103FE00001308700810A77080800F400790EF03963
:103FF0007406F9000800F700F8010F39CA3E0800FE
:020000040001F9
:04000E00CCCFFFFF55
:00000001FF
