:101400008B31402BFF3FFF3F8A3120007F08A9002E
:10141000911E3C2A2200C608031D102A20001C1120
:1014200021009110003023001D1901302000AC0074
:101430002C0303191E2A23009D1C232A23001908AC
:101440002000AB002C2A210091102200C60A8B310B
:10145000B5238A312200BA0022003A080A3A031959
:10146000342A20002C0B382A8F31C0278A313C2A9D
:101470002200B601200062142700131D512A8B118F
:10148000111121000C152200BA012A30C2008B3143
:10149000B5238A312200BA00B60120006214270069
:1014A000131120009118E22AF02A23001D122100B6
:1014B000911223009D139D1722004508AC002000C7
:1014C000AA01632AAA0A5C08FF3EA700FF3003189E
:1014D0000030A800803A803C031D702A27082A02A9
:1014E00003188F2A2200AC0A20005C0822002C027C
:1014F0000318AC012C08203E86000130870001084B
:101500008B3142238A312C08C50020008D1A622AB3
:101510008B152700111520001C112100911001309E
:101520002200B30020009A019B00EE2A20005A08F6
:10153000203E86000130870001088B3142238A312A
:1015400020005A082200C50020008D1AAF2A8B15F2
:101550002700111520001C1121009110EE2A2100F6
:101560008D1220008D1202302200B30020009C1446
:101570001C1422002E08223E20009B008B31622387
:101580008A312200AD000C30F0002D088F31E427A5
:101590008A31AE0020005C08F00022002D088F3157
:1015A000E4278A312000DA00EE2A21008D168E31E0
:1015B000F3268A3120001C149C105F309B0022000F
:1015C000B301EE2A22003308003A0319552A013AE2
:1015D0000319962A033A0319D52AEE2A20009110FE
:1015E000931C132B2200AA0A0319AB0A590B112BC7
:1015F000A60A0319A70A0030270211300319260290
:10160000031C112B0730A601A701C80A48020318C2
:101610000C2B01308E06112B0E100B3048020318D4
:10162000D901200093100B1D3C2B2200B50A20008D
:10163000621C2D2B033022003602031C2D2B430885
:101640000319292B200061080319292BE10322002B
:10165000C3018F31C0278A31322B2000621C322B0C
:101660002200B60A08302200D40A5402031C3B2B85
:10167000D4017F30D3000B1120002908FF0009009E
:101680009231072AF1002000D900711C4A2B220058
:101690000E174C2B22000E137108F000F036701C50
:1016A000542B22008E17562B22008E137108F00047
:1016B000F036F036701C5F2B22000E160800220058
:1016C0000E1208005B08F0000430F036890B652B21
:1016D0005B08F100F136F136F1365B08F200F236C4
:1016E000F2367208710670065B06F3000130F305EE
:1016F0007308F0000730F035890B7B2B5B367004E4
:10170000DB0008009431002C9431032C9431062C1A
:101710009431092C94310F2C9431152C94310C2CCC
:101720009431122C00340334053407340134093465
:101730000B340D340F341134133400346400013091
:1017400080010131FE020030FF3B7F087E04031957
:1017500000349F2B230019082200BE0065303E0292
:10176000031C06346430BE0006343A08933E8B31C5
:101770000A008C3111240800230019082200BD0042
:101780000234FF3FFF3FFF3FFF3FFF3FFF3FFF3F71
:101800008C318207022C032C042C052C062C072C6F
:10181000082C092C0A2C0B2C0C2C9D31802D94317A
:10182000802C8C318207132C8F31262F8C314F2C3A
:101830008B31BC2B8F31152F8F313A2F8B31AA2B47
:101840008C31452C8C31A02C8E31C02E8C31282C23
:1018500023001908FC007C0B3E2C22004408FF3AB0
:101860000319352C44088E268C312000D801220023
:1018700042082A3A03190A34BB014F2C22000630D1
:10188000BB0A3B0203180A34C02E230019082200A9
:10189000BF003F0803194E2C1F30BF00A02C8F3112
:1018A000AD278C31EC3086002230870043310108AF
:1018B0009B3C2200D700043057020318622CF80129
:1018C000F901692C5708F800FD30F901F807031CED
:1018D000F9037808D7005708E9268C31FF30FA0160
:1018E0002200C1001F305702031C902CFB017B0813
:1018F0000F278C31AB268C313F3004278C31031DF0
:101900008B2C7B080F278C31AB268C314030042781
:101910008C310319FA0A0530FB0A7B02031C772C71
:101920002200C3017A082000610203189A2C610882
:10193000FA029B2CFA017A08E9268C31F32601344D
:10194000FF30C4002000A00122004708013ED6005D
:10195000053056020318D6015608C7002230200071
:10196000A4003D30A30022005608F0002330F1010E
:10197000F200F301AB268C3170082000A307710838
:10198000A43D2200BC012000230886002408870013
:10199000413101085906031D192D2308860024082A
:1019A00087004231010B192D230886002408870087
:1019B000010822003F02031C192D20002308860085
:1019C00024088700010822003E02031C192D200074
:1019D000A1012308860024088700010821020318BA
:1019E0000F2D2108F600F7012307F8007708243DA2
:1019F000F900780886007908870044310108FA0068
:101A000058088C3EFB002330FC01FC3D7B0886001F
:101A10007C0887007A088100D80AA10AE92C2308EB
:101A200086002408870001082200BC005608C40074
:101A30001F2D20000530A00A2002031CA42C013019
:101A4000F6002000590A252DF635890B242D76083D
:101A5000220053050319B12D20005808083EF60056
:101A6000003003180130F700803AF8008030780227
:101A7000031D3D2D22003E0876020318B12D0130D2
:101A8000F6002000590A452DF635890B442D7608BD
:101A9000FF3A2200D305200058088C3EF600233080
:101AA000F701F73D7608860077088700013081004E
:101AB000D80A58088C3EF6002330F701F73D760827
:101AC00086007708870002308100D80A58088C3ECB
:101AD000F6002330F701F73D760886007708870087
:101AE00057088100D80A58088C3EF6002330F701C9
:101AF000F73D760886007708870056088100D80AE7
:101B000058088C3EF6002330F701F73D7608860032
:101B10007708870055088100D80A58088C3E86004F
:101B200023308701873D8101D80A58088C3EF60092
:101B30002330F701F73D76088600770887002200FA
:101B4000310881002000D80A58088C3EF600233066
:101B5000F701F73D7608860077088700013081009D
:101B6000D80A2000A20122085F02031C8D2E21301A
:101B7000A6006B30A5002208F0000730F101F2004A
:101B8000F301AB268C3170082000A5077108A63D33
:101B9000250886002608870046310108003A031907
:101BA0008B2E250886002608870001304531F60077
:101BB000590ADB2DF635890BDA2D76080105031954
:101BC0008B2E5808083EF600003003180130F7004D
:101BD000803A803C031DEF2D760822003E02031C54
:101BE0008D2E20002508860026088700013045310B
:101BF000F600590AFC2DF635890BFB2D7608FF3AC5
:101C0000810558088C3EF6002330F701F73D760831
:101C100086007708870001308100D80A58088C3E7A
:101C2000F6002330F701F73D760886007708870035
:101C300002308100D80A250886002608870001089E
:101C4000FF39F60058088C3EF7002330F801F83DC4
:101C5000770886007808870076088100D80A25086A
:101C600086002608870041310108FF39F600580830
:101C70008C3EF7002330F801F83D7708860078089D
:101C8000870076088100D80A250886002608870084
:101C900042310108FF39F60058088C3EF700233026
:101CA000F801F83D770886007808870076088100FB
:101CB000D80A2508860026088700433101080F3915
:101CC000F60058088C3EF7002330F801F83D7708FD
:101CD00086007808870076088100D80A25088600E3
:101CE0002608870044310108FF39F60058088C3E69
:101CF000F7002330F801F83D770886007808870060
:101D000076088100D80A58088C3E86002330870167
:101D1000873D8101D80AA20AB32DC02EF8000530F4
:101D200078020318080078080F278C31AB268C3115
:101D30003F30F9268C3178080F278C31AB268C3157
:101D40004030F9268C3178080F278C31AB268C3146
:101D50003D30F9260800F401F501701CB32E72081D
:101D6000F4077308F53DF235F30DF136F00C710808
:101D70007004031DAD2E7508F1007408F000080012
:101D80008F31AD278C3120005808E9268C31220094
:101D90003C08E9268C31F101200058087102031833
:101DA000E72E71088C3E860023308701873D0108AD
:101DB000E9268C310A302200D8002200D8035808C6
:101DC000FF3A0319E52E0000DD2EF10ACC2EF32692
:101DD0000934F0002000111EEA2E700823009A003A
:101DE0009E180800F02E23009E121D162100911649
:101DF0000800F6002230F7007008760786007108A8
:101E0000773D870081010800F6002230F700700856
:101E1000760786007108773D870001080800F0000A
:101E20002330F101F200F301080023001908220019
:101E3000C000BD08031D1D2F3A2F400803190334AD
:101E40002000E10A01302200C300033439088C3E2F
:101E5000FA002330FB01FB3D7A0886007B088700EF
:101E60002300190881002200B90A39083D06031D24
:101E700003343A2FAD278F3122003D0803196B2F11
:101E8000EC30F0002230F10020005908F2007A27EF
:101E90008F31EC30F0002230F10022004108F200D6
:101EA0007A278F31F90122003D087902EC30F000E9
:101EB0002230F1000318682F79088C3E8600233009
:101EC0008701873D0108F2007A278F31F90A532FE5
:101ED000FF30F2007A2701308E31E9268F318E31C2
:101EE000F3268F31220042082A3A031D0A340530B6
:101EF000BB010800BA278F310108F300F401700715
:101F0000F5007408713DF6007508053EF7000030D5
:101F1000763DF8007708860078088700720881000F
:101F2000BA278F31B4278F3142317008840071088D
:101F300085000131000801027008860071088700E1
:101F40000318A82F413181017008860071088700AD
:101F50004331B42743310108080023001D1221003A
:101F6000911223009E160800810A700886007108ED
:101F7000870008007008860071088700413108005A
:101F8000200062102200C601D62723001D12210066
:101F900091129231D82220001C149C105F309B00BB
:101FA00019309B002200B301B60108002000D801BF
:101FB00022002B30BD01BE01BB01C2000530BA00BA
:101FC000FF30B901C1000800F2000830F300F4014D
:101FD0007208F1000730F136890BEB2F743571046C
:101FE000F400F23570087402031CF82F7008F40234
:101FF000F30BE82F74080800FF3FFF3FFF3FFF3F50
:10205000FF3FFF3FFF3FFF3FFF3FBD002130BF007D
:102060006B30BE003D08FB219631722690312D0861
:10207000BE072E08BF3D3E089F2090310F39BA00A1
:1020800036083A02031C93283E089F2090313606FA
:10209000F039360681003708BA003E0886003F084E
:1020A00087004331BA0E01083A068F393A0681009B
:1020B0003E0886003F088700443101083806003991
:1020C000380681003E08053EBA0000303F3DBB00A7
:1020D0003A0886003B0887007F3081006008053E93
:1020E000BA00003003180130BB003E0886003F08EC
:1020F000870046313B08803A803C031D81283A081E
:1021000001020318932820006008053EBA003E082B
:10211000063EBB0000303F3DBC003B0886003C084B
:1021200087003A0881002000390803199D283E08DD
:1021300086003F088700433181173D08080086006C
:102140003F08870043310108080032080319AA2814
:10215000310808002000B501B601B801B9013908FD
:102160005F02031CF6282130BB006B30BA0039082F
:10217000FB219631722690312D08BA072E08BB3DFF
:102180003A0886003B08870046310108003A0319E7
:10219000F4283A0886003B0887004331811FF42861
:1021A0003A0886003B088700433101080F39AD002B
:1021B0000C30AE01AF00B00103212D08B7003A0882
:1021C00086003B08870044310108FF39AD00AE01AD
:1021D0003708AF00B0019631722690312D08B5074F
:1021E0002E08B63D3708B807B90AAF28B808031952
:1021F00000343808AD00AE013608B0003508AF0035
:1022000043212D080800B201AE1F0D29AD09AE090A
:10221000AD0A0319AE0AB201B20AB01F1629AF09FE
:10222000B009AF0A0319B00A0130B206B301B40114
:102230002E082D0403193629B101B10AAE1B23293A
:10224000AD35AE0D1D29B335B40D2E083002031D7A
:102250002B292D082F02031C32292D08AF022E082E
:10226000B03B3314AE36AD0CB10B23293208031941
:102270003E29B309B409B30A0319B40A3408AE00FD
:102280003308AD000800B101B2012E082D04031976
:102290006329B301B30AAE1B5029AD35AE0D4A29EF
:1022A000B135B20D2E083002031D58292D082F021A
:1022B000031C5F292D08AF022E08B03B3114AE3647
:1022C000AD0CB30B50293208AE003108AD00080048
:1022D000C600D6219031C700FF3A0319FF342130E0
:1022E000C9006B30C8004708FB2196317226903137
:1022F0002D08C8072E08C93D4808860049088700F0
:102300000108460600394606012290314131010894
:102310003D0600393D0601229031423101083E065A
:1023200000393E0601229031433101083F06F03961
:102330003F0681004008C30048088600490887001E
:102340004331C30E010843068F3943060122903101
:102350004431010841060039410601224331420857
:10236000031D8117031981134808053EC30000307F
:10237000493DC40043088600440887007F3081003F
:102380006008053EC3004808063EC4000030493DD1
:10239000C500440886004508870043088100E00A1C
:1023A00047085F024708031CDF000800B501350835
:1023B000FB219631722690316B30B3002130B4008E
:1023C0002D08330786002E08343D87003630840000
:1023D000003085000730FF0016001A00FF0BEC29C3
:1023E0003C08031DF529350808001E30B50A3502E2
:1023F0000318FF34D729AD000730AE01AF00B0019C
:1024000008008100480886004908870008006B30F2
:102410008400213085008530FE000230FF008B31C2
:102420009E2392315530FD01E20184000030850089
:102430000D30FE00FF018B319E239231203084004D
:10244000013085003930FE00FF018B319E2392312F
:1024500022000130D90020002D2A2030AD000030AC
:10246000C122923113082000D7002130AD00003086
:10247000C122923113082000D6002230AD00003076
:10248000C122923113082000D5002330AD00003066
:10249000C122923113082200AF00200057085506D0
:1024A0002100E400200056085507210064062000A2
:1024B000DB00123021009700FE2292312100E5005E
:1024C0007030990031309800332392314A23923191
:1024D00000302023923123001D122100911223008D
:1024E0009E12EC302000AD002230AE00E02292318E
:1024F000EC30AD002230AE000D30AF0053239231EE
:102500000B302000AD0000300C2392311C2392319F
:1025100065080319922A0030652392310030C523E3
:102520009231010064001B3021009700D8229231C3
:102530000B178B178B1720009C141C1437309B0033
:102540002800950197141714171797161716971543
:102550004C3096001715210093142000950121009E
:10256000951295111515951415148B166423923137
:102570002200D901D90ADC2392313223923164003E
:10258000BB2AAE002D082300910020002E08230056
:1025900092001513951715140000000000000000AC
:1025A000640023001518D12A640023009513080045
:1025B00020009A01FA309B001C152100911408009C
:1025C0002D0886002E08870081012D0886002E0820
:1025D0008700413181012D08023EAF0000302E3DC1
:1025E000B0002F088600300887009A3081002D083F
:1025F00086002E088700433181010800B830200092
:10260000AD000030C122140813082000AF00333A97
:102610000030031901300800AE0062262D082200A8
:10262000B40020002E082200B7002B30C200053075
:10263000BA00FF30C100080019302100BF27080090
:102640002000AD00292B22000E10080022000E14DD
:1026500008002D08003A0319232B013A0319262BF1
:10266000312B0800A62FFF308C008D0006308E0025
:102670002930BF2723008E1120008E118E122300D7
:102680008D120C110E138E130E1022000E138E13CA
:102690000E12080023009D171E159F1507309B0082
:1026A0009C011E120800DD012200D001CC01200097
:1026B0002E082200A90020002D082200A8002000DA
:1026C0002F082200C900080008002000B100B8301F
:1026D000AD00AE017B23923120003108B830AD004F
:1026E0003F30AE000319782B3330AF0000309E2B03
:1026F0000030AF019E2B2D082300910020002E08F2
:102700002300920015139517151615159423923171
:102710002300151164002300151A8B2B640023007D
:1027200095139518912B080055309600AA30960005
:10273000951400000000000000000800B000230015
:102740009517151515121513951620002D08230041
:102750009100200030082300920020002F08230061
:10276000930020002E08230094009423923123002C
:1027700095129423923123001511640023009518BB
:10278000BE2B64002300951308002000B100D03058
:10279000AD00AE017B23923120003108D030AD0076
:1027A0003F30AE000319D82B2730AF0000309E2BEE
:1027B0001130AF0000309E2B6400FF239231640083
:1027C000083022003502031CE92B7D2792312200BC
:1027D000B501EF2392316400F92764000800D9089D
:1027E000031D08000B303802031C08000D303802AE
:1027F000031CFD2B0E10B80108000E1408001A2C43
:102800005A2492311A2C1A2792311A2C51279231BC
:102810001A2C2B2792311A2C6A2492311A2C102749
:1028200092311A2C2A2492311A2C352792311A2CE3
:10283000502492315B2792310038031908005D085B
:102840008400083004020318182C8B310435823EB2
:1028500082001A2C05302000DD00220028088600A6
:102860002908870044318101490803193C2C490893
:102870008C31002492312200220028088600290889
:10288000870044314C080102031808002908200081
:10289000AE00220028082000AD002A2692313C2CF0
:1028A0002000DD012200D001CF01CE01CD01CC01FD
:1028B000CB0108002200B72792312A26923122004C
:1028C000CA0001302000DD00063022004A02031C4D
:1028D0000800502C2200B72792312A26923122007C
:1028E000CF00B72792312A2692312200CE00B72797
:1028F00092312A262200CD0004302000DD0008009D
:10290000640022004F0820005706031DA82C220057
:102910004E0820005606031DA82C22004D0820005A
:102920005506031DA82C2100E10122004C082100BE
:10293000610203180800220029082000AE002200CE
:1029400028082000AD002A2692312100E10A952CAA
:1029500070302200500203180F2D500B102D290843
:102960002000AE00220028082000AD002A26923167
:102970002100DF00220029082000AE0022002808E4
:102980002000AD002A2692312100E00022004A08F2
:102990002100E20022004E082000CA0022004D085B
:1029A0002000CB0022004B08013E2000CC0021007B
:1029B00062082000CD0021005F082000CE00210029
:1029C00060082000CF0022004F08E226923121004B
:1029D000E300FF3A0319102D63082000AD00073013
:1029E000AE01AF00B0017226923170302100DC00E0
:1029F0002130DD0020002D0821005C07860020002A
:102A00002E0821005D3D87000130DE00620A092D9D
:102A1000DE35890B082D5E08FF3A8105102D132540
:102A20002200B80A080029082000AE002200280869
:102A30002000AD002A2692312300BD002200290883
:102A40002000AE00220028082000AD002A26923186
:102A50002300BE00220029082000AE002200280822
:102A60002000AD002A2692312300BF0022004C082E
:102A7000FD3E2300B60022004E082000C0002200C8
:102A80004D082000C10022004F089A2692312300F1
:102A90003F0820005506031D8A2D23003E08200014
:102AA0005606031D8A2D23003D0820005706031DEE
:102AB0008A2D61080319842DE103842D2908200043
:102AC000AE00220028082000AD002A269231230003
:102AD000B700220029082000AE00220028082000AC
:102AE000AD002A2692312200B200320803190800F4
:102AF000230037082200B100080034080319080039
:102B00008C3100242200080022005008703A03197A
:102B10005E2D7D2D23003E082000B30023003F08DA
:102B20002000B40023003D089F318127923123000B
:102B3000BB00FF3A0319252E3B089F31B92792317C
:102B400034082300BA00200033082300B900220013
:102B50005008A83A031DDC2D23003908063E210049
:102B6000DA00003023003A3D2100DB005A088600DD
:102B70005B088700FF308100220029082000AE009A
:102B8000220028082000AD00872692310038031D5E
:102B9000DA2D22004A08A0002300390886003A08EE
:102BA00087004331010E07392200A10002302000C6
:102BB000DC00DC2D622692312300BC01B80136080E
:102BC00038020318FC2D220029082000AE00220044
:102BD00028082000AD002A2692312100DA002300C7
:102BE0003C08A03E86000130870021005A08810081
:102BF0002300BC0AB80ADF2D22004F082100A000E4
:102C000022004E082100A10022004D082100A20050
:102C100022004B08013E2100A30023003D082100B3
:102C2000A40023003E082100A50023003F08210046
:102C3000A600A030A7000130A80023003C08210016
:102C4000A900220050089E31F42620006108031DCF
:102C5000E10308002D0886002E0887000108AF0058
:102C6000B0012D07B10030082E3DB20031088600BA
:102C70003208870045310108B3002D0886002E0870
:102C80008700810A2D0886002E08870042312D0812
:102C900084002E088500000801022D0886002E08F9
:102CA00087000318582E81012D0886002E08870002
:102CB000433181032D0886002E0887004431810AA4
:102CC000330808002200A0010130A1000230A20058
:102CD0000330A3000430A4000530A5000630200016
:102CE000DC000800B101B2012D1C7A2E2F08B107BB
:102CF0003008B23DAF35B00DAE36AD0C2E082D0408
:102D0000031D742E3208AE003108AD0008002D08F6
:102D100086002E0887000108AF00B0012D07B10022
:102D200030082E3DB2003108860032088700453158
:102D3000010808002000C7004008B3004108B400A3
:102D400047089F3181279231C800FF3A03190800D4
:102D50006008053EC200003003180130C300480877
:102D60009131FB219231722692317130C4002130B1
:102D7000C5002D08440786002E08453D87004308FE
:102D8000803A803C031DC62E420801020318080049
:102D900020006008053EC20048089131FB219231B5
:102DA00072267130C3002130C4002D084307C500CE
:102DB0002E08443DC60045088600460887004208A4
:102DC000810008002000D1004A08B3004B08B4007D
:102DD00051089F3181279231D000FF3A031DFF2E09
:102DE0004A08BD004B08BE004C08BF004D08C0009B
:102DF0004E08C1004F08C20051089131682951089E
:102E0000B3004A08B4004B08B5004C08B6004D08A2
:102E1000B7004E08B8004F08B900500890312D286F
:102E200007302000DD002200B72792312A26220039
:102E3000CB0008002200B72792312A269231DE000B
:102E40000230DD0005305E02031C08005E08FF3A18
:102E500003190800502C2200B72792312A2622009D
:102E6000CC0006302000DD00080008302000DD0026
:102E7000220029082000AE00220028082000AD0012
:102E800087269231B400FF3A031D4C2F2200B7274A
:102E900092312A269231502C502402302000DD003D
:102EA00008002200B72792312A262200D0000330E2
:102EB0002000DD000800220028088600290887007D
:102EC000433101082000AD005D08AE0006302E023F
:102ED00003186F2F0030AD08031D013008002E08C5
:102EE000063A031D752F0330C72F2E08073A031D1E
:102EF000013422004C082000C72F2000B8013808F8
:102F00005F02031C08002130B7006B30B6003808A0
:102F10009131FB219231722692312D08B6072E088D
:102F2000B73D360886003708870046310108003A69
:102F30000319A42F36088600370887004631810B15
:102F4000A42F3808D7279231B80A7F2FCC27220028
:102F5000D5009031A52092312200B00055083002F2
:102F6000031CB52F3008B1000800B1010800290882
:102F70002000AE00220028082000AD0008009D00BF
:102F80009E131E179E161E129E101E1008002D0264
:102F9000003003180130080021001C082000AD009B
:102FA0002D09AE0021009D1420002E080800B50058
:102FB0001E303502031808002130B4006B30B30016
:102FC00035089131FB219231722692312D08B307D9
:102FD0002E08B43DE00333088600340887004631EC
:102FE00081015F083506031D08003508031DDF0356
:102FF00008007D1C08002200AA01AB017D1008001A
:1038F000FF3FFF3FFF3FFF3FC60005304602031872
:1039000008003E08093EBF00003003180130C00027
:10391000803AFF0080307F02031D902C1F303F0251
:103920000318080022302000C9003D30C8004608B6
:10393000AD002330AE01AF00B001963172269C314C
:103940002D08C8072E08C93D4908CB004808CA0001
:103950000430CA070318CB0A4808860049088700C4
:10396000423181014808033EBF000030493DC0009C
:103970003F08860040088700013081004808013E6A
:10398000BF000030493DC0003F0886004008870066
:1039900033088100CC014A0886004B0887003408B0
:1039A0008100CC0A3E08033EBF004C08C000C101A4
:1039B0004A07C20041084B3DC30042088600430845
:1039C00087003F088100CC0A4C08BF00C0014A07AD
:1039D000C10040084B3DC2004108860042088700F4
:1039E00035088100CC0A4C08BF00C0014A07C1005D
:1039F00040084B3DC2004108860042088700360857
:103A00008100CC0A4C08BF00C0014A07C100400831
:103A10004B3DC200410886004208870037088100FC
:103A2000CC0A4C08BF00C0014A07C10040084B3D0A
:103A3000C200410886004208870038088100CC0A8D
:103A40004C08BF00C0014A07C10040084B3DC200FE
:103A5000410886004208870039088100CC0A4C08DA
:103A6000BF00C0014A07C10040084B3DC2004108E9
:103A70008600420887003A088100CC0A4C08BF0043
:103A8000C0014A07C10040084B3DC2004108860002
:103A9000420887003B088100CC0AC7013E08470264
:103AA00003186D2D4708BF00C0013C078600400881
:103AB0003D3D87000108C1004C08C200C3014A0710
:103AC000C40043084B3DC5004408860045088700F4
:103AD00041088100CC0AC70A4E2D480886004908D3
:103AE00087004C0881004808023EBF000030493D75
:103AF000C0003F08860040088700013081000800B0
:103B00005008A83A031DFA2D29082000AE00220013
:103B100028082000AD0096312A269D312100D100D1
:103B2000D108031D08008B112700111121000C156D
:103B3000200095018B121C11210091102800950185
:103B40001711210093100B138B1323009D139D1746
:103B50009E121D1221009112123097002500930130
:103B600020008E158E16FF302500910021009D014A
:103B70002700131120009310911093110B138B1336
:103B800023009D138B1322004F082000AD0000304E
:103B9000AE269D319518CA2D22004E082000AD009A
:103BA0000130AE269D319518D32D22004D082000FE
:103BB000AD000230AE269D319518DC2D22004A085A
:103BC0002000AD000330AE269D319518E52D8B13F6
:103BD0000130933165239D319518EC2D8B13013005
:103BE0009331C5239D319518F32D8B13640001008B
:103BF0006400F82D5008A03A031D242E2100C401B2
:103C0000C40AC501C601C701C70AC801C901CA0162
:103C1000CA0ACB01CC0122002F082100CD00CE0121
:103C2000CE0ACF0122004F082100AA0022004E0830
:103C30002100AB0022004D082100AC00C430AD00D3
:103C40000C30AE00A130D82E5008A23A031D080057
:103C50002100D001D201520820005F02031C992EDE
:103C6000210052082000AD000730AE01AF00B001C6
:103C7000963172269D316B302100AF002130B000AB
:103C800020002D0821002F07860020002E0821008B
:103C9000303D8700D3308400003085000730FF00BE
:103CA00016001A00FF0B502E59080319972E5608BC
:103CB0000F39013A031D972E0130AF00560E073918
:103CC000890A632EAF35890B622E2F08D00403308A
:103CD0002000AD002100560E0739CB269D31013E54
:103CE000B13E8600870121005308FF39810003306F
:103CF0002000AD002100560E0739CB269D31023E33
:103D0000B13E8600870121005408FF39810003304D
:103D10002000AD002100560E0739CB269D31033E11
:103D2000B13E8600870121005508FF398100D20A83
:103D30002B2E21005008B10022004F082100AA00BC
:103D400022004E082100AB0022004D082100AC00EB
:103D5000B130AD001330AE00A330D82EAE0023003A
:103D60009518AF2E20002E0823009100920120000C
:103D70002D08230093003F30950503108B1B03147F
:103D80008B13151555309600AA3096009514151111
:103D900003188B1708002000AF00AE012D082F1864
:103DA000AE07AD35AF36AF08031DCE2E2E08080086
:103DB0002000D40057082100A00020005608210050
:103DC000A100200055082100A200A3012A08A40098
:103DD0002B08A5002C08A6002D08A700A8012E0876
:103DE000A90020005408F42E2000CF00210025084F
:103DF0002000B300210026082000B4002100240880
:103E000081279D31D000FF3A0319FE345008B927AD
:103E10003408CE003308CD00D3012230D2003D302B
:103E2000D1005308AD002330AE01AF00B001963190
:103E300072269D312D08D1072E08D23D5208AE00C2
:103E40005108AD004F08AF00210024082000B00049
:103E5000210025082000B100210026082000B20022
:103E6000D0279D310038031D452F51088600520888
:103E7000870042310108031D7B2F5108860052083C
:103E8000870043310108031D7B2F4D0886004E0833
:103E900087004331010E0739B3004F08B4002100F9
:103EA00020082000B500210021082000B6002100D4
:103EB00022082000B700210023082000B8002100BC
:103EC00024082000B900210025082000BA002100A4
:103ED00026082000BB00210028082000BD0021008A
:103EE00027082000BC00210029082000BE0053083C
:103EF0009C317C2400340530D30A53020318FF346C
:103F00000D2F2000B700B80138085F02031CFF34F2
:103F100038089131FB219D31963172269D316B30ED
:103F2000B5002130B6002D08350786002E08363D35
:103F3000870039308400003085000730FF0016000C
:103F40001A00FF0B9F2F3908FF393706031DB72FC3
:103F50003A08FF393306031DB72F3B08FF393406F3
:103F6000031DB72F3F080319B72F38080800B80AF8
:103F7000842F2000B6002130B8006B30B70036081F
:103F8000AD000730AE01AF00B001963172262D08AA
:103F9000B7072E08B83D3808B4003708B30008004A
:103FA000A0302F02031800342D0886002E08870049
:103FB0004231010B00342D0886002E088700443161
:103FC00001082F06031D00342D0886002E088700E7
:103FD0004A3101083006031D00342D0886002E08E2
:103FE00087004B3101083106031D00342D0886007F
:103FF0002E0887004C3101083206031901340034C1
:020000040001F9
:02000E00CCCF55
:00000001FF
