:0E00E000023F003F003F043F013F023FFF3F51
:10020000000081312029FF3F813120007F08CF008D
:10021000911E0D298231272281312700131D1329B8
:100220008231182281312000911C192982319322B8
:1002300081310B1D1D2987319B274F08FF000900C5
:1002400020000308A000813125298C308400233050
:1002500085006430FE00FF018731B62781312130EF
:10026000E8018400003085002930FE00FF0187315D
:10027000B627813121002030E901EA01EB01EC01D0
:10028000ED01EE01EF018400013085003E30FE00FB
:10029000FF018731B627200084318A2C23001908FA
:1002A0002000AE002E08031957291F30AE00582930
:1002B000C7013A083206031D82293B0B82293C0BF9
:1002C00082293D082E02031C8229F3013D08730296
:1002D0000318802973083F3E86000130870001081B
:1002E000F00046088C3EF1002330F201F23D710827
:1002F00086007208870070088100C60AF30A662922
:100300003D08C7000130F000320A8729F035890B1B
:100310008629700836050319CB294608083EF000E7
:10032000003003180130F100803AF2008030720290
:10033000031D9C292D0870020318CB290130F00001
:100340002000320AA429F035890BA3297008FF3A4E
:10035000B605CD21813101308100C60ACD21813120
:1003600002308100C60ACD21813121006B08810055
:100370002000C60ACD21813121006A0881002000B9
:10038000C60ACD21813125088100C60AD8218131D4
:10039000D8218131D82183313A2B46088C3EF00098
:1003A0002330F101F13D70088600710887000800D4
:1003B00046088C3E860023308701873D8101C60AAE
:1003C00008000034003407340E3409341C341B3464
:1003D0001234153438343F34363431342434233431
:1003E0002A342D34033405340734013409340B34F2
:1003F0000D340F34113413340034FF3FFF3FFF3FFF
:10040000002A82318207032A87317E2F8231612AB6
:100410008731D02F8731C22F8331892B8731CB2F62
:1004200081314E298131582983313A2B8231492A31
:10043000242282312000A9012A30B0006524A801BD
:1004400068142700131108008B1111110800B4085B
:10045000031D2C2AFA228231003023001D1901309D
:100460002000CE004E030319382A23009D1C3C2A8D
:100470002300190884317F2C210091102000B40A38
:100480006524823129080A3A03193A2AA801681416
:100490000800230019082000BE003E0B5B2A470815
:1004A0000319552A01303924823130082A3A0319B8
:1004B0000A34AA01612AAA0A06302A0203180A3459
:1004C0003A2B8C2282312100EE08031D702A013064
:1004D000EE002000B8010130C901C90AAF00732A3B
:1004E0002000C901AF011F30F0004908802282318D
:1004F0008023823120004908802382313324013453
:10050000F200F10170087218F107F035F236F208C6
:10051000031D822A7108080023001D122100911278
:1005200023009E1608006400EB2A86315226823191
:1005300023009D139D1720003208BF00F5010630EF
:10054000BF0A3F020318BF013F081B23823120006E
:100550008D1AAF2A17238231FA228231B42A05304C
:10056000F50A7502031C9F2A01302000B3009A018E
:100570009B00F72A40081B23823120008D1AC52AD0
:1005800017238231FA228231F72A21008D122000AE
:100590008D120230B3009C141C144208223E9B00B2
:1005A00045248231C1000C30F0004108FF22823125
:1005B000C2000630F0004108FF228231C000F72A55
:1005C00021008D163324823120001C149C105F30D2
:1005D0009B00B301F72A20003308003A0319952A3B
:1005E000013A0319BA2A033A0319E02AF72A20002C
:1005F0009110080020001C11210091100800F20049
:100600000830F300F4017208F1000730F136890B6D
:10061000062B74357104F400F23570087402031C63
:10062000132B7008F402F30B032B740808008B15CE
:10063000270011150800F100B200711C222B2200C6
:100640000E17242B22000E137108F000F036701CD8
:100650002C2B22008E172E2B22008E137108F000F7
:10066000F036F036701C372B22000E1608002200E0
:100670000E1208002000AB018C22823120004608B7
:1006800080238231200046080319562B4630F000A3
:1006900000306E248231FF238231AB004730F000FE
:1006A00000306E248231FF238231AB004708802363
:1006B0008231FC01200046087C020318782B7C085C
:1006C0008C3EFA002330FB01FB3D7A08F0007B08EA
:1006D0006E248231FF238231AB007C088C3E860081
:1006E00023308701873D010880238231FC0A5A2B81
:1006F000460803197E2B2B088023823133240934CA
:10070000F000111E812B700823009A009E1808002B
:10071000862B8C22823120002C080319CE2B450811
:10072000FA008B30FB01FC002330FD007A087C07C7
:1007300086007B087D3D87000108CA00C503AB0128
:100740004530F00000306E248231FF238231AB004F
:100750004830F00000306E248231FF238231AB003C
:100760008C30F0002330F1004508F200F3012B0833
:10077000FF238231AB004A082B060319CE2B003031
:1007800080238231332482312000C501AA0A063039
:100790002A02031C0134003039240A3448080319A2
:1007A000F02B2C08B90032082100ED000130EE00DA
:1007B0002000CB012C084B020318ED2B4B08203EE8
:1007C0008600013087004B088C3E84002330850171
:1007D000853D00088100CB0ADA2B0130B800F32BED
:1007E0000030392482310130802382313324823138
:1007F000200030082A3A031D0A34AA010534F90002
:100800007108F6007008F5000130F2020030F33B89
:10081000720A0319730A0319312C750886007608C9
:1008200087000108F4000430F436890B142C790E8B
:100830000F3974067A2481310A008431742482319C
:100840007508860076088700790E0F3901067A242C
:1008500081310A00843174248231F50A0319F60AC1
:10086000042C7908080023009E121D162100911601
:100870000800F000F008031D422C2100EE012000CA
:10088000B8010800BB01BC0108003508F0000430C5
:10089000F036890B482C3508F100F136F136F13687
:1008A0003508F200F236F236720871067006350627
:1008B000F3000130F3057308F0000730F035890BC1
:1008C0005E2C35367004B50008002908F23E8131EF
:1008D0000A00823101222000A9000800F100F20183
:1008E000F20AF3012B080800F400790EF0397406BF
:1008F000F9000800F700F8010F39E23E0800200077
:10090000B401B6268431522684319E25B301A80154
:100910006810080070302100990031309800762668
:1009200084312500930128001E1125009101D0304B
:100930002000DA00C930D900D90B9C2CDA0B9C2C92
:10094000A12C0530282684312000DB00223A03192F
:10095000AE2C64008A31D82A6400AC2C2030D00040
:1009600000301126843113082100EB0021302000D3
:10097000D00000301126843113082100EA00223013
:100980002000D00000301126843113082000A5007B
:100990002330D00000301126843113082100E900F3
:1009A000200025080319D72C2508DF00D92CDF01EA
:1009B000DF0AE0015F08B5001230210097005726DA
:1009C0008431E700640065268431DC006400AB25D7
:1009D0008431E3006400200067080319292D0030EA
:1009E000282684312000E4000130282684312000AC
:1009F000E5000230282684312000E6000330282656
:100A000084312000DD006408FF3A031D112D6508C4
:100A1000FF3A031D112D6608FF3A031D112DE70152
:100A2000252DFF30D0000030893152218431FF3034
:100A30002000D0000130893152218431FF30200064
:100A4000D000023089315221843100308931D021E7
:100A500084312000E708031D512DDC08031D512DB2
:100A60008B131230210097002000630303193C2DE3
:100A700001303F26843164008B13D0302000E10028
:100A80000730E20020006208610403194D2D013097
:100A9000E1020030E23B0000422D8A31D82A640096
:100AA0004F2D630803195A2D00303F26013089313C
:100AB000E9218431640023009D171E159F1507301E
:100AC0009B009C011E126400522684316400732630
:100AD0008431640064001B30210097009E2584311E
:100AE0000B178B179501210095129511151595146B
:100AF00015148B1622000E14200067080319942D7C
:100B000064002000AA30DE01D0006408D10065082E
:100B1000D2006608D3005E30D400D501D50A5D0846
:100B200089316F21843164002000380803199B2D1E
:100B300088313520843164002000942D20009A01F2
:100B4000FA309B001C152100911420009C141C14E9
:100B500037309B00080020000030D001112684317E
:100B6000C82684310318D70A0030D001D00A1126D4
:100B70008431D12684310318D30A0230D0000030EA
:100B800011268431BF2684310318D50A5708113A3B
:100B90008A3003195606031DFF345308123A0A30EF
:100BA00003195206031DFF345508293A5404031D46
:100BB000FF340430D000003011268431C82684313F
:100BC0000318D70A0530D000003011268431D12611
:100BD00084310318D30A0630D00000301126843146
:100BE000BF2684310318D50A5308123A0A30031974
:100BF0005206031DFF3455082A3ADC300319540607
:100C0000031DFF345708113A8A3003195606031999
:100C100000345708153A8A3003195606031901346F
:100C2000FF34D10050082300910020005108230018
:100C30009200151395171514000000000000000025
:100C4000640023001518212E64002300951308006A
:100C50002000D0002C2E20006400230095182B2E9D
:100C6000200050082300910092013F309505151493
:100C70000310151803140030093D13080800200064
:100C8000D5008B13D001D10193266400003086314A
:100C9000DA268431640020005508873106278B133B
:100CA0006400080023001D12210091120800B830D2
:100CB0002000D00000301126140813082000D200B4
:100CC000333A0030031901300800D0302000D00042
:100CD00000301126140813082000D200113A003009
:100CE000031D0130080023009E120800FF308C0015
:100CF0008D0006308E0029309D009E131E179E1613
:100D00001E129E101E1023008E1120008E118E12B6
:100D100023008D120C110E138E130E1022000E13D1
:100D20008E130E1208005008230091002000510875
:100D3000230092001513951715161515AC2684314E
:100D40002300151164002300151AA32E640023004C
:100D500095139518A92E080055309600AA309600D4
:100D60009514000000000000000008002B30C601B0
:100D7000B0000530A900FF30C501AF00080014081D
:100D80002000D500D401230013082000D407080058
:100D900014082000D700D601230013082000D6072E
:100DA000080014082000D300D201230013082000FB
:100DB000D20708002000D4008B13003A0319E42E58
:100DC000013A0319F42E052F11306F278631382789
:100DD0008631200012306927863138278631742702
:100DE00086310030D201382F15306F2786313827F1
:100DF00086312000163069278631382786317427DE
:100E00008631B030D2000030382F0800D4008B1368
:100E1000003A03190F2F013A0319232F372F0430FB
:100E2000D00011307A278631382786316127863104
:100E30003827863106302000D0002930D100043018
:100E4000D2000030382F0430D00015307A27863198
:100E500038278631612786313827863106302000D1
:100E6000D0002A30D100DC30D2000030382F08000A
:100E7000D30023009517151515121513951620008C
:100E80005008230091002000530823009200200006
:100E9000520823009300200051082300940086315B
:100EA000AC268631230095128631AC26863123008C
:100EB00015116400230095185A2F64002300951320
:100EC000080005302000D0001230D1000A30D200D6
:100ED0000034D001D00AD1000A30D2000034D00151
:100EE000D1008A30D200003402302000D0002930F6
:100EF000D1000800D1008A30D200003445088C3E71
:100F0000CC002330CD01CD3D4C0886004D08870034
:100F10002300190881002000C50A2C08013ECC00DE
:100F2000003003180130CD0045084C064D04031D68
:100F300003348331892B681CAC2F03302802031C37
:100F4000AB2F2F0BA72F0030843139248731843108
:100F50007F248731AC2FA80A0A30B70A3702031C56
:100F6000B42FB7017F30B6000B11080064000130C8
:100F700080010131FE020030FF3B7F087E0403192F
:100F80000034B72F230019082000C800AC08031D47
:100F900003348331892B230019082000AD00063467
:100FA000230019082000AC000234FF3FFF3FFF3F41
:100FB000FF3FFF3FFF3FFF3FFF3FFF3FFF3FFF3F41
:100FC000FF3FFF3FFF3FFF3FFF3FFF3FFF3FFF3F31
:100FD000FF3FFF3FFF3FFF3FFF3FFF3FFF3FFF3F21
:100FE000FF3FFF3FFF3FFF3FFF3FFF3FFF3FFF3F11
:100FF000FF3FFF3FFF3FFF3FFF3FFF3FFF3FFF3F01
:10100000FF3FFF3FFF3FFF3FFF3FFF3FFF3FFF3FF0
:10101000FF3FFF3FFF3FFF3FFF3FFF3FFF3FFF3FE0
:10102000FF3FFF3FFF3FFF3FFF3FFF3FFF3FFF3FD0
:10103000FF3FFF3FFF3FFF3FFF3FFF3FFF3FFF3FC0
:10104000FF3FFF3FFF3FFF3FFF3FFF3FFF3FFF3FB0
:10105000FF3FFF3FFF3FFF3FFF3FFF3FFF3FFF3FA0
:10106000FF3FFF3FFF3FFF3FFF3F220020082100DF
:10107000DF0070305F02031842282100EE012000DB
:10108000B80108006D08E40022002108FD3E21009F
:10109000DB00220022082100E500220023082100B5
:1010A000E600220024082100E70022002608210093
:1010B000DC00220027082100DD0022002808210092
:1010C000DE005C086B06031D3D285D086A06031DF3
:1010D0003D285E0820002506031D3D282100E30170
:1010E0005B086302031881286308B03E860087010D
:1010F0006308293E84000130850000088100E30A6E
:101100007028EE012000B80121005F08A03A031901
:101110003529063A0319A9280E3A0319F828033A83
:10112000031993285129B6218831A301A401210074
:101130003008EC0031082000A20021003208200015
:10114000A100AC305A228831D401D50121006408B5
:101150006F292000A30A0319A40A21003008E20025
:101160003108E0000A306202031C0800E801680848
:10117000A03E860087016808023EB03E84008501DB
:10118000000881001030E80A6802031CB7286008D4
:101190002000D000A030D100210062080322883155
:1011A000210062082000C300210060082000C40064
:1011B0002100EF0A6F086C060319E72820002208B7
:1011C0002402031DE52821082302031CF428210022
:1011D000A730EF0120005A2288314330D40002307A
:1011E000D500210064086F21013022008E0608001E
:1011F0003008E100610BFD284F2AE108031D0800BB
:101200008B1365082000D0000030522188319518DA
:101210000729210066082000D000013052218831C2
:1012200095181029210067082000D00002305221B3
:10123000883195181929210064082000D000033056
:1012400052218831951822298B130130D021883101
:10125000951828298B130130E921883195182E29FA
:101260008B1364000100640033290230CF00043086
:10127000D001D101D2000230D301D30AD400D5016C
:10128000D601D7016908D800A130D901DA012000C0
:101290005A228831CF30D4000C30D50021006408A8
:1012A0006F290800D1002300951853292000510808
:1012B00023009100920120005008230093003F304A
:1012C000950503108B1B03148B13151555309600D1
:1012D000AA3096009514151103188B1708002000EA
:1012E000D70020003B0B762964007129BC01013036
:1012F000BB005708BA005508093EBD00500822003F
:10130000BF0020005508033E2200C00021006B08EA
:101310002200C10021006A082200C2002000250826
:101320002200C300C401200051082200C500200093
:1013300052082200C600200053082200C7002000E7
:10134000D801550858020318B3295808483E8600AA
:101350000130870058085407D60084008501000832
:101360008100D80AA1290130BC000800D830200033
:10137000D2000A30D300640020005308D100520884
:10138000D00086319326883120302000D207031800
:10139000D30A530200300319520203180800BB2974
:1013A0002000D400B830D000D10186319326883196
:1013B00020005408B830D0003F30D1000319E5298F
:1013C0003330D20000308731382F0030D2018731DE
:1013D000382F2000D400D030D000D10186319326A0
:1013E000883120005408D030D0003F30D10003199C
:1013F000FE292730D20000308731382F1130D2003B
:1014000000308731382F2000D3008B136400230075
:101410009517151515121513951620005008230061
:10142000910020005308230092002000D40154357D
:101430005107D20086008701413F2300940020001D
:1014400054355107D20086000108230093008631ED
:10145000AC2688312300910A20000730D40A5402B8
:10146000031C172A230095122000510886008701CB
:101470004E3F230093002000510886004F3F230079
:1014800094008631AC2688312300151164002300B6
:101490001518472A6400230095138B170800123093
:1014A00097008B130130D021013086313F268A31DD
:1014B000D82A0800D000210065082000D1002100B2
:1014C00066082000D200210067082000D300080031
:1014D000FF3FFF3FFF3FFF3FFF3FFF3FFF3FFF3F1C
:1014E000FF3FFF3FFF3FFF3FFF3FFF3FFF3FFF3F0C
:1014F000FF3FFF3FFF3FFF3FFF3FFF3FFF3FFF3FFC
:10150000FF3FFF3FFF3FFF3FFF3FFF3FFF3FFF3FEB
:10151000FF3FFF3FFF3FFF3FFF3FFF3FFF3FFF3FDB
:10152000FF3FFF3FFF3FFF3FFF3FFF3FFF3FFF3FCB
:10153000FF3FFF3FFF3FFF3FFF3FFF3FFF3FFF3FBB
:10154000FF3FFF3FFF3FFF3FFF3FFF3FFF3FFF3FAB
:10155000F03FFF3FFF3FFF3FFF3FFF3FFF3FFF3FAA
:1015B0008A31DC2AFF3FFF3F8A31DE2A3D3084003A
:1015C00022308500B330FE000130FF008D31D2257E
:1015D0008A312030CD018400003085002530FE00A6
:1015E0000030FF008D31D2258A3120008A2BF40093
:1015F000B830F000F101CC248A317408B830F00022
:101600003F30F1000319082B3330F2000030652C15
:101610000030F201652CF400D030F000F101CC2450
:101620008A317408D030F0003F30F10003191C2BD0
:101630002730F2000030652C1130F2000030652CAC
:10164000F5008B13F001F101CC248A3164000030E5
:1016500030238A31640075085C238B136400080012
:10166000F4008B13003A0319392B013A0319482B64
:101670005B2B1130F0014A258A3165248A31123002
:1016800038258A3165248A3102304E258A31652C0D
:101690001530F0014A258A3165248A311630382503
:1016A0008A3165248A310230F0002930F100B030EF
:1016B000F2000030652C0800F4008B13003A031987
:1016C000652B013A0319752B892B04303E258A318D
:1016D00065248A3105302C258A3165248A3106300B
:1016E000F000293054258A31652C0430F000153083
:1016F0004A258A3165248A3105302C258A316524B2
:101700008A310630F0002A30F100DC30F20000307F
:10171000652C080099248A311230210097000B13A0
:101720008B1364007030210099002C309800FC2449
:101730008A3119258A311D122100911223009E122F
:1017400022258A31A830F0000A30842413082000B2
:10175000C7008D3158258A312000C800470603197B
:10176000BF2BC030F0001F30F100CC248A31C030D4
:10177000F0001F30F101F20165248A310100E030F0
:10178000F0001F3084248A3113082000C90064004F
:10179000E130F0001F3084248A3113082000CA0091
:1017A0006400E230F0001F3084248A3113082000E6
:1017B000CB0064002030F000F101CC248A316400B9
:1017C0002030F0003F30F10020004908F2000030E6
:1017D00065248A3164002130F0003F30F1002000A0
:1017E0004A08F200003065248A3164002230F0009B
:1017F0003F30F10020004B08F200003065248A31B0
:1018000064001830F00184248A3113082000CC00D1
:101810002330F0003F30F1004C08F2000030652426
:101820008A3124303E258A3165248A3125302C25A1
:101830008A3165248A3126304E258A3165248A31E1
:10184000703044258A3165248A31713032258A31DD
:1018500065248A31723032258A3165248A317330A9
:10186000F0003F3054258A3165248A3174303225A6
:101870008A31F20A65248A31753044258A3165241B
:101880008A310030F7228A3101300B238A3100304F
:1018900020238A312230F0000530E3248A316400AD
:1018A00099248A31D0302000C5000730C6002000BE
:1018B000460845040319622C0130C5020030C63BBE
:1018C0000000572C01008A31DC2AF3002300951711
:1018D00015151512151395167008910073089200CE
:1018E0007208930071089400C2248A312300951273
:1018F000C2248A31230015116400230095187D2C21
:101900006400230095130800F10070082300910083
:1019100071089200151395171514000000000000BF
:101920000000640023001518922C64002300951316
:1019300008008B112700111121000C1520009501C2
:101940008B121C1121009110280095011711210004
:1019500093100B138B1323009D139D179E121D12C2
:101960002100911212309700222521009D012700AD
:10197000131120009310911093110B138B1323005C
:101980009D13080055309600AA309600951400006B
:10199000000000000000080070082300910071089A
:1019A00092001513951715161515C2248A312300B8
:1019B000151164002300151ADA2C64002300951316
:1019C0009518E02C0800F10023009518E42C71080C
:1019D00091009201700893003F30950503108B1B16
:1019E00003148B13151555309600AA3096009514E4
:1019F000151103188B170800FF308C008D0006307E
:101A00008E0029309D009E131E179E161E129E10DA
:101A10001E1023008E1120008E118E1223008D12B5
:101A20000C110E138E130E1022000E138E130E12B5
:101A3000080023009D171E159F1507309B009C0171
:101A40001E1208002500930128001E1120008E118F
:101A50008E12250091010800F0001230F1000A30CA
:101A6000F2000034F0003F30F1000030F2010800D5
:101A7000F001F00AF1000A30F2000034F0001130F9
:101A8000F1008A30F2000034F0003F30F100023003
:101A9000F2000034F1008A30F2000034F000293006
:101AA000F1000030F2010800F1000430F2000034CF
:101AB0000130FA01FB01FC007B08F0007C088C314E
:101AC00084248D319330AE258D317A258D31FA0005
:101AD0009430AE258D317A258D31FA00FB0A031939
:101AE000FC0A0A307C02A83003197B02031C5C2D1F
:101AF0007A080800F9007108F6007008F500013056
:101B0000F2020030F33B720A0319730A0319AC2D79
:101B100075088600760887000108F4000430F43662
:101B2000890B8F2D790E0F397406BC258D310A0073
:101B30008D31B6258D317508860076088700790EBF
:101B40000F390106BC258D310A008D31B6258D3146
:101B5000F50A0319F60A7F2D79080800F000013014
:101B6000F100F201F20AF3017A080800F400790E9C
:101B7000F0397406F9000800F700F8010F39C23E89
:101B800008000034003407340E3409341C341B348C
:101B90001234153438343F34363431342434233459
:101BA0002A342D346400013080010131FE020030FE
:101BB000FF3B7F087E0403190034D32DFF3FFF3F16
:10300000183FFF3FFF3FFF3FFF3FFF3FFF3FFF3FB7
:020000040001F9
:04000E00CCCFFFFF55
:00000001FF
