:0E00E000023F003F003F043F013F013FFF3F52
:10020000000081312029FF3F813120007F08CF008D
:10021000911E0D298431272481312700131D1329B4
:100220008431182481312000911C192984319324B0
:1002300081310B1D1D298731B3274F08FF000900AD
:1002400020000308A000813125298C308400233050
:1002500085006430FE00FF018331B42381312130F9
:10026000E4018400003085002930FE00FF01833165
:10027000B423813121002030E901EA01EB01EC01D6
:10028000ED01EE01EF018400013085003E30FE00FB
:100290000030FF008331B423813120004F295623E1
:1002A000813105302A2281312000D900223A0319F8
:1002B0005E2964008A31D82A64005C292030D0008D
:1002C0000030CC22813113082100EB0021302000C6
:1002D000D0000030CC22813113082100EA00223006
:1002E0002000D0000030CC22813113082000A5006E
:1002F0002330D0000030CC22813113082100E900E6
:1003000020002508031987292508E0008929E00134
:10031000E00AE1016008B500123021009700E322F5
:100320008131E30063080319992964002223813194
:1003300064006400F1228131DA00640066228131B8
:10034000E20064002000E308031DB829DA08031D59
:10035000B8298B1312302100970020006203031983
:10036000B4290130412264008B138A31D82AC12973
:1003700062080319C1290030412201308931E72187
:100380008131200063080319DB2900302A228131E2
:100390002000DB0001302A2281312000DC00023005
:1003A0002A2281312000DD0003302A228131200001
:1003B000DE0000303E2364007030210099003130AF
:1003C00098008731E2278131640056238131230070
:1003D0009D171E159F1507309B009C011E1264007F
:1003E0006122813164003B238131640064001B3051
:1003F00021009700542281310B178B1795012100A2
:10040000951295111515951415148B1622000E14BE
:10041000200063080319202A64002000AA30DF01AD
:10042000D0005B08D1005C08D2005D08D3005F30CB
:10043000D400D501D50A5E088931A021813164003C
:10044000200038080319272A88316620813164008A
:100450002000202A2000D0002E2A20006400230043
:1004600095182D2A200050082300910092013F305A
:10047000950515140310151803140030093D1308D1
:1004800008002000D5008B13D001D101FF226400A9
:10049000003086317F268131640020005508863186
:1004A000AD268B136400080020009A01FA309B00EF
:1004B0001C152100911420009C141C1437309B0043
:1004C000080023001D1221009112080020000030B6
:1004D000D001CC228131692381310318D70A003041
:1004E000D001D00ACC228131722381310318D30A82
:1004F0000230D0000030CC228131602381310318DA
:10050000D50A5708113A8A3003195606031DFF34DD
:100510005308123A0A3003195206031DFF345508D6
:10052000293A5404031DFF340430D0000030CC229B
:100530008131692381310318D70A0530D00000309A
:10054000CC228131722381310318D30A0630D000C6
:100550000030CC228131602381310318D50A530841
:10056000123A0A3003195206031DFF3455082A3A7D
:10057000DC3003195406031DFF345708113A8A3042
:1005800003195606031900345708153A8A3003191F
:10059000560603190134FF34D1005008230091009E
:1005A0002000510823009200151395171514000020
:1005B000000000000000640023001518DC2A64001D
:1005C000230095130800B8302000D0000030CC2262
:1005D000140813082000D200333A00300319013008
:1005E0000800D0302000D0000030CC2214081308BE
:1005F0002000D200113A0030031D013008005008DD
:100600002300910020005108230092001513951734
:1006100015161515182381312300151164002300C8
:10062000151A0F2B6400230095139518152B08003D
:1006300055309600AA309600951400000000000086
:1006400000000800D8302000D2000A30D300640037
:1006500020005308D1005208D000FF228131203001
:100660002000D2070318D30A5302003003195202A4
:1006700003180800272B23009E1208002000D40036
:10068000B830D000D101FF22813120005408B830A9
:10069000D0003F30D1000319522B3330D20000304C
:1006A0008631DF2E0030D2018631DF2E2500930106
:1006B00028001E1120008E118E12250091010800C5
:1006C00014082000D500D401230013082000D4070B
:1006D000080014082000D700D601230013082000CA
:1006E000D607080014082000D300D2012300130805
:1006F0002000D207080045088C3ECC002330CD01F5
:10070000CD3D4C0886004D08870023001908810064
:100710002000C50A2C08013ECC000030031801302F
:10072000CD0045084C064D04031D03348531892D49
:100730000034003407340E3409341C341B341234B2
:10074000153438343F3436343134243423342A34A5
:100750002D34033405340734013409340B340D349B
:100760000F3411341334003464000130800101313E
:10077000FE020030FF3B7F087E0403190034B52BD6
:10078000230019082000C800AC08031D033485317C
:10079000892D230019082000AD0006342300190814
:1007A0002000AC000234FF3FFF3FFF3FFF3FFF3F11
:1007B000FF3FFF3FFF3FFF3FFF3FFF3FFF3FFF3F49
:1007C000FF3FFF3FFF3FFF3FFF3FFF3FFF3FFF3F39
:1007D000FF3FFF3FFF3FFF3FFF3FFF3FFF3FFF3F29
:1007E000FF3FFF3FFF3FFF3FFF3FFF3FFF3FFF3F19
:1007F000FF3FFF3FFF3FFF3FFF3FFF3FFF3FFF3F09
:10080000002C84318207032C83317B2B8431612CB3
:100810008331CE2B8331C02B8531892D8331C92B78
:100820008731202F87312A2F85313A2D8431492C69
:10083000242484312000A9012A30B0006526A801B3
:1008400064142700131108008B1111110800B4085B
:10085000031D2C2CFA248431003023001D19013093
:100860002000CE004E030319382C23009D1C3C2C85
:10087000230019088731CD2F210091102000B40AE0
:100880006526843129080A3A03193A2CA801641410
:100890000800230019082000BE003E0B5B2C47080F
:1008A0000319552C01303926843130082A3A0319AE
:1008B0000A34AA01612CAA0A06302A0203180A3453
:1008C0003A2D8C2484312100EE08031D702C013058
:1008D000EE002000B8010130C901C90AAF00732C35
:1008E0002000C901AF011F30F00049088024843185
:1008F0008025843120004908802584313326013445
:10090000F200F10170087218F107F035F236F208C2
:10091000031D822C7108080023001D122100911272
:1009200023009E1608006400EB2C82316122843182
:1009300023009D139D1720003208BF00F5010630EB
:10094000BF0A3F020318BF013F081B258431200066
:100950008D1AAF2C17258431FA248431B42C05303C
:10096000F50A7502031C9F2C01302000B3009A0188
:100970009B00F72C40081B25843120008D1AC52CC4
:1009800017258431FA248431F72C21008D122000A0
:100990008D120230B3009C141C144208223E9B00AE
:1009A00045268431C1000C30F0004108FF24843119
:1009B000C2000630F0004108FF248431C000F72C4B
:1009C00021008D163326843120001C149C105F30CA
:1009D0009B00B301F72C20003308003A0319952C33
:1009E000013A0319BA2C033A0319E02CF72C200022
:1009F0009110080020001C11210091100800F20045
:100A00000830F300F4017208F1000730F136890B69
:100A1000062D74357104F400F23570087402031C5D
:100A2000132D7008F402F30B032D740808008B15C6
:100A3000270011150800F100B200711C222D2200C0
:100A40000E17242D22000E137108F000F036701CD2
:100A50002C2D22008E172E2D22008E137108F000EF
:100A6000F036F036701C372D22000E1608002200DA
:100A70000E1208002000AB018C24843120004608AF
:100A800080258431200046080319562D4630F00099
:100A900000306E268431FF258431AB004730F000F2
:100AA00000306E268431FF258431AB004708802555
:100AB0008431FC01200046087C020318782D7C0854
:100AC0008C3EFA002330FB01FB3D7A08F0007B08E6
:100AD0006E268431FF258431AB007C088C3E860075
:100AE00023308701873D010880258431FC0A5A2D77
:100AF000460803197E2D2B088025843133260934BE
:100B0000F000111E812D700823009A009E18080025
:100B1000862D8C24843120002C080319CE2D450805
:100B2000FA008B30FB01FC002330FD007A087C07C3
:100B300086007B087D3D87000108CA00C503AB0124
:100B40004530F00000306E268431FF258431AB0043
:100B50004830F00000306E268431FF258431AB0030
:100B60008C30F0002330F1004508F200F3012B082F
:100B7000FF258431AB004A082B060319CE2D003027
:100B800080258431332684312000C501AA0A06302D
:100B90002A02031C0134003039260A34480803199C
:100BA000F02D2C08B90032082100ED000130EE00D4
:100BB0002000CB012C084B020318ED2D4B08203EE2
:100BC0008600013087004B088C3E8400233085016D
:100BD000853D00088100CB0ADA2D0130B800F32DE5
:100BE0000030392684310130802584313326843128
:100BF000200030082A3A031D0A34AA010534F900FE
:100C00007108F6007008F5000130F2020030F33B85
:100C1000720A0319730A0319312E750886007608C3
:100C200087000108F4000430F436890B142E790E85
:100C30000F3974067A2683310A008631742684318E
:100C40007508860076088700790E0F3901067A2626
:100C500083310A00863174268431F50A0319F60AB5
:100C6000042E7908080023009E121D1621009116FB
:100C70000800F000F008031D422E2100EE012000C4
:100C8000B8010800BB01BC0108003508F0000430C1
:100C9000F036890B482E3508F100F136F136F13681
:100CA0003508F200F236F236720871067006350623
:100CB000F3000130F3057308F0000730F035890BBD
:100CC0005E2E35367004B50008002908A93E833130
:100CD0000A00843101242000A9000800F100F2017B
:100CE000F20AF3012B080800F400790EF0397406BB
:100CF000F9000800F700F8010F39993E08002000BC
:100D0000D4008B13003A0319892E013A03199A2E45
:100D1000AC2E1130D00116278631DF268631200017
:100D2000123010278631DF2686311A2786310030AF
:100D3000D201DF2E1530D00116278631DF2686310D
:100D40002000163010278631DF2686311A2786319B
:100D5000B030D2000030DF2E0800D4008B13003AF0
:100D60000319B62E013A0319CA2EDE2E0430D00024
:100D7000113016278631DF26863108278631DF2697
:100D8000863106302000D0002930D1000430D20056
:100D90000030DF2E0430D000153016278631DF26D4
:100DA000863108278631DF26863106302000D000C4
:100DB0002A30D100DC30D2000030DF2E0800D30012
:100DC00023009517151515121513951620005008B8
:100DD00023009100200053082300920020005208B5
:100DE000230093002000510823009400833118232E
:100DF0008631230095128331182386312300151183
:100E0000640023009518012F640023009513080047
:100E100005302000D0001230D1000A30D20000345A
:100E2000D001D00AD1000A30D2000034D1008A307B
:100E3000D200003402302000D0002930D100080058
:100E4000230019082000AE002E080319292F1F3097
:100E5000AE002A2FC7013A083206031D542F3B0B60
:100E6000542F3C0B542F3D082E02031C542FF3012A
:100E70003D0873020318522F73083F3E860001306D
:100E800087000108F00046088C3EF1002330F20193
:100E9000F23D710886007208870070088100C60A5A
:100EA000F30A382F3D08C7000130F000320A592FED
:100EB000F035890B582F7008360503199D2F460809
:100EC000083EF000003003180130F100803AF200D3
:100ED00080307202031D6E2F2D08700203189D2FA3
:100EE0000130F0002000320A762FF035890B752F83
:100EF0007008FF3AB6059F27873101308100C60A86
:100F00009F27873102308100C60A9F278731210041
:100F10006B0881002000C60A9F27873121006A08DC
:100F200081002000C60A9F27873125088100AA2753
:100F30008731AA278731AA27C60A85313A2D460864
:100F40008C3EF0002330F101F13D700886007108FD
:100F500087000800C60A46088C3E860023308701B9
:100F6000873D81010800641CC32F03302802031C45
:100F7000C22F2F0BBF2F0030863139268731CD2766
:100F80008731C32FA80A0A30B70A3702031CCB2FB8
:100F9000B7017F30B6000B1108002000B401D9273B
:100FA00082316122873182315422B301A801641059
:100FB00008002B30C601B0000530A900FF30C50184
:100FC000AF000800FF308C008D0006308E00293005
:100FD0009D009E131E179E161E129E101E102300AB
:100FE0008E1120008E118E1223008D120C110E1303
:100FF0008E130E1022000E138E130E120800FF3FE8
:10100000FF3FFF3FFF3FFF3FFF3FFF3FFF3FFF3FF0
:10101000FF3FFF3FFF3FFF3FFF3FFF3FFF3FFF3FE0
:10102000FF3FFF3FFF3FFF3FFF3FFF3FFF3FFF3FD0
:10103000FF3FFF3FFF3FFF3FFF3FFF3FFF3FFF3FC0
:10104000FF3FFF3FFF3FFF3FFF3FFF3FFF3FFF3FB0
:10105000FF3FFF3FFF3FFF3FFF3FFF3FFF3FFF3FA0
:10106000FF3FFF3FFF3FFF3FFF3FFF3FFF3FFF3F90
:10107000FF3FFF3FFF3FFF3FFF3FFF3FFF3FFF3F80
:10108000FF3FFF3FFF3FFF3FFF3FFF3FFF3FFF3F70
:10109000FF3FFF3FFF3FFF3FFF3FFF3FFF3FFF3F60
:1010A000FF3FFF3FFF3FFF3FFF3FFF3FFF3FFF3F50
:1010B000FF3FFF3FFF3FFF3FFF3FFF3FFF3FFF3F40
:1010C000FF3FFF3FFF3FFF3FFF3FFF3F2200200862
:1010D0002100DF0070305F02031873282100EE0149
:1010E0002000B80108006D08E40022002108FD3E40
:1010F0002100DB00220022082100E5002200230855
:101100002100E600220024082100E7002200260832
:101110002100DC00220027082100DD002200280831
:101120002100DE005C086B06031D6E285D086A0660
:10113000031D6E285E0820002506031D6E28210071
:10114000E3015B0863020318B2286308B03E86001F
:1011500087016308293E8400013085000008810072
:10116000E30AA128EE012000B80121005F08A03A9F
:1011700003196629063A0319D9280E3A03192829B2
:10118000033A0319C42882292000A301A4012100E5
:101190003008EC0031082000A200210032082000B5
:1011A000A100AC305A228831D401D5012100640855
:1011B000A0292000A30A0319A40A21003008E20094
:1011C0003108E0000A306202031C0800E8016808E8
:1011D000A03E860087016808023EB03E840085017B
:1011E000000881001030E80A6802031CE728600844
:1011F0002000D000A030D1002100620801228831F7
:10120000210062082000C300210060082000C40003
:101210002100EF0A6F086C06031917292000220825
:101220002402031D152921082302031C242921005F
:10123000A730EF0120005A2288314330D400023019
:10124000D50021006408A021013022008E0608008C
:101250003008E100610B2D294D2AE108031D08002B
:101260008B1365082000D000003083218831951849
:101270003729210066082000D00001308321883101
:1012800095184029210067082000D00002308321F2
:10129000883195184929210064082000D0000330C6
:1012A00083218831951852298B13013083313E23D5
:1012B0008831951859298B130130E7218831951809
:1012C0005F298B1364000100640064290230CF00A1
:1012D0000430D001D101D200D301D30AD401D40A01
:1012E000D501D601D7016908D800A130D901DA01AA
:1012F00020005A228831CF30D4000C30D500210094
:101300006408A0290800D100230095188429200032
:1013100051082300910092012000500823009300FF
:101320003F30950503108B1B03148B131515553097
:101330009600AA3096009514151103188B17080013
:101340002000D70020003B0BA7296400A229BC0184
:101350000130BB005708BA005508093EBD005008CF
:101360002200BF0020005508033E2200C0002100DB
:101370006B082200C10021006A082200C200200080
:1013800025082200C300C401200051082200C50026
:10139000200052082200C600200053082200C70087
:1013A0002000D801550858020318E4295808483E7F
:1013B00086000130870058085407D6008400850154
:1013C00000088100D80AD2290130BC0008002000A2
:1013D000D400D030D000D1018231FF2288312000EA
:1013E0005408D030D0003F30D1000319FC292730F9
:1013F000D20000308631DF2E1130D200003086312D
:10140000DF2E2000D3008B136400230095171515E1
:101410001512151395162000500823009100200086
:101420005308230092002000D40154355107D20004
:1014300086008701413F2300940020005435510766
:10144000D2008600010823009300833118238831DD
:101450002300910A20000730D40A5402031C152AE5
:101460002300951220005108860087014E3F23007B
:1014700093002000510886004F3F230094008331E1
:101480001823883123001511640023001518452AFC
:101490006400230095138B170800123097008B13FC
:1014A000013083313E2388310130823141228A313B
:1014B000D82A0800D000210065082000D1002100B2
:1014C00066082000D200210067082000D300080031
:1014D000FF3FFF3FFF3FFF3FFF3FFF3FFF3FFF3F1C
:1014E000FF3FFF3FFF3FFF3FFF3FFF3FFF3FFF3F0C
:1014F000FF3FFF3FFF3FFF3FFF3FFF3FFF3FFF3FFC
:10150000FF3FFF3FFF3FFF3FFF3FFF3FFF3FFF3FEB
:10151000FF3FFF3FFF3FFF3FFF3FFF3FFF3FFF3FDB
:10152000FF3FFF3FFF3FFF3FFF3FFF3FFF3FFF3FCB
:10153000FF3FFF3FFF3FFF3FFF3FFF3FFF3FFF3FBB
:10154000FF3FFF3FFF3FFF3FFF3FFF3FFF3FFF3FAB
:10155000323FFF3FFF3FFF3FFF3FFF3FFF3FFF3F68
:1015B0008A31DC2AFF3FFF3F8A31DE2AB1308400C6
:1015C000213085003F30FE000230FF008D31D125F3
:1015D0008A312030C6018400003085001E30FE00B4
:1015E0000030FF008D31D1258A3120008A2BF40094
:1015F000B830F000F101D1248A317408B830F0001D
:101600003F30F1000319082B3330F20000306A2C10
:101610000030F2016A2CF400D030F000F101D12446
:101620008A317408D030F0003F30F10003191C2BD0
:101630002730F20000306A2C1130F20000306A2CA2
:10164000F5008B13F001F101D1248A3164000030E0
:1016500030238A31640075085C238B136400080012
:10166000F4008B13003A0319392B013A0319482B64
:101670005B2B1130F00149258A316A248A311230FE
:101680003D258A316A248A3102304D258A316A2CFF
:101690001530F00149258A316A248A3116303D25FA
:1016A0008A316A248A310230F0002930F100B030EA
:1016B000F20000306A2C0800F4008B13003A031982
:1016C000652B013A0319752B892B043043258A3188
:1016D0006A248A31053031258A316A248A310630FC
:1016E000F000293053258A316A2C0430F00015307F
:1016F00049258A316A248A31053031258A316A24A4
:101700008A310630F0002A30F100DC30F20000307F
:101710006A2C08009E248A311230210097000B1396
:101720008B1364007030210099002C309800012543
:101730008A311E258A311D122100911223009E122A
:1017400027258A31A830F0000A30892413082000A8
:10175000C0008D3157258A312000C1004006031991
:10176000BF2BC030F0001F30F100D1248A31C030CF
:10177000F0001F30F101F2016A248A310100E030EB
:10178000F0001F3089248A3113082000C200640051
:10179000E130F0001F3089248A3113082000C30093
:1017A0006400E230F0001F3089248A3113082000E1
:1017B000C40064002030F000F101D1248A316400BB
:1017C0002030F0003F30F10020004208F2000030ED
:1017D0006A248A3164002130F0003F30F10020009B
:1017E0004308F20000306A248A3164002230F0009D
:1017F0003F30F10020004408F20000306A248A31B2
:1018000064001830F00189248A3113082000C500D3
:101810002330F0003F30F1004508F20000306A2428
:101820008A31243043258A316A248A312530312592
:101830008A316A248A3126304D258A316A248A31D8
:101840007030F0003F30F1000230F20000306A24C6
:101850008A31713037258A316A248A3172303725CE
:101860008A316A248A317330F0003F3053258A313F
:101870006A248A31743037258A31F20A6A248A311F
:10188000753037258A31F20A6A248A310030F7220E
:101890008A3101300B238A31003020238A312230F3
:1018A000F0000530E8248A3164009E248A31D0306B
:1018B0002000BE000730BF0020003F083E0403198F
:1018C000672C0130BE020030BF3B00005C2C0100E1
:1018D0008A31DC2AF300230095171515151215130C
:1018E00095167008910073089200720893007108B1
:1018F0009400C7248A3123009512C7248A3123001B
:101900001511640023009518822C640023009513A0
:101910000800F1007008230091007108920015136F
:10192000951715140000000000000000640023005B
:101930001518972C64002300951308008B112700BD
:10194000111121000C15200095018B121C11210092
:101950009110280095011711210093100B138B1380
:1019600023009D139D179E121D122100911212300B
:101970009700272521009D012700131120009310B7
:10198000911093110B138B1323009D1308005530F6
:101990009600AA3096009514000000000000000098
:1019A0000800700823009100710892001513951724
:1019B00015161515C7248A3123001511640023005C
:1019C000151ADF2C6400230095139518E52C0800E8
:1019D000F10023009518E92C71089100920170081C
:1019E00093003F30950503108B1B03148B131515C3
:1019F00055309600AA3096009514151103188B17D0
:101A00000800FF308C008D0006308E0029309D00CC
:101A10009E131E179E161E129E101E1023008E115E
:101A200020008E118E1223008D120C110E138E13B6
:101A30000E1022000E138E130E12080023009D17A5
:101A40001E159F1507309B009C011E1208002500E3
:101A5000930128001E1120008E118E122500910185
:101A60000800F0001230F1000A30F2000034F000FB
:101A70003F30F1000030F2010800F001F00AF100FF
:101A80000A30F2000034F0001130F1008A30F20028
:101A90000034F1008A30F2000034F0002930F10007
:101AA0000030F2010800F1000430F200003401308F
:101AB000FA01FB01FC007B08F0007C088C318924D2
:101AC0008D319330AD258D3179258D31FA009430EB
:101AD000AD258D3179258D31FA00FB0A0319FC0AF9
:101AE0000A307C02A83003197B02031C5B2D7A08A4
:101AF0000800F9007108F6007008F5000130F202E4
:101B00000030F33B720A0319730A0319AB2D7508F1
:101B10008600760887000108F4000430F436890B4B
:101B20008E2D790E0F397406BB258D310A008D314B
:101B3000B5258D317508860076088700790E0F3936
:101B40000106BB258D310A008D31B5258D31F50A91
:101B50000319F60A7E2D79080800F0000130F10023
:101B6000F201F20AF3017A080800F400790EF03964
:101B70007406F9000800F700F8010F39C13E0800AB
:101B80000034003407340E3409341C341B3412344E
:101B9000153438343F3436343134243423342A3441
:101BA0002D346400013080010131FE020030FF3B22
:101BB0007F087E0403190034D22DFF3FFF3FFF3F13
:103000003E3FFF3FFF3FFF3FFF3FFF3FFF3FFF3F91
:020000040001F9
:02000E00CCCF55
:00000001FF
