:020000040000FA
:101400008A31042AFF3FFF3F8A31062ACF30840009
:1014100021308500FE000230FF008B31A2238A318B
:101420002030FD01F701F801F901FA01FB01FC018F
:101430008400003085001630FE00FF018B31A223AE
:101440008A312000232A2A238A3112302100970072
:101450000B138B1370309900313098006D238A3153
:101460008A238A311D122100911223009E12250029
:10147000930128001E1193238A312030F0000030A0
:1014800015238A311308F4002130F00000301523B1
:101490008A311308F5002230F000003015238A311C
:1014A0001308F600C030F0001F30F100F5228A3139
:1014B000E030F0001F30F100F5228A31E030F0001A
:1014C0003F30F1007408F2001F30D7228A31E1303A
:1014D000F0003F30F1007508F2001F30D7228A314A
:1014E000E230F0003F30F1007608F2001F30D722E2
:1014F0008A31F001F101F5228A311530F0019A2389
:101500008A31D7228A311630F001F00A9E238A31BF
:10151000D7228A310230F0002930F1000030F20188
:10152000D7228A310430F00011309A238A31D72231
:101530008A310530F00012309E238A31D7228A3159
:101540000630F0002830F1005430F2000030D7228D
:101550008A315030F000F101F5228A315430F00028
:1015600015309A238A31D7228A315530F00016304F
:101570009E238A31D7228A315630F0002930F1007B
:101580000430F2000030D7228A310530F0015523B3
:101590008A312A238A31C030F0001130F100143032
:1015A000F2001F30D722993100296400D52AF300B8
:1015B00095171515151215139516700891007308D7
:1015C000920072089300710894000B238A31230063
:1015D00095120B238A3123001511640023009518FE
:1015E000EE2A64002300951308007008910071082A
:1015F000920015139517151615150B238A31230024
:10160000151164002300151A022B640023009513A2
:101610009518082B080055309600AA3096009514AE
:1016200000000000000000000800F1007008230026
:101630009100710892001513951715140000000011
:1016400000000000640023001518232B6400230011
:10165000951308008B112700111121000C15200093
:1016600095018B121C112100911028009501171172
:10167000210093100B138B1323009D139D179E12B3
:101680001D1221009112123097002500930193231F
:1016900021009D0127001311200093109110931138
:1016A0000B138B1323009D130800F1009518562B84
:1016B000710891009201700893003F309505031066
:1016C0008B1B03148B13151555309600AA3096000A
:1016D0009514151103188B170800FF308C008D002E
:1016E00006308E0029309D009E131E179E161E1276
:1016F0009E101E1023008E1120008E118E122300CA
:101700008D120C110E138E130E1022000E138E1359
:101710000E12080023009D171E159F1507309B0011
:101720009C011E12080020008E158E16FF30250029
:1017300091000800F1008A30F2000034F1000A3014
:10174000F20000346400013080010131FE020030FB
:10175000FF3B7F087E0403190034A32BFF3FFF3FAC
:103200009A31572A3F3F3F3F99312700131916291A
:1032100021299E31952699319E3189269931043094
:10322000280096009F319C2799311F2920004F08C4
:10323000003A03190929013A031912291F29270005
:1032400013112000931860296A299E319C26993118
:103250009F31962799319E318F2699319E31E226F2
:1032600099310230280096002000D001D00A9F3109
:103270009C27993168299E31A22699312000D001DE
:103280009E319C269931013020009B009A011C152B
:103290002100911468295008003A03192529013AA0
:1032A00003193B2968299E31892699319E319C2634
:1032B00099312000C001C1019F318F2799316829C0
:1032C0004F08003A03194B29013A03195329682979
:1032D00020009310911CE329C20A0319C30AD329C1
:1032E0009E318926993120000630CC0A4C02031801
:1032F000CC014C08F000F1019F311A2799319F3120
:10330000A227993101309B00CE01CE0AE12921008C
:103310008D16023020009B00CE00E12906309B0074
:103320000330CE009F318F279931E1299E318F26BE
:1033300099319F319627993120004108C5004008F6
:10334000C400C001C10114309B00CE014508F30048
:103350004408F200FE30F207FF30F33D0730F00082
:10336000F1019F314B2799317108DC007008DB00B7
:103370005C085B04031DCF290030450209300319A6
:103380004402031CCF299E31952699319C3180241B
:103390009931CF0803191C1521009114E1298B15CF
:1033A00027001215E1294E08003A03197029013A45
:1033B00003198729033A03198E29013A031996291B
:1033C000E12920009110931D2E2A4108C5004008D4
:1033D000C400C001C1011E308600233087000108EF
:1033E000CD004D080A3A031D012A1E3086004131E6
:1033F00001080F3A031D012A1E3086002330870082
:10340000423122000E1420004508F3004408F20067
:10341000FD30F207FF30F33D4D08F000F1019F3120
:103420004B2799317108DC007008DB005C085B04F5
:10343000031D272A450844040319272A28001E11C2
:103440002100931128009C019D3129259931C40147
:10345000C501C001C101CD01CB019311911E09002D
:1034600000304102D23003194002031809001E3017
:10347000D3002330D40040085307D5004108543D01
:10348000D6005508860056088700230019088100D9
:103490002000C00A0319C10A9A014F0B0900280035
:1034A0009C011E152100931528009C0109009A31EA
:1034B000592A1E30840023308500D230FE00FF01DF
:1034C0009F316B279A3120308400003085003130E5
:1034D000FE00FF019F316B279A31A030840000303D
:1034E00085003C30FE00FF019F316B279A31203070
:1034F0008400013085003C30FE00FF019F316B27C6
:103500009A31A0308400013085003C30FE00FF017C
:103510009F316B279A310730DB008E30DC01DD00F4
:103520007C30DE000230DF00DE30E000DD30E10024
:1035300020009A2A70302100990020001530D70110
:1035400078249A3186239A3120001630D701D70A81
:103550007C249A3186239A3102302000D70029300A
:10356000D8000030D90186239A3104306A249A3178
:1035700086239A31053071249A3186239A31063098
:103580002000D7002830D8005430D90000308623DE
:103590009A3120302000D7000030B4239A3113082C
:1035A0002000DF002130D7000030B4239A31130807
:1035B0002000DE002230D7000030B4239A311308F7
:1035C0002000DD00E030D7003F30D8005F08D90090
:1035D0001F3086239A31E1302000D7003F30D800D9
:1035E0005E08D9001F3086239A31E2302000D700D0
:1035F0003F30D8005D08D9001F3086239A31C03093
:103600002000D7001F30B4239A311408223A5030DA
:10361000031D1F2B2000D700D801C6239A31543038
:103620006A249A3186239A31553071249A3186233F
:103630009A3162249A318623803164283A2B200003
:10364000D700D801C6239A3154302000D700153056
:1036500078249A3186239A3155302000D7001630CD
:103660007C249A3186239A3162249A3186239A31B6
:10367000DD239A31F5239A3122000E142000D70160
:10368000D70AD80131249A318B1527001215200052
:103690009A0102309B009C141C141C139C121C12D7
:1036A0009C111C152100911423009D1722009D13CD
:1036B0001D1123009F108D128D131E159F150730AD
:1036C0009B009C011E1220302100980028009714B6
:1036D00017149C0178309D009E141E141E139E1218
:1036E0001E129E112100931128001E1123000C119F
:1036F00021000C158B15270012152000CF01133067
:10370000210097000B178B176400842BDA0023002D
:103710009517151515121513951620005708230037
:10372000910020005A08230092002000590823002D
:103730009300200058082300940055309600AA30CA
:103740009600951400000000000000002300951270
:1037500055309600AA309600951400000000000035
:103760000000230015110800D8005708230091001D
:103770002000580823009200151395171514000017
:103780000000000000002300151008005708230067
:103790009100200058082300920015139517151664
:1037A000151555309600AA309600951400000000BB
:1037B0000000000023001511080064302000D9002B
:1037C000DA01DA015A08D8005908D700C6239A311D
:1037D0001E302000D9070318DA0A18305A029C302C
:1037E0000319590203180800E22B23000E138E134D
:1037F00021000E138E130E1223008D120C118D1347
:1038000021008D160C158D1723000E108E1021002F
:103810000E108E1020008E1023000E1521000E15A4
:1038200023008E1121008E1120008E1121008E1296
:1038300020008E1221008C1220008C1223000C120A
:1038400021000C1220000C1223000C1021000C107F
:1038500020000C1023008C1021008C1020008C10F4
:1038600008005708C800522C22000E138E130E12A7
:10387000080022000E178E130E12080022000E13ED
:103880008E170E12080022000E178E170E12080057
:1038900022000E138E130E16080022000E178E1330
:1038A0000E1608005808003A0319572C612C5708C7
:1038B000840006300402031808009F310435773E67
:1038C0008200080056302000D7002930D80004308C
:1038D000D90000342000D7001130D8008A30D90038
:1038E00000342000D7001230D8000A30D90000344C
:1038F000D8008A30D9000034D8000A30D90000340A
:103900004508F3004408F200FE30F207FF30F33DB3
:103910000730F000F101AC249C317108BF00700841
:10392000BE00A2259C3100303F021E3003193E022A
:1039300003180800E108031D08001D30FC002330B7
:10394000FD0044087C07860045087D3D870001088E
:103950006006031D0800292EF401F50171087004AA
:103960000319CC2CF601F60AF11BB92CF035F10D38
:10397000B32CF435F50D71087302031DC12C7008CA
:103980007202031CC82C7008F2027108F33B741415
:10399000F136F00CF60BB92C7508F1007408F00044
:1039A00008001E30DC269C312000C9001E30860035
:1039B0002330870042310108CA00FC01FD014408A0
:1039C000FB3EF400FF30453DF500F536F40C75087C
:1039D0007D02031DED2C74087C02031808004A08C0
:1039E0007C07F0007D08F5007C08F4002130F435F8
:1039F000F50DF6002330F700740876078600750889
:103A0000773D87000108F1007D08F9007C08F80087
:103A10002230F835F90DFA002330FB0078087A07D8
:103A2000860079087B3D87000108F2004908EE25F1
:103A30009C3120004A087C07F4007D0803187D0AA9
:103A4000F500740A75040319C90AFC0A0319FD0A72
:103A5000DF2CA2259C31E108031D08001D30D10098
:103A60002330D2004408510786004508523D8700A4
:103A700001086006031D08001E3086002330870001
:103A800044310108113A031D8C2D1E30860023306D
:103A9000870047310108113A031D8C2D1E30860026
:103AA000233087004A310108113A031D8C2D1E3046
:103AB0008600233087004C310108113A031D8C2DFC
:103AC0001E308600233087004B310108113A031D58
:103AD0008C2D1E308600233087004D310108113AAD
:103AE000031D8C2D1E308600233087001E3044318C
:103AF000C9269C314731C9269C314A31C9269C319F
:103B00004C31C9269C314B3181018600233087001E
:103B10004D318101CA259C31013022008E061E30B4
:103B200086002330870019304131010203189F2D90
:103B30001E30DC269C31003A03199F2DD124200031
:103B4000CB0108002000E101E0014508C70044085E
:103B5000C600FE30C607FF30C73DF201F30147083B
:103B60007302031DB52D46087202D6269C31031838
:103B7000C82D700786007308713D87000108E007B3
:103B8000D6269C31CE269C31F20A0319F30AAF2DBA
:103B9000CE2608000B138B135030F000F1011426D1
:103BA0009C315430F0001130F1008A30F2000030C6
:103BB000EE259C315530F0001230F1000A30F20051
:103BC0000030EE259C315630F0002930F1000430F1
:103BD000F2000030EE25813100290800F3002300B7
:103BE0009517151515121513951670089100730881
:103BF0009200720893007108940055309600AA3024
:103C000096009514000000000000000023009512AB
:103C100055309600AA309600951400000000000070
:103C2000000023001511080070082300910071089E
:103C30009200151395171516151555309600AA30D4
:103C400096009514000000000000000023001511EC
:103C50000800F801F90120003F087902031D322E07
:103C60003E087802031808007908F1007808F0008F
:103C70000730F200F301A9269C317108FB0070089F
:103C8000FA001E30BE269C315F06031D852E1F30B4
:103C9000BE269C315E06031D852E2030BE269C313B
:103CA0005D06031D852E2430BE269C31723A031D0D
:103CB000852ECB0122000E1001302000CF0095266A
:103CC0009C3189269C319C269C318F269C31A226D2
:103CD0009C312000C001C101473023009B00280017
:103CE0009501DC30960097141714171797161716BE
:103CF00097151715210093142800171123000C1194
:103D000021000C158B1527001215F80A0319F90A62
:103D10002B2E8B112700121121000C1508002300F7
:103D20001D12210091128D16080020001C11210087
:103D3000911020009A010800280095011711210018
:103D40009310080023009E1222001D1521008D17DC
:103D50000800F401F501701CB12E7208F407730815
:103D6000F53DF235F30DF136F00C71087004031DCA
:103D7000AB2E7508F1007408F0000800F60023303F
:103D8000F7007A08760786007B08773D87000108F0
:103D9000080081018600233087001E3470078600EA
:103DA0007308713D87000108E10608001E30F0002D
:103DB0002330F1007208080086002330870041316B
:103DC00001080800F101F20120005F0812279E316E
:103DD00020005E0812279E3120005D0812279E31C8
:103DE0002000480812279E31720820005F065E06F8
:103DF0005D064806723AF200003012279E313230DA
:103E000012279E31403012279E31710820005F0733
:103E10005E075D074807723EF100720812279E3167
:103E20007108122FF0002000111E132F70082300BC
:103E30009A0008007008C8003B2F22000E138E1352
:103E40000E12080022000E178E130E120800220018
:103E50000E138E170E12080022000E178E170E1268
:103E6000080022000E138E130E16080022000E17F3
:103E70008E130E1608007108003A0319402F4A2FBE
:103E80007008840006300402031808009F310435CE
:103E9000833E82000800710870040319662FF40144
:103EA000F40AF11B562FF035F10D502F71087302F3
:103EB000031D5C2F70087202031C622F7008F2024F
:103EC0007108F33BF136F00CF40B562F7308F10038
:103ED0007208F00008006400013080010131FE0228
:103EE0000030FF3B7F087E04031900346C2F9C31A7
:103EF000342C9C31392C9C313E2C9C31432C9C31F0
:103F0000482C9C314D2C9F311D2F9F31222F9F31EA
:103F1000272F9F312C2F9F31312F9F31362F21009A
:103F20008D1623001D162100911608008D13220006
:103F30001D1123009E160800280095011715210069
:103F40009314080021008D1220008D1208003F3FBD
:020000040001F9
:00000001FF
