:020000040000FA
:1000000045C000005EC000005CC000005AC0000097
:1000100058C0000056C000002DC200004FC20000B2
:1000200050C0000030C200004CC000004AC00000B8
:1000300048C0000030C2000044C0000042C00000C0
:1000400064C200003EC000003CC000003AC0000096
:10005000FEC1000036C0000034C0000032C0000005
:1000600030C000002EC000002CC000002AC00000DC
:10007000F8C1000026C0000024C000000F021302D7
:1000800017021B021F02060223020B0211241FBECD
:10009000CFEFD8E0DEBFCDBF12E0A0E0B1E0EAE5EF
:1000A000F9E002C005900D92A637B107D9F712E02A
:1000B000A6E7B2E001C01D92AC39B107E1F702D06A
:1000C0004AC4F2C114BE88E10FB6F8948093600070
:1000D000109260000FBE29E288E190E00FB6F8941C
:1000E000A895809360000FBE209360008EE190E0A1
:1000F00061E023D4D9D08FD08091C90088608093EB
:10010000C9008091C90080618093C90080E076D1E8
:1001100080EF90E00AD4813009F475C024EC39E016
:1001200048EC50E0CA010197F1F721503040D1F777
:100130009FD2882309F461C080EF90E061E0FDD395
:1001400081E08EBBEDD203C010927C02A895809115
:100150007C02882331F0809183028C3311F010925D
:100160007C0280917C02853088F380918502209109
:100170007C0290E0039630E0821793073CF7809171
:100180008402813B09F7809187028823E9F08091FE
:1001900087028130C9F6F8948091C9008F7E8093E0
:1001A000C9008091C900877F8093C900ECD1F5D147
:1001B00007D2ACD0B6D081EF90E062E4BED3E8EADB
:1001C000FDE10995A895FECFF8948091C9008F7E36
:1001D0008093C9008091C900877F8093C900D3D1E3
:1001E000DCD1EED193D09DD081EF90E062E4A5D335
:1001F000E8E8F5E00995A895FECF82EB60E070E0B5
:1002000040E020D09DCF359B9BCF83EB60E070E03A
:1002100040E018D095CF89E18093CC00E8ECF0E085
:10022000808182608083808180648083E9ECF0E05B
:1002300080818861808380818068808386E080936C
:10024000CA000895EF92FF920F931F93CF93DF930D
:10025000182FF62EE72E042F8CE36ED0812F6CD052
:10026000802F6AD08EE368D0002351F08F2D9E2D11
:100270009C01E901899160D09E012F192017D0F3CC
:10028000CDB7DEB7E6E033C3E0ECF0E0808182601A
:100290008083E1ECF0E08081806880831092C4006C
:1002A00086E08093C2000895089A109A0F9A179AD0
:1002B0003A9A429A3E984698509858985198599828
:1002C000539A5B9A52985A98559A5D98569A5E98A6
:1002D000579A5F983F9A479A0A981298219A2998B4
:1002E0003D984598249A2C9A279A2F980B9A139800
:1002F0003C9A44980895E8E6F0E080818860808325
:10030000E3E7F0E08081816080830895E8E6F0E033
:100310008081877F8083E3E7F0E080818E7F808328
:100320000895E8E6F0E080818B7F8083EDE6F0E0E1
:1003300080818F7B80830895982F8091C80085FFEE
:10034000FCCF9093CE008091C80086FFFCCF8091B7
:10035000C80080648093C8000895E1ECF0E08081DB
:100360008F7E80830895E1ECF0E08081877F808339
:100370000895809376028230E9F0833040F0843033
:10038000E9F0843068F45D9A5E9A5F980895882356
:1003900021F45D985E985F980895813039F0089552
:1003A0008530E9F75D9A5E985F9A08955D9A5E9848
:1003B0005F9808955D985E9A5F9808955D985E983D
:1003C0005F9A0895509808958130B1F0882379F0AC
:1003D000613081F0662331F0413039F0442309F473
:1003E000429A0895109A4130C9F742980895179A91
:1003F000613081F71098F0CF1798EACFE82FF0E03E
:10040000E830F10538F4E25CFF4F80C280E061E043
:1004100040E0DACF089581E061E041E0D5CF80E0AF
:1004200060E040E0D1CF80E061E041E0CDCF81E00D
:1004300060E041E0C9CF81E061E040E0C5CF81E00C
:1004400060E040E0C1CF80E060E041E0BDCFF099E6
:100450000C940000F1990C94601CF2990C94C8352E
:100460001895F0998EC1F1990C94901CF2990C9406
:1004700020361895F0990C940000F1990C94301CDA
:10048000F2990C949035F0996BC1F1990C94A81ADB
:10049000F2990C94E834F0990C940000F1990C94C2
:1004A000A813F2990C9478341F920F920FB60F9202
:1004B00011240F900FBE0F901F9018951F920F924E
:1004C0000FB60F9211242F933F934F935F936F9327
:1004D0007F938F939F93AF93BF93EF93FF938EB3CD
:1004E000813089F0FF91EF91BF91AF919F918F91F2
:1004F0007F916F915F914F913F912F910F900FBE20
:100500000F901F901895A3D1EDCF1F920F920FB6A9
:100510000F9211242F933F934F935F936F937F9389
:100520008F939F93AF93BF93EF93FF938EB38230DC
:10053000D9F08430A9F0813089F0FF91EF91BF911B
:10054000AF919F918F917F916F915F914F913F916B
:100550002F910F900FBE0F901F90189551D1EDCF96
:10056000E8EFF3E30995E9CFE8EBF2E10995E5CF90
:1005700092E09093B00084E08093B100909370007B
:100580001092B20008951092B10010927000109273
:10059000B20008958093B3000895109281001092E4
:1005A0006F001092850010928400089582E084BD4F
:1005B00094E095BD80936E0016BC8FEF87BD0895C3
:1005C00015BC10926E0016BC089587BD089547981B
:1005D00087E893E1000001972FEF8F3F9207D1F753
:1005E000479A0895EF92FF921F93CF93DF937C0178
:1005F00010E0C12FD0E0C7018FD1C817D907A0F4F0
:100600008EEF90E0000001972FEF8F3F9207D1F718
:10061000CE0DDF1D888190DE1F5FC12FD0E0C701A6
:100620007BD1C817D90760F3DF91CF911F91FF905D
:10063000EF90089580E091E0D5DF8FE191E0D2CF97
:100640008CE391E0CFCF88E591E0CCCF87E791E0D4
:10065000C9CF8AE991E0C6DF8FEB91E0C3DF8CEF71
:1006600091E0C0CF88E392E0BDCF8FE592E0BACFB2
:100670008EEF90E0000001972FEF8F3F9207D1F7A8
:10068000A6DF2AE0359B0DC0215009F447C087E85A
:1006900093E1000001973FEF8F3F9307D1F7359922
:1006A000F3CF222309F43AC0DDDF8EEF90E00000A3
:1006B00001972FEF8F3F9207D1F7CBDF8EEF90E0BE
:1006C000000001973FEF8F3F9307D1F7BFDF8EEF19
:1006D00090E0000001972FEF8F3F9207D1F7B3DF33
:1006E0008EEF90E0000001973FEF8F3F9307D1F727
:1006F000A7DF8EEF90E0000001972FEF8F3F92076A
:10070000D1F798DF87E893E1000001973FEF8F3F33
:100710009307D1F7AADF5BDF81E0089580E00895B9
:10072000B3DD1BDE20DE10927D0281E080937E022D
:1007300082E080937F0283E08093800284E0809354
:10074000810285E08093820286E080938D023ADE0A
:10075000D2DD789418DF80E00CDE28DF8FEF35CF14
:100760001F920F920FB60F9211248F9380919B02CC
:100770008F5F80939B028F910F900FBE0F901F9001
:1007800018951F920F920FB60F9211242F933F933B
:100790004F935F936F937F938F939F93AF93BF9389
:1007A000EF93FF939091CE0080917C02882311F407
:1007B0009136D9F080917C02E82FF0E0ED57FD4FA3
:1007C00090838F5F80937C02FF91EF91BF91AF91F7
:1007D0009F918F917F916F915F914F913F912F9159
:1007E0000F900FBE0F901F9018958CE3A5DD8CE63F
:1007F000A3DD81E0A1DD8EE39FDD82E69DDDE4CF18
:1008000080919A028F5F80939A0280919A0286303B
:1008100008F408957BDD10929A0280918E028F5F1A
:1008200080938E0290918E0280918D02981710F025
:1008300010928E02A8DE10929B0210929902E09113
:100840008E02F0E0E358FD4F808193DD54CD489B4C
:1008500019C099DE809199028A3040F4E0919902A2
:10086000F0E080919B02E157FD4F808380919902D7
:100870008F5F8093990280919902863030F41092B4
:100880009B02089575DE84E085CE9ADE3FDD80917F
:100890008E028093740280919102833080F0809167
:1008A00074028093780281E08093790280EB68E79C
:1008B00072E042E0C7DC7ADE10929B0208958091DC
:1008C0007402809378021092790280EB68E772E0FC
:1008D00042E0B8DCF0CF2A88398848885F846E848B
:1008E0007D848C849B84AA84B984C884DF80EE8054
:1008F000FD800C811B81AA81B981CE0FD11D0FB65D
:10090000F894DEBF0FBECDBFED010895EE0FFF1FBF
:100910000590F491E02D0994FC0101900020E9F785
:10092000809590958E0F9F1F0895F999FECF92BDE7
:1009300081BDF89A992780B50895262FF999FECFA1
:100940001FBA92BD81BD20BD0FB6F894FA9AF99AEC
:100950000FBE01960895F894FFCF61742B61622059
:100960004175746F5265636F6E6E65637453657421
:100970007570203220350D0A0061742B61622041B0
:1009800075746F5265636F6E6E65637420656E611A
:10099000626C650D0A0061742B616220636F6E6684
:1009A000696720434F44203D203234303730340DC6
:1009B0000A0061742B616220636F6E666967204470
:1009C000656661756C7441757468203D20340D0A4C
:1009D0000061742B616220636F6E666967204465F5
:1009E0006661756C745365637572697479203D2016
:1009F000340D0A0061742B616220636F6E66696753
:100A0000206941504170704944203D2048354D5582
:100A100048535153504B0D0A0061742B616220639F
:100A20006F6E6669672069415050726F746F636FB3
:100A30006C5374724D61696E203D20636F6D2E6D35
:100A40006F64726F626F746963732E637562656C35
:100A50006574730D0A0061742B616220636F6E66AA
:100A600069672069415050726F746F636F6C537483
:100A700072416C74203D20636F6D2E6D6F64726FD8
:100A8000626F746963732E637562656C6574730D50
:100A90000A0061742B616220636F6E666967205380
:100AA000747265616D696E6753657269616C203D32
:100AB0002066616C73650D0A0061742B61622063AE
:100AC0006F6E6669672052657365740D0A00FF00DA
:100AD0003F3F3F3F3F3F3F3F3F3F3F3F3F3F3F3F26
:100AE0003F3F3F3F3F3F3F3F3F3F3F3F3F3F3F3F16
:100AF0003F3F3F3F3F3F3F3F3F3F3F3F3F3F3F3F06
:100B00003F3F3F3F3F3F3F3F3F3F3F3F3F3F3F3FF5
:100B100045C000005FC000005DC000005BC0000079
:100B200059C0000057C0000055C0000053C000006D
:100B300051C000004FC000004DC000004BC000007D
:100B400049C0000047C0000045C0000043C000008D
:100B500041C000003FC000003DC000003BC000009D
:100B600039C0000037C0000035C0000033C00000AD
:100B700031C000002FC000002DC000002BC00000BD
:100B800029C0000027C0000025C0000017061B0672
:100B90001F06230627060E062B06130611241FBE6A
:100BA000CFEFD8E0DEBFCDBF11E0A0E0B1E0EAEDCD
:100BB000F3E202C005900D92A032B107D9F713E01D
:100BC000A0E2B1E001C01D92A137B107E1F744D224
:100BD0000C94EB119DCF8130B1F0882379F0613016
:100BE00081F0662331F0413039F0442309F4429A10
:100BF0000895109A4130C9F742980895179A6130C4
:100C000081F71098F0CF1798EACFE82FF0E0E8309E
:100C1000F10540F4EA53FA4F0C94CA1080E061E009
:100C200040E0D9CF089581E061E041E0D4CF80E099
:100C300060E040E0D0CF80E061E041E0CCCF81E0F7
:100C400060E041E0C8CF81E061E040E0C4CF81E0F6
:100C500060E040E0C0CF80E060E041E0BCCFDC017C
:100C600013962C9113972223B1F08C911496ED9149
:100C7000FC911597E80FF11DE0818F5F8C93129620
:100C80009C911297981728F0215013962C938E2F31
:100C900008951C92F9CFE0E08E2F08958091F9021B
:100CA000882309F085C0F8948091C80085FFFCCFA7
:100CB0008CE38093CE008091C80085FFFCCF8EE648
:100CC0008093CE008091C80085FFFCCF85E18093A2
:100CD000CE008091C80085FFFCCF8EE38093CE00CC
:100CE000909123018091C80085FFFCCF9093CE00A6
:100CF000909122018091C80085FFFCCF9093CE0097
:100D0000909121018091C80085FFFCCF9093CE0087
:100D1000E1EEF2E090818091C80085FFFCCF9093D6
:100D2000CE00319682E0E43EF807A1F7319690813B
:100D30008091C80085FFFCCF9093CE00319682E071
:100D4000E83EF807A1F7319690818091C80085FFB1
:100D5000FCCF9093CE00319682E0EC3EF807A1F7ED
:100D6000319690818091C80085FFFCCF9093CE0092
:100D7000319682E0E03FF807A1F7319690818091AB
:100D8000C80085FFFCCF9093CE00319682E0E43F0F
:100D9000F807A1F7319690818091C80085FFFCCFBC
:100DA0009093CE00319682E0E83FF807A1F778945F
:100DB00008952C9885E08EBD0DB407FEFDCF8EB54D
:100DC000809323039FEF80910F01813089F49EBDB2
:100DD0000DB407FEFDCF8EB58093240380912403CC
:100DE00080FDF1CF10920F0180910F01813079F3D6
:100DF00081E080930F012C9A0895809358038230EC
:100E0000910501F18330910550F084309105F1F0A6
:100E10008430910568F45D9A5E9A5F980895009712
:100E200021F45D985E985F980895019739F00895D0
:100E30000597E9F75D9A5E985F9A08955D9A5E98C6
:100E40005F9808955D985E9A5F9808955D985E98A2
:100E50005F9A0895AF92BF92CF92DF92EF92FF9286
:100E60000F931F93DC018091620381508093620392
:100E70008091620306E2A02E01E0B02EF501E80F9A
:100E8000F11D8081F501EA0FFB1F808380916203D1
:100E900014E4C12E11E0D12EF601E80FF11D80817E
:100EA000F601EA0FFB1F808380916203F2E6EF2ECA
:100EB000F1E0FF2EF701E80FF11D8081F701EA0F45
:100EC000FB1F80838091620300E811E0F801E80FC6
:100ED000F11D8081F801EA0FFB1F8083809162037E
:100EE0006EE971E0FB01E80FF11D8081FB01EA0F63
:100EF000FB1F8083809162034CEB51E0FA01E80F05
:100F0000F11D8081FA01EA0FFB1F8083809162034B
:100F10002AED31E0F901E80FF11D8081A20FB31F26
:100F20008C9380916203A80EB11C9AE7F50190831F
:100F300080916203C80ED11CF601908380916203F8
:100F4000E80EF11CF701908380916203080F111DD8
:100F5000F801908380916203680F711DFB019083FB
:100F600080916203480F511DFA01908380916203C2
:100F7000280F311DF90190831F910F91FF90EF9081
:100F8000DF90CF90BF90AF900895CF92EF920F93E4
:100F9000982F3E2D8091D602882311F0CC20A9F104
:100FA000809162038E3188F5363078F1E0916203EA
:100FB000F0E0EA5DFE4F9083E0916203F0E0EC5BCD
:100FC000FE4F6083E0916203F0E0EE59FE4F4083F4
:100FD000E0916203F0E0E058FE4F2083E09162036D
:100FE000F0E0E256FE4F0083E0916203F0E0E4544B
:100FF000FE4F3083E0916203F0E0E652FE4FC08284
:10100000809162038F5F809362030F91EF90CF9086
:101010000895089A109A0F9A179A3A9A429A3E9807
:10102000469850985898519A5998539A5B98529864
:101030005A98559A5D98569A5E98579A5F983F9A33
:10104000479A0A981298219829983D9845983C9873
:1010500088B18F6E88B90895A6E0B0E0E2E3F8E0C9
:101060000C94AE1014BE88E10FB6F8948093600023
:10107000109260000FBE29E288E190E00FB6F8946C
:10108000A895809360000FBE20936000F89488EBD1
:1010900092E19A83898388EA93E19A83898388EA33
:1010A0009AE19A83898380E39CE19A83898380E62D
:1010B0009CE19A83898380E99CE19A83898382E019
:1010C0008EBB81EF90E00E94D511182F823409F475
:1010D000DDC784E08093650381E08093D1021092A4
:1010E000D502F89431E030931201309311012FE0D2
:1010F00088E190E00FB6F894A895809360000FBE49
:1011000020936000A8953B9A43981092D1021092C8
:10111000DE0280E18093DF0230934C038AE090E0AE
:1011200090938900809388008DE0809381001092D5
:1011300085001092840080916F00826080936F0020
:10114000F999FECF88EC90E092BD81BDF89A80B508
:101150008093D702F999FECF89EC90E092BD81BDD2
:10116000F89A80B58093D802F999FECF8AEC90E086
:1011700092BD81BDF89A80B58093D9028091C90053
:1011800080688093C9008091C80082608093C80005
:1011900089E18093CC0086E88093CA008091C900E1
:1011A00088608093C9008091C90080618093C900E4
:1011B00030DFF999FECF84E690E092BD81BDF89AC8
:1011C00080B580932101F999FECF85E690E092BD2C
:1011D00081BDF89A80B580932201F999FECF86E609
:1011E00090E092BD81BDF89A80B580932301F99972
:1011F000FECF87E690E092BD81BDF89A80B58093DE
:101200000201209121018091220190912301820FFE
:10121000890F8093240190912401809102019817F5
:1012200039F08FEF80932101809322018093230175
:1012300081E090E0E2DD94E09093680080E48093A8
:101240006D0084B5826084BD82E387BD83E085BD87
:1012500016BC80916E00826080936E0082E0809365
:10126000B0009093B300179A109A429A81E080934D
:1012700012018093110180910C01813009F403C7A0
:101280008091C00082608093C0008091C10080681E
:101290008093C1001092C40086E08093C2008091C8
:1012A0000C01813009F4DCC6249A2C9A2698259AE0
:1012B000279A8CE58CBD2C9886E08EBD0DB407FE78
:1012C000FDCF8EB5809323032C9A2C9889E38EBD95
:1012D0000DB407FEFDCF8EB5809323031EBC0DB465
:1012E00007FEFDCF8EB5809323031EBC0DB407FE11
:1012F000FDCF8EB5809323031EBC0DB407FEFDCF3A
:101300008EB5809323032C9A10922501429A7894EB
:1013100080912301609122014091210122E600E0A9
:10132000B0EAEB2EA2E9CA2E30DE82ED90E038D78B
:1013300080936B0390936C03109267031092680381
:1013400081ED8093690310926A03359B03C081E0AD
:1013500080934A037894123409F427C1A8958091A8
:101360000C01882309F461C080910C01813009F4DB
:10137000B9C180912501882309F4A8958091D202F2
:101380009091D30201969093D3028093D2028091E0
:10139000D4028F5F8093D4028091D102882371F0B0
:1013A0002091D102213009F4B7C1213008F46CC07A
:1013B000223009F49DC1233009F454C01092E00298
:1013C00090914F03913009F467C080910C018130F6
:1013D00009F40EC180914803813009F4D8C090917E
:1013E0006A03992309F4BACF80916703E0916B03F4
:1013F000F0916C03E80FF11DE081E33209F001C1C7
:101400008091FC02882329F48091FD02882309F44D
:10141000A7C1992309F4A2CF87E693E020DCA89521
:1014200080910C01882309F09FCF8091D5028130F3
:1014300009F447C1209153032F5F20935303822F58
:1014400066E06CD6892F90E0909355038093540307
:1014500030E02F7030702B5F3F4F30935703209355
:10146000560387CF8091D2029091D30260ED77E04E
:1014700061D6892B09F0A2CF8091D002882309F090
:101480008BC1A1E0A093D002109A1092E00290913B
:101490004F03913009F099CF80910C01882309F016
:1014A00094CF8091CC029091CD02A091CE02B091C8
:1014B000CF020196A11DB11D8093CC029093CD0265
:1014C000A093CE02B093CF02A0905B03B0905C03D8
:1014D000950122503040C90167E070E02BD670932F
:1014E0005E0360935D031092060110920701309332
:1014F000600320935F032115310509F4AEC5A0E018
:10150000B0E0FD01E850FE4F808190910701890F06
:1015100080930701808190910601892780930601BD
:101520001196A217B30768F3A850BE4F8C91909103
:1015300006018927809306011092060180915D03C0
:1015400090915E034E9778F480910601882359F4B8
:10155000E7EFF1E0AE0EBF1ED5019C91809107012F
:10156000981709F42CC1F89480916E0082608093E2
:101570006E0094E090936800A0E4A0936D00109238
:101580004F03789480914803813009F028CF8091EF
:101590004903882309F023CF80914A03813009F061
:1015A0001ECF109248037ADB1ACF8091C80085FFC6
:1015B000FCCF8CE38093CE008091C80085FFFCCFE8
:1015C0008FEB8093CE008091C80085FFFCCF81E037
:1015D0008093CE008091C80085FFFCCF8EE380937E
:1015E000CE008091C80085FFFCCF1092CE00B6CE11
:1015F000913009F0EFCE80910D01813009F0EACEF3
:1016000050CFE33309F081C38091FC02882309F0B5
:1016100000CF8091FD02882309F0FBCE8091190351
:10162000882309F0F6CEE1E0E0934903E093D1028C
:10163000E093D502109281001092850010928400F0
:10164000109289001092880080916F008D7F8093A6
:101650006F0087E693E003DBF1E0F0930C012C9838
:1016600086E08EBD0DB407FEFDCF8EB580932303BB
:101670002C9A2C9882E58EBD0DB407FEFDCF8EB559
:10168000809323031EBC0DB407FEFDCF8EB580935F
:1016900023031EBC0DB407FEFDCF8EB5809323033C
:1016A0001EBC0DB407FEFDCF8EB5809323032C9A8C
:1016B00080DB8091C80085FFFCCF84E38093CE005F
:1016C0004DCE809151039091520301969093520315
:1016D000809351038436910509F0ACCE359BB8C296
:1016E0004298A8CE80910D01813009F042CE9DCE66
:1016F0008091D2029091D30264E670E01BD5892BD1
:1017000009F05CCE8091D002882309F045C091E0B9
:101710009093D002109A52CE8091CC029091CD023B
:10172000A091CE02B091CF024497A105B10508F473
:1017300045CE8091D0028823B1F1813009F03ECEB0
:101740001092D00282E190E0A0E0B0E08093CC0261
:101750009093CD02A093CE02B093CF0210982ECEDC
:1017600087E693E07CDA8091C80085FFFCCF85E2B4
:101770008093CE001098F999FECF8EE190E092BD53
:1017800081BDB1E0B0BDFA9AF99A82E390E092BDD2
:1017900081BDB0934A03E2CD813009F00FCE1092A3
:1017A000D00210980BCE2093D0021092CC0210924F
:1017B000CD021092CE021092CF02109AFFCDE0918E
:1017C0000E01F0E0E75FFC4FB1E0B08380915D0374
:1017D00090915E03892B01F140E050E026E030E07B
:1017E00011C0F901EA50FE4F80818F5F80834F5F07
:1017F0005F4F80915D0390915E03295F3F4F4817D3
:10180000590750F4F901E850FE4F808187FFE9CF76
:101810008081863860F3E5CF8091FC01813009F446
:101820001DC28091FE01803409F414C220915D0331
:1018300030915E03C901880F991F880F991F880F87
:10184000991F8217930709F414C12224332492E0CC
:10185000492E512C81E0682E712C03E0802E912CB2
:1018600065C0D5018C91813071F4E0E5EC93F40111
:10187000E850FE4F808180934B0380910E0180934E
:10188000100180914B03D5018C91873609F499C0E2
:101890008C91893609F495C0F5018081873609F469
:1018A0008CC080818A3609F488C0D5018C918D3630
:1018B00011F410925003F50180818B3649F4F40144
:1018C000E850FE4F808180936603E0E5D501EC93FC
:1018D000D5018C91823609F4A4C0D101A850BE4F25
:1018E0009C9180912301981709F46EC0F5018081C5
:1018F000833609F480C087E090E0280E391E2091DD
:101900005D0330915E03480E591E680E791E880EE5
:10191000991EC901880F991F880F991F880F991F59
:10192000821B930B2816390608F0A3C01EEFA12EC8
:1019300011E0B12EA20CB31CF5018081833709F0B0
:1019400090CF80914403813009F08BCF10924403F3
:1019500080911003609111034091120320E000E098
:10196000B5E2EB2EA0E9CA2E10DB8091C80085FFFE
:10197000FCCFFAE5F093CE00109884E08093430307
:101980009AE09093DF021092DE0210924C03A1E0E5
:10199000A0934D03E4EFF1E0F0938900E093880019
:1019A000FDE0F093810010928500109284008091F8
:1019B0006F00826080936F0054CFF1E0F09350038A
:1019C00074CF1092620368CFF301E850FE4F90810C
:1019D00080912201981709F089CFF201E850FE4F5B
:1019E000908180912101981709F485CFF5018081BC
:1019F000833609F080CF8C91F301E850FE4F60816F
:101A0000F201E850FE4F408123E700E0F8ECEF2EB2
:101A1000E4E6CE2EBADAE0E5D501EC93109250035D
:101A20006ACF80915D0390915E03892B09F455CFB5
:101A300000E040E050E020E030E00FC080818E36D2
:101A4000A9F00F5F202F30E0A90180915D039091F4
:101A50005E032817390708F040CFF901E652FE4F20
:101A6000808187FFEBCF8081863840F7CA01F2D9A9
:101A7000E8CF20915D0330915E03C901880F991F63
:101A8000880F991F880F991F8217930709F46BCD50
:101A9000AA24BB2452E0852E912C43E0242E312C25
:101AA00034E0432E512C25E0622E712C9EEFC92E7E
:101AB00091E0D92ECA0CDB1CD6018C91803509F43B
:101AC00096C0A50147505E4FFA0190818091220196
:101AD000981709F4AAC080916203882309F468C0AA
:101AE00020E030E0D501A850BE4F840108501E4FC1
:101AF00088EFE82E81E0F82EE40CF51CC101885037
:101B00009E4F9C838B83F301E850FE4FFE83ED8351
:101B100009C02F5F3F4F8091620390E0281739077B
:101B200008F046C08C91F901EA5DFE4F908189175B
:101B300081F7FA018081F901EC5BFE4F90818917F2
:101B400041F7F8018081F901EE59FE4F9081891724
:101B500001F7F6018081F901E652FE4F9081891765
:101B6000C1F6F1E0F0936103F7019081B90162568B
:101B70007E4FFB018081891760F2EB81FC818081BF
:101B8000F901E058FE4F8083F7018081FB018083DB
:101B9000ED81FE818081F901E454FE4F80832F5F47
:101BA0003F4F8091620390E02817390708F4BACFBD
:101BB000809161038823C9F4F501E850FE4F8081CC
:101BC000DA016C91F401E850FE4F4081F101E850D8
:101BD000FE4F2081F201E850FE4F0081F301E850F2
:101BE000FE4FE080F601C080D0D91092610387E0FB
:101BF00090E0A80EB91E20915D0330915E03880E1F
:101C0000991E280E391E480E591E680E791EC901EC
:101C1000880F991F880F991F880F991F821B930B9C
:101C2000A816B90608F442CF9ECCF401E850FE4F46
:101C3000908180912101981709F04DCFD501A850CE
:101C4000BE4F9C9180912301981709F044CFCFCFCC
:101C5000429AF0CBA0E5A093FE01E8CD8091FE0171
:101C6000803449F08091FE01882329F08091FE01A3
:101C7000813009F0D6CDE0915803AE2FB0E0AA0F25
:101C8000BB1FAA0FBB1F9091F801AF51BD4F8C91A4
:101C9000891731F08091F8018C93F1E0F0934803BB
:101CA000AE2FB0E0AA0FBB1FAA0FBB1F9091F90186
:101CB000AE51BD4F8C91891731F08091F9018C9311
:101CC00081E080934803AE2FB0E0AA0FBB1FAA0F9C
:101CD000BB1F9091FA01AD51BD4F8C91891731F026
:101CE0008091FA018C9391E090934803F0E0EE0F1D
:101CF000FF1FEE0FFF1FEF51FD4F8BE0838380919D
:101D0000FC018F5F8093FC018CCDE533B1F48091B1
:101D1000FC02882309F07DCB8091FD02882309F025
:101D200078CB80911903882309F073CB10924A0372
:101D300087E693E00E942F0611CBE435C1F4809131
:101D4000FC02882309F065CB8091FD02882309F00D
:101D500060CB80911903882309F05BCB81E08093ED
:101D6000FD02943008F097C11092FD02F7CAE133EA
:101D7000E1F48091FC02882309F04BCB8091FD02B5
:101D8000882309F046CB87E693E00E942F068091D6
:101D90001003609111034091120320E000E015E26E
:101DA000E12EB1E7CB2EF1D8D9CAE83309F044C00F
:101DB0008091FC02882309F02CCB8091FD028823BE
:101DC00009F027CB80911903882309F022CBA1E0E9
:101DD000A093FD02933040F287E693E00E942F0625
:101DE000B1E0B093F90287E693E00E942F0680935A
:101DF000220387E693E00E942F068093210310922E
:101E00001D0310921C0310924D0310921B0310929D
:101E10001A03E1E0E0931903E093FD02E093FC0272
:101E200010921F03109220038091C80085FFFCCF01
:101E300082E58093CE0098CFE13609F4A1C0ED365B
:101E4000A1F48091FC02882309F0E3CA8091FD028D
:101E5000882309F0DECA87E693E00E942F06F1E0AE
:101E6000F0934A030E944E0679CAEC3409F1E73533
:101E700009F4B2C0E83709F0CCCA8091FC0288238B
:101E800009F0C7CA8091FD02882309F0C2CA87E61B
:101E900093E00E942F06F89428E088E190E00FB6C6
:101EA000F894A895809360000FBE20936000FFCF48
:101EB0008091FC02882309F0ACCA8091FD0288233E
:101EC00009F0A7CA81E08093FD028093F902109285
:101ED000450310924603943008F446CF87E693E01A
:101EE0000E942F06109262031092030310920403C3
:101EF0001092050310920603109207031092080334
:101F000087E693E00E942F068093100387E693E014
:101F10000E942F068093110387E693E00E942F060C
:101F2000809312038091100360911103409112037A
:101F30002DE701E0A6E1EA2EF2E6CF2E26D886E0D4
:101F4000809343039AE09093DF021092DE02109296
:101F50004C0300934D03A4EFB1E0B0938900A0932C
:101F60008800BDE0B093810010928500109284003B
:101F700080916F00826080936F0000934403F4CEE1
:101F80008091FC02882309F044CA8091FD028823D5
:101F900009F03FCA87E693E00E942F06F8948091EB
:101FA000C80085FFFCCF8CE38093CE008091C800F1
:101FB00085FFFCCF8CE68093CE008091C80085FF22
:101FC000FCCF1092CE008091C80085FFFCCF8EE33D
:101FD0008093CE007894C2C98091FC02882309F0D6
:101FE00018CA8091FD02882309F013CAE1E0E0934A
:101FF000FD02943008F4B8CE87E693E00E942F06E5
:102000001092620387E693E00E942F0680931003EC
:1020100087E693E00E942F068093110387E693E002
:102020000E942F0680931203109262038091100386
:10203000609111034091120320E000E0E2E3EE2EF4
:1020400071E6C72E0E94C5078091C80085FFFCCFAE
:1020500082E58093CE00109887CEA0E0B0E064CAFD
:102060001092FF021092FE0280E090E0FC01ED5F12
:10207000FC4F1082FC01E75FFC4F10820196863016
:102080009105A1F711C980930D01FAC881EF90E085
:1020900060E093D11EC887E693E00E942F0687E692
:1020A00093E00E942F0690912301891709F05CCEDE
:1020B00087E693E00E942F0690912201891709F08C
:1020C00053CE87E693E00E942F0690912101891755
:1020D00009F04ACEF894F999FECF8AE090E092BDDB
:1020E00081BD81E080BDFA9AF99AF999FECF8EE11F
:1020F00090E092BD81BD10BCFA9AF99A82E390E01B
:1021000092BD81BD28E088E190E00FB6F894A895D3
:10211000809360000FBE20936000FFCF991B79E091
:1021200004C0991F961708F0961B881F7A95C9F767
:1021300080950895AA1BBB1B51E107C0AA1FBB1FB6
:10214000A617B70710F0A61BB70B881F991F5A9543
:10215000A9F780959095BC01CD0108952F923F92EB
:102160004F925F926F927F928F929F92AF92BF92A7
:10217000CF92DF92EF92FF920F931F93CF93DF9353
:10218000CDB7DEB7CA1BDB0B0FB6F894DEBF0FBEB0
:10219000CDBF0994EE0FFF1F0590F491E02D099437
:1021A000CF93DF93BC018230910510F462E070E0C0
:1021B000A0916F03B0917003ED01E0E0F0E040E02A
:1021C00050E021C0888199818617970769F48A8138
:1021D0009B81309719F09383828304C0909370039E
:1021E00080936F03FE0134C06817790738F44115F6
:1021F000510519F08417950708F4AC01FE018A8196
:102200009B819C01E9012097E9F641155105A9F14F
:10221000CA01861B970B049708F4BA01E0E0F0E0CE
:102220002AC08D919C91119784179507F9F4641732
:10223000750781F412968D919C911397309719F040
:102240009383828304C09093700380936F03FD0196
:1022500032964FC0CA01861B970BFD01E80FF91F8C
:102260006193719302978D939C9343C0FD0182818A
:1022700093819C01D9011097A1F680916D039091F3
:102280006E03892B41F480911C0190911D01909364
:102290006E0380936D0340911E0150911F01411503
:1022A000510541F44DB75EB780911A0190911B0121
:1022B000481B590B20916D0330916E03241735078D
:1022C000B0F4CA01821B930B8617970780F0AB010D
:1022D0004E5F5F4F8417950750F0420F531F509386
:1022E0006E0340936D03F9016193719302C0E0E0C6
:1022F000F0E0CF01DF91CF910895CF93DF93009766
:1023000009F450C0EC0122971B821A82A0916F033E
:10231000B0917003109709F140E050E0AC17BD0791
:1023200008F1BB83AA83FE0121913191E20FF31FD3
:10233000AE17BF0779F48D919C911197280F391F23
:102340002E5F3F4F3983288312968D919C9113976E
:102350009B838A834115510571F4D0937003C09318
:102360006F0320C012968D919C911397AD01009739
:1023700011F0DC01D3CFFA01D383C28321913191D3
:10238000E20FF31FCE17DF0769F488819981280FC8
:10239000391F2E5F3F4FFA01318320838A819B8151
:1023A00093838283DF91CF910895F999FECF92BDF7
:1023B00081BDF89A992780B50895262FF999FECF07
:1023C0001FBA92BD81BD20BD0FB6F894FA9AF99A52
:1023D0000FBE01960895F894FFCF001C01DD0700A1
:1023E000DDDEC8003701010108010A0101153A9537
:1023F00068C19A842000710300003F3F3F3F3F3F88
:102400003F3F3F3F3F3F3F3F3F3F3F3F3F3F3F3FDC
:102410003F3F3F3F3F3F3F3F3F3F3F3F3F3F3F3FCC
:102420003F3F3F3F3F3F3F3F3F3F3F3F3F3F3F3FBC
:102430003F3F3F3F3F3F3F3F3F3F3F3F3F3F3F3FAC
:102440003F3F3F3F3F3F3F3F3F3F3F3F3F3F3F3F9C
:102450003F3F3F3F3F3F3F3F3F3F3F3F3F3F3F3F8C
:102460003F3F3F3F3F3F3F3F3F3F3F3F3F3F3F3F7C
:102470003F3F3F3F3F3F3F3F3F3F3F3F3F3F3F3F6C
:102480003F3F3F3F3F3F3F3F3F3F3F3F3F3F3F3F5C
:102490003F3F3F3F3F3F3F3F3F3F3F3F3F3F3F3F4C
:1024A0003F3F3F3F3F3F3F3F3F3F3F3F3F3F3F3F3C
:1024B0003F3F3F3F3F3F3F3F3F3F3F3F3F3F3F3F2C
:1024C0003F3F3F3F3F3F3F3F3F3F3F3F3F3F3F3F1C
:1024D0003F3F3F3F3F3F3F3F3F3F3F3F3F3F3F3F0C
:1024E0003F3F3F3F3F3F3F3F3F3F3F3F3F3F3F3FFC
:1024F0003F3F3F3F3F3F3F3F3F3F3F3F3F3F3F3FEC
:102500003F3F3F3F3F3F3F3F3F3F3F3F3F3F3F3FDB
:102510003F3F3F3F3F3F3F3F3F3F3F3F3F3F3F3FCB
:102520003F3F3F3F3F3F3F3F3F3F3F3F3F3F3F3FBB
:102530003F3F3F3F3F3F3F3F3F3F3F3F3F3F3F3FAB
:102540003F3F3F3F3F3F3F3F3F3F3F3F3F3F3F3F9B
:102550003F3F3F3F3F3F3F3F3F3F3F3F3F3F3F3F8B
:102560003F3F3F3F3F3F3F3F3F3F3F3F3F3F3F3F7B
:102570000F931F93CF93DF93809163039091640334
:102580000196909364038093630380915903813093
:1025900009F49BC08130E0F41092680010926D0045
:1025A000809154039091550380930E0180910E0108
:1025B00090E00E94FD06509A58983E9A469881E015
:1025C00087BD80935903DF91CF911F910F9108959B
:1025D000823009F485C08330B1F78091C1008F7ECD
:1025E0008093C10050983E988091C100886080938C
:1025F000C1000091CA021091CB0210935C030093BA
:102600005B031092CB021092CA0280915603909104
:10261000570387BD80916303909164038D5B924063
:10262000C0F11092640310926303809162038823C7
:10263000B9F0C0E0D0E007C021968091620390E03D
:10264000C817D90768F4FE01E454FE4F8081815019
:1026500080838081853080F7CE010E942A07ECCFED
:102660008091F9028823A9F4E1EEF2E091E0838100
:10267000882351F081508383853030F41082118299
:102680001282138290934803349682E0E93FF80760
:1026900071F7C801029767E070E04CDD9093050187
:1026A000809304018091040190910501892B39F1F7
:1026B00084E08093680080E480936D001092590359
:1026C000DF91CF911F910F91089550983E9882E02D
:1026D00087BD80935903DF91CF911F910F9108958A
:1026E0008091C10080618093C10086E087BD83E056
:1026F00080935903DF91CF911F910F910895093075
:102700001105B0F280916E008D7F80936E0081E0A4
:1027100080934F038CE087BD109264031092630393
:10272000CDCF3F3F3F3F3F3F3F3F3F3F3F3F3F3F9B
:102730003F3F3F3F3F3F3F3F3F3F3F3F3F3F3F3FA9
:102740003F3F3F3F3F3F3F3F3F3F3F3F3F3F3F3F99
:102750001F920F920FB60F921124CF92EF92FF9219
:102760000F931F932F933F934F935F936F937F9399
:102770008F939F93AF93BF93EF93FF93DF93CF9389
:1027800000D00F92CDB7DEB78091DE028F5F8093CD
:10279000DE0280914C03882339F09091DE02809113
:1027A000DF02981708F045C080914D03882331F16E
:1027B0009091DE028091DF02981700F11092810063
:1027C0001092850010928400109289001092880067
:1027D00080916F008D7F80936F00109143031630BE
:1027E00009F42EC4173008F045C0123009F400C3B4
:1027F000143009F4A6C2113009F4E0C20F900F9012
:102800000F90CF91DF91FF91EF91BF91AF919F9189
:102810008F917F916F915F914F913F912F911F9178
:102820000F91FF90EF90CF900F900FBE0F901F90E1
:1028300018958091F902882309F064C035995DC22A
:102840008091DA02823008F41BC481E08093D102C7
:102850008093D5021092810010928500109284001E
:10286000109289001092880080916F008D7F809374
:102870006F009ACF183009F446C2183008F065C2CC
:1028800080916E008D7F80936E001092B200109246
:1028900070001092B10010920D0110926800109219
:1028A0006D008091C1008F7E8093C10050983E984A
:1028B0008091C10088608093C1001092620301EE94
:1028C00012E0EE24FF240AC00894E11CF11C0C5F06
:1028D0001F4FF6E0EF16F10409F491C39091100335
:1028E000F8018081891781F79091110381818917FF
:1028F00059F7909112038281891731F7C7010E941D
:10290000FD06E2CF80910B01813009F406C481E01D
:102910008093FD0280913C0390913D03A0913E0382
:10292000B0913F038B83292F3A2F4B2F55272A83B2
:10293000CD01AA27BB2789832C988BE08EBD0DB4CF
:1029400007FEFDCF8EB58093230389818EBD0DB424
:1029500007FEFDCF8EB5809323038A818EBD0DB413
:1029600007FEFDCF8EB5809323038B818EBD0DB402
:1029700007FEFDCF8EB58093230383E68EBD0DB495
:1029800007FEFDCF8EB58093230320E030E09FEF5C
:102990009EBD0DB407FEFDCF8EB5F901E85CFC4F7E
:1029A00080832F5F3F4F2430310591F72C9A80911F
:1029B0003903809340038091390390E09093FF02A4
:1029C0008093FE0280913A0390E0909314038093E9
:1029D000130380913B0390E09093160380931503BB
:1029E00080911303909114032091150330911603E5
:1029F000982F8827820F931F969587959093180399
:102A0000809317038091170390911803909301030B
:102A100080911703909118038093020380913C03E7
:102A200090913D03A0913E03B0913F030596A11DF7
:102A3000B11D609140038983292F3A2F4B2F5527D1
:102A40002A83CD01AA27BB278B832C988BE08EBDD0
:102A50000DB407FEFDCF8EB5809323038B818EBD11
:102A60000DB407FEFDCF8EB5809323038A818EBD02
:102A70000DB407FEFDCF8EB58093230389818EBDF3
:102A80000DB407FEFDCF8EB58093230383E68EBD84
:102A90000DB407FEFDCF8EB5809323036623A1F00E
:102AA00020E030E09FEF20FD25C1E22FEF5F9EBDCB
:102AB0000DB407FEFDCF8EB5F0E0EB5DFC4F8083DB
:102AC0002F5F3F4F261778F32C9A809145038F5F35
:102AD0008093450380914503843109F4F2C28091CB
:102AE0000103882309F08AC080910203873009F02E
:102AF00085C010924C0383E190E09093FF02809395
:102B0000FE028FE480930103809302032091FE0272
:102B10003091FF028091C00085FFFCCF822F8E5F35
:102B20008093C600909101038091C00085FFFCCF87
:102B30009093C600909102038091C00085FFFCCF66
:102B40009093C6008091FE029091FF0220910103B4
:102B50005091020352278E5F58272091FE02309138
:102B6000FF024091010380910203480F4E5F420F24
:102B70008091FE029091FF02892BA1F020E030E0CD
:102B800061E18091C00085FFFCCF6093C6005627AD
:102B90004F5E2F5F3F4F8091FE029091FF022817FA
:102BA000390778F38091C00085FFFCCF5093C600B1
:102BB0008091C00085FFFCCF4093C60082E08093E7
:102BC00043038093DF021092DE0210924C0381E0F7
:102BD00080934D0384EF91E0909389008093880067
:102BE0008DE0809381001092850010928400809186
:102BF0006F00826080936F00109A62C08091010321
:102C0000882309F4D5C02091FE023091FF02809103
:102C1000C00085FFFCCF822F8E5F8093C60090910D
:102C200001038091C00085FFFCCF9093C600909176
:102C300002038091C00085FFFCCF9093C600809175
:102C4000FE029091FF02209101035091020352274E
:102C50008E5F58272091FE023091FF0240910103C0
:102C600080910203480F4E5F420F8091FE029091C7
:102C7000FF02892BC9F020E030E0F901EB5DFC4F49
:102C800090818091C00085FFFCCF9093C600808129
:102C900058278081480F2F5F3F4F8091FE0290910F
:102CA000FF022817390748F38091C00085FFFCCF49
:102CB0005093C6008091C00085FFFCCF4093C600B2
:102CC0002091400380913C0390913D03A0913E03ED
:102CD000B0913F030896A11DB11D820F911DA11D4A
:102CE000B11D80933C0390933D03A0933E03B093AA
:102CF0003F035ACDE22FE150DACE81E08093D1023A
:102D00008093D50251CD1092420310921903109274
:102D1000FC0210921D0310921C032C9A0E94D906EB
:102D200090911F0380912103981709F405C2109A0E
:102D300090911F038091C80085FFFCCF9093CE0037
:102D4000A89581E08093250159CD193009F056CD21
:102D50001092FD02109247031092620380E060E03F
:102D600040E020E000E0AAEAEA2EF0E6CF2E0E9442
:102D7000C50710988091C80085FFFCCF8CE3809335
:102D8000CE008091C80085FFFCCF88E58093CE00FF
:102D90008091C80085FFFCCF1092CE008091C800C2
:102DA00085FFFCCF8EE38093CE0010920C0126CDE0
:102DB00080910203882309F49CCE25CF1092DE0275
:102DC00080E18093DF0210934C038AE090E09093BF
:102DD0008900809388008DE08093810010928500A7
:102DE0001092840080916F00826080936F0006CD06
:102DF00010921F03109220031092210310922203BD
:102E00003A9A42988091C90080688093C900809165
:102E1000C80082608093C80089E18093CC0086E876
:102E20008093CA008091C90088608093C900809116
:102E3000C90080618093C9000E94090881E090E088
:102E40000E94FD0694E09093680080E480936D00FA
:102E500084B5826084BD82E387BD83E085BD16BCF6
:102E600080916E00826080936E001093B00090930A
:102E7000B30080910C01813009F46DC18091C000D4
:102E800082608093C0008091C10080688093C100FF
:102E90001092C40086E08093C20080910C018130C2
:102EA000E1F41092FF021092FE02109203031092BE
:102EB0000403109205031092060310920703109268
:102EC00008031092090310920A0310920B03109248
:102ED0000C0310920D0310920E03109262031092D5
:102EE000FC021092FD028DED809306018EED809321
:102EF000070110925C0310925B0310926003109222
:102F00005F0310925E0310925D0387E090E0909360
:102F100005018093040110926403109263031092E0
:102F2000590310925A0310925503109254031092B1
:102F3000570310925603109261031092530310929C
:102F400066031092200110924B031092FB02109224
:102F5000FA021092FC021092FD021092CC02109222
:102F6000CD021092CE021092CF0281E08093D00267
:102F700080930C011092FF021092FE021092000347
:102F8000109201031092020380930D0110920F031F
:102F9000109214031092130310921603109215034B
:102FA000109218031092170388E080930E0110927C
:102FB000190310921B0310921A0310921D03109212
:102FC0001C03109A109A8091C80085FFFCCF8CE3F7
:102FD0008093CE008091C80085FFFCCF88E5809368
:102FE000CE008091C80085FFFCCF1092CE0080916A
:102FF000C80085FFFCCF8EE38093CE00FFCB80918D
:10300000C00082608093C0008091C100806880937E
:10301000C10088E08093C40086E08093C2001092D3
:10302000000391E0909343038AE08093DF021092C3
:10303000DE0210924C0390934D0384EF91E0C7CED3
:10304000109262038091100360911103409112036A
:1030500021E001E0ECE0EE2E72E7C72E0E94C507EA
:1030600087E0809343038AE08093DF021092DE02C0
:1030700010924C0381E080934D0384EF91E0A7CE42
:103080008091DB029091DC0201969093DC028093A8
:10309000DB0220910801309109018217930708F49F
:1030A00083CB80910A01883309F48BC0893309F4FA
:1030B00074C0873309F452C01092DC021092DB0214
:1030C00073CB10924503809146038F5F8093460334
:1030D0008091C80085FFFCCF8CE38093CE00809167
:1030E000C80085FFFCCF85E58093CE008091C800A5
:1030F00085FFFCCF81E08093CE008091C80085FFE2
:10310000FCCF8EE38093CE00909146038091C8005F
:1031100085FFFCCF9093CE00E2CC909141039923A0
:1031200021F4809341031098F2CB913009F0EFCB5A
:1031300010924103109AEBCB9091200380912203CF
:10314000981709F0F4CD8091C80085FFFCCF89E580
:103150008093CE0053CB80930D0190CE8091DD0201
:103160008F5F982F8093DD02823009F442C0833054
:10317000C9F1813031F48091D7020E940506909107
:10318000DD02933059F188E380930A0188EC90E0E6
:1031900090930901809308018FCF80E00E9405067B
:1031A0001092DD028091DA028F5F8093DA0287E36A
:1031B00080930A0182EC91E09093090180930801C9
:1031C0007BCF80E00E94050687E380930A0186E9B1
:1031D00090E090930901809308016ECF89E380937A
:1031E0000A01D4CF8091D9020E9405069091DD0298
:1031F000C8CF8091D8020E9405069091DD02C1CF10
:103200003F3F3F3F3F3F3F3F3F3F3F3F3F3F3F3FCE
:103210003F3F3F3F3F3F3F3F3F3F3F3F3F3F3F3FBE
:103220003F3F3F3F3F3F3F3F3F3F3F3F3F3F3F3FAE
:103230003F3F3F3F3F3F3F3F3F3F3F3F3F3F3F3F9E
:103550001F920F920FB60F9211246F927F928F924B
:103560009F92AF92BF92CF92DF92EF92FF920F9312
:103570001F932F933F934F935F936F937F938F93FB
:103580009F93AF93BF93CF93DF93EF93FF9380917C
:103590005A03882309F0E3C01092B2001092700021
:1035A0001092B1008091C10088608093C100809129
:1035B000C1008F7E8093C10050983E981092B20057
:1035C000109270001092B10080914703882309F097
:1035D000E6C080916203882309F43DC100E010E059
:1035E00070E0E02FF0E056E2852E51E0952E8E0E31
:1035F0009F1ED4019C918091C00085FFFCCF9093C9
:10360000C60044E4A42E41E0B42EAE0EBF1ED50188
:103610009C918091C00085FFFCCF9093C60032E65C
:10362000C32E31E0D32ECE0EDF1ED6019C918091A9
:10363000C00085FFFCCF9093C600D4018C91D501CA
:103640004C91D6016C91EF01C058DE4F58812EE9A4
:10365000622E21E0722E6E0E7F1ED3013C919CEBF8
:10366000E92E91E0F92EEE0EFF1ED7012C91E652C5
:10367000FE4F908184271827162715271327122716
:10368000192798818091C00085FFFCCF9093C600D8
:10369000D3019C918091C00085FFFCCF9093C60020
:1036A000D4018C91D5019C91D6012C913881D30104
:1036B0004C91D7015C916081890F780F720F730F65
:1036C000740F750F760F2C918091C00085FFFCCF91
:1036D0002093C60060818091C00085FFFCCF60937D
:1036E000C6000F5F80916203081708F47ACF8091BB
:1036F000C00085FFFCCF1093C6008091C00085FFFD
:10370000FCCF7093C60082E08093B30091E0909369
:103710005A0394E09093B100809370001092B2002D
:10372000FF91EF91DF91CF91BF91AF919F918F91D9
:103730007F916F915F914F913F912F911F910F91C9
:10374000FF90EF90DF90CF90BF90AF909F908F90C1
:103750007F906F900F900FBE0F901F901895813043
:10376000F9F68091C100877F8093C100519894E061
:103770009093680080E480936D001092B2001092E4
:1037800070001092B10010925A039093B30085E03C
:1037900087BD80916E00826080936E00C1CF809162
:1037A0004703813009F44FC0909123018091C000FC
:1037B00085FFFCCF9093C600909122018091C000BC
:1037C00085FFFCCF9093C600909121018091C000AD
:1037D00085FFFCCF9093C600209158038091C000D4
:1037E00085FFFCCF2093C6009091230130912201E8
:1037F000409121018091C00085FFFCCF1092C6004E
:103800008091C00085FFFCCF82E38093C600809149
:10381000C00085FFFCCF122F192782E71827132736
:10382000142780E48093C6007091230180912201C7
:1038300090912101720F7E58780F790F8091C0000E
:1038400085FF55CF58CF9091100180910E019817A8
:1038500009F0AACFBECE10E070E049CF3F3F3F3F16
:103860001F920F920FB60F9211248F93EF93FF9335
:1038700036991EC0809150038823D1F410926800BD
:1038800010926D0084E08093B3008093B10082E0D9
:10389000809370001092B20080916E008D7F8093B3
:1038A0006E00E0910E01F0E0ED5FFC4F81E080835F
:1038B000FF91EF918F910F900FBE0F901F90189571
:1038C0001F920F920FB60F9211248F939F93EF9335
:1038D000FF938091C6008093030116BC8091CA02B9
:1038E0009091CB02823D910590F4E091CA02F09153
:1038F000CB0280910301E850FE4F80838091CA0281
:103900009091CB0201969093CB028093CA02FF91D3
:10391000EF919F918F910F900FBE0F901F90189570
:103920001F920F920FB60F9211242F938F939F9394
:10393000AF93BF93EF93FF93DF93CF9300D00F929A
:10394000CDB7DEB72091CE0080914E03863509F4C5
:10395000CDC0E0914E03F0E0ED5EFE4F8081281770
:1039600009F4AFC010924E0380911903813049F1E0
:1039700080916803E0916B03F0916C03E80FF11DF7
:1039800020838F5F80936803909169039817B0F04C
:1039900080916A038F5F80936A030F900F900F905E
:1039A000CF91DF91FF91EF91BF91AF919F918F9157
:1039B0002F910F900FBE0F901F90189510926803D3
:1039C000E7CF80911C0390911D03019690931D03F6
:1039D00080931C0380911F03820F80931F038091AB
:1039E000200382278093200380911A0390911B0368
:1039F000A0E0B0E08983892F9A2FAB2FBB278A8361
:103A00001B822C9886E08EBD0DB407FEFDCF8EB5CF
:103A1000809323032C9A2C9882E08EBD0DB407FE70
:103A2000FDCF8EB5809323038B818EBD0DB407FE31
:103A3000FDCF8EB5809323038A818EBD0DB407FE22
:103A4000FDCF8EB58093230389818EBD0DB407FE13
:103A5000FDCF8EB5809323032EBD0DB407FEFDCFA1
:103A60008EB5809323032C9A80911A0390911B03A7
:103A7000019690931B0380931A0320910B01213030
:103A8000D1F188E0809343038AE08093DF021092B3
:103A9000DE0210924C0381E080934D0384EF91E0AD
:103AA00090938900809388008DE08093810010922C
:103AB00085001092840080916F00826080936F0077
:103AC0006CCF80914E038F5F80934E0380914E03A5
:103AD000873009F049CF86E580934E038091C80076
:103AE00085FFFCCF8FE38093CE003ECF2935D1F008
:103AF00010924E032ECF80911C0390911D038F3F97
:103B0000910509F0BECF10921D0310921C03809105
:103B10001E038823A1F0813009F0B3CF10921E0359
:103B2000109AAFCFF89428E088E190E00FB6F894AF
:103B3000A895809360000FBE20936000FFCF209374
:103B40001E0310989ECF3F3F3F3F3F3F3F3F3F3FC9
:103B50004DC0000067C0000065C0000063C00000E9
:103B600061C000005FC000005DC000005BC00000DD
:103B700059C0000057C0000055C0000053C00000ED
:103B800051C000004FC000004DC000004BC00000FD
:103B900049C0000047C0000045C0000043C000000D
:103BA00041C000003FC000003DC000003BC000001D
:103BB00039C0000037C0000035C0000033C000002D
:103BC00031C000002FC000002DC0000010271427B6
:103BD00018271C272027072724270C270532033204
:103BE0000132FF31FD31FB31F931F73111241FBEB4
:103BF000CFEFD8E0DEBFCDBF11E0A0E0B1E0E0E95B
:103C0000F7E602C005900D92A831B107D9F718E088
:103C1000A8E1B1E001C01D92AB34B107E1F703D0D8
:103C20000C94C63395CFA2E0B0E0E9E1FEE10C943C
:103C3000803314BE29E288E190E00FB6F894A8958D
:103C4000809360000FBE2093600084E690E00E94A5
:103C5000B033F82E8093A70485E690E00E94B0333D
:103C6000182F80939E0386E690E00E94B033082FC1
:103C700080937B0487E690E00E94B0331F0D100F05
:103C8000181739F08FEF8093A70480939E038093D9
:103C90007B0488EF93E39A83898388E794E39A838C
:103CA000898388EE94E39A83898380E995E39A83F4
:103CB000898388EC95E39A83898380E296E39A83EB
:103CC000898384E08EBB81EF90E00E94B033182F8F
:103CD000823409F464C08EE190E061E00E94B83360
:103CE00087E080937A04CDD780E00E94FE260E9470
:103CF000E226B7D70E949F260E94AE260E945A272E
:103D00000E94702780E00E94B4260E94E0260E9454
:103D100074270E9483272BD18091C90088608093EB
:103D2000C9008091C90080618093C9000E94302A37
:103D3000A8950E94EC2778940E94E12A1234A9F1F8
:103D4000A8950E94E531A89590918F0280917A0400
:103D50008917C0F08091C00083FD04C08091C0002D
:103D600084FF04C08091C600809318010E94E02A5D
:103D7000A89535990CC08AD023D0882309F70E94D2
:103D8000FE26DECF0E94473010928F02E3CFC7D0CD
:103D900017D08823A9F686E00E94FE26D1CF81EFB6
:103DA00090E060E00E94B83396CF8CE39DD78FEB14
:103DB0009BD781E099D78EE397D781E095D7C0CF85
:103DC00080911901089580910B0890910C08A091A1
:103DD0000D08B0910E080196A11DB11D80930B082E
:103DE00090930C08A0930D08B0930E0880912E06B6
:103DF0008823B9F480910B0890910C08A0910D08CC
:103E0000B0910E080397A105B10558F081E08093A9
:103E10000F0810920B0810920C0810920D081092C7
:103E20000E08089580919502882341F4299A1092F2
:103E30002E0610920F0881E08093E30608951092F9
:103E4000E30608950F931F9300916E070023D9F0A6
:103E5000029914C010E08BE697E00E941F2F809318
:103E6000CE008091C80085FFFCCF8091C80086FFFE
:103E7000FCCF1F5F101738F4029BEDCF299880ED1F
:103E800097E00197F1F71F910F910895A1E0B0E03D
:103E9000ECE4FFE10C9483338091C80083FF03C0FE
:103EA0008091CE0089838091C80084FF03C08091F7
:103EB000CE0089838091C80087FF07C08091CE0023
:103EC00089838091C80087FDF9CF82E496E00E9443
:103ED0001A2F1092E4068091C80080648093C80075
:103EE0008BE697E00E941A2F2196E2E00C949F3314
:103EF00080914506882319F484E080D7FDCF82E4C1
:103F000096E00C941F2F682F80916E078B3919F45F
:103F100084E074D7FDCF8BE697E00C94442F80911A
:103F2000E306882381F4809145068C3520F481E0F6
:103F300080932E06299880916E078C3580F08091B1
:103F40000F08882309F408957DDF10920F0880EA96
:103F50009FE00197F1F781E080932E06089585E2B6
:103F600096E055D680910F08882369F3EDCF0F9323
:103F70001F9389E18093CC00E8ECF0E080818260BF
:103F80008083808180648083E9ECF0E080818861B7
:103F9000808380818068808386E08093CA0002E409
:103FA00016E0C8010E94132F8BE697E00E94132FA2
:103FB00085E296E0B80143EB52E292D51092E40616
:103FC0001092E30610920F0881E080932E06109263
:103FD0002F06809319011F910F9108950F931F933E
:103FE000182F062F80916E078B3919F484E006D7BD
:103FF000FDCF8BE697E06CE30E94442F80916E0723
:104000008B3919F484E0FAD6FDCF8BE697E0612F67
:104010000E94442F80916E078B3919F484E0EED60C
:10402000FDCF8BE697E0602F0E94442F80916E07B2
:104030008B3919F484E0E2D6FDCF8BE697E06EE38E
:104040000E94442F1F910F9108950F931F93CF93B8
:10405000DF93182F062F80916E078B3919F484E0B7
:10406000CDD6FDCF8BE697E06CE30E94442F809184
:104070006E078B3919F484E0C1D6FDCF8BE697E04B
:10408000612F0E94442F80916E078B3919F484E0D0
:10409000B5D6FDCF8BE697E0602F0E94442F80912C
:1040A0006E078B3919F484E0A9D6FDCF8BE697E033
:1040B0006EE30E94442F002349F06091E90680914D
:1040C0006E078B3941F484E099D6FDCFDF91CF9113
:1040D0001F910F910895CAEED6E010E08BE697E0AD
:1040E0000E94442F1F5F101788F7699180916E0717
:1040F0008B3949F3F3CFCF92EF92FF920F93209138
:10410000DC053091DD058091D8059091D9052817FF
:10411000390728F00F91FF90EF90CF90089582B16A
:1041200091E0892782B96091A50470E080E090E079
:104130000EE0660F771F881F991F0A95D1F7220F8F
:10414000331FF901EE0FFF1FEE0FFF1FEE0FFF1FD2
:104150002E0F3F1F40E050E0620F731F841F951F1A
:104160006050704C8F4F9F4F42E150E00E94EC280E
:104170003091CF0420E08091D00490E0822B932BEB
:10418000969587959093CF048093D00490938C025A
:10419000809389028FEF66EA4091980220915C0338
:1041A00000919A02EFECEE2EE4E0FE2E72E1C72EB3
:1041B0000E9422332091DC053091DD05C90162E3C4
:1041C00070E00E945F33892B71F08091DC05909143
:1041D000DD0501969093DD058093DC050F91FF903E
:1041E000EF90CF900895C901880F991F9C01220F6D
:1041F000331F220F331F220F331F280F391F209325
:10420000E9063093EA06809198028093EB0680914C
:104210005C038093EC0680919A028093ED0684EE15
:1042200065E013DFD2CF0F931F93CF93DF93E82F77
:1042300020918F0130919001C90168E671E00E94E0
:104240005F33892B21F488B194E0892788B9299AB2
:10425000B90180E090E02091230130912401409148
:10426000250150912601620F731F841F951F4E2F49
:10427000E5D680918F0190919001019690939001E5
:1042800080938F0120918D0230918E0282179307C7
:1042900030F42998DF91CF911F910F9108950E94DA
:1042A000E52E809328018091D8059091D905892B1E
:1042B00049F100E010E0C0E0D0E0BE0180E090E015
:1042C0002091230130912401409125015091260134
:1042D000620F731F841F951F42E150E07DD78091CC
:1042E00028016FEC74E042E10E94E82E80932801DF
:1042F0000F5F1F4F62968091D8059091D9050817DE
:104300001907D8F2809128010E94E72E8093280196
:1043100080E00E94A42AC6D61092950210929001C5
:1043200010928F0184EF91E0A0E0B0E08093230130
:1043300090932401A0932501B093260100D50ED5BA
:10434000B9D5D2D5CDD580E00FD53AD598D5109234
:10435000E90683EE61E079DE2998DF91CF911F9124
:104360000F910895CF92EF92FF920F931F93DF93D7
:10437000CF9300D000D0CDB7DEB760919902809185
:10438000A4048A3A09F449C08091A4048C3AE1F16A
:104390008091A404873A09F466C0162F13508091C7
:1043A000A4048093E90680918D018093EA068091B0
:1043B000A6048093EB0680915D038093EC06109336
:1043C000ED06112389F08EEEE82E86E0F82E00E04F
:1043D00080919102909192020E941F2FF701819388
:1043E0007F010F5F0117A0F31B5F82EE612F2DDEAF
:1043F0000F900F900F900F90CF91DF911F910F9121
:10440000FF90EF90CF90089581E08093DE0500E06B
:1044100072DE0F5F0431E1F7EBCF40918D018091A7
:104420009802481729F72091A60480915C03281769
:10443000F9F600915D0380919A020817C9F684E1AC
:104440008A839091D8058091D9058B839C838FEFC7
:104450006BEAE2E0EE2EF12CEC0EFD1E73E0C72EAF
:104460000E942233C5CF80919102909192020E94C6
:104470001F2F80919102909192020E941F2F809194
:104480001A0190911B01019690931B0180931A01D0
:104490002091690730916A078217930730F410E082
:1044A0002ADE1F5F1431E1F7A3CF8091D8059091E8
:1044B000D905880F991F9C01220F331F220F331F2C
:1044C000220F331F280F391F225130402093E90655
:1044D0003093EA06809198028093EB0680915C030A
:1044E0008093EC0680919A028093ED0684EE65E05D
:1044F000ACDD81E089838BEB92E00E941A2F0E9451
:10450000423180E00E94073281E00E94073282E05F
:104510000E94073283E00E94073284E00E94073243
:104520008FEF68EA4091980220915C0300919A0213
:104530007E010894E11CF11CCC24C3940E94223318
:104540001092DE051092E90682EA61E07EDD87E0E6
:1045500080937A044DCF91E09093E9068093EA0628
:1045600080EE62E072CDACE0B0E0E9EBF2E20C94F8
:104570007B33162F883009F458C1893078F18132A5
:1045800009F49CC1823208F07FC0893009F4FFC071
:10459000803261F5C4D66091DB0587E0689FB00189
:1045A00011246C5F80EA1ADD8091A003ACDC80915D
:1045B000A103A9DC8091A203A6DC8091A303A3DC64
:1045C0008091DB05882391F06091910180916E07C5
:1045D0008B3909F0C2C184E011D4FDCF823009F4D7
:1045E0001DC1833038F4813009F4F1C02C96EAE023
:1045F0000C949733833009F4C4C08730B9F726EAA6
:1046000033E060E08E010A5F1F4FD801F90187E0B7
:1046100001900D928150E1F78C858C835E814F81F2
:10462000A8858985782F7F70982F929597708C81B7
:104630008A838A818823F9F0E62FF0E0E751F94F69
:104640005083862F8F5FE82FF0E0E751F94F4083CA
:104650008F5FE82FF0E0E751F94FA0838F5FE82FDD
:10466000F0E0E751F94F70838F5FE82FF0E0E751FA
:10467000F94F90836B5F295F3F4F84E028373807FD
:1046800021F687E8E2DCB2CF823281F0803809F08F
:10469000ADCFF89428E088E190E00FB6F894A895A3
:1046A000809360000FBE20936000FFCF21DC8093D9
:1046B000A5041EDC809398021BDC80935C0318DC4D
:1046C00080939A021092DD051092DC0510928C0204
:1046D000109289022091D8053091D905C90164E171
:1046E00070E00E945F33FB0170936A076093690773
:1046F00010921B0110921A01C90164E170E00E943E
:104700005F33892B29F03196F0936A07E0936907AC
:104710008091980260915C0340919A020E94AC2FB4
:104720008F3F29F00E942130FC018FEF868388E2C1
:1047300080937A048BEB92E00E941A2F0E94423100
:1047400080E00E94073281E00E94073282E00E94EE
:10475000073283E00E94073284E00E940732198208
:104760008FEF68EA4091980220915C0300919A02D1
:104770007E010894E11CF11CCC24C3940E942233D6
:1047800035CF613009F4C2C083E0E5DE2FCF65305C
:1047900008F4A3C1ADDBA82EABDBB82EA9DBD82E65
:1047A000A7DBC82EA5DBE82E90E00596212F30E090
:1047B0008217930709F091C1EE2009F480C180911E
:1047C0004506882309F065C184E018D3FDCF8093A6
:1047D000E9061092EA061092EB0692E09093EC063E
:1047E0001092ED061092EE061092EF061092F0066F
:1047F0008093F10680917B048093F20680919E0362
:104800008093F3068091A7048093F4069093F506B5
:104810001092F60681E86EE018DCE8CE81E0809325
:10482000E90682E861E011DCE1CE613009F42DC1D6
:1048300011E0E12EF12C46EA53E060E08E010A5FC0
:104840001F4FD801FA0187E001900D928150E1F7E6
:1048500089852C852D83AE817F81B885382F32954F
:1048600037702D812B838F7090E08E159F0549F056
:10487000495F5F4FE4E048375E0719F788E8E5DBFA
:10488000B5CE8B818823A1F3E62FF0E0E751F94FF5
:10489000A083862F8F5FE82FF0E0E751F94F7083F8
:1048A0008F5FE82FF0E0E751F94FB0838F5FE82F7B
:1048B000F0E0E751F94F30836C5FDACFF0D210921D
:1048C000E30681E080932E0680930F08C3D410DBAB
:1048D000182F8093A8040CDBF82E0ADB482F9F2D9D
:1048E00080E0242F30E0282B392B3093D9052093FA
:1048F000D805F3E02F383F0708F44AC0EE24E394CC
:10490000E092E90681EA61E0A0DB70CEF1DA813065
:10491000F1F0882309F06ACEF8948AE090E061E033
:104920000E94B8338EE190E060E00E94B83382E3E9
:1049300090E092BD81BD28E088E190E00FB6F89448
:10494000A895809360000FBE20936000FFCF8093F6
:10495000E90683E861E079DB49CE10E007E08BE609
:1049600097E00E94442F1F5FE12FF0E08091DB056C
:10497000809FC0011124E817F9070CF037CEEF56DD
:10498000FE4F608180916E078B3909F424CEE7CF0A
:10499000EE241F3110F0EE24E394C901880F991F13
:1049A0009C01220F331F220F331F220F331F820F50
:1049B000931F90938E0280938D02E091A8040E2F96
:1049C00010E0F801E456FD4FF082F801EF51FB4F83
:1049D00040838EDA0A541A4FF80180838091A8042C
:1049E000082F10E085DA0D511A4FF801808380916D
:1049F000A804082F10E07CDA025A1C4FF8018083CB
:104A00008091A804082F10E073DA0B571B4FF801B0
:104A100080838091A804082F10E06ADA02581C4FA6
:104A2000F80180838091A804082F10E061DA005516
:104A30001B4FF80180838091A80478D2EE2009F002
:104A40005FCF8091A8048F5F7FD581E0809395022E
:104A50001092900110928F018091A80490E0A0E044
:104A6000B0E0FEE0880F991FAA1FBB1FFA95D1F78F
:104A70008050904CAF4FBF4F8093230190932401FF
:104A8000A0932501B09326013BCF32DAE82EFF2414
:104A9000D2CEFF2400E010E082E496E00E941F2FB7
:104AA0000B5F194FF8018083F394FE1440F480915A
:104AB0004506882309F488CE0F2D10E0EDCF8A2D0E
:104AC0006B2D4D2D2C2D05E016E00E9401338093B7
:104AD000E90689E861E0B9DA89CD89E03CDD86CD77
:104AE000FC01108211821282748363835683458392
:104AF0000895DC011396ED91FC9114978381282F82
:104B000030E08C91843089F0853029F040E0232B0F
:104B100049F4842F089512968C9140E090E0281774
:104B20003907B8F341E0842F089512968C918823B9
:104B300069F741E0F8CFCF93DF93EC01EB81FC8183
:104B40001482ED81FE81309739F089816A8109955F
:104B500003C0CF010E941F2FEB81FC819A818481C9
:104B60008917B8F3188219821A82DF91CF910895BC
:104B7000FC018281882319F085E080830895CF01AC
:104B8000DACFCF93DF93EC018B819C810E941F2FA2
:104B90008E3331F0188219821A82DF91CF910895F5
:104BA00084E08883DF91CF9108950F931F938C0148
:104BB000FC01838194810E941F2FF801828383E08E
:104BC00080831F910F9108950F931F938C01FC0117
:104BD000838194810E941F2FF801818382E080836A
:104BE0001F910F910895CF93DF93EC018B819C81EE
:104BF0000E941F2F8C3331F0188219821A82DF91A4
:104C0000CF91089581E08883DF91CF910895CF936C
:104C1000DF93EC016EDF882359F08881823081F0C8
:104C2000833048F08430D1F08430A8F0853059F0DA
:104C3000DF91CF910895882349F4CE01D4DFF8CFD6
:104C4000CE01B3DFF5CFCE0176DFF2CF813081F731
:104C5000CE01BADFEDCFCE0194DFEACFCE0188DFFF
:104C6000E7CFE0ECF0E0808182608083E1ECF0E06F
:104C70008081806880831092C40086E08093C200A7
:104C80000895089A109A0F9A179A3A9A429A3E985B
:104C900046985098589851985998539A5B9A5298B8
:104CA0005A98559A5D98569A5E98579A5F983F9A87
:104CB000479A0A981298219A29983D984598249ADB
:104CC0002C9A279A2F980B9A13983C9A44980895F7
:104CD00084E08093680080E480936D0008951092D2
:104CE000680010926D000895982F8091C80085FF8C
:104CF000FCCF9093CE008091C80086FFFCCF8091BE
:104D0000C80080648093C8000895982F8091C000E7
:104D100085FFFCCF9093C6008091C00086FFFCCF3A
:104D20008091C00080648093C0000895E1ECF0E0C1
:104D30008081806180838081877F80830895E1EC1A
:104D4000F0E080818F7E80830895E1ECF0E0808147
:104D50008860808380818F7E80830895E1ECF0E01D
:104D60008081877F8083089580938E018230E9F06F
:104D7000833040F08430E9F0843068F45D9A5E9AC4
:104D80005F980895882321F45D985E985F98089550
:104D9000813039F008958530E9F75D9A5E985F9A21
:104DA00008955D9A5E985F9808955D985E9A5F9801
:104DB00008955D985E985F9A0895509A589808955E
:104DC000509808952C9A08958130B1F0882379F095
:104DD000613081F0662331F0413039F0442309F429
:104DE000429A0895109A4130C9F742980895179A47
:104DF000613081F71098F0CF1798EACFE82FF0E0F4
:104E0000E830F10540F4EA51F24E0C94AA3380E008
:104E100061E040E0D9CF089581E061E041E0D4CF86
:104E200080E060E040E0D0CF80E061E041E0CCCFC6
:104E300081E060E041E0C8CF81E061E040E0C4CFC4
:104E400081E060E040E0C0CF80E060E041E0BCCFC6
:104E500090910001892F86958695292F2695269574
:104E6000269582278927292F22952F7082278795BB
:104E7000882787959695892B809300010895109235
:104E80008B0210921D01B4D35ADF81E08093040598
:104E900023D010D0109280041092480808951092E8
:104EA0008B02109248081092040549DF57DF0DD09D
:104EB00025D015CF92E09093B00084E08093B100AC
:104EC000909370001092B20008951092B100109269
:104ED00070001092B200089584E08093B3000895AA
:104EE00080E58093B300089582E084BD94E095BD91
:104EF00080936E0016BC8FEF87BD089515BC10928D
:104F00006E0016BC0895109280008DE080938100A1
:104F100082E080936F00109285001092840088E0F8
:104F200090E090938900809388000895EF92FF921B
:104F30000F931F93E090A003FF2400E010E01E2DCC
:104F40000027FF24EE242091A10330E040E050E050
:104F5000A90133272227E22AF32A042B152B2091BB
:104F6000A30330E040E050E0E22AF32A042B152BA3
:104F70002091A20330E040E050E0542F432F322F25
:104F80002227E22AF32A042B152B21E030E040E00F
:104F900050E004C0220F331F441F551F8A95D2F7DB
:104FA000E22AF32A042B152B812F9927AA27BB2746
:104FB0008093A003C801AA27BB278093A103BB2726
:104FC000A12F902F8F2D8093A203E092A3031F9116
:104FD0000F91FF90EF90089580E090E0FC01EA547B
:104FE000FA4F8083FC01E456FD4F8083FC01EF51B2
:104FF000FB4F8083FC01ED51FA4F8083FC01E25AA4
:10500000FC4F8083FC01EB57FB4F8083FC01E2588F
:10501000FC4F8083FC01E055FB4F808301968F316C
:105020009105E1F61092A3031092A2031092A1033E
:105030001092A0038CEC8093830408950F931F9328
:105040008B019C012C9886E08EBD0DB407FEFDCF30
:105050008EB52C9A2C9882E08EBD0DB407FEFDCF44
:105060008EB5C901AA27BB278EBD0DB407FEFDCFA3
:105070008EB5BB27A32F922F812F8EBD0DB407FEB7
:10508000FDCF8EB50EBD0DB407FEFDCF8EB54EBD66
:105090000DB407FEFDCF8EB5809381042C9A1F912D
:1050A0000F910895EF92FF920F931F93CF93DF9389
:1050B000C0E0D0E07E01EE0CFF1CEE0CFF1CEE0CFD
:1050C000FF1CB701882777FD8095982FFE01EA54D1
:1050D000FA4F4081B3DF0894E11CF11CB701882727
:1050E00077FD8095982FFE01E456FD4F4081A6DFA5
:1050F0000894E11CF11CB701882777FD8095982F53
:10510000FE01EF51FB4F408199DF0894E11CF11C37
:10511000B701882777FD8095982FFE01ED51FA4F52
:1051200040818CDF0894E11CF11CB701882777FDD2
:105130008095982FFE01E25AFC4F40817FDF089452
:10514000E11CF11CB701882777FD8095982FFE019F
:10515000EB57FB4F408172DF0894E11CF11CB70153
:10516000882777FD8095982FFE01E258FC4F4081FB
:1051700065DF0894E11CF11C0027F7FC0095102F57
:10518000FE01E055FB4FC801B701408157DF219672
:10519000CF31D10509F08ECFC0EAD3E0B8EFEB2EC6
:1051A000F12C012D112DC801B701499147DF089459
:1051B000E11CF11C011D111D83E0C43AD80799F7C9
:1051C0006CEF70E080E090E04091830437DFCDB772
:1051D000DEB7E6E00C949B330F931F938B019C0189
:1051E0002C988BE08EBD0DB407FEFDCF8EB5C901A6
:1051F000AA27BB278EBD0DB407FEFDCF8EB5BB27FA
:10520000A32F922F812F8EBD0DB407FEFDCF8EB53B
:105210000EBD0DB407FEFDCF8EB583E68EBD0DB479
:1052200007FEFDCF8EB5809381044115510571F0C5
:10523000EFECF4E04E0F5F1F9FEF9EBD0DB407FE35
:10524000FDCF8EB58193E417F507B9F72C9A1F911E
:105250000F910895CF93DF93C0E0D0E0BE01660FB9
:10526000771F660F771F660F771F882777FD80955A
:10527000982F48E050E0B0DFFE01EA54FA4F8091E9
:10528000CF048083FE01E456FD4F8091D0048083DB
:10529000FE01EF51FB4F8091D1048083FE01ED515F
:1052A000FA4F8091D2048083FE01E25AFC4F809134
:1052B000D3048083FE01EB57FB4F8091D40480839D
:1052C000FE01E258FC4F8091D5048083FE01E05539
:1052D000FB4F8091D60480832196CF31D10509F010
:1052E000BDCF68EF70E080E090E045E050E074DF13
:1052F0008091CF048093A0038091D0048093A10378
:105300008091D1048093A2038091D2048093A3035F
:105310008091D30480938304DF91CF9108952F92DD
:105320003F924F925F927F928F929F92AF92BF92E5
:10533000CF92DF92EF92FF920F931F93CF93DF9361
:1053400089DF1092DB0588249924E3E04E2E512C4E
:1053500077E0772E5201A818B908E0EAF3E0AE0E24
:10536000BF1EC401880F991F880F991F880F991FAE
:1053700056EBC52E55E0D52EC80ED91E4CE9E42EAD
:1053800042E0F42EE80EF91E8C010F511B4FBC01B8
:105390006D517A4FAC01425A5C4FEC01CB57DB4F59
:1053A0003EE7232E33E0332E280E391E20E030E076
:1053B000D5018C9190E0022E02C0959587950A94B4
:1053C000E2F780FF1EC09091DB05979DF00111244C
:1053D000EF56FE4FD6018C918083D7018C9181834B
:1053E000D8018C918283DB018C918383DA018C91CB
:1053F000848388818583D1018C9186839F5F90937C
:10540000DB052F5F3F4F0894C11CD11C0894E11CA1
:10541000F11C0F5F1F4F6F5F7F4F4F5F5F4F2196F4
:105420000894211C311C2830310511F60894811C88
:10543000911CB4E08B16910409F08CCFDF91CF91D1
:105440001F910F91FF90EF90DF90CF90BF90AF90A2
:105450009F908F907F905F904F903F902F900895F6
:10546000249A2C9A2698259A279A8CE58CBD2C98FC
:1054700086E08EBD0DB407FEFDCF8EB52C9A2C981C
:1054800089E38EBD0DB407FEFDCF8EB51EBC0DB4F5
:1054900007FEFDCF8EB51EBC0DB407FEFDCF8EB549
:1054A0001EBC0DB407FEFDCF8EB5809381042C9AEF
:1054B0000895A1E0B0E0EFE5FAE20C9483332C9874
:1054C00085E08EBD0DB407FEFDCF8EB580938104BF
:1054D000FE0131969FEF9EBD0DB407FEFDCF8EB548
:1054E0008983808180FDF7CF2C9A2196E2E00C948D
:1054F0009F339B01AC012C9886E08EBD0DB407FE56
:10550000FDCF8EB52C9A2C9880E28EBD0DB407FE8F
:10551000FDCF8EB5CA01AA27BB278EBD0DB407FEED
:10552000FDCF8EB5BB27A52F942F832F8EBD0DB435
:1055300007FEFDCF8EB52EBD0DB407FEFDCF8EB597
:10554000809381042C9AB5CFEF92FF920F931F9313
:10555000E82EFF2400E010E0BEE0EE0CFF1C001F70
:10556000111FBA95D1F7C801B701C3DFA89580E034
:1055700090E1A0E0B0E0E80EF91E0A1F1B1FC80171
:10558000B701B7DFA89580E090E1A0E0B0E0E80EB9
:10559000F91E0A1F1B1FC801B701ABDFA89580E0E9
:1055A00090E1A0E0B0E0E80EF91E0A1F1B1FC80141
:1055B000B7019FDFA8951F910F91FF90EF9008957D
:1055C00008950F931F930BEB12E0C8012CD4C80170
:1055D00066E77EE228D683EA9DE262EA7DE275D440
:1055E00080E090E062EB71E28DD21F910F910895FF
:1055F0001092820410929B02109293021092060560
:105600008BE28093E20585E080935B031092840433
:105610008FEF809300050895E0915B03F0E0EE0FBB
:10562000FF1FEF5FFE4F0190F081E02D0995089577
:105630002091C60020939B028091BE029BE9981B9B
:10564000943058F480E080932101253620F48217AD
:1056500010F082E008958AE00895892F8350F3CFF7
:105660008091C60080939302853618F084E680937B
:10567000930286E008951F9368DB8091820445DBE6
:105680008091270142DB80918204882391F010E011
:10569000E12FF0E0E75DFE4F808137DB89E000001D
:1056A0008150E8F780931F011F5F809182041817D3
:1056B00078F33CDB89E01F910895EF92FF920F93FE
:1056C0001F93CF93DF938FEF8093050560910206C0
:1056D0005091930220917F0430E043E22F5F253008
:1056E00008F020E0249FD0011124A95FBA4F119641
:1056F0009C91119780918E01981709F4A1C03F5F8A
:10570000353061F7109227012093200120937F0408
:1057100080917D0320918E0190E002C09595879540
:105720002A95E2F780FDBCC040918204652F70E0AD
:1057300080917C0430E057E0C1E0D0E001E012E06D
:10574000359FD0011124AA55BC4F16968C911697FF
:10575000882309F468C015968C91159720918E01C5
:1057600090E002C0959587952A95E2F780FF5BC08F
:10577000E42FF0E0CF010796861797070CF059C089
:1057800015962C91159780918E017E0102C0EE0C2A
:10579000FF1C8A95E2F7C7018095822315968C93AA
:1057A0001597E75DFE4F0083842F8F5FE82FF0E0B1
:1057B000E75DFE4F10838F5F9C91E82FF0E0E75D7F
:1057C000FE4F90838F5F11969C911197E82FF0E028
:1057D000E75DFE4F90838F5F12969C911297E82FA2
:1057E000F0E0E75DFE4F90838F5F13969C911397D7
:1057F0009F70E82FF0E0E75DFE4F90838F5F149677
:105800009C911497E82FF0E0E75DFE4F90838F5F47
:1058100013969C91E82FF0E0E75DFE4F991F9927C2
:10582000991F9083485F3F5F80917C04831708F045
:1058300087CF409382041FDFCDB7DEB7E6E07BC79A
:1058400012968C911297813009F059CF8C9168177C
:1058500008F455CF8C91581708F451CF10922701B6
:105860002093200120937F048C91882399F030911C
:10587000820490E0FD01E90FF11D8481E32FF0E047
:10588000E75DFE4F80833F5F9F5F8C91981790F399
:10589000309382048C91809327012093050538CFA3
:1058A00040918204E42FF0E0652F70E0CF0108966C
:1058B000861797070CF03CCF20918E0130917D0325
:1058C00081E090E002C0880F991F2A95E2F7809549
:1058D000832380937D03E75DFE4F81E08083842FE7
:1058E0008F5FE82FF0E0E75DFE4F92E090838F5FDF
:1058F000E82FF0E0E75DFE4F90917B0490838F5F8F
:10590000E82FF0E0E75DFE4F90919E0390838F5F5C
:10591000E82FF0E0E75DFE4F9091A70490838F5F42
:10592000E82FF0E0E75DFE4F10828F5F90914A080C
:10593000E82FF0E0E75DFE4F90838F5FE82FF0E007
:10594000E75DFE4F10828F5F80938204482FF0CE78
:105950008091C60080930206882319F08FE180931E
:105960000206ABCEF2D98091BE029BE9981B94301F
:1059700008F043C080E080932201C7D98FEF809365
:105980000005809122018F3178F140E020E030E085
:10599000C901880F991F880F991FFC01EE0FFF1F87
:1059A000EE0FFF1FEE0FFF1FE80FF91FE21BF30BB7
:1059B000E95FFA4F8281882321F48381882309F4E7
:1059C0004F5F2F5F3F4F2530310511F71092900246
:1059D00080919D03841760F480919D03481B842F60
:1059E00094D9A4D981E008951092900280919D03EA
:1059F00080E08BD99BD981E00895892F8350BBCF5C
:105A00008091C600813051F0809106058F5F8093B0
:105A10000605863010F08AE008952DCE80910505A8
:105A20008F3F19F080910505F2D410928204809185
:105A3000E2058A3281F31092060594CF1F9385D92F
:105A400080919B02882379F481E05FD96FD980919E
:105A5000E2058A3219F08AE01F9108951092060536
:105A600085E01F91089560918E018BEB92E00CD23E
:105A7000609100058BEB92E007D280919B02882316
:105A800071F010E0E12FF0E0E75DFE4F8BEB92E06C
:105A90006081FAD11F5F80919B02181798F38BEBFE
:105AA00092E06FEFF1D1D0CF909184048091C60045
:105AB000E92FF0E0E75DFE4F80839F5F90938404C1
:105AC00080919B02981711F083E00895B7CF9091D1
:105AD000C60090939F0380919B02882391F09923A5
:105AE00061F09F3160F480919D038F5F80939D03EF
:105AF00081E08093900283E0089583E008958AE036
:105B000008959CCFEF92FF920F931F937C018B011E
:105B10001BD01093970200939602F092E005E0925A
:105B2000DF0581E0809304058BE28093E20585E048
:105B300080935B038FEF809300051F910F91FF907F
:105B4000EF900895089508951092A90481E080933C
:105B5000AA0482E08093AB0483E08093AC0484E0E9
:105B60008093AD0485E08093AE0486E08093D505F4
:105B700008958F929F92AF92CF92DF92EF92FF9211
:105B80000F931F93DF93CF93CDB7DEB766970FB612
:105B9000F894DEBF0FBECDBF80919102909192022A
:105BA0004ED1D82E809191029091920248D1C82E68
:105BB000809191029091920242D1A82EF090990288
:105BC00080918D016091A60440915D0342D2809145
:105BD000A704A81629F480919E03C81609F450C0A2
:105BE0008D2D6C2D4A2DB8D18F3F79F12AD28C01A1
:105BF0008091A404883A09F459C08DEFE82EEF0C87
:105C000009F46CC04E010894811C911C8401FF248E
:105C1000809191029091920212D1F80181938F01AB
:105C2000F394FE14A8F38091A40460918D01409137
:105C3000A60420915D0300918A020F920F5FEDB7D9
:105C4000FEB7F182ED2C7ED40F9080919D038823C6
:105C500029F080919D03815080939D0366960FB635
:105C6000F894DEBF0FBECDBFCF91DF911F910F9192
:105C7000FF90EF90DF90CF90AF909F908F9008951E
:105C800080917B04D81609F0ABCF80919D038823C7
:105C900029F080919D03815080939D03E0919602AD
:105CA000F09197023097D1F20995D8CF8FEFF80194
:105CB00086838091910290919202E0D08823A1F492
:105CC0008091A5038093A904F80183818295877050
:105CD0008093AA0482E08093D5058FCFFF244E01E4
:105CE0000894811C911C9FCF2FDF87CFCF92EF921A
:105CF0000F931F93A89590918D0180917B04981725
:105D000091F08091A404803750F58091A4048130F3
:105D100041F1809194028F5F809394021F910F91C3
:105D2000EF90CF9008959091A60480919E039817CC
:105D300041F790915D038091A704981711F7809126
:105D40009902882359F300E0809191029091920288
:105D500076D00F5F809199020817B0F3DFCF09DF8B
:105D6000D8CF809191029091920269D0E82E8091D3
:105D700091029091920263D0C82E1091A503809158
:105D80008D016091A60440915D0320918A022F5FEE
:105D9000012F1CD28F3F09F4BCCF90E0FC01EE0F25
:105DA000FF1FEE0FFF1FEE0FFF1FE81BF90BEA5559
:105DB000FC4F258181E090E002C0880F991F1A9561
:105DC000E2F7809582238583A4CF80E0089508952B
:105DD000CF93DF93582FEB0137E0442301F1888103
:105DE000A82FB0E0E0E8F0E060E070E0252F207838
