:020000040000FA
:10000000D4C00000EFC00000EDC00000EBC0000055
:10001000E9C00000E7C000000C946209E3C00000E2
:10002000E1C000000C94A70BDDC00000DBC00000A5
:10003000D9C000000C94EC09D5C00000D3C000006A
:100040000C94460BCFC00000CDC00000CBC0000018
:100050000C94BF0AC7C00000C5C00000C3C00000A8
:10006000C1C00000BFC00000BDC00000BBC0000098
:1000700004C60000B7C00000B5C00000390162012D
:100080006A01780186019401A201EB0130023A0273
:1000900048022901290129012901510229012901C7
:1000A0002901290129012901290129012901290100
:1000B0002901290129012901290129015902850262
:1000C00029012901290129012901290129012901E0
:1000D00029012901290129012901290129012901D0
:1000E00029012901290129012901290129012901C0
:1000F0002901290129012901290129018C029B02D9
:10010000AF0212012901290129012901290129012F
:10011000290129012901290129012901290129018F
:10012000290129012901290129012901290129017F
:10013000290129012901290129012901290129016F
:10014000290129012901290129012901290129015F
:10015000290129012901290129012901290129014F
:10016000290129012901290129012901290129013F
:10017000290129012901290129012D01D309D809C2
:10018000DD09E209E709C409C909CE09280CC50B34
:10019000490C500C5C0C060C1D0C8F117E11771154
:1001A0006B11641149113A119B1111241FBECFEF3D
:1001B000D8E0DEBFCDBF11E0A0E0B1E0EEEBF4E3AC
:1001C00002C005900D92A631B107D9F725E0A6E14E
:1001D000B1E001C01D92A53AB207E1F70E943214C6
:1001E0000C945D1A0C94580980911C01811104C073
:1001F00084E00E94BB09FCCF89E191E00C94B0102F
:100200000895ABE0B0E0E7E0F1E00C942C1A90E048
:10021000FC013197E038F105E0F4162FE25CFF4F66
:100220000C94111A6330A9F4DFDFF82EDDDF082FFC
:10023000DBDF182F482F602F8F2D0E94A10991E03E
:10024000F11005C0011103C0111101C090E090939D
:100250001A052B96ECE00C94481AF89498E088E183
:100260000FB6F894A895809360000FBE909360003D
:10027000FFCF81E080932105109222051092230583
:1002800092E0909324051092250510922605109275
:100290002705109228058093290590918504909355
:1002A0002A059091860490932B0590918704909352
:1002B0002C0580932D0510922E056EE081E80E949A
:1002C0008E17C7CF81E08093210561E082E80E940C
:1002D0008E17BFCF613009F450C181E080932105B2
:1002E00083E08093220562E080EE0E948E17B1CFFA
:1002F000633009F424C381E08093210584E0809376
:10030000220562E080EE0E948E17A3CF643008F0D1
:100310005AC181E08093210585E08093220562E047
:1003200080EE0E948E1795CF633009F4D7C281E02A
:100330008093210586E08093220562E080EE0E9492
:100340008E1787CF47E153E060E09E012F5F3F4F5C
:1003500078E0FA01D901872F01900D928A95E1F793
:100360008885882371F18981E62FF0E0EF5DFA4FEF
:1003700080838A81E1E0E60FF0E0EF5DFA4F808351
:100380008B81E2E0E60FF0E0EF5DFA4F80838C8135
:100390008F70E3E0E60FF0E0EF5DFA4F80838C8131
:1003A00082958770E4E0E60FF0E0EF5DFA4F80831E
:1003B000EE8185E0860F90E06A5FDC01AF5DBA4FA9
:1003C000EC93485F5F4F83E0473B580711F687E89F
:1003D0000E948E173ECF613009F46CC301E010E03B
:1003E00047E153E060E09E012F5F3F4F88E0F82E29
:1003F00007C0485F5F4F93E0473B590709F4B9C016
:10040000FA01D9018F2D01900D928A95E1F78C8127
:100410008F7090E00817190761F78885882349F3E2
:100420008981E62FF0E0EF5DFA4F80838A81E1E079
:10043000E60FF0E0EF5DFA4F80838B81E2E0E60F9C
:10044000F0E0EF5DFA4F80837C817295777083E0F6
:10045000860F90E06C5FFC01EF5DFA4F7083C9CFAF
:10046000653008F4FEC180911C018111A5C284E0B1
:1004700082D7FDCF633009F4FFC181E0809321056D
:100480008AE08093220562E080EE0E948E17E1CE22
:100490001092AA011092210561E08BE80E948E174C
:1004A000D8CE80919504823809F06EC284E063D77B
:1004B000FDCF1092C9011092BD011092BF010E94A0
:1004C000B90A8091C100877F8093C1001092B1006A
:1004D000109270001092B20015BC10926E0016BC03
:1004E0001092680010926D0011E010931A0510929E
:1004F000C0011093CC011093CB01A1D680911C01B7
:100500008111A1C184E037D7FDCF80911C018111F9
:1005100090C084E030D7FDCF862F837009F099CE4C
:100520001695169509F495CE80911C01811172C023
:1005300084E021D7FDCF8BEA689FF12C1124F6943B
:100540008F2D880F8F0D681384CEFF2009F481CE84
:1005500080911C01811151C084E00DD7FDCF613025
:1005600009F077CE41DE182F06D791E011116FCE3A
:100570006DCE88E80E948E176CCE36DE8130E1F0B9
:10058000811167CEF89461E08AE090E00E94031A3E
:1005900060E08EE190E00E94031A82E390E092BD59
:1005A00081BD98E088E10FB6F894A895809360002B
:1005B0000FBE90936000FFCF1093210561E083E8A8
:1005C0000E948E1746CE10DE8B870EDE8A870CDEE9
:1005D00089870ADE8093660481E08093670402E0E5
:1005E00029854A856B8580E70E947E1080932105CE
:1005F00061E085E80E948E172CCE10E089E191E041
:100600000E94B010E82E80911C0181111FC084E06F
:10061000B2D6FDCFF12CEE24E39489E191E00E9463
:10062000B010D82E80911C0181111CC084E0A3D68B
:10063000FDCF89E191E00E94B0108093A4058091E4
:100640001C0181111BC084E096D6FDCF89E191E0A9
:100650000E94B010482F80911C0181111CC084E0C1
:100660008AD6FDCF89E191E00E94B010C82E80911A
:100670001C0181112AC084E07ED6FDCF89E191E082
:100680000E94B01080939D0580911C01811129C0AA
:1006900084E071D6FDCF89E191E04A870E94B010D5
:1006A000109266041092670402E0282F4A856E2D8E
:1006B00080E70E947E101F5F1F1509F4CACD80914C
:1006C0001C01882309F448CF99CF89E191E00E9469
:1006D000B010282F80911C01811110C084E04BD6EE
:1006E000FDCF89E191E00E94B01080939E0580913A
:1006F0001C0181111DC084E03ED6FDCF89E191E04F
:1007000029870E94B01080936604E092670402E09B
:1007100029854C2D6D2D80E70E947E10F394F116F3
:1007200009F497CD80911C01882309F401CF75CF7E
:1007300089E191E00E94B010482F80939F0520919D
:10074000A40530E0F901EC51FE4FE081F0E0FE2F0E
:10075000EE27D901AD51BE4F8C91E82BF0932005C7
:10076000E0931F059F01220F331FC901880F991FB6
:10077000880F991F880F991F280F391F3093A801E0
:100780002093A7011092A3051092A2051092A10533
:100790001092A0059F01ADECBCEC0E94171A9C01C1
:1007A000329522952F7023273F70232730931C0505
:1007B00020931B0510921E0510921D0554E1529FB7
:1007C000C001539F900D1124E817F90731F02F5FF6
:1007D0003F4F30931C0520931B0560919E0580912F
:1007E0009D050E947D0F8F3F61F0E82FF0E0EE0F36
:1007F000FF1FEE0FFF1FEE0FFF1FE95EFC4F8FEF95
:10080000878388E2809319051092FE011092FF0100
:10081000109201020E946E0F10E0812F0E94420F81
:100820001F5F1530D1F71982EE24E3948E010F5F1C
:100830001F4F20919F0540919E0560919D0588EA7C
:100840000E94C31106CD89E191E00E94B010082FEB
:100850008093A90180911C01811130C184E08BD566
:10086000FDCF81E08093210589E08093220562E03D
:1008700080EE0E948E17EDCCB7DC082FB5DC182F68
:10088000B3DC982FEDEAF1E020E030E007C02F5F05
:100890003F4F33962630310509F49AC0DF01129795
:1008A0008C910813F4CF11968C911813F0CF80819E
:1008B0009813EDCF81E090E001C0880F2A95EAF708
:1008C00080959091AA0189238093AA0180E080936A
:1008D000210561E08AE80E948E17BBCC85DC082FD9
:1008E00083DC182F81DC4091AA0150E020E030E049
:1008F00006C02F5F3F4F2630310509F43DC0BA01D5
:10090000022E02C0759567950A94E2F760FDF1CF5B
:10091000F901EE0FFF1FE20FF31FE555FE4F0083B5
:100920001183828381E090E001C0880F2A95EAF765
:100930009091AA01892B8093AA0180E01EC054DC0B
:10094000182F52DC8B8750DC109321056B85609348
:10095000220580932305482F812F0E947D0F8F3F12
:1009600009F0DFC01092240581E08093250565E041
:1009700084E80E948E176DCC81E08093210561E0B0
:1009800086E80E948E1765CC6CE382E994E00E94B1
:100990009C1080919504823819F484E0ECD4FDCF4A
:1009A00060E982E994E00E949C108091950482386D
:1009B00089F484E0E0D4FDCF89E191E00E94B01099
:1009C000B82E80911C01811111C084E0D4D4FDCFD8
:1009D00081E07DCF612F82E994E00E949C1080919C
:1009E0009504823879F484E0C6D4FDCF89E191E0A2
:1009F0000E94B010A82E80911C01811112C084E0C9
:100A0000BAD4FDCF6EE382E994E00E949C101123DA
:100A100009F41FCC80911C0181110FC084E0ABD47C
:100A2000FDCF89E191E00E94B010982E80911C01C9
:100A300081110FC084E09FD4FDCF00E089E191E0F7
:100A40000E94B01090919504923879F484E093D488
:100A5000FDCF89E191E00E94B010882E80911C01A9
:100A6000811111C084E087D4FDCF682F82E994E022
:100A70000E949C100F5F011709F4EBCB80911C01C1
:100A8000882361F2DBCF89E191E00E94B010082F4A
:100A9000E82FF0E03596812F90E0E817F90709F08C
:100AA000E0CE002389F180911C01811113C084E004
:100AB00062D4FDCF99DB082F10E092CC89E191E060
:100AC0000E94B010D82E80911C0181113AC084E0A0
:100AD00052D4FDCFB6E6CB2EB4E0DB2EEFEFE00F25
:100AE000F0E0CF0189599B4F7C0189E191E00E94A0
:100AF000B010F60181936F01EE15FF0529F080918A
:100B00001C018823A1F2F1CF282D492D6A2D8B2DB0
:100B10000E947E108093210561E089E80E948E1773
:100B200098CBE82FF0E0EE0FFF1FEE0FFF1FEE0F48
:100B3000FF1FE95EFC4F84818093240510922505F8
:100B400016CF89E191E00E94B010282F30E03D29B6
:100B50003093200520931F052F38F3E03F0740F026
:100B600081E08093210561E081EA0E948E1771CBBC
:100B7000220F331FA901440F551F440F551F440F67
:100B8000551F240F351F3093A8012093A701E02E95
:100B9000F12CF701EC51FE4FD082F701ED51FE4FE1
:100BA000808322DBF701EB51FE4F80831DDBF701D1
:100BB000EE51FE4F808318DBF701EF51FE4F80832B
:100BC00013DBF701E052FE4F80830EDBF701E152A9
:100BD000FE4F808309DBF701E252FE4F8083809154
:100BE000DA014091DB0150E060E070E0BA01552786
:100BF0004427782B8091DD01482B8091DC01582B14
:100C000081E090E0A0E0B0E0002E04C0880F991FC2
:100C1000AA1FBB1F0A94D2F7482B592B6A2B7B2B98
:100C20007093DA016093DB015093DC014093DD01A6
:100C300081E0011196CFD6D21093A6011092A501A2
:100C40001092A40180E090E4A0E0B0E08093A001C5
:100C50009093A101A093A201B093A30180E081CF62
:100C60008091A601811108C0299A1092CC0110929E
:100C7000CB0181E08093C00108951F920F920FB6BF
:100C80000F9211248F929F92AF92BF92EF92FF9298
:100C90000F931F932F933F934F935F936F937F9384
:100CA0008F939F93AF93BF93CF93DF93EF93FF9374
:100CB0008091C8008871809318014091CE004093C4
:100CC000170180911801811112C08091A601811134
:100CD0002EC080911C01823829F1642F89E191E0B6
:100CE0000E949C108C3518F01092CC01299AFF912B
:100CF000EF91DF91CF91BF91AF919F918F917F91B4
:100D00006F915F914F913F912F911F910F91FF90A4
:100D1000EF90BF90AF909F908F900F900FBE0F906D
:100D20001F90189584E027D384E025D3FBCFE09172
:100D3000A401F091A5019F01A3E8BDE20E94171A4A
:100D40000024880F991F001C880F991F001C892FF1
:100D5000902D68E671E0869F9001879F300D969FE9
:100D6000300D1124E217F30721F498B184E08927AC
:100D700088B9299AC091A401D091A5018090A001C1
:100D80009090A101A090A201B090A301C501B4016F
:100D90006C0F7D1F811D911DE1D12196D093A5017E
:100DA000C093A4018091A7019091A801C817D90709
:100DB00010F429989CCF1092160180911F059091F4
:100DC0002005892B09F43CC0E12CF12CC0E000E0A7
:100DD00010E0D7E042E150E0C501B4016E0D7F1D87
:100DE000811D911D6FD1E6EEF1E0619170E028E088
:100DF00030E080E890E0AC2FA078AC014623572388
:100E0000452B21F041E0A11140E0A42FCC0FA1110E
:100E1000CD27969587952150310969F781E0E83F04
:100E2000F80719F7C09316010F5F1F4F82E1E80E14
:100E3000F11C80911F05909120050817190750F2A9
:100E400080E0D0D14091E50160E070E0CB0186D137
:100E50004091E40161E070E080E090E07FD140915A
:100E6000E30162E070E080E090E078D14091E2013F
:100E700063E070E080E090E071D14091E10164E0D6
:100E800070E080E090E06AD14091E00165E070E0C0
:100E900080E090E063D14091DF0166E070E080E0A7
:100EA00090E05CD14091DE0167E070E080E090E08E
:100EB00055D1CAEDD1E058E0852E912CA12CB12C52
:100EC0004991C501B4014AD18FEF881A980AA80A3E
:100ED000B80A8CE088169104A104B10489F7409106
:100EE000D9016CE070E080E090E038D11092A6016A
:100EF0001092A5011092A40184EF91E0A0E0B0E06F
:100F00008093A0019093A101A093A201B093A301AB
:100F100030D38091C100877F8093C10082E08093AD
:100F2000B00094E09093B100809370001092B200F2
:100F300084BD95BD80936E0016BC8FEF87BD80E5A4
:100F40008093B30080E0E4D2509886D310922105BC
:100F500061E083EE0E948E172998C9CE8091C60069
:100F6000853608F084E68093890286E008958091B2
:100F7000C600809386029091010282E8891B84302A
:100F800070F08FE7891B8093FB0190918602953664
:100F900020F4891710F082E008958AE0089580E037
:100FA000F2CF1092F60210928602109289021092ED
:100FB000F4028BE28093F50285E08093F9011092B0
:100FC00087028FEF8093FD010895A1E0B0E0EBEE82
:100FD000F7E00C94301A072F182F292F33276C01B4
:100FE000EE24FF242C9846E04EBD0DB407FEFDCF45
:100FF0004EB54093F8012C9A2C9840E24EBD0DB4AA
:1010000007FEFDCF4EB54093F801CEBC0DB407FEF0
:10101000FDCF4EB54093F8010EBD0DB407FEFDCFD8
:101020002EB52093F8016EBD0DB407FEFDCF8EB531
:101030008093F8012C9A2C9885E08EBD0DB407FEA4
:10104000FDCF8EB58093F8019FEF9EBD0DB407FED6
:10105000FDCF8EB58983898180FDF7CF2C9A2196AB
:10106000E8E00C944C1A9091D8012091D80140915D
:10107000D8018091D8013091D80182958F70469522
:10108000469546954827892F86958695982F9227CD
:10109000842F8927879588278795932F9695892B65
:1010A0008093D8018091D80108958091C60088234B
:1010B00029F08FE180938A0278C5089510928A0200
:1010C00074C50895CF92DF92EF92FF920F931F9312
:1010D000072F182F292F33276C01EE24FF242C987B
:1010E000EBE0EEBD0DB407FEFDCFEEB5E093F801E9
:1010F000CEBC0DB407FEFDCFEEB5E093F8010EBDFA
:101100000DB407FEFDCF2EB52093F8016EBD0DB4D2
:1011100007FEFDCF8EB58093F80183E68EBD0DB43A
:1011200007FEFDCF8EB58093F8014115510571F092
:10113000E6EEF1E04A515E4F9FEF9EBD0DB407FE13
:10114000FDCF8EB58193E417F507B9F72C9A1F915F
:101150000F91FF90EF90DF90CF900895CF92DF92A4
:10116000EF92FF920F931F93072F182F292F3327EA
:101170006C01EE24FF242C9856E05EBD0DB407FEF2
:10118000FDCF5EB55093F8012C9A2C9852E05EBDCD
:101190000DB407FEFDCF5EB55093F801CEBC0DB483
:1011A00007FEFDCF5EB55093F8010EBD0DB407FEEE
:1011B000FDCF2EB52093F8016EBD0DB407FEFDCF17
:1011C0008EB58093F8014EBD0DB407FEFDCF8EB5F0
:1011D0008093F8012C9A1F910F91FF90EF90DF9070
:1011E000CF900895CF92DF92EF92FF92C82ED12C2C
:1011F000E12CF12C8EE0CC0CDD1CEE1CFF1C8A9542
:10120000D1F7C701B601E1DEA895C701B601705F4D
:101210008F4F9F4FDADEA895C701B601705E8F4FE2
:101220009F4FD3DEA895C701B601705D8F4F9F4FCA
:10123000CCDEA895FF90EF90DF90CF900895CF93EC
:10124000DF9348E050E060E070E0CB013BDFC6EEAA
:10125000D1E088818093E50189818093E4018A81CE
:101260008093E3018B818093E2018C818093E10183
:101270008D818093E0018E818093DF018F81809347
:10128000DE0145E050E068E070E080E090E01ADFC9
:10129000EAEDF1E088818083898181838A8182837C
:1012A0008B8183838C818093D901DF91CF910895C5
:1012B0001F920F920FB60F9211240F900FBE0F9036
:1012C0001F9018951F920F920FB60F9211242F9313
:1012D0003F934F935F936F937F938F939F93AF93BE
:1012E000BF93EF93FF93369B1BC010926800109240
:1012F0006D001092F9018AE28093F502E091F90104
:10130000F0E0EE0FFF1FE050FF4F0190F081E02D65
:1013100009958093F9011092C80181E08093C90179
:10132000FF91EF91BF91AF919F918F917F916F91BD
:101330005F914F913F912F910F900FBE0F901F9093
:1013400018958130B1F0882379F0613081F06623FF
:1013500031F0413039F0411101C0429A0895109A9C
:101360004130C9F742980895179A613081F7109873
:10137000F0CF1798EACF90E08830910548F4FC014F
:10138000E254FF4F0C94111A40E061E080E0D9CFA5
:10139000089541E060E080E0D4CF089541E061E04D
:1013A00081E0CFCF089540E060E080E0CACF0895AB
:1013B00041E061E080E0C5CF089541E060E081E078
:1013C000C0CF089540E061E081E0BBCF089540E0E8
:1013D00060E081E0B6CF08951F920F920FB60F9292
:1013E00011242F933F934F935F936F937F938F932A
:1013F0009F93AF93BF93CF93EF93FF938091CC01D3
:10140000811103C081E08093CB01359B12C0FF9115
:10141000EF91CF91BF91AF919F918F917F916F91FC
:101420005F914F913F912F910F900FBE0F901F90A2
:101430001895359921C0C091D701C330E8F4809147
:10144000D5019091D60101969093D6018093D50154
:101450002091D3013091D40182179307C0F280917B
:10146000D101883391F0893399F18733D1F010920B
:10147000D6011092D501CBCF8091D201813039F6BF
:101480001092D20110920803C2CF80E074DF87E38C
:101490008093D10180E293E09093D4018093D301B3
:1014A000E6CF8091D0018F5F8093D001823061F1CF
:1014B0008330F9F0813021F18330F1F088E38093BB
:1014C000D10188EE93E09093D4018093D301CFCFE4
:1014D00080E051DF1092D001CF5FC093D70187E346
:1014E0008093D10184E398E09093D4018093D30159
:1014F000BECF8091CD013FDF89E38093D101E1CF61
:101500008091CF0138DFDACF8091CE0134DFD6CFA2
:1015100080938B028230C1F048F0843079F0C0F0C3
:10152000853081F45D9A5E985F9A08958823A1F0D2
:10153000813049F45D9A5E985F9808955D985E9851
:101540005F9A0895089508955D985E9A5F9808954A
:101550005D9A5E9A5F9808955D985E985F98089589
:10156000E1ECF0E080818860808380818F7E8083E1
:101570000895E1ECF0E080818F7E808308951F92D2
:101580000F920FB60F9211242F933F934F935F93B7
:101590006F937F938F939F93AF93BF93EF93FF933B
:1015A0008091BF01882309F452C08091C00084FF5C
:1015B00020C081E08093BD018091C6008093BE0170
:1015C0008091F9018A3049F18091BD01813029F182
:1015D000FF91EF91BF91AF919F918F917F916F910B
:1015E0005F914F913F912F910F900FBE0F901F90E1
:1015F00018958091C00083FDDCCF10927000E091BF
:10160000F901F0E0EE0FFF1FE050FF4F0190F08175
:10161000E02D09958093F901D3CF1092C901109262
:10162000C801BFDCA6DF81E08093BF0194E0909306
:10163000B30082E08093B0009093B100809370007B
:101640001092B2001092C4011092BD01C1CF8091DE
:10165000C6008093BE01BCCF1092C9011092C80190
:10166000A0DC87DF81E08093BF0194E09093B3001A
:1016700082E08093B0009093B1008093700010924C
:10168000B2001092C4011092BD0108951F920F92F2
:101690000FB60F9211242F933F934F935F936F9345
:1016A0007F938F939F93AF93BF93EF93FF9380911B
:1016B000CA018F5F8093CA018091C9018823A1F17B
:1016C0008091C801833080F18091FD018F3F19F036
:1016D0008091FD01D7D3E091C601F091C701309709
:1016E00019F08091F5020995B7DF8091C50191E06D
:1016F000980F9093C501893028F01092C5018FE7AB
:101700008093880216BCFF91EF91BF91AF919F919A
:101710008F917F916F915F914F913F912F910F909A
:101720000FBE0F901F9018958091C9018823E9F290
:101730008091C8018F5F8093C801D7CFE1ECF0E0C2
:101740008081806180838081877F808308951F925C
:101750000F920FB60F9211242F933F934F935F93E5
:101760006F937F938F939F93AF93BF93CF93EF9399
:10177000FF93E091C4018E2F90E08730910590F5A2
:10178000FC01EA53FF4F0C94111A8091C201C0DE94
:10179000489BA6C0509A58988091C101882309F4AB
:1017A00092C08091C201982F990F890F880F825E95
:1017B0008093B30083E08093C40155DC95E2899F58
:1017C000212D1124982F921B9695920F9695969500
:1017D000292F220F220F220F291B821B8093C20167
:1017E0001092C0011092B200FF91EF91CF91BF9182
:1017F000AF919F918F917F916F915F914F913F91A9
:101800002F910F900FBE0F901F9018952CDC95E232
:10181000899F212D1124982F921B9695920F9695B2
:101820009695292F220F220F220F291B821B8093AE
:10183000C20183E08093C401D5CF12DA1092C401B3
:1018400050987CDF84E08093B3001092B200CACF3E
:1018500090DE80918B028093C301C5E08091C3012B
:101860008F5F8093C3018091C301863010F0109286
:10187000C3018091C3014CDE489B48C0C15071F741
:10188000EFD981E08093C4018093B3001092B2003D
:10189000A9CF8FEF8093B30083E08093C401A2CFE0
:1018A0008091C201863049F1DBD984E68093B30090
:1018B00086E08093C40196CF85E08093C40184E6DE
:1018C0008093B3008FCF8091C201982F990F890F19
:1018D000880F8F518093B30082E08093C4016DCF55
:1018E00084E08093680080E480936D001092B100E2
:1018F000109270001092B20075CF1092C0018FEF5D
:101900008093B30084E08093C4016CCF84E0809323
:10191000680080E480936D001092B1001092700016
:101920001092B200ADCF9091C00095FFFCCF809394
:10193000C6008091C00086FFFCCF8091C00080640B
:101940008093C00008950F931F93CF93DF9320914E
:101950008702E22FF0E0E357FD4FC0818FEF820F47
:10196000809387021092F302882371F0EEE8F2E090
:10197000225030E021573D4F80E09191890FE217CE
:10198000F307D9F78093F302EBDD00918602002381
:1019900009F43EC08091F302C817F9F080E0C3DF7C
:1019A000CDDE109287028091F4028F5F8093F40263
:1019B000863030F483E0DF91CF911F910F9108952D
:1019C0009091850280910703891B809307038AE029
:1019D000DF91CF911F910F91089560918B028EEF4F
:1019E00091E0AAD36091FD018EEF91E0A5D3CEE8FE
:1019F000D2E0015010E001571D4F69918EEF91E048
:101A00009BD3C017D107C9F76FEF8EEF91E094D346
:101A100081E089DF93DE8091F5028A3231F08AE03D
:101A2000DF91CF911F910F9108951092F40285E0FC
:101A3000DF91CF911F910F9108958091870290912E
:101A4000C600E82FF0E0E257FD4F90838F5F809350
:101A5000870290E02091860230E02F5F3F4F82178F
:101A6000930711F083E008956ECF08958091C6002A
:101A70008093FC0190918602992341F0811102C06C
:101A800083E008958F3120F08AE008955CCF0895B7
:101A90009817D0F3809107038F5F8093070381E04D
:101AA0008093850283E00895CF935ADD90910102DF
:101AB00082E8891B843080F1CFE7C91BC093FA010B
:101AC0008C2F31DF8FEF8093FD01CF31B0F120E01B
:101AD00030E080E043E2429FF001439FF00D11248B
:101AE000E954FC4F9281911104C09381911101C07E
:101AF0008F5F2F5F3F4F2530310569F710928502C8
:101B0000909107039817E8F490910703891B0BDF66
:101B100015DE81E0CF9108951092FA0180E003DF95
:101B20008FEF8093FD01109285028091070380E082
:101B3000FADE04DE81E0CF91089510928502809153
:101B4000070380E0E4CFEF92FF920F931F93CF93B0
:101B5000DF931092F30204DDC091F6028C2FE3DED6
:101B60008091F202E0DECC23B9F00EE812E0C15021
:101B7000D0E0CE0181579D4F7C01C0E0F8018191FA
:101B80008F01C80FC093F302CEDE9AE0000091509F
:101B9000E9F70E151F0591F78C2FC5DECFDD89E023
:101BA000CDB7DEB7E6E00C944E1AAF92BF92CF925B
:101BB000DF92FF920F931F93CF93DF938FEF80936A
:101BC000F70280918D02A0918A026091890295E0CE
:101BD00073E28F5F853008F0CBC0482F50E0749FD0
:101BE000F001759FF00D1124E954FC4F31812091D3
:101BF0008B02321709F4C0C0915059F780938D02BF
:101C00001092F20280938C028091880220918B02C4
:101C100090E002C0959587952A95E2F75091F602DB
:101C200080FF0AC0252F30E0862F90E0F90138961A
:101C3000E817F9070CF4D7C08091090370E040E081
:101C4000AA24A394B12C01E012E0842F90E0880F25
:101C5000991F880F991F880F991FDC01A95EBC4F3F
:101C600017962C911797222309F46FC016962C9182
:101C70001697E0918B0230E002C035952795EA95E2
:101C8000E2F720FF62C0E52FF0E09F01295F3F4FA0
:101C9000261737070CF05FC020918B021696FC9038
:101CA0001697650102C0CC0CDD1C2A95E2F796015F
:101CB000209530952F2116962C931697E257FD4FBD
:101CC0000083E1E0E50FF0E0E257FD4F10832C9137
:101CD000E2E0E50FF0E0E257FD4F208311962C91F2
:101CE0001197E3E0E50FF0E0E257FD4F20831296F5
:101CF0002C911297E4E0E50FF0E0E257FD4F2083CE
:101D0000FC01E65EFC4F20812F7085E0850F90E09E
:101D100082579D4FEC01288314962C91149786E0EE
:101D2000850F90E082579D4FEC012883808187FBCF
:101D3000992790F915968C91E7E0E50FF0E0585F50
:101D4000E257FD4F880F890F80834F5F8091090311
:101D5000841708F07ACF5093F602F5DEDF91CF9129
:101D60001F910F91FF90DF90CF90BF90AF9008959B
:101D700040E050E080E033CF2281213009F03CCFB9
:101D80002081A21708F438CF2081621708F434CFDD
:101D900080938D021092F20280938C02908199239D
:101DA000A1F02091F60290E0DF01A90FB11D149679
:101DB0003C91A22FB0E0A257BD4F3C939F5F308172
:101DC0002F5F931788F32093F60293E2949FF0011C
:101DD000959FF00D1124E954FC4F90819093F202ED
:101DE0008093F70211CF70918B024091880281E0BD
:101DF00090E002C0880F991F7A95E2F78095909540
:101E0000842380938802F901E257FD4F81E08083AB
:101E1000E1E0E50FF0E0E257FD4F82E08083E2E091
:101E2000E50FF0E0E257FD4F809185048083E3E009
:101E3000E50FF0E0E257FD4F809186048083E4E0F7
:101E4000E50FF0E0E257FD4F809187048083E5E0E5
:101E5000E50FF0E0E257FD4F108280910503E6E0C8
:101E6000E50FF0E0E257FD4F808388E0850F809317
:101E7000F602595FE52FF0E0E257FD4F98E09083BE
:101E8000582FDACE853048F493E2899FF00111246F
:101E9000E954FC4F12821382108208958091C6008B
:101EA000813049F08091F4028F5F8093F402863094
:101EB00098F08AE008958091F7028F3F19F08091A1
:101EC000F702E0DF1092F6028091F5028A3289F380
:101ED0001092F402E9CD089536CE089510921603BB
:101EE0001092150310921403109213031092120310
:101EF00010921103109210030895A8E0B0E0E3E8F7
:101F0000FFE00C94361A9091090390E038E005C088
:101F10009F5F209109032917F8F0E92FF0E0EE0FF9
:101F2000FF1FEE0FFF1FEE0FFF1FE95EFC4FDE01EC
:101F30001196232F01900D922A95E1F729812813FC
:101F4000E7CF2A812613E4CF2B812413E1CF288504
:101F50002223F1F2892F01C08FEF2896E2E00C9442
:101F6000521A6F927F928F929F92AF92CF92DF928E
:101F7000EF92FF920F931F93CF93DF931F92CDB7F2
:101F8000DEB7182FD62EF42E4A2D6C2D8E2D2983D8
:101F9000B4DF29818F3F09F4ADC0682E712CE0E0D9
:101FA000F0E083E2103A60F48E9FD0018F9FB00D75
:101FB0001124A954BC4F12969C911297913021F193
:101FC0008E9FD0018F9FB00D1124A954BC4F129643
:101FD0009C911297911104C013969C91992339F109
:101FE0003196E530F105F1F68FEF0F90DF91CF914B
:101FF0001F910F91FF90EF90DF90CF90AF909F9047
:102000008F907F906F90089514969C911497191358
:10201000D7CF1A969C911A97E912D2CF1B969C9112
:102020001B97C912CDCF1C969C91A912C9CFD30181
:10203000AA0FBB1FAA0FBB1FAA0FBB1FA65EBC4FD8
:102040008C91829587706989462F50E04631510501
:1020500014F080E0CACF93E29E9FA0019F9F500D95
:102060001124DA01A554BC4F3D0149545C4FDA01FB
:1020700012961C92129791E013969C9313971196C7
:102080008C93D3011C93862F8D5F11968C9311979F
:102090001296DC9212971396FC92139714962C9337
:1020A000149715960C9315971696EC92169717960B
:1020B000CC9217971896AC926623F1F09401675F63
:1020C00089E0A301480F511DD9019D919D01DA01BD
:1020D0009C938F5F8613F5CF23E22E9FC0012F9F25
:1020E000900D1124FC01E954FC4F608381E0828350
:1020F00080E07BCF8EEF79CF69E0EECF8F929F9219
:10210000AF92CF92EF920F930F9396E6892E94E0C1
:10211000992EA22EC42EE62E00E020918704409135
:102120008604609185041DDF0F900F91EF90CF9092
:10213000AF909F908F900895FC01818191E0980F5E
:102140009183DF01A80FB11D15966C939181828157
:10215000891708F4118283818F5F838383810895B7
:10216000FC018081DF01A80FB11D15968C91908133
:102170009F5F908320819281921708F4108293814F
:102180009150938394819F5F9483089580918B04F1
:1021900090918C04FC011482E0918D04F0918E04E6
:1021A000309759F060918A0480918904099501C0A3
:1021B000D7DF80918B0490918C04FC0134812091B5
:1021C0008A043217A8F3109288041092890410929E
:1021D0008A040895A0E0B0E0E0EFF0E10C942E1A3C
:1021E000C0910E03D0910F0388E0A82E12E095E075
:1021F000B92E27E0C22E34E0D32E46E0E42E53E081
:10220000F52E01E09B8180911603863040F49111F8
:102210000BC0CDB7DEB7EAE00C944A1AB4C08630E2
:1022200009F4A5C08730B1F0E09116034E2F50E0BD
:1022300048305105D0F010921603109215031092F9
:1022400014031092130310921203109211031092B0
:102250001003D8CF809111039817D8F2E09116039C
:102260004E2F50E04830510530F7FA01E353FF4F4D
:102270000C94111ACE0174DF80931403CE0170DF29
:1022800080931303CE016CDF80931203D092160368
:10229000B9CFA09216038881FE01E80FF11D858158
:1022A0008F3F09F46DC0109216031092150310921F
:1022B0001403109213031092120310921103109240
:1022C0001003109316039ECFC0921603CE0148DF71
:1022D0008093100397CFCE0143DF80931103E092E8
:1022E0001603809111038F3108F0A5CF8BCFCE015B
:1022F00037DF80931503F092160384CFCE0130DFD1
:1023000080930B031093160380910B03853008F420
:1023100079CF80910B038F3F09F08DCF73CFCE0122
:102320001FDF80930A030093160380910A0386300F
:1023300008F081CF67CFB09216031C82E0910C03A6
:10234000F0910D03309729F00995C0910E03D091BB
:102350000F038C8190911103891708F053CFCE01A0
:10236000FFDE9C81809111039817C8F34BCF933007
:1023700008F05ACFCDB7DEB7EAE00C944A1A03C092
:10238000CE01EEDE58CFA0E0B0E0E9ECF1E10C9434
:102390002A1AB82ED62EF42ED22F3801CE2DA8957B
:1023A000CF934301AD2ECF2CED2C00E0209187047C
:1023B00040918604609185048B2DD3DD0F908111AF
:1023C00006C080E0CDB7DEB7EEE00C94461A02DF1F
:1023D000E7CF4F925F926F927F928F929F92AF92D0
:1023E000CF92EF92FF920F931F93CF93DF93CDB7CE
:1023F000DEB767970FB6F894DEBF0FBECDBFA895C6
:102400008091140310918504811709F48CC0809188
:1024100015038037F8F480911503813009F4BEC0AC
:10242000809108038F5F8093080367960FB6F89436
:10243000DEBF0FBECDBFDF91CF911F910F91FF90F7
:10244000EF90CF90AF909F908F907F906F905F9024
:102450004F90089540900E0350900F03C20180DE0C
:10246000E82EC2017DDEC82EC2017ADEA82E0091C0
:1024700011034091120360911303809114033DDD19
:102480008F3FC1F09091FB02E82FF0E0EE0FFF1FAD
:10249000EE0FFF1FEE0FFF1FE95EFC4F2781892F14
:1024A00090E0049630E08217930724F08091FB02BD
:1024B0008B5F878380918704A81609F452C04A2D48
:1024C0006C2D8E2D1ADD8F3F19F190911503983ADE
:1024D00009F4E3C0035009F4ABC1CE0101964C01ED
:1024E0003C0110E01F5FC2013BDEF30181933F011D
:1024F0000113F8CF009110032091120340911303B0
:1025000060911403809115030F5F1F932ADD0F90D4
:1025100080910703882309F483CF809107038150BA
:10252000809307037DCF90911303809186049813C5
:102530006ECF9091120380918704981368CF809199
:102540001103882309F471CF80900E0390900F033C
:1025500010E0C40105DE1F5F909111031917C8F345
:1025600064CF80918604C812AACF1E11A8CF809193
:102570000703882329F08091070381508093070384
:1025800080911503803709F458C1E0910303F0915D
:102590000403309709F444CF099542CF00910E030C
:1025A00010910F03C801DCDDC82EC801D9DD8F8B67
:1025B00000910A039F899170A92EE82EE69410914C
:1025C00010031F5F5090120340901303F090140308
:1025D000452D642D8F2D91DC8F3F09F496C0E82F97
:1025E000F0E0EE0FFF1FEE0FFF1FEE0FFF1FDF01EA
:1025F000A65EBC4F2C912F70812F90E030E0281701
:1026000039079CF11F70DF01A95EBC4F13968C91B6
:102610001397807F182B13961C931397802F877026
:10262000982F9295907F13968C9113978F78892B82
:1026300013968C9313971496CC9214971596EC924C
:1026400015978FE716968C9316978091FB02179635
:102650002C91179790E0049630E0821793072CF0A6
:102660008091FB028B5F17968C93AA2049F0DF01C3
:10267000A95EBC4F13968C911397806813968C9328
:10268000E95EFC4F268181E090E001C0880F0A9549
:10269000EAF7809582238683C3CE90E0880F991F46
:1026A000880F991F880F991FFC01E95EFC4F2FEFDF
:1026B0002783F2012081E20FF11D2581211110C035
:1026C00020910A032093FD02FC01E65EFC4F80810D
:1026D000829587708093FE0282E08093FC02FACE9E
:1026E0001092FD0281E08093FE0282E08093FF025F
:1026F00083E08093000384E08093010385E080936E
:10270000020386E08093FC02E5CE27E133E0612CF2
:10271000712CCE0101964C0148E00AC0FFEF6F1A00
:102720007F0A285F3F4F84E16816710409F478CE70
:10273000962DF901D401842F01900D928A95E1F72D
:1027400088858111EBCFD301AA0FBB1FAA0FBB1F36
:10275000AA0FBB1FA95EBC4FFC9211964C92119719
:1027600012965C92129713968C911397282F207FC4
:10277000812F8F70822B13968C931397802F8770E5
:102780008295807F13962C9113972F78822B139626
:102790008C9313971496CC92149713968C9113974D
:1027A0008F7713968C9313978FE716968C931697C3
:1027B0008091FB028B5F17968C9317971596EC927E
:1027C00015978091FB028F5F8093FB02E4E0EE1689
:1027D00009F442C080910903891710F4909309030A
:1027E0008091F8029091F902892BD1F0E091F802E2
:1027F000F091F9022C9111963C91119712964C91FF
:10280000129713965C91139714966C9114971596E2
:102810007C91159716968C91169717969C91099511
:10282000F301EE0FFF1FEE0FFF1FEE0FFF1F28CF6C
:1028300010E0CE0101964C015DCEC20191DC182F53
:10284000C2018EDC8093060380910603882309F47D
:10285000E7CD10930503E4CD113009F0BBCF109301
:10286000FA02B8CFA1E0B0E0E7E3F4E1F1C514BEAD
:1028700099E288E10FB6F894A895809360000FBEA6
:10288000909360008EE190E0B6D5813021F061E058
:102890008EE190E0B8D582E38093D80188EC90E097
:1028A000AAD58093CF0189EC90E0A5D58093CE0185
:1028B0008AEC90E0A0D58093CD0184E690E09BD592
:1028C000082F8093870485E690E095D5F82E8093B5
:1028D000860486E690E08FD5182F8093850487E6DE
:1028E00090E089D50F0D100F181739F08FEF8093F6
:1028F0008704809386048093850487E0809319057C
:10290000089A109A0F9A179A3A9A429A3E984698BD
:102910005098589851985998539A5B9A52985A9847
:10292000559A5D98569A5E98579A5F983F9A479A3B
:102930000A981298219A29983D984598279A2F9895
:102940000B9A13983C9A44980C9A149880E00E9431
:10295000BB098091C00082608093C0008091C1005B
:1029600080688093C1001092C40006E00093C2000A
:102970000E94B90A8091C100877F8093C10012E054
:102980001093B000E4E0FE2EF092B10010937000BE
:102990001092B20080E58093B30080E00E94880A24
:1029A000509814BDF5BC10936E0016BC8FEF87BD18
:1029B000109280008DE08093810010936F00109240
:1029C00085001092840083E090E0909389008093CA
:1029D000880089E18093CC008091C8008260809358
:1029E000C8008091C80080648093C8008091C900AD
:1029F00088618093C9008091C90080688093C90074
:102A00000093CA001092190110921A0181E8809374
:102A10001B0110921C011092920410929304809357
:102A200094041092950410928804109289041092D4
:102A30008A0489E191E090938C0480938B0481E077
:102A400091E090938E0480938D041092180110925F
:102A5000C0011092CB0181E08093CC011092AA01B9
:102A60008091C90088608093C9008091C90080610D
:102A70008093C900249A2C9A2698259A279A8CE547
:102A80008CBD2C980EBD0DB407FEFDCF8EB5809386
:102A9000F8012C9A2C9889E38EBD0DB407FEFDCF6A
:102AA0008EB58093F8011EBC0DB407FEFDCF8EB528
:102AB0008093F8011EBC0DB407FEFDCF8EB5809348
:102AC000F8011EBC0DB407FEFDCF8EB58093F80152
:102AD0002C9AA8950E941F0978941092FE011092DA
:102AE000FF0181E880930002109201021092160308
:102AF00010921503109211038EEF91E090930F0343
:102B000080930E0389EE91E190930D0380930C0363
:102B100089E380938F0488EE93E09093D4018093AF
:102B2000D30187E38093D10181E08093D201109299
:102B3000FB022BE939E13093F9022093F80221EDF1
:102B400039E130939104209390041092FD02809318
:102B5000FE0292E09093FF0293E09093000394E0D2
:102B60009093010395E09093020326E02093FC02EA
:102B700029E738E130930403209303031092C7013F
:102B80001092C6018093BF018BE28093F50290936F
:102B9000F9018FEF8093FD0130ED832E37E0932E06
:102BA000BB24B39443E0442E55E0552E64E0662EDA
:102BB00072E0772EA8950EDBA8959091CA018091BE
:102BC0001905891708F4EAC0A8958091D2018111EE
:102BD00008C0809108038B3020F08D3008F042C18E
:102BE0001098359B83C08091C001811179C080917C
:102BF0001C018C3518F4B092CC0129988091950471
:102C00008C3508F433C1809195048C3508F064C08C
:102C1000359B62C0C090AA01CC2009F45DC0D12CC4
:102C20009DEAE92E91E0F92E00E010E0A12C09C008
:102C30000F5F1F4FE3E0EE0EF11C0630110509F4A3
:102C400048C0C601002E02C0959587950A94E2F708
:102C500080FFEECFF701408131976081319780810D
:102C60004CD98F3F29F3E82FF0E0EE0FFF1FEE0F56
:102C7000FF1FEE0FFF1FE95EFC4F868186FFD8CF56
:102C800086818F7B86838081AA2DB0E0AF5DBA4FAD
:102C90008C938181A1E0AA0DB0E0AF5DBA4F8C9317
:102CA0008281A2E0AA0DB0E0AF5DBA4F8C9384811F
:102CB000E3E0EA0DF0E094E0A90EEF5DFA4F8083C7
:102CC0000F5F1F4FE3E0EE0EF11C0630110509F017
:102CD000B8CF6A2D81EE22D18091CB01811135C010
:102CE00080911A05811166CF429864CF8091C80007
:102CF00083FF03C08091CE0089838091C80084FF48
:102D000003C08091CE0089838091C80087FDF9CFF0
:102D10001092190110921A0110921C0110921801C0
:102D20008091C80080648093C80010929204109231
:102D300093041092950480911A0581113BCF8091E4
:102D4000D201811137CF429A35CF009195040023EB
:102D5000C9F0029913C010E082E994E001DA80938F
:102D6000CE008091C80085FFFCCF8091C80086FF0F
:102D7000FCCF1F5F101731F0029BEECF2998C401E2
:102D80000197F1F71092CB01C4010197F1F7B092CE
:102D9000CC0180911A0581110DCFA6CF8091090336
:102DA000F12C06C0F394809109038F1508F457C0E5
:102DB0000F2D10E0000F111F000F111F000F111F2A
:102DC000D801A95EBC4F17968C911797882351F3B1
:102DD00017968C911797815017968C93179781119E
:102DE000E1CF83E18F15F0F28091900490919104EE
:102DF000892BD1F0E0919004F09191042C911196DF
:102E00003C91119712964C91129713965C911397DF
:102E100014966C91149715967C91159716968C9133
:102E2000169717969C9109958091FB02815080938B
:102E3000FB02F801E95EFC4F178280910903F8124A
:102E4000B1CFFF2009F4AECF809109038150809368
:102E50000903F394809109038F1508F0A9CF10920C
:102E6000CA01B2CE109A10920803BBCE80918B0497
:102E700090918C04FC01238130E04091880444301F
:102E8000B9F04530C9F440918A0450E02417350761
:102E900008F4B9CE209188042230A9F02330C8F07C
:102EA000243091F158F1253009F0ADCE6FD9ABCE79
:102EB00040918A04442371F3232B09F4A4CE20917A
:102EC0008804223059F74CD980938A0440928804B0
:102ED0009ACE222349F0213009F095CE41D9809332
:102EE0008904709288048FCE3BD98C33A1F0109264
:102EF00088041092890410928A0485CE31D98E33C9
:102F0000B1F7609288047FCE80918A04882371F2A1
:102F10005092880478CEB092880475CE0F931F9398
:102F2000CF93DF93D82FC62F80919504823821F458
:102F300084E00E94BB09FCCF6CE382E994E0FCD8FA
:102F400080919504823821F484E00E94BB09FCCF73
:102F50006D2F82E994E0F0D880919504823821F4B5
:102F600084E00E94BB09FCCF6C2F82E994E0E4D896
:102F700080919504823821F484E00E94BB09FCCF43
:102F80006EE382E994E0D8D8CC2351F0609121051A
:102F900080919504823849F484E00E94BB09FCCFFB
:102FA000DF91CF911F910F91089502E215E0C1507A
:102FB000D0E0CE5DDA4F82E994E0BED80C171D0751
:102FC00079F3F80161918F0180919504823821F3A2
:102FD000F2CFEF920F931F93CF93DF9392B181E0E3
:102FE000892782B96091A405862F90E0A0E0B0E027
:102FF0005EE0880F991FAA1FBB1F5A95D1F7209139
:10300000A2053091A305220F331FA901440F551FBC
:10301000440F551F440F551F240F351F820F931F58
:10302000A11DB11DBC01CD01705C8F4F9F4F42E1CE
:1030300050E00E9462088091E60190E0982F882776
:103040002091E701822B969587959093E6018093D6
:10305000E7019093A1058093A005A2E1EA2E06EE78
:1030600011E020919F0540919E0560919D0586EAA3
:103070008AD9C091A205D091A3059E0136952795C6
:10308000ABE7B4E1D4D19695879542E3489F900190
:10309000499F300D1124C217D30759F02196D093C0
:1030A000A305C093A205DF91CF911F910F91EF90DF
:1030B00008959E01220F331FC901880F991F880FA1
:1030C000991F880F991F820F931F8093210590935A
:1030D000220580919D058093230580919E05809314
:1030E000240580919F058093250565E084EE16DF19
:1030F000D5CFA3E0B0E0EEE7F8E1B2C1D090110384
:103100008DEF8D0D909115039A3AD1F190911503A1
:103110009C3A09F466C090911503973A09F475C07A
:10312000909115039093210590911403909322059B
:10313000909113039093230590911203909324058B
:10314000809325058823A9F006E215E08CEF8D0D0C
:1031500090E09C01295D3A4F790180910E03909196
:103160000F030E94B010F80181938F01EE15FF0547
:10317000A1F762E06D0D82EED1DE2396E8E08CC10E
:103180006091140390919D05691709F46CC09091AA
:10319000150390932105909114039093220590912B
:1031A0001303909323059091120390932405809329
:1031B00025058823F1F206E215E08CEF8D0D90E0F5
:1031C0009C01295D3A4F790180910E0390910F0384
:1031D0000E94B010F80181938F01EE15FF05A1F751
:1031E000C8CF81E08093C10114E102C0115029F2DF
:1031F0002091A2053091A30580911F059091200593
:103200002817390798F7E5DEF1CF80910E039091EA
:103210000F030E94B01080910E0390910F030E9443
:10322000B01080911D0590911E05019690931E058A
:1032300080931D0520911B0530911C058217930773
:1032400070F514E103C0115009F497CF2091A20545
:103250003091A30580911F0590912005281739070B
:1032600090F7B7DEF0CF4091130390919E0549137C
:103270008ECF2091120390919F05291388CF84E16E
:10328000898380911F05909120059A838B8353E059
:10329000E52E8E010F5F1F4F8BEA75D86ECF8091A0
:1032A0001F05909120059C01220F331FC901880F33
:1032B000991F880F991F880F991F820F931F42979C
:1032C0008093210590932205F0909D05F0922305AF
:1032D000D0909E05D0922405C0909F05C0922505F0
:1032E00065E084EE1BDE81E089831092FE0110927E
:1032F000FF01109201020E946E0F10E0812F0E94C8
:10330000420F1F5F1530D1F7EE24E3948E010F5F5B
:103310001F4F2C2D4D2D6F2D88EA35D81092C101ED
:1033200010921A051092210561E082EAF7DD87E02C
:103330008093190522CFA8E0B0E0E0EAF9E196C059
:1033400029833A834B835C836D837E838F83988745
:10335000359B08C02091950482E890E0821B91097A
:103360000A9724F42896E2E09DC01BC089818093CF
:1033700021058A81809322058B81809323058C818E
:103380008F70809324058C818295877080932505AA
:103390008E818093260566E085EEC0DD2896E2E00A
:1033A00081C0A8E0B0E0E6EDF9E160C029833A838E
:1033B0004B835C836D837E838F839887359B08C0A6
:1033C0002091950482E890E0821B9109079724F4EC
:1033D0002896E2E067C00FC08981809321058A8129
:1033E000809322058B818093230563E086EE96DD32
:1033F0002896E2E057C0F999FECF92BD81BDF89AB8
:10340000992780B50895262FF999FECF1FBA92BD4E
:1034100081BD20BD0FB6F894FA9AF99A0FBE0196B5
:103420000895EE0FFF1F0590F491E02D0994A29FDF
:10343000B001B39FC001A39F700D811D1124911D88
:10344000B29F700D811D1124911D08952F923F92FE
:103450004F925F926F927F928F929F92AF92BF92A4
:10346000CF92DF92EF92FF920F931F93CF93DF9350
:10347000CDB7DEB7CA1BDB0B0FB6F894DEBF0FBEAD
:10348000CDBF09942A88398848885F846E847D84FA
:103490008C849B84AA84B984C884DF80EE80FD80FC
:1034A0000C811B81AA81B981CE0FD11D0FB6F89472
:1034B000DEBF0FBECDBFED010895F894FFCF540DD0
:1034C000B707360D1D0DA30CAE075508D50DA30D7E
:0434D0004E0F00009B
:00000001FF
